{
  "_format": "hh3-artifact-1",
  "contractName": "CustomGovernor",
  "sourceName": "contracts/governor/CustomGovernor.sol",
  "abi": [
    {
      "inputs": [
        {
          "internalType": "contract IVotes",
          "name": "_token",
          "type": "address"
        },
        {
          "internalType": "contract ISsdlabToken",
          "name": "_ssdlabToken",
          "type": "address"
        }
      ],
      "stateMutability": "nonpayable",
      "type": "constructor"
    },
    {
      "inputs": [],
      "name": "FailedCall",
      "type": "error"
    },
    {
      "inputs": [
        {
          "internalType": "address",
          "name": "voter",
          "type": "address"
        }
      ],
      "name": "GovernorAlreadyCastVote",
      "type": "error"
    },
    {
      "inputs": [
        {
          "internalType": "uint256",
          "name": "proposalId",
          "type": "uint256"
        }
      ],
      "name": "GovernorAlreadyQueuedProposal",
      "type": "error"
    },
    {
      "inputs": [],
      "name": "GovernorDisabledDeposit",
      "type": "error"
    },
    {
      "inputs": [
        {
          "internalType": "address",
          "name": "proposer",
          "type": "address"
        },
        {
          "internalType": "uint256",
          "name": "votes",
          "type": "uint256"
        },
        {
          "internalType": "uint256",
          "name": "threshold",
          "type": "uint256"
        }
      ],
      "name": "GovernorInsufficientProposerVotes",
      "type": "error"
    },
    {
      "inputs": [
        {
          "internalType": "uint256",
          "name": "targets",
          "type": "uint256"
        },
        {
          "internalType": "uint256",
          "name": "calldatas",
          "type": "uint256"
        },
        {
          "internalType": "uint256",
          "name": "values",
          "type": "uint256"
        }
      ],
      "name": "GovernorInvalidProposalLength",
      "type": "error"
    },
    {
      "inputs": [
        {
          "internalType": "address",
          "name": "voter",
          "type": "address"
        }
      ],
      "name": "GovernorInvalidSignature",
      "type": "error"
    },
    {
      "inputs": [],
      "name": "GovernorInvalidVoteParams",
      "type": "error"
    },
    {
      "inputs": [],
      "name": "GovernorInvalidVoteType",
      "type": "error"
    },
    {
      "inputs": [
        {
          "internalType": "uint256",
          "name": "votingPeriod",
          "type": "uint256"
        }
      ],
      "name": "GovernorInvalidVotingPeriod",
      "type": "error"
    },
    {
      "inputs": [
        {
          "internalType": "uint256",
          "name": "proposalId",
          "type": "uint256"
        }
      ],
      "name": "GovernorNonexistentProposal",
      "type": "error"
    },
    {
      "inputs": [
        {
          "internalType": "uint256",
          "name": "proposalId",
          "type": "uint256"
        }
      ],
      "name": "GovernorNotQueuedProposal",
      "type": "error"
    },
    {
      "inputs": [
        {
          "internalType": "address",
          "name": "account",
          "type": "address"
        }
      ],
      "name": "GovernorOnlyExecutor",
      "type": "error"
    },
    {
      "inputs": [],
      "name": "GovernorQueueNotImplemented",
      "type": "error"
    },
    {
      "inputs": [
        {
          "internalType": "address",
          "name": "proposer",
          "type": "address"
        }
      ],
      "name": "GovernorRestrictedProposer",
      "type": "error"
    },
    {
      "inputs": [
        {
          "internalType": "uint256",
          "name": "proposalId",
          "type": "uint256"
        },
        {
          "internalType": "address",
          "name": "account",
          "type": "address"
        }
      ],
      "name": "GovernorUnableToCancel",
      "type": "error"
    },
    {
      "inputs": [
        {
          "internalType": "uint256",
          "name": "proposalId",
          "type": "uint256"
        },
        {
          "internalType": "enum IGovernor.ProposalState",
          "name": "current",
          "type": "uint8"
        },
        {
          "internalType": "bytes32",
          "name": "expectedStates",
          "type": "bytes32"
        }
      ],
      "name": "GovernorUnexpectedProposalState",
      "type": "error"
    },
    {
      "inputs": [
        {
          "internalType": "address",
          "name": "account",
          "type": "address"
        },
        {
          "internalType": "uint256",
          "name": "currentNonce",
          "type": "uint256"
        }
      ],
      "name": "InvalidAccountNonce",
      "type": "error"
    },
    {
      "inputs": [],
      "name": "InvalidShortString",
      "type": "error"
    },
    {
      "inputs": [
        {
          "internalType": "uint8",
          "name": "bits",
          "type": "uint8"
        },
        {
          "internalType": "uint256",
          "name": "value",
          "type": "uint256"
        }
      ],
      "name": "SafeCastOverflowedUintDowncast",
      "type": "error"
    },
    {
      "inputs": [
        {
          "internalType": "string",
          "name": "str",
          "type": "string"
        }
      ],
      "name": "StringTooLong",
      "type": "error"
    },
    {
      "anonymous": false,
      "inputs": [],
      "name": "EIP712DomainChanged",
      "type": "event"
    },
    {
      "anonymous": false,
      "inputs": [
        {
          "indexed": false,
          "internalType": "uint256",
          "name": "proposalId",
          "type": "uint256"
        }
      ],
      "name": "ProposalCanceled",
      "type": "event"
    },
    {
      "anonymous": false,
      "inputs": [
        {
          "indexed": false,
          "internalType": "uint256",
          "name": "proposalId",
          "type": "uint256"
        },
        {
          "indexed": false,
          "internalType": "address",
          "name": "proposer",
          "type": "address"
        },
        {
          "indexed": false,
          "internalType": "address[]",
          "name": "targets",
          "type": "address[]"
        },
        {
          "indexed": false,
          "internalType": "uint256[]",
          "name": "values",
          "type": "uint256[]"
        },
        {
          "indexed": false,
          "internalType": "string[]",
          "name": "signatures",
          "type": "string[]"
        },
        {
          "indexed": false,
          "internalType": "bytes[]",
          "name": "calldatas",
          "type": "bytes[]"
        },
        {
          "indexed": false,
          "internalType": "uint256",
          "name": "voteStart",
          "type": "uint256"
        },
        {
          "indexed": false,
          "internalType": "uint256",
          "name": "voteEnd",
          "type": "uint256"
        },
        {
          "indexed": false,
          "internalType": "string",
          "name": "description",
          "type": "string"
        }
      ],
      "name": "ProposalCreated",
      "type": "event"
    },
    {
      "anonymous": false,
      "inputs": [
        {
          "indexed": false,
          "internalType": "uint256",
          "name": "proposalId",
          "type": "uint256"
        }
      ],
      "name": "ProposalExecuted",
      "type": "event"
    },
    {
      "anonymous": false,
      "inputs": [
        {
          "indexed": true,
          "internalType": "uint256",
          "name": "proposalId",
          "type": "uint256"
        },
        {
          "indexed": false,
          "internalType": "string",
          "name": "materialURI",
          "type": "string"
        }
      ],
      "name": "ProposalMaterialURISet",
      "type": "event"
    },
    {
      "anonymous": false,
      "inputs": [
        {
          "indexed": false,
          "internalType": "uint256",
          "name": "proposalId",
          "type": "uint256"
        },
        {
          "indexed": false,
          "internalType": "uint256",
          "name": "etaSeconds",
          "type": "uint256"
        }
      ],
      "name": "ProposalQueued",
      "type": "event"
    },
    {
      "anonymous": false,
      "inputs": [
        {
          "indexed": true,
          "internalType": "address",
          "name": "voter",
          "type": "address"
        },
        {
          "indexed": false,
          "internalType": "uint256",
          "name": "proposalId",
          "type": "uint256"
        },
        {
          "indexed": false,
          "internalType": "uint8",
          "name": "support",
          "type": "uint8"
        },
        {
          "indexed": false,
          "internalType": "uint256",
          "name": "weight",
          "type": "uint256"
        },
        {
          "indexed": false,
          "internalType": "string",
          "name": "reason",
          "type": "string"
        }
      ],
      "name": "VoteCast",
      "type": "event"
    },
    {
      "anonymous": false,
      "inputs": [
        {
          "indexed": true,
          "internalType": "address",
          "name": "voter",
          "type": "address"
        },
        {
          "indexed": false,
          "internalType": "uint256",
          "name": "proposalId",
          "type": "uint256"
        },
        {
          "indexed": false,
          "internalType": "uint8",
          "name": "support",
          "type": "uint8"
        },
        {
          "indexed": false,
          "internalType": "uint256",
          "name": "weight",
          "type": "uint256"
        },
        {
          "indexed": false,
          "internalType": "string",
          "name": "reason",
          "type": "string"
        },
        {
          "indexed": false,
          "internalType": "bytes",
          "name": "params",
          "type": "bytes"
        }
      ],
      "name": "VoteCastWithParams",
      "type": "event"
    },
    {
      "inputs": [],
      "name": "BALLOT_TYPEHASH",
      "outputs": [
        {
          "internalType": "bytes32",
          "name": "",
          "type": "bytes32"
        }
      ],
      "stateMutability": "view",
      "type": "function"
    },
    {
      "inputs": [],
      "name": "CLOCK_MODE",
      "outputs": [
        {
          "internalType": "string",
          "name": "",
          "type": "string"
        }
      ],
      "stateMutability": "view",
      "type": "function"
    },
    {
      "inputs": [],
      "name": "COUNTING_MODE",
      "outputs": [
        {
          "internalType": "string",
          "name": "",
          "type": "string"
        }
      ],
      "stateMutability": "pure",
      "type": "function"
    },
    {
      "inputs": [],
      "name": "EXTENDED_BALLOT_TYPEHASH",
      "outputs": [
        {
          "internalType": "bytes32",
          "name": "",
          "type": "bytes32"
        }
      ],
      "stateMutability": "view",
      "type": "function"
    },
    {
      "inputs": [
        {
          "internalType": "address[]",
          "name": "targets",
          "type": "address[]"
        },
        {
          "internalType": "uint256[]",
          "name": "values",
          "type": "uint256[]"
        },
        {
          "internalType": "bytes[]",
          "name": "calldatas",
          "type": "bytes[]"
        },
        {
          "internalType": "bytes32",
          "name": "descriptionHash",
          "type": "bytes32"
        }
      ],
      "name": "cancel",
      "outputs": [
        {
          "internalType": "uint256",
          "name": "",
          "type": "uint256"
        }
      ],
      "stateMutability": "nonpayable",
      "type": "function"
    },
    {
      "inputs": [
        {
          "internalType": "uint256",
          "name": "proposalId",
          "type": "uint256"
        },
        {
          "internalType": "uint8",
          "name": "support",
          "type": "uint8"
        }
      ],
      "name": "castVote",
      "outputs": [
        {
          "internalType": "uint256",
          "name": "",
          "type": "uint256"
        }
      ],
      "stateMutability": "nonpayable",
      "type": "function"
    },
    {
      "inputs": [
        {
          "internalType": "uint256",
          "name": "proposalId",
          "type": "uint256"
        },
        {
          "internalType": "uint8",
          "name": "support",
          "type": "uint8"
        },
        {
          "internalType": "address",
          "name": "voter",
          "type": "address"
        },
        {
          "internalType": "bytes",
          "name": "signature",
          "type": "bytes"
        }
      ],
      "name": "castVoteBySig",
      "outputs": [
        {
          "internalType": "uint256",
          "name": "",
          "type": "uint256"
        }
      ],
      "stateMutability": "nonpayable",
      "type": "function"
    },
    {
      "inputs": [
        {
          "internalType": "uint256",
          "name": "proposalId",
          "type": "uint256"
        },
        {
          "internalType": "uint8",
          "name": "support",
          "type": "uint8"
        },
        {
          "internalType": "string",
          "name": "reason",
          "type": "string"
        }
      ],
      "name": "castVoteWithReason",
      "outputs": [
        {
          "internalType": "uint256",
          "name": "",
          "type": "uint256"
        }
      ],
      "stateMutability": "nonpayable",
      "type": "function"
    },
    {
      "inputs": [
        {
          "internalType": "uint256",
          "name": "proposalId",
          "type": "uint256"
        },
        {
          "internalType": "uint8",
          "name": "support",
          "type": "uint8"
        },
        {
          "internalType": "string",
          "name": "reason",
          "type": "string"
        },
        {
          "internalType": "bytes",
          "name": "params",
          "type": "bytes"
        }
      ],
      "name": "castVoteWithReasonAndParams",
      "outputs": [
        {
          "internalType": "uint256",
          "name": "",
          "type": "uint256"
        }
      ],
      "stateMutability": "nonpayable",
      "type": "function"
    },
    {
      "inputs": [
        {
          "internalType": "uint256",
          "name": "proposalId",
          "type": "uint256"
        },
        {
          "internalType": "uint8",
          "name": "support",
          "type": "uint8"
        },
        {
          "internalType": "address",
          "name": "voter",
          "type": "address"
        },
        {
          "internalType": "string",
          "name": "reason",
          "type": "string"
        },
        {
          "internalType": "bytes",
          "name": "params",
          "type": "bytes"
        },
        {
          "internalType": "bytes",
          "name": "signature",
          "type": "bytes"
        }
      ],
      "name": "castVoteWithReasonAndParamsBySig",
      "outputs": [
        {
          "internalType": "uint256",
          "name": "",
          "type": "uint256"
        }
      ],
      "stateMutability": "nonpayable",
      "type": "function"
    },
    {
      "inputs": [],
      "name": "clock",
      "outputs": [
        {
          "internalType": "uint48",
          "name": "",
          "type": "uint48"
        }
      ],
      "stateMutability": "view",
      "type": "function"
    },
    {
      "inputs": [],
      "name": "eip712Domain",
      "outputs": [
        {
          "internalType": "bytes1",
          "name": "fields",
          "type": "bytes1"
        },
        {
          "internalType": "string",
          "name": "name",
          "type": "string"
        },
        {
          "internalType": "string",
          "name": "version",
          "type": "string"
        },
        {
          "internalType": "uint256",
          "name": "chainId",
          "type": "uint256"
        },
        {
          "internalType": "address",
          "name": "verifyingContract",
          "type": "address"
        },
        {
          "internalType": "bytes32",
          "name": "salt",
          "type": "bytes32"
        },
        {
          "internalType": "uint256[]",
          "name": "extensions",
          "type": "uint256[]"
        }
      ],
      "stateMutability": "view",
      "type": "function"
    },
    {
      "inputs": [
        {
          "internalType": "address[]",
          "name": "target",
          "type": "address[]"
        },
        {
          "internalType": "uint256[]",
          "name": "value",
          "type": "uint256[]"
        },
        {
          "internalType": "bytes[]",
          "name": "callData",
          "type": "bytes[]"
        },
        {
          "internalType": "bytes32",
          "name": "descriptionHash",
          "type": "bytes32"
        }
      ],
      "name": "execute",
      "outputs": [
        {
          "internalType": "uint256",
          "name": "",
          "type": "uint256"
        }
      ],
      "stateMutability": "payable",
      "type": "function"
    },
    {
      "inputs": [
        {
          "internalType": "uint256",
          "name": "",
          "type": "uint256"
        },
        {
          "internalType": "uint256",
          "name": "",
          "type": "uint256"
        }
      ],
      "name": "forVoteUsers",
      "outputs": [
        {
          "internalType": "address",
          "name": "",
          "type": "address"
        }
      ],
      "stateMutability": "view",
      "type": "function"
    },
    {
      "inputs": [
        {
          "internalType": "address[]",
          "name": "targets",
          "type": "address[]"
        },
        {
          "internalType": "uint256[]",
          "name": "values",
          "type": "uint256[]"
        },
        {
          "internalType": "bytes[]",
          "name": "calldatas",
          "type": "bytes[]"
        },
        {
          "internalType": "bytes32",
          "name": "descriptionHash",
          "type": "bytes32"
        }
      ],
      "name": "getProposalId",
      "outputs": [
        {
          "internalType": "uint256",
          "name": "",
          "type": "uint256"
        }
      ],
      "stateMutability": "view",
      "type": "function"
    },
    {
      "inputs": [
        {
          "internalType": "uint256",
          "name": "proposalId",
          "type": "uint256"
        }
      ],
      "name": "getProposalURI",
      "outputs": [
        {
          "internalType": "string",
          "name": "",
          "type": "string"
        }
      ],
      "stateMutability": "view",
      "type": "function"
    },
    {
      "inputs": [
        {
          "internalType": "address",
          "name": "account",
          "type": "address"
        },
        {
          "internalType": "uint256",
          "name": "timepoint",
          "type": "uint256"
        }
      ],
      "name": "getVotes",
      "outputs": [
        {
          "internalType": "uint256",
          "name": "",
          "type": "uint256"
        }
      ],
      "stateMutability": "view",
      "type": "function"
    },
    {
      "inputs": [
        {
          "internalType": "address",
          "name": "account",
          "type": "address"
        },
        {
          "internalType": "uint256",
          "name": "timepoint",
          "type": "uint256"
        },
        {
          "internalType": "bytes",
          "name": "params",
          "type": "bytes"
        }
      ],
      "name": "getVotesWithParams",
      "outputs": [
        {
          "internalType": "uint256",
          "name": "",
          "type": "uint256"
        }
      ],
      "stateMutability": "view",
      "type": "function"
    },
    {
      "inputs": [
        {
          "internalType": "uint256",
          "name": "proposalId",
          "type": "uint256"
        },
        {
          "internalType": "address",
          "name": "account",
          "type": "address"
        }
      ],
      "name": "hasVoted",
      "outputs": [
        {
          "internalType": "bool",
          "name": "",
          "type": "bool"
        }
      ],
      "stateMutability": "view",
      "type": "function"
    },
    {
      "inputs": [
        {
          "internalType": "address[]",
          "name": "targets",
          "type": "address[]"
        },
        {
          "internalType": "uint256[]",
          "name": "values",
          "type": "uint256[]"
        },
        {
          "internalType": "bytes[]",
          "name": "calldatas",
          "type": "bytes[]"
        },
        {
          "internalType": "bytes32",
          "name": "descriptionHash",
          "type": "bytes32"
        }
      ],
      "name": "hashProposal",
      "outputs": [
        {
          "internalType": "uint256",
          "name": "",
          "type": "uint256"
        }
      ],
      "stateMutability": "pure",
      "type": "function"
    },
    {
      "inputs": [],
      "name": "name",
      "outputs": [
        {
          "internalType": "string",
          "name": "",
          "type": "string"
        }
      ],
      "stateMutability": "view",
      "type": "function"
    },
    {
      "inputs": [
        {
          "internalType": "address",
          "name": "owner",
          "type": "address"
        }
      ],
      "name": "nonces",
      "outputs": [
        {
          "internalType": "uint256",
          "name": "",
          "type": "uint256"
        }
      ],
      "stateMutability": "view",
      "type": "function"
    },
    {
      "inputs": [
        {
          "internalType": "address",
          "name": "",
          "type": "address"
        },
        {
          "internalType": "address",
          "name": "",
          "type": "address"
        },
        {
          "internalType": "uint256[]",
          "name": "",
          "type": "uint256[]"
        },
        {
          "internalType": "uint256[]",
          "name": "",
          "type": "uint256[]"
        },
        {
          "internalType": "bytes",
          "name": "",
          "type": "bytes"
        }
      ],
      "name": "onERC1155BatchReceived",
      "outputs": [
        {
          "internalType": "bytes4",
          "name": "",
          "type": "bytes4"
        }
      ],
      "stateMutability": "nonpayable",
      "type": "function"
    },
    {
      "inputs": [
        {
          "internalType": "address",
          "name": "",
          "type": "address"
        },
        {
          "internalType": "address",
          "name": "",
          "type": "address"
        },
        {
          "internalType": "uint256",
          "name": "",
          "type": "uint256"
        },
        {
          "internalType": "uint256",
          "name": "",
          "type": "uint256"
        },
        {
          "internalType": "bytes",
          "name": "",
          "type": "bytes"
        }
      ],
      "name": "onERC1155Received",
      "outputs": [
        {
          "internalType": "bytes4",
          "name": "",
          "type": "bytes4"
        }
      ],
      "stateMutability": "nonpayable",
      "type": "function"
    },
    {
      "inputs": [
        {
          "internalType": "address",
          "name": "",
          "type": "address"
        },
        {
          "internalType": "address",
          "name": "",
          "type": "address"
        },
        {
          "internalType": "uint256",
          "name": "",
          "type": "uint256"
        },
        {
          "internalType": "bytes",
          "name": "",
          "type": "bytes"
        }
      ],
      "name": "onERC721Received",
      "outputs": [
        {
          "internalType": "bytes4",
          "name": "",
          "type": "bytes4"
        }
      ],
      "stateMutability": "nonpayable",
      "type": "function"
    },
    {
      "inputs": [
        {
          "internalType": "uint256",
          "name": "proposalId",
          "type": "uint256"
        }
      ],
      "name": "proposalDeadline",
      "outputs": [
        {
          "internalType": "uint256",
          "name": "",
          "type": "uint256"
        }
      ],
      "stateMutability": "view",
      "type": "function"
    },
    {
      "inputs": [
        {
          "internalType": "uint256",
          "name": "proposalId",
          "type": "uint256"
        }
      ],
      "name": "proposalEta",
      "outputs": [
        {
          "internalType": "uint256",
          "name": "",
          "type": "uint256"
        }
      ],
      "stateMutability": "view",
      "type": "function"
    },
    {
      "inputs": [
        {
          "internalType": "uint256",
          "name": "",
          "type": "uint256"
        }
      ],
      "name": "proposalNeedsQueuing",
      "outputs": [
        {
          "internalType": "bool",
          "name": "",
          "type": "bool"
        }
      ],
      "stateMutability": "view",
      "type": "function"
    },
    {
      "inputs": [
        {
          "internalType": "uint256",
          "name": "proposalId",
          "type": "uint256"
        }
      ],
      "name": "proposalProposer",
      "outputs": [
        {
          "internalType": "address",
          "name": "",
          "type": "address"
        }
      ],
      "stateMutability": "view",
      "type": "function"
    },
    {
      "inputs": [
        {
          "internalType": "uint256",
          "name": "proposalId",
          "type": "uint256"
        }
      ],
      "name": "proposalSnapshot",
      "outputs": [
        {
          "internalType": "uint256",
          "name": "",
          "type": "uint256"
        }
      ],
      "stateMutability": "view",
      "type": "function"
    },
    {
      "inputs": [],
      "name": "proposalThreshold",
      "outputs": [
        {
          "internalType": "uint256",
          "name": "",
          "type": "uint256"
        }
      ],
      "stateMutability": "view",
      "type": "function"
    },
    {
      "inputs": [
        {
          "internalType": "uint256",
          "name": "",
          "type": "uint256"
        }
      ],
      "name": "proposalUris",
      "outputs": [
        {
          "internalType": "string",
          "name": "",
          "type": "string"
        }
      ],
      "stateMutability": "view",
      "type": "function"
    },
    {
      "inputs": [
        {
          "internalType": "uint256",
          "name": "proposalId",
          "type": "uint256"
        }
      ],
      "name": "proposalVotes",
      "outputs": [
        {
          "internalType": "uint256",
          "name": "againstVotes",
          "type": "uint256"
        },
        {
          "internalType": "uint256",
          "name": "forVotes",
          "type": "uint256"
        },
        {
          "internalType": "uint256",
          "name": "abstainVotes",
          "type": "uint256"
        }
      ],
      "stateMutability": "view",
      "type": "function"
    },
    {
      "inputs": [
        {
          "internalType": "address[]",
          "name": "targets",
          "type": "address[]"
        },
        {
          "internalType": "uint256[]",
          "name": "values",
          "type": "uint256[]"
        },
        {
          "internalType": "bytes[]",
          "name": "calldatas",
          "type": "bytes[]"
        },
        {
          "internalType": "string",
          "name": "description",
          "type": "string"
        }
      ],
      "name": "propose",
      "outputs": [
        {
          "internalType": "uint256",
          "name": "",
          "type": "uint256"
        }
      ],
      "stateMutability": "nonpayable",
      "type": "function"
    },
    {
      "inputs": [
        {
          "internalType": "address[]",
          "name": "target",
          "type": "address[]"
        },
        {
          "internalType": "uint256[]",
          "name": "value",
          "type": "uint256[]"
        },
        {
          "internalType": "bytes[]",
          "name": "callData",
          "type": "bytes[]"
        },
        {
          "internalType": "string",
          "name": "description",
          "type": "string"
        },
        {
          "internalType": "string",
          "name": "proposalURI",
          "type": "string"
        }
      ],
      "name": "proposeAction",
      "outputs": [
        {
          "internalType": "uint256",
          "name": "",
          "type": "uint256"
        }
      ],
      "stateMutability": "nonpayable",
      "type": "function"
    },
    {
      "inputs": [
        {
          "internalType": "address[]",
          "name": "targets",
          "type": "address[]"
        },
        {
          "internalType": "uint256[]",
          "name": "values",
          "type": "uint256[]"
        },
        {
          "internalType": "bytes[]",
          "name": "calldatas",
          "type": "bytes[]"
        },
        {
          "internalType": "bytes32",
          "name": "descriptionHash",
          "type": "bytes32"
        }
      ],
      "name": "queue",
      "outputs": [
        {
          "internalType": "uint256",
          "name": "",
          "type": "uint256"
        }
      ],
      "stateMutability": "nonpayable",
      "type": "function"
    },
    {
      "inputs": [
        {
          "internalType": "uint256",
          "name": "",
          "type": "uint256"
        }
      ],
      "name": "quorum",
      "outputs": [
        {
          "internalType": "uint256",
          "name": "",
          "type": "uint256"
        }
      ],
      "stateMutability": "pure",
      "type": "function"
    },
    {
      "inputs": [
        {
          "internalType": "address",
          "name": "target",
          "type": "address"
        },
        {
          "internalType": "uint256",
          "name": "value",
          "type": "uint256"
        },
        {
          "internalType": "bytes",
          "name": "data",
          "type": "bytes"
        }
      ],
      "name": "relay",
      "outputs": [],
      "stateMutability": "payable",
      "type": "function"
    },
    {
      "inputs": [],
      "name": "ssdlabToken",
      "outputs": [
        {
          "internalType": "contract ISsdlabToken",
          "name": "",
          "type": "address"
        }
      ],
      "stateMutability": "view",
      "type": "function"
    },
    {
      "inputs": [
        {
          "internalType": "uint256",
          "name": "proposalId",
          "type": "uint256"
        }
      ],
      "name": "state",
      "outputs": [
        {
          "internalType": "enum IGovernor.ProposalState",
          "name": "",
          "type": "uint8"
        }
      ],
      "stateMutability": "view",
      "type": "function"
    },
    {
      "inputs": [
        {
          "internalType": "bytes4",
          "name": "interfaceId",
          "type": "bytes4"
        }
      ],
      "name": "supportsInterface",
      "outputs": [
        {
          "internalType": "bool",
          "name": "",
          "type": "bool"
        }
      ],
      "stateMutability": "view",
      "type": "function"
    },
    {
      "inputs": [],
      "name": "token",
      "outputs": [
        {
          "internalType": "contract IERC5805",
          "name": "",
          "type": "address"
        }
      ],
      "stateMutability": "view",
      "type": "function"
    },
    {
      "inputs": [],
      "name": "version",
      "outputs": [
        {
          "internalType": "string",
          "name": "",
          "type": "string"
        }
      ],
      "stateMutability": "view",
      "type": "function"
    },
    {
      "inputs": [],
      "name": "votingDelay",
      "outputs": [
        {
          "internalType": "uint256",
          "name": "",
          "type": "uint256"
        }
      ],
      "stateMutability": "pure",
      "type": "function"
    },
    {
      "inputs": [],
      "name": "votingPeriod",
      "outputs": [
        {
          "internalType": "uint256",
          "name": "",
          "type": "uint256"
        }
      ],
      "stateMutability": "pure",
      "type": "function"
    },
    {
      "stateMutability": "payable",
      "type": "receive"
    }
  ],
  "bytecode": "0x610180604052348015610010575f5ffd5b50604051613b52380380613b5283398101604081905261002f916101e9565b60408051808201909152600a81526926bca3b7bb32b93737b960b11b60208201528290806100716040805180820190915260018152603160f81b602082015290565b61007b825f61015a565b6101205261008a81600161015a565b61014052815160208084019190912060e052815190820120610100524660a05261011660e05161010051604080517f8b73c3c69bb8fe3d512ecc4cf759cc79239f7b179b0ffacaa9a75d522b39400f60208201529081019290925260608201524660808201523060a08201525f9060c00160405160208183030381529060405280519060200120905090565b60805250503060c052600361012b82826102b9565b50506001600160a01b0390811661016052600a80546001600160a01b03191692909116919091179055506103cb565b5f6020835110156101755761016e8361018c565b9050610186565b8161018084826102b9565b5060ff90505b92915050565b5f5f829050601f815111156101bf578260405163305a27a960e01b81526004016101b69190610373565b60405180910390fd5b80516101ca826103a8565b179392505050565b6001600160a01b03811681146101e6575f5ffd5b50565b5f5f604083850312156101fa575f5ffd5b8251610205816101d2565b6020840151909250610216816101d2565b809150509250929050565b634e487b7160e01b5f52604160045260245ffd5b600181811c9082168061024957607f821691505b60208210810361026757634e487b7160e01b5f52602260045260245ffd5b50919050565b601f8211156102b457805f5260205f20601f840160051c810160208510156102925750805b601f840160051c820191505b818110156102b1575f815560010161029e565b50505b505050565b81516001600160401b038111156102d2576102d2610221565b6102e6816102e08454610235565b8461026d565b6020601f821160018114610318575f83156103015750848201515b5f19600385901b1c1916600184901b1784556102b1565b5f84815260208120601f198516915b828110156103475787850151825560209485019460019092019101610327565b508482101561036457868401515f19600387901b60f8161c191681555b50505050600190811b01905550565b602081525f82518060208401528060208501604085015e5f604082850101526040601f19601f83011684010191505092915050565b80516020808301519190811015610267575f1960209190910360031b1b16919050565b60805160a05160c05160e0516101005161012051610140516101605161371761043b5f395f818161092701528181610d02015281816110d70152611b9c01525f611ae001525f611ab401525f61228801525f61226001525f6121bb01525f6121e501525f61220f01526137175ff3fe60806040526004361061026d575f3560e01c80637d5e81e21161014a578063bc197c81116100be578063deaaa7cc11610078578063deaaa7cc14610856578063e465fd9614610889578063eb9019d4146108a8578063f23a6e61146108c7578063f8ce560a146108f2578063fc0c546a14610919575f5ffd5b8063bc197c8114610776578063c01f9e37146107a1578063c28bc2fa146107c0578063c53c396d146107d3578063c59057e4146107f2578063dd4e2ba514610811575f5ffd5b806391ddadf41161010f57806391ddadf4146106a65780639a802a6d146106d1578063a8f8a668146106f0578063a9a952941461070f578063ab58fb8e1461072e578063b58131b014610764575f5ffd5b80637d5e81e2146105ee5780637e43894d1461060d5780637ecebe001461062c57806384b0196e146106605780638ff262e314610687575f5ffd5b80633e4f49e6116101e1578063544ffc9c116101a6578063544ffc9c146104f657806354fd4d501461054957806356781388146105725780635b8d0e0d146105915780635f398a14146105b05780637b3c71d3146105cf575f5ffd5b80633e4f49e614610430578063438596321461045c57806344613618146104a4578063452115d6146104c35780634bf5d7e9146104e2575f5ffd5b8063150b7a0211610232578063150b7a0214610356578063160cbed7146103995780632656227d146103b85780632d63f693146103cb5780632fe3e261146103ea5780633932abb11461041d575f5ffd5b806301ffc9a71461027957806302a251a3146102ad57806306fdde03146102ca57806307398774146102eb578063143489d014610322575f5ffd5b36610275575b005b5f5ffd5b348015610284575f5ffd5b5061029861029336600461265c565b61094b565b60405190151581526020015b60405180910390f35b3480156102b8575f5ffd5b5060055b6040519081526020016102a4565b3480156102d5575f5ffd5b506102de6109b7565b6040516102a491906126b1565b3480156102f6575f5ffd5b50600a5461030a906001600160a01b031681565b6040516001600160a01b0390911681526020016102a4565b34801561032d575f5ffd5b5061030a61033c3660046126c3565b5f908152600460205260409020546001600160a01b031690565b348015610361575f5ffd5b506103806103703660046127ae565b630a85bd0160e11b949350505050565b6040516001600160e01b031990911681526020016102a4565b3480156103a4575f5ffd5b506102bc6103b336600461296e565b610a47565b6102bc6103c636600461296e565b610a8f565b3480156103d6575f5ffd5b506102bc6103e53660046126c3565b610b13565b3480156103f5575f5ffd5b506102bc7f3e83946653575f9a39005e1545185629e92736b7528ab20ca3816f315424a81181565b348015610428575f5ffd5b5060026102bc565b34801561043b575f5ffd5b5061044f61044a3660046126c3565b610b33565b6040516102a49190612a35565b348015610467575f5ffd5b50610298610476366004612a43565b5f8281526007602090815260408083206001600160a01b038516845260030190915290205460ff1692915050565b3480156104af575f5ffd5b5061030a6104be366004612a6d565b610c69565b3480156104ce575f5ffd5b506102bc6104dd36600461296e565b610c9d565b3480156104ed575f5ffd5b506102de610cfe565b348015610501575f5ffd5b5061052e6105103660046126c3565b5f908152600760205260409020805460018201546002909201549092565b604080519384526020840192909252908201526060016102a4565b348015610554575f5ffd5b506040805180820190915260018152603160f81b60208201526102de565b34801561057d575f5ffd5b506102bc61058c366004612a9d565b610dbe565b34801561059c575f5ffd5b506102bc6105ab366004612b02565b610e0c565b3480156105bb575f5ffd5b506102bc6105ca366004612bbc565b610ec9565b3480156105da575f5ffd5b506102bc6105e9366004612c3d565b610f11565b3480156105f9575f5ffd5b506102bc610608366004612c92565b610f61565b348015610618575f5ffd5b506102de6106273660046126c3565b610fa3565b348015610637575f5ffd5b506102bc610646366004612d2f565b6001600160a01b03165f9081526002602052604090205490565b34801561066b575f5ffd5b5061067461103a565b6040516102a49796959493929190612d82565b348015610692575f5ffd5b506102bc6106a1366004612df1565b61107c565b3480156106b1575f5ffd5b506106ba6110d4565b60405165ffffffffffff90911681526020016102a4565b3480156106dc575f5ffd5b506102bc6106eb366004612e3c565b611160565b3480156106fb575f5ffd5b506102bc61070a36600461296e565b611174565b34801561071a575f5ffd5b506102986107293660046126c3565b505f90565b348015610739575f5ffd5b506102bc6107483660046126c3565b5f9081526004602052604090206001015465ffffffffffff1690565b34801561076f575f5ffd5b505f6102bc565b348015610781575f5ffd5b50610380610790366004612e8e565b63bc197c8160e01b95945050505050565b3480156107ac575f5ffd5b506102bc6107bb3660046126c3565b611181565b6102736107ce366004612f21565b6111c3565b3480156107de575f5ffd5b506102bc6107ed366004612f5e565b61123f565b3480156107fd575f5ffd5b506102bc61080c36600461296e565b6112aa565b34801561081c575f5ffd5b506040805180820190915260208082527f737570706f72743d627261766f2671756f72756d3d666f722c6162737461696e908201526102de565b348015610861575f5ffd5b506102bc7ff2aad550cf55f045cb27e9c559f9889fdfb6e6cdaa032301d6ea397784ae51d781565b348015610894575f5ffd5b506102de6108a33660046126c3565b6112e3565b3480156108b3575f5ffd5b506102bc6108c2366004613008565b611382565b3480156108d2575f5ffd5b506103806108e1366004613030565b63f23a6e6160e01b95945050505050565b3480156108fd575f5ffd5b506102bc61090c3660046126c3565b50670de0b6b3a764000090565b348015610924575f5ffd5b507f000000000000000000000000000000000000000000000000000000000000000061030a565b5f6001600160e01b031982166366defe7760e11b148061097b57506001600160e01b031982166332a2ad4360e11b145b8061099657506001600160e01b03198216630271189760e51b145b806109b157506301ffc9a760e01b6001600160e01b03198316145b92915050565b6060600380546109c690613083565b80601f01602080910402602001604051908101604052809291908181526020018280546109f290613083565b8015610a3d5780601f10610a1457610100808354040283529160200191610a3d565b820191905f5260205f20905b815481529060010190602001808311610a2057829003601f168201915b5050505050905090565b5f5f610a5586868686611174565b9050610a6a81610a6560046113a1565b6113c3565b505f604051634844252360e11b815260040160405180910390fd5b5095945050505050565b5f5f610a9d86868686611400565b600a545f828152600960205260409081902090516358bf2c7760e01b81529293506001600160a01b03909116916358bf2c7791610adc916004016130bb565b5f604051808303815f87803b158015610af3575f5ffd5b505af1158015610b05573d5f5f3e3d5ffd5b509298975050505050505050565b5f90815260046020526040902054600160a01b900465ffffffffffff1690565b5f818152600460205260408120805460ff600160f01b8204811691600160f81b9004168115610b6757506007949350505050565b8015610b7857506002949350505050565b5f610b8286610b13565b9050805f03610bac57604051636ad0607560e01b8152600481018790526024015b60405180910390fd5b5f610bb56110d4565b65ffffffffffff169050808210610bd257505f9695505050505050565b5f610bdc88611181565b9050818110610bf357506001979650505050505050565b610bfc88611528565b1580610c1b57505f888152600760205260409020805460019091015411155b15610c2e57506003979650505050505050565b5f8881526004602052604090206001015465ffffffffffff165f03610c5b57506004979650505050505050565b506005979650505050505050565b6009602052815f5260405f208181548110610c82575f80fd5b5f918252602090912001546001600160a01b03169150829050565b5f5f610cab86868686611174565b905033610cb8828261155e565b610ce757604051638fe5d8a960e01b8152600481018390526001600160a01b0382166024820152604401610ba3565b610cf3878787876115a3565b979650505050505050565b60607f00000000000000000000000000000000000000000000000000000000000000006001600160a01b0316634bf5d7e96040518163ffffffff1660e01b81526004015f60405180830381865afa925050508015610d7d57506040513d5f823e601f3d908101601f19168201604052610d7a919081019061312f565b60015b610db9575060408051808201909152601d81527f6d6f64653d626c6f636b6e756d6265722666726f6d3d64656661756c74000000602082015290565b919050565b5f5f610dca8484611652565b90508260ff16600103610e05575f8481526009602090815260408220805460018101825590835291200180546001600160a01b031916331790555b9392505050565b5f610e5288888888888080601f0160208091040260200160405190810160405280939291908181526020018383808284375f920191909152508a92508991506116719050565b610e7a576040516394ab6c0760e01b81526001600160a01b0387166004820152602401610ba3565b610ebd88878988888080601f0160208091040260200160405190810160405280939291908181526020018383808284375f920191909152508a925061173e915050565b98975050505050505050565b5f80339050610cf387828888888080601f0160208091040260200160405190810160405280939291908181526020018383808284375f920191909152508a925061173e915050565b5f80339050610f5786828787878080601f0160208091040260200160405190810160405280939291908181526020018383808284375f9201919091525061180992505050565b9695505050505050565b5f33610f6d818461182a565b610f955760405163d9b3955760e01b81526001600160a01b0382166004820152602401610ba3565b5f610cf387878787866118ae565b60086020525f908152604090208054610fbb90613083565b80601f0160208091040260200160405190810160405280929190818152602001828054610fe790613083565b80156110325780601f1061100957610100808354040283529160200191611032565b820191905f5260205f20905b81548152906001019060200180831161101557829003601f168201915b505050505081565b5f6060805f5f5f606061104b611aad565b611053611ad9565b604080515f80825260208201909252600f60f81b9b939a50919850469750309650945092509050565b5f61108985858585611b06565b6110b1576040516394ab6c0760e01b81526001600160a01b0384166004820152602401610ba3565b6110cb85848660405180602001604052805f815250611809565b95945050505050565b5f7f00000000000000000000000000000000000000000000000000000000000000006001600160a01b03166391ddadf46040518163ffffffff1660e01b8152600401602060405180830381865afa92505050801561114f575060408051601f3d908101601f1916820190925261114c918101906131b7565b60015b610db95761115b611b8f565b905090565b5f61116c848484611b99565b949350505050565b5f6110cb858585856112aa565b5f818152600460205260408120546111b590600160d01b810463ffffffff1690600160a01b900465ffffffffffff166131dc565b65ffffffffffff1692915050565b6111cb611c2c565b5f5f856001600160a01b03168585856040516111e89291906131fa565b5f6040518083038185875af1925050503d805f8114611222576040519150601f19603f3d011682016040523d82523d5f602084013e611227565b606091505b50915091506112368282611c63565b50505050505050565b5f5f61124d87878787610f61565b5f8181526008602052604090209091506112678482613255565b50807f4dd7e20f024c1e0883fdf8d535c7b259a686d08099f6ffa9459327124d21788b8460405161129891906126b1565b60405180910390a29695505050505050565b5f848484846040516020016112c294939291906133a2565b60408051601f19818403018152919052805160209091012095945050505050565b5f8181526008602052604090208054606091906112ff90613083565b80601f016020809104026020016040519081016040528092919081815260200182805461132b90613083565b80156113765780601f1061134d57610100808354040283529160200191611376565b820191905f5260205f20905b81548152906001019060200180831161135957829003601f168201915b50505050509050919050565b5f610e05838361139c60408051602081019091525f815290565b611b99565b5f8160078111156113b4576113b4612a01565b600160ff919091161b92915050565b5f5f6113ce84610b33565b90505f836113db836113a1565b1603610e05578381846040516331b75e4d60e01b8152600401610ba3939291906133ec565b5f5f61140e86868686611174565b905061142e8161141e60056113a1565b61142860046113a1565b176113c3565b505f818152600460205260409020805460ff60f01b1916600160f01b179055306114553090565b6001600160a01b0316146114de575f5b86518110156114dc57306001600160a01b031687828151811061148a5761148a61340e565b60200260200101516001600160a01b0316036114d4576114d48582815181106114b5576114b561340e565b6020026020010151805190602001206005611c7f90919063ffffffff16565b600101611465565b505b6114eb8187878787611ce0565b6040518181527f712ae1383f79ac853f8d882153778e0260ef8f03b504e2866e0593e04d2b291f906020015b60405180910390a195945050505050565b5f818152600760205260408120600281015460018201546115499190613422565b61155561090c85610b13565b11159392505050565b5f8061156984610b33565b600781111561157a5761157a612a01565b148015610e055750505f91825260046020526040909120546001600160a01b0391821691161490565b5f5f6115b186868686611174565b90506115ff816115c160076113a1565b6115cb60066113a1565b6115d560026113a1565b60016115e2600782613435565b6115ed906002613529565b6115f79190613537565b1818186113c3565b505f818152600460205260409081902080546001600160f81b0316600160f81b179055517f789cf55be980739dad1d0699b93b58e806b51c9d96619bfa8fe0a28abaa7b30c906115179083815260200190565b5f8033905061116c84828560405180602001604052805f815250611809565b5f610cf3856117387f3e83946653575f9a39005e1545185629e92736b7528ab20ca3816f315424a8118a8a8a6116c38c6001600160a01b03165f90815260026020526040902080546001810190915590565b8b516020808e01919091208c518d83012060405161171d98979695949301968752602087019590955260ff9390931660408601526001600160a01b03919091166060850152608084015260a083015260c082015260e00190565b60405160208183030381529060405280519060200120611db5565b84611de1565b5f61174d86610a6560016113a1565b505f6117628661175c89610b13565b85611b99565b90505f6117728888888588611e51565b905083515f036117c857866001600160a01b03167fb8e138887d0aa13bab447e82de9d5c1777041ecd21ca36ba824ff1e6c07ddda4898884896040516117bb949392919061354a565b60405180910390a2610cf3565b866001600160a01b03167fe2babfbac5889a709b63bb7f598b324e08bc5a4fb9ec647fb3cbc9ec07eb871289888489896040516117bb959493929190613571565b5f6110cb8585858561182560408051602081019091525f815290565b61173e565b80515f9060348110156118415760019150506109b1565b60131981840101516001600160b01b03198116692370726f706f7365723d60b01b14611872576001925050506109b1565b5f5f61188286602a860386611f4d565b91509150811580610cf35750866001600160a01b0316816001600160a01b031614979650505050505050565b5f6118c28686868680519060200120611174565b9050845186511415806118d757508351865114155b806118e157508551155b1561191657855184518651604051630447b05d60e41b8152600481019390935260248301919091526044820152606401610ba3565b5f81815260046020526040902054600160a01b900465ffffffffffff161561195f578061194282610b33565b6040516331b75e4d60e01b8152610ba39291905f906004016133ec565b5f600261196a6110d4565b65ffffffffffff1661197c9190613422565b90505f60055f84815260046020526040902080546001600160a01b0319166001600160a01b0387161781559091506119b383611ffa565b815465ffffffffffff91909116600160a01b0265ffffffffffff60a01b199091161781556119e082612030565b815463ffffffff91909116600160d01b0263ffffffff60d01b1990911617815588517f7d84a6263ae0d98d3329bd7b46bb4e8d6f98cd35a7adb45c274c8b7fd5ebd5e090859087908c908c906001600160401b03811115611a4357611a436126f0565b604051908082528060200260200182016040528015611a7657816020015b6060815260200190600190039081611a615790505b508c89611a838a82613422565b8e604051611a99999897969594939291906135aa565b60405180910390a150505095945050505050565b606061115b7f00000000000000000000000000000000000000000000000000000000000000005f612060565b606061115b7f00000000000000000000000000000000000000000000000000000000000000006001612060565b5f6110cb836117387ff2aad550cf55f045cb27e9c559f9889fdfb6e6cdaa032301d6ea397784ae51d7888888611b588a6001600160a01b03165f90815260026020526040902080546001810190915590565b60408051602081019690965285019390935260ff90911660608401526001600160a01b0316608083015260a082015260c00161171d565b5f61115b43611ffa565b5f7f0000000000000000000000000000000000000000000000000000000000000000604051630748d63560e31b81526001600160a01b038681166004830152602482018690529190911690633a46b1a890604401602060405180830381865afa158015611c08573d5f5f3e3d5ffd5b505050506040513d601f19601f8201168201806040525081019061116c9190613685565b303314611c4e576040516347096e4760e01b8152336004820152602401610ba3565b565b80611c5b6005612109565b03611c505750565b606082611c7857611c7382612176565b6109b1565b50806109b1565b81546001600160801b03600160801b820481169181166001830190911603611cab57611cab604161219e565b6001600160801b038082165f90815260018086016020526040909120939093558354919092018216600160801b029116179055565b5f5b8451811015611dad575f5f868381518110611cff57611cff61340e565b60200260200101516001600160a01b0316868481518110611d2257611d2261340e565b6020026020010151868581518110611d3c57611d3c61340e565b6020026020010151604051611d51919061369c565b5f6040518083038185875af1925050503d805f8114611d8b576040519150601f19603f3d011682016040523d82523d5f602084013e611d90565b606091505b5091509150611d9f8282611c63565b505050806001019050611ce2565b505050505050565b5f6109b1611dc16121af565b8360405161190160f01b8152600281019290925260228201526042902090565b5f836001600160a01b03163b5f03611e3f575f5f611dff85856122d8565b5090925090505f816003811115611e1857611e18612a01565b148015611e365750856001600160a01b0316826001600160a01b0316145b92505050610e05565b611e4a848484612321565b9050610e05565b5f8581526007602090815260408083206001600160a01b03881684526003810190925282205460ff1615611ea3576040516371c6af4960e01b81526001600160a01b0387166004820152602401610ba3565b6001600160a01b0386165f9081526003820160205260409020805460ff1916600117905560ff8516611eec5783815f015f828254611ee19190613422565b90915550611f429050565b5f1960ff861601611f0a5783816001015f828254611ee19190613422565b60011960ff861601611f295783816002015f828254611ee19190613422565b6040516303599be160e11b815260040160405180910390fd5b509195945050505050565b5f5f8451831180611f5d57508284115b15611f6c57505f905080611ff2565b5f611f78856001613422565b84118015611fa0575061060f60f31b611f948787016020015190565b6001600160f01b031916145b90505f611fb082151560026136b2565b611fbb906028613422565b905080611fc88787613537565b03611fe9575f5f611fda8989896123f7565b9096509450611ff29350505050565b5f5f9350935050505b935093915050565b5f65ffffffffffff82111561202c576040516306dfcc6560e41b81526030600482015260248101839052604401610ba3565b5090565b5f63ffffffff82111561202c576040516306dfcc6560e41b81526020600482015260248101839052604401610ba3565b606060ff831461207a57612073836124b8565b90506109b1565b81805461208690613083565b80601f01602080910402602001604051908101604052809291908181526020018280546120b290613083565b80156120fd5780601f106120d4576101008083540402835291602001916120fd565b820191905f5260205f20905b8154815290600101906020018083116120e057829003601f168201915b505050505090506109b1565b80545f906001600160801b0380821691600160801b900416810361213157612131603161219e565b6001600160801b038181165f908152600185810160205260408220805492905585546fffffffffffffffffffffffffffffffff19169301909116919091179092555090565b80511561218557805160208201fd5b60405163d6bda27560e01b815260040160405180910390fd5b634e487b715f52806020526024601cfd5b5f306001600160a01b037f00000000000000000000000000000000000000000000000000000000000000001614801561220757507f000000000000000000000000000000000000000000000000000000000000000046145b1561223157507f000000000000000000000000000000000000000000000000000000000000000090565b61115b604080517f8b73c3c69bb8fe3d512ecc4cf759cc79239f7b179b0ffacaa9a75d522b39400f60208201527f0000000000000000000000000000000000000000000000000000000000000000918101919091527f000000000000000000000000000000000000000000000000000000000000000060608201524660808201523060a08201525f9060c00160405160208183030381529060405280519060200120905090565b5f5f5f835160410361230f576020840151604085015160608601515f1a612301888285856124f5565b95509550955050505061231a565b505081515f91506002905b9250925092565b5f5f5f856001600160a01b031685856040516024016123419291906136c9565b60408051601f198184030181529181526020820180516001600160e01b0316630b135d3f60e11b17905251612376919061369c565b5f60405180830381855afa9150503d805f81146123ae576040519150601f19603f3d011682016040523d82523d5f602084013e6123b3565b606091505b50915091508180156123c757506020815110155b8015610f5757508051630b135d3f60e11b906123ec9083016020908101908401613685565b149695505050505050565b5f808481612406866001613422565b8511801561242e575061060f60f31b6124228388016020015190565b6001600160f01b031916145b90505f61243e82151560026136b2565b90505f8061244c838a613422565b90505b878110156124a7575f61246d6124688784016020015190565b6125bd565b9050600f8160ff16111561248c575f5f97509750505050505050611ff2565b6124976010846136b2565b60ff90911601915060010161244f565b506001999098509650505050505050565b60605f6124c483612635565b6040805160208082528183019092529192505f91906020820181803683375050509182525060208101929092525090565b5f80807f7fffffffffffffffffffffffffffffff5d576e7357a4501ddfe92f46681b20a084111561252e57505f915060039050826125b3565b604080515f808252602082018084528a905260ff891692820192909252606081018790526080810186905260019060a0016020604051602081039080840390855afa15801561257f573d5f5f3e3d5ffd5b5050604051601f1901519150506001600160a01b0381166125aa57505f9250600191508290506125b3565b92505f91508190505b9450945094915050565b5f60f882901c602f811180156125d65750603a8160ff16105b156125e457602f19016109b1565b60608160ff161180156125fa575060678160ff16105b1561260857605619016109b1565b60408160ff1611801561261e575060478160ff16105b1561262c57603619016109b1565b5060ff92915050565b5f60ff8216601f8111156109b157604051632cd44ac360e21b815260040160405180910390fd5b5f6020828403121561266c575f5ffd5b81356001600160e01b031981168114610e05575f5ffd5b5f81518084528060208401602086015e5f602082860101526020601f19601f83011685010191505092915050565b602081525f610e056020830184612683565b5f602082840312156126d3575f5ffd5b5035919050565b80356001600160a01b0381168114610db9575f5ffd5b634e487b7160e01b5f52604160045260245ffd5b604051601f8201601f191681016001600160401b038111828210171561272c5761272c6126f0565b604052919050565b5f6001600160401b0382111561274c5761274c6126f0565b50601f01601f191660200190565b5f82601f830112612769575f5ffd5b8135602083015f61278161277c84612734565b612704565b9050828152858383011115612794575f5ffd5b828260208301375f92810160200192909252509392505050565b5f5f5f5f608085870312156127c1575f5ffd5b6127ca856126da565b93506127d8602086016126da565b92506040850135915060608501356001600160401b038111156127f9575f5ffd5b6128058782880161275a565b91505092959194509250565b5f6001600160401b03821115612829576128296126f0565b5060051b60200190565b5f82601f830112612842575f5ffd5b813561285061277c82612811565b8082825260208201915060208360051b860101925085831115612871575f5ffd5b602085015b83811015610a8557612887816126da565b835260209283019201612876565b5f82601f8301126128a4575f5ffd5b81356128b261277c82612811565b8082825260208201915060208360051b8601019250858311156128d3575f5ffd5b602085015b83811015610a855780358352602092830192016128d8565b5f82601f8301126128ff575f5ffd5b813561290d61277c82612811565b8082825260208201915060208360051b86010192508583111561292e575f5ffd5b602085015b83811015610a855780356001600160401b03811115612950575f5ffd5b61295f886020838a010161275a565b84525060209283019201612933565b5f5f5f5f60808587031215612981575f5ffd5b84356001600160401b03811115612996575f5ffd5b6129a287828801612833565b94505060208501356001600160401b038111156129bd575f5ffd5b6129c987828801612895565b93505060408501356001600160401b038111156129e4575f5ffd5b6129f0878288016128f0565b949793965093946060013593505050565b634e487b7160e01b5f52602160045260245ffd5b60088110612a3157634e487b7160e01b5f52602160045260245ffd5b9052565b602081016109b18284612a15565b5f5f60408385031215612a54575f5ffd5b82359150612a64602084016126da565b90509250929050565b5f5f60408385031215612a7e575f5ffd5b50508035926020909101359150565b803560ff81168114610db9575f5ffd5b5f5f60408385031215612aae575f5ffd5b82359150612a6460208401612a8d565b5f5f83601f840112612ace575f5ffd5b5081356001600160401b03811115612ae4575f5ffd5b602083019150836020828501011115612afb575f5ffd5b9250929050565b5f5f5f5f5f5f5f60c0888a031215612b18575f5ffd5b87359650612b2860208901612a8d565b9550612b36604089016126da565b945060608801356001600160401b03811115612b50575f5ffd5b612b5c8a828b01612abe565b90955093505060808801356001600160401b03811115612b7a575f5ffd5b612b868a828b0161275a565b92505060a08801356001600160401b03811115612ba1575f5ffd5b612bad8a828b0161275a565b91505092959891949750929550565b5f5f5f5f5f60808688031215612bd0575f5ffd5b85359450612be060208701612a8d565b935060408601356001600160401b03811115612bfa575f5ffd5b612c0688828901612abe565b90945092505060608601356001600160401b03811115612c24575f5ffd5b612c308882890161275a565b9150509295509295909350565b5f5f5f5f60608587031215612c50575f5ffd5b84359350612c6060208601612a8d565b925060408501356001600160401b03811115612c7a575f5ffd5b612c8687828801612abe565b95989497509550505050565b5f5f5f5f60808587031215612ca5575f5ffd5b84356001600160401b03811115612cba575f5ffd5b612cc687828801612833565b94505060208501356001600160401b03811115612ce1575f5ffd5b612ced87828801612895565b93505060408501356001600160401b03811115612d08575f5ffd5b612d14878288016128f0565b92505060608501356001600160401b038111156127f9575f5ffd5b5f60208284031215612d3f575f5ffd5b610e05826126da565b5f8151808452602084019350602083015f5b82811015612d78578151865260209586019590910190600101612d5a565b5093949350505050565b60ff60f81b8816815260e060208201525f612da060e0830189612683565b8281036040840152612db28189612683565b606084018890526001600160a01b038716608085015260a0840186905283810360c08501529050612de38185612d48565b9a9950505050505050505050565b5f5f5f5f60808587031215612e04575f5ffd5b84359350612e1460208601612a8d565b9250612e22604086016126da565b915060608501356001600160401b038111156127f9575f5ffd5b5f5f5f60608486031215612e4e575f5ffd5b612e57846126da565b92506020840135915060408401356001600160401b03811115612e78575f5ffd5b612e848682870161275a565b9150509250925092565b5f5f5f5f5f60a08688031215612ea2575f5ffd5b612eab866126da565b9450612eb9602087016126da565b935060408601356001600160401b03811115612ed3575f5ffd5b612edf88828901612895565b93505060608601356001600160401b03811115612efa575f5ffd5b612f0688828901612895565b92505060808601356001600160401b03811115612c24575f5ffd5b5f5f5f5f60608587031215612f34575f5ffd5b612f3d856126da565b93506020850135925060408501356001600160401b03811115612c7a575f5ffd5b5f5f5f5f5f60a08688031215612f72575f5ffd5b85356001600160401b03811115612f87575f5ffd5b612f9388828901612833565b95505060208601356001600160401b03811115612fae575f5ffd5b612fba88828901612895565b94505060408601356001600160401b03811115612fd5575f5ffd5b612fe1888289016128f0565b93505060608601356001600160401b03811115612ffc575f5ffd5b612f068882890161275a565b5f5f60408385031215613019575f5ffd5b613022836126da565b946020939093013593505050565b5f5f5f5f5f60a08688031215613044575f5ffd5b61304d866126da565b945061305b602087016126da565b9350604086013592506060860135915060808601356001600160401b03811115612c24575f5ffd5b600181811c9082168061309757607f821691505b6020821081036130b557634e487b7160e01b5f52602260045260245ffd5b50919050565b604080825282549082018190525f8381526020812090916060840190835b818110156131005783546001600160a01b03168352600193840193602090930192016130d9565b50508381036020850152600a8152692a32b9ba102a37b5b2b760b11b6020820152604081019250505092915050565b5f6020828403121561313f575f5ffd5b81516001600160401b03811115613154575f5ffd5b8201601f81018413613164575f5ffd5b805161317261277c82612734565b818152856020838501011115613186575f5ffd5b8160208401602083015e5f91810160200191909152949350505050565b634e487b7160e01b5f52601160045260245ffd5b5f602082840312156131c7575f5ffd5b815165ffffffffffff81168114610e05575f5ffd5b65ffffffffffff81811683821601908111156109b1576109b16131a3565b818382375f9101908152919050565b601f82111561325057805f5260205f20601f840160051c8101602085101561322e5750805b601f840160051c820191505b8181101561324d575f815560010161323a565b50505b505050565b81516001600160401b0381111561326e5761326e6126f0565b6132828161327c8454613083565b84613209565b6020601f8211600181146132b4575f831561329d5750848201515b5f19600385901b1c1916600184901b17845561324d565b5f84815260208120601f198516915b828110156132e357878501518255602094850194600190920191016132c3565b508482101561330057868401515f19600387901b60f8161c191681555b50505050600190811b01905550565b5f8151808452602084019350602083015f5b82811015612d785781516001600160a01b0316865260209586019590910190600101613321565b5f82825180855260208501945060208160051b830101602085015f5b8381101561339657601f19858403018852613380838351612683565b6020988901989093509190910190600101613364565b50909695505050505050565b608081525f6133b4608083018761330f565b82810360208401526133c68187612d48565b905082810360408401526133da8186613348565b91505082606083015295945050505050565b838152606081016134006020830185612a15565b826040830152949350505050565b634e487b7160e01b5f52603260045260245ffd5b808201808211156109b1576109b16131a3565b60ff81811683821601908111156109b1576109b16131a3565b6001815b6001841115611ff25780850481111561346d5761346d6131a3565b600184161561347b57908102905b60019390931c928002613452565b5f82613497575060016109b1565b816134a357505f6109b1565b81600181146134b957600281146134c3576134df565b60019150506109b1565b60ff8411156134d4576134d46131a3565b50506001821b6109b1565b5060208310610133831016604e8410600b8410161715613502575081810a6109b1565b61350e5f19848461344e565b805f1904821115613521576135216131a3565b029392505050565b5f610e0560ff841683613489565b818103818111156109b1576109b16131a3565b84815260ff84166020820152826040820152608060608201525f610f576080830184612683565b85815260ff8516602082015283604082015260a060608201525f61359860a0830185612683565b8281036080840152610ebd8185612683565b8981526001600160a01b0389166020820152610120604082018190525f906135d49083018a61330f565b82810360608401526135e6818a612d48565b9050828103608084015280885180835260208301915060208160051b84010160208b015f5b8381101561363d57601f19868403018552613627838351612683565b602095860195909350919091019060010161360b565b505085810360a0870152613651818b613348565b93505050508560c08401528460e08401528281036101008401526136758185612683565b9c9b505050505050505050505050565b5f60208284031215613695575f5ffd5b5051919050565b5f82518060208501845e5f920191825250919050565b80820281158282048414176109b1576109b16131a3565b828152604060208201525f61116c604083018461268356fea2646970667358221220da638c21a50a4242412f9e6c405db203318c886d5c0902aa03a865ea3978f1e764736f6c634300081c0033",
  "linkReferences": {},
  "deployedLinkReferences": {},
  "immutableReferences": {
    "2575": [
      {
        "length": 32,
        "start": 2343
      },
      {
        "length": 32,
        "start": 3330
      },
      {
        "length": 32,
        "start": 4311
      },
      {
        "length": 32,
        "start": 7068
      }
    ],
    "5868": [
      {
        "length": 32,
        "start": 8719
      }
    ],
    "5870": [
      {
        "length": 32,
        "start": 8677
      }
    ],
    "5872": [
      {
        "length": 32,
        "start": 8635
      }
    ],
    "5874": [
      {
        "length": 32,
        "start": 8800
      }
    ],
    "5876": [
      {
        "length": 32,
        "start": 8840
      }
    ],
    "5879": [
      {
        "length": 32,
        "start": 6836
      }
    ],
    "5882": [
      {
        "length": 32,
        "start": 6880
      }
    ]
  },
  "inputSourceName": "project/contracts/governor/CustomGovernor.sol",
  "buildInfoId": "solc-0_8_28-f4c9a2e676447cd4cb40982451d45b3d461f8f83"
}