{
  "_format": "hh3-artifact-1",
  "contractName": "GovernanceToken",
  "sourceName": "contracts/governor/GovernanceToken.sol",
  "abi": [
    {
      "inputs": [],
      "stateMutability": "nonpayable",
      "type": "constructor"
    },
    {
      "inputs": [],
      "name": "CheckpointUnorderedInsertion",
      "type": "error"
    },
    {
      "inputs": [],
      "name": "ECDSAInvalidSignature",
      "type": "error"
    },
    {
      "inputs": [
        {
          "internalType": "uint256",
          "name": "length",
          "type": "uint256"
        }
      ],
      "name": "ECDSAInvalidSignatureLength",
      "type": "error"
    },
    {
      "inputs": [
        {
          "internalType": "bytes32",
          "name": "s",
          "type": "bytes32"
        }
      ],
      "name": "ECDSAInvalidSignatureS",
      "type": "error"
    },
    {
      "inputs": [
        {
          "internalType": "uint256",
          "name": "increasedSupply",
          "type": "uint256"
        },
        {
          "internalType": "uint256",
          "name": "cap",
          "type": "uint256"
        }
      ],
      "name": "ERC20ExceededSafeSupply",
      "type": "error"
    },
    {
      "inputs": [
        {
          "internalType": "address",
          "name": "spender",
          "type": "address"
        },
        {
          "internalType": "uint256",
          "name": "allowance",
          "type": "uint256"
        },
        {
          "internalType": "uint256",
          "name": "needed",
          "type": "uint256"
        }
      ],
      "name": "ERC20InsufficientAllowance",
      "type": "error"
    },
    {
      "inputs": [
        {
          "internalType": "address",
          "name": "sender",
          "type": "address"
        },
        {
          "internalType": "uint256",
          "name": "balance",
          "type": "uint256"
        },
        {
          "internalType": "uint256",
          "name": "needed",
          "type": "uint256"
        }
      ],
      "name": "ERC20InsufficientBalance",
      "type": "error"
    },
    {
      "inputs": [
        {
          "internalType": "address",
          "name": "approver",
          "type": "address"
        }
      ],
      "name": "ERC20InvalidApprover",
      "type": "error"
    },
    {
      "inputs": [
        {
          "internalType": "address",
          "name": "receiver",
          "type": "address"
        }
      ],
      "name": "ERC20InvalidReceiver",
      "type": "error"
    },
    {
      "inputs": [
        {
          "internalType": "address",
          "name": "sender",
          "type": "address"
        }
      ],
      "name": "ERC20InvalidSender",
      "type": "error"
    },
    {
      "inputs": [
        {
          "internalType": "address",
          "name": "spender",
          "type": "address"
        }
      ],
      "name": "ERC20InvalidSpender",
      "type": "error"
    },
    {
      "inputs": [
        {
          "internalType": "uint256",
          "name": "deadline",
          "type": "uint256"
        }
      ],
      "name": "ERC2612ExpiredSignature",
      "type": "error"
    },
    {
      "inputs": [
        {
          "internalType": "address",
          "name": "signer",
          "type": "address"
        },
        {
          "internalType": "address",
          "name": "owner",
          "type": "address"
        }
      ],
      "name": "ERC2612InvalidSigner",
      "type": "error"
    },
    {
      "inputs": [
        {
          "internalType": "uint256",
          "name": "timepoint",
          "type": "uint256"
        },
        {
          "internalType": "uint48",
          "name": "clock",
          "type": "uint48"
        }
      ],
      "name": "ERC5805FutureLookup",
      "type": "error"
    },
    {
      "inputs": [],
      "name": "ERC6372InconsistentClock",
      "type": "error"
    },
    {
      "inputs": [
        {
          "internalType": "address",
          "name": "account",
          "type": "address"
        },
        {
          "internalType": "uint256",
          "name": "currentNonce",
          "type": "uint256"
        }
      ],
      "name": "InvalidAccountNonce",
      "type": "error"
    },
    {
      "inputs": [],
      "name": "InvalidShortString",
      "type": "error"
    },
    {
      "inputs": [
        {
          "internalType": "uint8",
          "name": "bits",
          "type": "uint8"
        },
        {
          "internalType": "uint256",
          "name": "value",
          "type": "uint256"
        }
      ],
      "name": "SafeCastOverflowedUintDowncast",
      "type": "error"
    },
    {
      "inputs": [
        {
          "internalType": "string",
          "name": "str",
          "type": "string"
        }
      ],
      "name": "StringTooLong",
      "type": "error"
    },
    {
      "inputs": [
        {
          "internalType": "uint256",
          "name": "expiry",
          "type": "uint256"
        }
      ],
      "name": "VotesExpiredSignature",
      "type": "error"
    },
    {
      "anonymous": false,
      "inputs": [
        {
          "indexed": true,
          "internalType": "address",
          "name": "owner",
          "type": "address"
        },
        {
          "indexed": true,
          "internalType": "address",
          "name": "spender",
          "type": "address"
        },
        {
          "indexed": false,
          "internalType": "uint256",
          "name": "value",
          "type": "uint256"
        }
      ],
      "name": "Approval",
      "type": "event"
    },
    {
      "anonymous": false,
      "inputs": [
        {
          "indexed": true,
          "internalType": "address",
          "name": "delegator",
          "type": "address"
        },
        {
          "indexed": true,
          "internalType": "address",
          "name": "fromDelegate",
          "type": "address"
        },
        {
          "indexed": true,
          "internalType": "address",
          "name": "toDelegate",
          "type": "address"
        }
      ],
      "name": "DelegateChanged",
      "type": "event"
    },
    {
      "anonymous": false,
      "inputs": [
        {
          "indexed": true,
          "internalType": "address",
          "name": "delegate",
          "type": "address"
        },
        {
          "indexed": false,
          "internalType": "uint256",
          "name": "previousVotes",
          "type": "uint256"
        },
        {
          "indexed": false,
          "internalType": "uint256",
          "name": "newVotes",
          "type": "uint256"
        }
      ],
      "name": "DelegateVotesChanged",
      "type": "event"
    },
    {
      "anonymous": false,
      "inputs": [],
      "name": "EIP712DomainChanged",
      "type": "event"
    },
    {
      "anonymous": false,
      "inputs": [
        {
          "indexed": true,
          "internalType": "address",
          "name": "from",
          "type": "address"
        },
        {
          "indexed": true,
          "internalType": "address",
          "name": "to",
          "type": "address"
        },
        {
          "indexed": false,
          "internalType": "uint256",
          "name": "value",
          "type": "uint256"
        }
      ],
      "name": "Transfer",
      "type": "event"
    },
    {
      "inputs": [],
      "name": "CLOCK_MODE",
      "outputs": [
        {
          "internalType": "string",
          "name": "",
          "type": "string"
        }
      ],
      "stateMutability": "view",
      "type": "function"
    },
    {
      "inputs": [],
      "name": "DOMAIN_SEPARATOR",
      "outputs": [
        {
          "internalType": "bytes32",
          "name": "",
          "type": "bytes32"
        }
      ],
      "stateMutability": "view",
      "type": "function"
    },
    {
      "inputs": [
        {
          "internalType": "address",
          "name": "owner",
          "type": "address"
        },
        {
          "internalType": "address",
          "name": "spender",
          "type": "address"
        }
      ],
      "name": "allowance",
      "outputs": [
        {
          "internalType": "uint256",
          "name": "",
          "type": "uint256"
        }
      ],
      "stateMutability": "view",
      "type": "function"
    },
    {
      "inputs": [
        {
          "internalType": "address",
          "name": "spender",
          "type": "address"
        },
        {
          "internalType": "uint256",
          "name": "value",
          "type": "uint256"
        }
      ],
      "name": "approve",
      "outputs": [
        {
          "internalType": "bool",
          "name": "",
          "type": "bool"
        }
      ],
      "stateMutability": "nonpayable",
      "type": "function"
    },
    {
      "inputs": [
        {
          "internalType": "address",
          "name": "account",
          "type": "address"
        }
      ],
      "name": "balanceOf",
      "outputs": [
        {
          "internalType": "uint256",
          "name": "",
          "type": "uint256"
        }
      ],
      "stateMutability": "view",
      "type": "function"
    },
    {
      "inputs": [
        {
          "internalType": "address",
          "name": "account",
          "type": "address"
        },
        {
          "internalType": "uint32",
          "name": "pos",
          "type": "uint32"
        }
      ],
      "name": "checkpoints",
      "outputs": [
        {
          "components": [
            {
              "internalType": "uint48",
              "name": "_key",
              "type": "uint48"
            },
            {
              "internalType": "uint208",
              "name": "_value",
              "type": "uint208"
            }
          ],
          "internalType": "struct Checkpoints.Checkpoint208",
          "name": "",
          "type": "tuple"
        }
      ],
      "stateMutability": "view",
      "type": "function"
    },
    {
      "inputs": [],
      "name": "clock",
      "outputs": [
        {
          "internalType": "uint48",
          "name": "",
          "type": "uint48"
        }
      ],
      "stateMutability": "view",
      "type": "function"
    },
    {
      "inputs": [],
      "name": "decimals",
      "outputs": [
        {
          "internalType": "uint8",
          "name": "",
          "type": "uint8"
        }
      ],
      "stateMutability": "view",
      "type": "function"
    },
    {
      "inputs": [
        {
          "internalType": "address",
          "name": "delegatee",
          "type": "address"
        }
      ],
      "name": "delegate",
      "outputs": [],
      "stateMutability": "nonpayable",
      "type": "function"
    },
    {
      "inputs": [
        {
          "internalType": "address",
          "name": "delegatee",
          "type": "address"
        },
        {
          "internalType": "uint256",
          "name": "nonce",
          "type": "uint256"
        },
        {
          "internalType": "uint256",
          "name": "expiry",
          "type": "uint256"
        },
        {
          "internalType": "uint8",
          "name": "v",
          "type": "uint8"
        },
        {
          "internalType": "bytes32",
          "name": "r",
          "type": "bytes32"
        },
        {
          "internalType": "bytes32",
          "name": "s",
          "type": "bytes32"
        }
      ],
      "name": "delegateBySig",
      "outputs": [],
      "stateMutability": "nonpayable",
      "type": "function"
    },
    {
      "inputs": [
        {
          "internalType": "address",
          "name": "account",
          "type": "address"
        }
      ],
      "name": "delegates",
      "outputs": [
        {
          "internalType": "address",
          "name": "",
          "type": "address"
        }
      ],
      "stateMutability": "view",
      "type": "function"
    },
    {
      "inputs": [],
      "name": "eip712Domain",
      "outputs": [
        {
          "internalType": "bytes1",
          "name": "fields",
          "type": "bytes1"
        },
        {
          "internalType": "string",
          "name": "name",
          "type": "string"
        },
        {
          "internalType": "string",
          "name": "version",
          "type": "string"
        },
        {
          "internalType": "uint256",
          "name": "chainId",
          "type": "uint256"
        },
        {
          "internalType": "address",
          "name": "verifyingContract",
          "type": "address"
        },
        {
          "internalType": "bytes32",
          "name": "salt",
          "type": "bytes32"
        },
        {
          "internalType": "uint256[]",
          "name": "extensions",
          "type": "uint256[]"
        }
      ],
      "stateMutability": "view",
      "type": "function"
    },
    {
      "inputs": [
        {
          "internalType": "uint256",
          "name": "timepoint",
          "type": "uint256"
        }
      ],
      "name": "getPastTotalSupply",
      "outputs": [
        {
          "internalType": "uint256",
          "name": "",
          "type": "uint256"
        }
      ],
      "stateMutability": "view",
      "type": "function"
    },
    {
      "inputs": [
        {
          "internalType": "address",
          "name": "account",
          "type": "address"
        },
        {
          "internalType": "uint256",
          "name": "timepoint",
          "type": "uint256"
        }
      ],
      "name": "getPastVotes",
      "outputs": [
        {
          "internalType": "uint256",
          "name": "",
          "type": "uint256"
        }
      ],
      "stateMutability": "view",
      "type": "function"
    },
    {
      "inputs": [
        {
          "internalType": "address",
          "name": "account",
          "type": "address"
        }
      ],
      "name": "getVotes",
      "outputs": [
        {
          "internalType": "uint256",
          "name": "",
          "type": "uint256"
        }
      ],
      "stateMutability": "view",
      "type": "function"
    },
    {
      "inputs": [
        {
          "internalType": "address",
          "name": "to",
          "type": "address"
        },
        {
          "internalType": "uint256",
          "name": "amount",
          "type": "uint256"
        }
      ],
      "name": "mint",
      "outputs": [],
      "stateMutability": "nonpayable",
      "type": "function"
    },
    {
      "inputs": [],
      "name": "name",
      "outputs": [
        {
          "internalType": "string",
          "name": "",
          "type": "string"
        }
      ],
      "stateMutability": "view",
      "type": "function"
    },
    {
      "inputs": [
        {
          "internalType": "address",
          "name": "owner",
          "type": "address"
        }
      ],
      "name": "nonces",
      "outputs": [
        {
          "internalType": "uint256",
          "name": "",
          "type": "uint256"
        }
      ],
      "stateMutability": "view",
      "type": "function"
    },
    {
      "inputs": [
        {
          "internalType": "address",
          "name": "account",
          "type": "address"
        }
      ],
      "name": "numCheckpoints",
      "outputs": [
        {
          "internalType": "uint32",
          "name": "",
          "type": "uint32"
        }
      ],
      "stateMutability": "view",
      "type": "function"
    },
    {
      "inputs": [
        {
          "internalType": "address",
          "name": "owner",
          "type": "address"
        },
        {
          "internalType": "address",
          "name": "spender",
          "type": "address"
        },
        {
          "internalType": "uint256",
          "name": "value",
          "type": "uint256"
        },
        {
          "internalType": "uint256",
          "name": "deadline",
          "type": "uint256"
        },
        {
          "internalType": "uint8",
          "name": "v",
          "type": "uint8"
        },
        {
          "internalType": "bytes32",
          "name": "r",
          "type": "bytes32"
        },
        {
          "internalType": "bytes32",
          "name": "s",
          "type": "bytes32"
        }
      ],
      "name": "permit",
      "outputs": [],
      "stateMutability": "nonpayable",
      "type": "function"
    },
    {
      "inputs": [],
      "name": "symbol",
      "outputs": [
        {
          "internalType": "string",
          "name": "",
          "type": "string"
        }
      ],
      "stateMutability": "view",
      "type": "function"
    },
    {
      "inputs": [],
      "name": "totalSupply",
      "outputs": [
        {
          "internalType": "uint256",
          "name": "",
          "type": "uint256"
        }
      ],
      "stateMutability": "view",
      "type": "function"
    },
    {
      "inputs": [
        {
          "internalType": "address",
          "name": "to",
          "type": "address"
        },
        {
          "internalType": "uint256",
          "name": "value",
          "type": "uint256"
        }
      ],
      "name": "transfer",
      "outputs": [
        {
          "internalType": "bool",
          "name": "",
          "type": "bool"
        }
      ],
      "stateMutability": "nonpayable",
      "type": "function"
    },
    {
      "inputs": [
        {
          "internalType": "address",
          "name": "from",
          "type": "address"
        },
        {
          "internalType": "address",
          "name": "to",
          "type": "address"
        },
        {
          "internalType": "uint256",
          "name": "value",
          "type": "uint256"
        }
      ],
      "name": "transferFrom",
      "outputs": [
        {
          "internalType": "bool",
          "name": "",
          "type": "bool"
        }
      ],
      "stateMutability": "nonpayable",
      "type": "function"
    }
  ],
  "bytecode": "0x610160604052348015610010575f5ffd5b506040518060400160405280600781526020016626bcaa37b5b2b760c91b81525080604051806040016040528060018152602001603160f81b8152506040518060400160405280600781526020016626bcaa37b5b2b760c91b815250604051806040016040528060038152602001624d544b60e81b8152508160039081610097919061026e565b5060046100a4828261026e565b506100b49150839050600561015e565b610120526100c381600661015e565b61014052815160208084019190912060e052815190820120610100524660a05261014f60e05161010051604080517f8b73c3c69bb8fe3d512ecc4cf759cc79239f7b179b0ffacaa9a75d522b39400f60208201529081019290925260608201524660808201523060a08201525f9060c00160405160208183030381529060405280519060200120905090565b60805250503060c05250610380565b5f6020835110156101795761017283610190565b905061018a565b81610184848261026e565b5060ff90505b92915050565b5f5f829050601f815111156101c3578260405163305a27a960e01b81526004016101ba9190610328565b60405180910390fd5b80516101ce8261035d565b179392505050565b634e487b7160e01b5f52604160045260245ffd5b600181811c908216806101fe57607f821691505b60208210810361021c57634e487b7160e01b5f52602260045260245ffd5b50919050565b601f82111561026957805f5260205f20601f840160051c810160208510156102475750805b601f840160051c820191505b81811015610266575f8155600101610253565b50505b505050565b81516001600160401b03811115610287576102876101d6565b61029b8161029584546101ea565b84610222565b6020601f8211600181146102cd575f83156102b65750848201515b5f19600385901b1c1916600184901b178455610266565b5f84815260208120601f198516915b828110156102fc57878501518255602094850194600190920191016102dc565b508482101561031957868401515f19600387901b60f8161c191681555b50505050600190811b01905550565b602081525f82518060208401528060208501604085015e5f604082850101526040601f19601f83011684010191505092915050565b8051602080830151919081101561021c575f1960209190910360031b1b16919050565b60805160a05160c05160e051610100516101205161014051611fd56103d15f395f610ddb01525f610dae01525f610b1f01525f610af701525f610a5201525f610a7c01525f610aa60152611fd55ff3fe608060405234801561000f575f5ffd5b506004361061018f575f3560e01c806370a08231116100dd5780639ab24eb011610088578063d505accf11610063578063d505accf14610387578063dd62ed3e1461039a578063f1127ed8146103d2575f5ffd5b80639ab24eb01461034e578063a9059cbb14610361578063c3cda52014610374575f5ffd5b80638e539e8c116100b85780638e539e8c1461031457806391ddadf41461032757806395d89b4114610346575f5ffd5b806370a08231146102be5780637ecebe00146102e657806384b0196e146102f9575f5ffd5b80633a46b1a81161013d578063587cde1e11610118578063587cde1e146102405780635c19a95c146102835780636fcfff4514610296575f5ffd5b80633a46b1a81461021057806340c10f19146102235780634bf5d7e914610238575f5ffd5b806323b872dd1161016d57806323b872dd146101e6578063313ce567146101f95780633644e51514610208575f5ffd5b806306fdde0314610193578063095ea7b3146101b157806318160ddd146101d4575b5f5ffd5b61019b610411565b6040516101a89190611beb565b60405180910390f35b6101c46101bf366004611c18565b6104a1565b60405190151581526020016101a8565b6002545b6040519081526020016101a8565b6101c46101f4366004611c40565b6104ba565b604051601281526020016101a8565b6101d86104dd565b6101d861021e366004611c18565b6104eb565b610236610231366004611c18565b610525565b005b61019b610533565b61026b61024e366004611c7a565b6001600160a01b039081165f908152600860205260409020541690565b6040516001600160a01b0390911681526020016101a8565b610236610291366004611c7a565b6105c4565b6102a96102a4366004611c7a565b6105cf565b60405163ffffffff90911681526020016101a8565b6101d86102cc366004611c7a565b6001600160a01b03165f9081526020819052604090205490565b6101d86102f4366004611c7a565b6105d9565b6103016105e3565b6040516101a89796959493929190611c93565b6101d8610322366004611d45565b610641565b61032f610665565b60405165ffffffffffff90911681526020016101a8565b61019b61066e565b6101d861035c366004611c7a565b61067d565b6101c461036f366004611c18565b61069d565b610236610382366004611d6c565b6106aa565b610236610395366004611dc0565b610784565b6101d86103a8366004611e26565b6001600160a01b039182165f90815260016020908152604080832093909416825291909152205490565b6103e56103e0366004611e57565b6108ec565b60408051825165ffffffffffff1681526020928301516001600160d01b031692810192909252016101a8565b60606003805461042090611e94565b80601f016020809104026020016040519081016040528092919081815260200182805461044c90611e94565b80156104975780601f1061046e57610100808354040283529160200191610497565b820191905f5260205f20905b81548152906001019060200180831161047a57829003601f168201915b5050505050905090565b5f336104ae818585610910565b60019150505b92915050565b5f336104c7858285610922565b6104d28585856109b7565b506001949350505050565b5f6104e6610a46565b905090565b5f6105156104f883610b6f565b6001600160a01b0385165f90815260096020526040902090610bd6565b6001600160d01b03169392505050565b61052f8282610c89565b5050565b606061053d610cd6565b65ffffffffffff1661054d610665565b65ffffffffffff161461058c576040517f6ff0714000000000000000000000000000000000000000000000000000000000815260040160405180910390fd5b5060408051808201909152601d81527f6d6f64653d626c6f636b6e756d6265722666726f6d3d64656661756c74000000602082015290565b3361052f8183610ce0565b5f6104b482610d69565b5f6104b482610d8a565b5f6060805f5f5f60606105f4610da7565b6105fc610dd4565b604080515f808252602082019092527f0f000000000000000000000000000000000000000000000000000000000000009b939a50919850469750309650945092509050565b5f61065661064e83610b6f565b600a90610bd6565b6001600160d01b031692915050565b5f6104e6610cd6565b60606004805461042090611e94565b6001600160a01b0381165f90815260096020526040812061065690610e01565b5f336104ae8185856109b7565b834211156106ec576040517f4683af0e000000000000000000000000000000000000000000000000000000008152600481018590526024015b60405180910390fd5b604080517fe48329057bfd03d55e49b547132e39cffd9c1820ad7b9d4c5307691425d15adf60208201526001600160a01b0388169181019190915260608101869052608081018590525f906107659061075d9060a00160405160208183030381529060405280519060200120610e3b565b858585610e82565b90506107718187610eae565b61077b8188610ce0565b50505050505050565b834211156107c1576040517f62791302000000000000000000000000000000000000000000000000000000008152600481018590526024016106e3565b5f7f6e71edae12b1b97f4d1f60370fef10105fa2faae0126114a169c64845d6126c988888861080c8c6001600160a01b03165f90815260076020526040902080546001810190915590565b6040805160208101969096526001600160a01b0394851690860152929091166060840152608083015260a082015260c0810186905260e0016040516020818303038152906040528051906020012090505f61086682610e3b565b90505f61087582878787610e82565b9050896001600160a01b0316816001600160a01b0316146108d5576040517f4b800e460000000000000000000000000000000000000000000000000000000081526001600160a01b0380831660048301528b1660248201526044016106e3565b6108e08a8a8a610910565b50505050505050505050565b604080518082019091525f80825260208201526109098383610f19565b9392505050565b61091d8383836001610f4d565b505050565b6001600160a01b038381165f908152600160209081526040808320938616835292905220545f198110156109b157818110156109a3576040517ffb8f41b20000000000000000000000000000000000000000000000000000000081526001600160a01b038416600482015260248101829052604481018390526064016106e3565b6109b184848484035f610f4d565b50505050565b6001600160a01b0383166109f9576040517f96c6fd1e0000000000000000000000000000000000000000000000000000000081525f60048201526024016106e3565b6001600160a01b038216610a3b576040517fec442f050000000000000000000000000000000000000000000000000000000081525f60048201526024016106e3565b61091d838383611051565b5f306001600160a01b037f000000000000000000000000000000000000000000000000000000000000000016148015610a9e57507f000000000000000000000000000000000000000000000000000000000000000046145b15610ac857507f000000000000000000000000000000000000000000000000000000000000000090565b6104e6604080517f8b73c3c69bb8fe3d512ecc4cf759cc79239f7b179b0ffacaa9a75d522b39400f60208201527f0000000000000000000000000000000000000000000000000000000000000000918101919091527f000000000000000000000000000000000000000000000000000000000000000060608201524660808201523060a08201525f9060c00160405160208183030381529060405280519060200120905090565b5f5f610b79610665565b90508065ffffffffffff168310610bcd576040517fecd3f81e0000000000000000000000000000000000000000000000000000000081526004810184905265ffffffffffff821660248201526044016106e3565b6109098361105c565b81545f9081816005811115610c32575f610bef84611092565b610bf99085611ee0565b5f8881526020902090915081015465ffffffffffff9081169087161015610c2257809150610c30565b610c2d816001611ef3565b92505b505b5f610c3f878785856111f7565b90508015610c7c57610c6387610c56600184611ee0565b5f91825260209091200190565b54660100000000000090046001600160d01b0316610c7e565b5f5b979650505050505050565b6001600160a01b038216610ccb576040517fec442f050000000000000000000000000000000000000000000000000000000081525f60048201526024016106e3565b61052f5f8383611051565b5f6104e64361105c565b6001600160a01b038281165f8181526008602052604080822080548686167fffffffffffffffffffffffff0000000000000000000000000000000000000000821681179092559151919094169392849290917f3134e8a2e6d97e929a7e54011ea5485d7d196dd5f0ba4d4ef95803e8e3fc257f9190a461091d8183610d6486611256565b611273565b6001600160a01b0381165f908152600960205260408120546104b4906113dc565b6001600160a01b0381165f908152600760205260408120546104b4565b60606104e67f0000000000000000000000000000000000000000000000000000000000000000600561140c565b60606104e67f0000000000000000000000000000000000000000000000000000000000000000600661140c565b80545f908015610e3357610e1a83610c56600184611ee0565b54660100000000000090046001600160d01b0316610909565b5f9392505050565b5f6104b4610e47610a46565b836040517f19010000000000000000000000000000000000000000000000000000000000008152600281019290925260228201526042902090565b5f5f5f5f610e92888888886114b5565b925092509250610ea2828261157d565b50909695505050505050565b6001600160a01b0382165f90815260076020526040902080546001810190915581811461091d576040517f752d88c00000000000000000000000000000000000000000000000000000000081526001600160a01b0384166004820152602481018290526044016106e3565b604080518082019091525f80825260208201526001600160a01b0383165f9081526009602052604090206109099083611680565b6001600160a01b038416610f8f576040517fe602df050000000000000000000000000000000000000000000000000000000081525f60048201526024016106e3565b6001600160a01b038316610fd1576040517f94280d620000000000000000000000000000000000000000000000000000000081525f60048201526024016106e3565b6001600160a01b038085165f90815260016020908152604080832093871683529290522082905580156109b157826001600160a01b0316846001600160a01b03167f8c5be1e5ebec7d5bd14f71427d1e84f3dd0314c0f7b2291e5b200ac8c7c3b9258460405161104391815260200190565b60405180910390a350505050565b61091d8383836116f0565b5f65ffffffffffff82111561108e576040516306dfcc6560e41b815260306004820152602481018390526044016106e3565b5090565b5f6001821161109f575090565b81600170010000000000000000000000000000000082106110c55760809190911c9060401b5b6801000000000000000082106110e05760409190911c9060201b5b64010000000082106110f75760209190911c9060101b5b62010000821061110c5760109190911c9060081b5b61010082106111205760089190911c9060041b5b601082106111335760049190911c9060021b5b6004821061113f5760011b5b600302600190811c9081858161115757611157611f06565b048201901c9050600181858161116f5761116f611f06565b048201901c9050600181858161118757611187611f06565b048201901c9050600181858161119f5761119f611f06565b048201901c905060018185816111b7576111b7611f06565b048201901c905060018185816111cf576111cf611f06565b048201901c90506111ee8185816111e8576111e8611f06565b04821190565b90039392505050565b5f5b8183101561124e575f61120c848461176f565b5f8781526020902090915065ffffffffffff86169082015465ffffffffffff16111561123a57809250611248565b611245816001611ef3565b93505b506111f9565b509392505050565b6001600160a01b0381165f908152602081905260408120546104b4565b816001600160a01b0316836001600160a01b03161415801561129457505f81115b1561091d576001600160a01b0383161561133b576001600160a01b0383165f90815260096020526040812081906112d6906117896112d186611794565b6117c7565b6001600160d01b031691506001600160d01b03169150846001600160a01b03167fdec2bacdd2f05b59de34da9b523dff8be42e5e38e818c82fdb0bae774387a7248383604051611330929190918252602082015260400190565b60405180910390a250505b6001600160a01b0382161561091d576001600160a01b0382165f9081526009602052604081208190611373906117ff6112d186611794565b6001600160d01b031691506001600160d01b03169150836001600160a01b03167fdec2bacdd2f05b59de34da9b523dff8be42e5e38e818c82fdb0bae774387a72483836040516113cd929190918252602082015260400190565b60405180910390a25050505050565b5f63ffffffff82111561108e576040516306dfcc6560e41b815260206004820152602481018390526044016106e3565b606060ff83146114265761141f8361180a565b90506104b4565b81805461143290611e94565b80601f016020809104026020016040519081016040528092919081815260200182805461145e90611e94565b80156114a95780601f10611480576101008083540402835291602001916114a9565b820191905f5260205f20905b81548152906001019060200180831161148c57829003601f168201915b505050505090506104b4565b5f80807f7fffffffffffffffffffffffffffffff5d576e7357a4501ddfe92f46681b20a08411156114ee57505f91506003905082611573565b604080515f808252602082018084528a905260ff891692820192909252606081018790526080810186905260019060a0016020604051602081039080840390855afa15801561153f573d5f5f3e3d5ffd5b5050604051601f1901519150506001600160a01b03811661156a57505f925060019150829050611573565b92505f91508190505b9450945094915050565b5f82600381111561159057611590611f1a565b03611599575050565b60018260038111156115ad576115ad611f1a565b036115e4576040517ff645eedf00000000000000000000000000000000000000000000000000000000815260040160405180910390fd5b60028260038111156115f8576115f8611f1a565b03611632576040517ffce698f7000000000000000000000000000000000000000000000000000000008152600481018290526024016106e3565b600382600381111561164657611646611f1a565b0361052f576040517fd78bce0c000000000000000000000000000000000000000000000000000000008152600481018290526024016106e3565b604080518082019091525f8082526020820152825f018263ffffffff16815481106116ad576116ad611f2e565b5f9182526020918290206040805180820190915291015465ffffffffffff81168252660100000000000090046001600160d01b0316918101919091529392505050565b6116fb838383611847565b6001600160a01b038316611764575f61171360025490565b90506001600160d01b0380821115611761576040517f1cb15d2600000000000000000000000000000000000000000000000000000000815260048101839052602481018290526044016106e3565b50505b61091d838383611986565b5f61177d6002848418611f42565b61090990848416611ef3565b5f6109098284611f61565b5f6001600160d01b0382111561108e576040516306dfcc6560e41b815260d06004820152602481018390526044016106e3565b5f5f6117f26117d4610665565b6117ea6117e088610e01565b868863ffffffff16565b8791906119fb565b915091505b935093915050565b5f6109098284611f80565b60605f61181683611a08565b6040805160208082528183019092529192505f91906020820181803683375050509182525060208101929092525090565b6001600160a01b038316611871578060025f8282546118669190611ef3565b909155506118fa9050565b6001600160a01b0383165f90815260208190526040902054818110156118dc576040517fe450d38c0000000000000000000000000000000000000000000000000000000081526001600160a01b038516600482015260248101829052604481018390526064016106e3565b6001600160a01b0384165f9081526020819052604090209082900390555b6001600160a01b03821661191657600280548290039055611934565b6001600160a01b0382165f9081526020819052604090208054820190555b816001600160a01b0316836001600160a01b03167fddf252ad1be2c89b69c2b068fc378daa952ba7f163c4a11628f55a4df523b3ef8360405161197991815260200190565b60405180910390a3505050565b6001600160a01b0383166119a8576119a5600a6117ff6112d184611794565b50505b6001600160a01b0382166119ca576119c7600a6117896112d184611794565b50505b6001600160a01b038381165f9081526008602052604080822054858416835291205461091d92918216911683611273565b5f806117f2858585611a48565b5f60ff8216601f8111156104b4576040517fb3512b0c00000000000000000000000000000000000000000000000000000000815260040160405180910390fd5b82545f9081908015611b60575f611a6487610c56600185611ee0565b805490915065ffffffffffff80821691660100000000000090046001600160d01b0316908816821115611ac3576040517f2520601d00000000000000000000000000000000000000000000000000000000815260040160405180910390fd5b8765ffffffffffff168265ffffffffffff1603611aff57825465ffffffffffff1666010000000000006001600160d01b03891602178355611b52565b6040805180820190915265ffffffffffff808a1682526001600160d01b03808a1660208085019182528d54600181018f555f8f815291909120945191519092166601000000000000029216919091179101555b94508593506117f792505050565b50506040805180820190915265ffffffffffff80851682526001600160d01b0380851660208085019182528854600181018a555f8a81529182209551925190931666010000000000000291909316179201919091559050816117f7565b5f81518084528060208401602086015e5f602082860101526020601f19601f83011685010191505092915050565b602081525f6109096020830184611bbd565b80356001600160a01b0381168114611c13575f5ffd5b919050565b5f5f60408385031215611c29575f5ffd5b611c3283611bfd565b946020939093013593505050565b5f5f5f60608486031215611c52575f5ffd5b611c5b84611bfd565b9250611c6960208501611bfd565b929592945050506040919091013590565b5f60208284031215611c8a575f5ffd5b61090982611bfd565b7fff000000000000000000000000000000000000000000000000000000000000008816815260e060208201525f611ccd60e0830189611bbd565b8281036040840152611cdf8189611bbd565b606084018890526001600160a01b038716608085015260a0840186905283810360c0850152845180825260208087019350909101905f5b81811015611d34578351835260209384019390920191600101611d16565b50909b9a5050505050505050505050565b5f60208284031215611d55575f5ffd5b5035919050565b803560ff81168114611c13575f5ffd5b5f5f5f5f5f5f60c08789031215611d81575f5ffd5b611d8a87611bfd565b95506020870135945060408701359350611da660608801611d5c565b9598949750929560808101359460a0909101359350915050565b5f5f5f5f5f5f5f60e0888a031215611dd6575f5ffd5b611ddf88611bfd565b9650611ded60208901611bfd565b95506040880135945060608801359350611e0960808901611d5c565b9699959850939692959460a0840135945060c09093013592915050565b5f5f60408385031215611e37575f5ffd5b611e4083611bfd565b9150611e4e60208401611bfd565b90509250929050565b5f5f60408385031215611e68575f5ffd5b611e7183611bfd565b9150602083013563ffffffff81168114611e89575f5ffd5b809150509250929050565b600181811c90821680611ea857607f821691505b602082108103611ec657634e487b7160e01b5f52602260045260245ffd5b50919050565b634e487b7160e01b5f52601160045260245ffd5b818103818111156104b4576104b4611ecc565b808201808211156104b4576104b4611ecc565b634e487b7160e01b5f52601260045260245ffd5b634e487b7160e01b5f52602160045260245ffd5b634e487b7160e01b5f52603260045260245ffd5b5f82611f5c57634e487b7160e01b5f52601260045260245ffd5b500490565b6001600160d01b0382811682821603908111156104b4576104b4611ecc565b6001600160d01b0381811683821601908111156104b4576104b4611ecc56fea26469706673582212207f407b0f2de949e83e95191ffc403ceddf4a5f7a1bed86ff7da73f78d0255dd164736f6c634300081c0033",
  "linkReferences": {},
  "deployedLinkReferences": {},
  "immutableReferences": {
    "9048": [
      {
        "length": 32,
        "start": 2726
      }
    ],
    "9050": [
      {
        "length": 32,
        "start": 2684
      }
    ],
    "9052": [
      {
        "length": 32,
        "start": 2642
      }
    ],
    "9054": [
      {
        "length": 32,
        "start": 2807
      }
    ],
    "9056": [
      {
        "length": 32,
        "start": 2847
      }
    ],
    "9059": [
      {
        "length": 32,
        "start": 3502
      }
    ],
    "9062": [
      {
        "length": 32,
        "start": 3547
      }
    ]
  },
  "inputSourceName": "project/contracts/governor/GovernanceToken.sol",
  "buildInfoId": "solc-0_8_28-b5dedd448425539c1d8e317a890198cf350a8eab"
}