{
  "_format": "hh-sol-artifact-1",
  "contractName": "MemberSBT_Demo",
  "sourceName": "contracts/sbt/MemberSBT_Demo.sol",
  "abi": [
    {
      "inputs": [
        {
          "internalType": "string",
          "name": "_name",
          "type": "string"
        },
        {
          "internalType": "string",
          "name": "_symbol",
          "type": "string"
        },
        {
          "internalType": "bool",
          "name": "_isLocked",
          "type": "bool"
        },
        {
          "internalType": "address",
          "name": "ownerAdmin",
          "type": "address"
        }
      ],
      "stateMutability": "nonpayable",
      "type": "constructor"
    },
    {
      "inputs": [],
      "name": "AccessControlBadConfirmation",
      "type": "error"
    },
    {
      "inputs": [
        {
          "internalType": "address",
          "name": "account",
          "type": "address"
        },
        {
          "internalType": "bytes32",
          "name": "neededRole",
          "type": "bytes32"
        }
      ],
      "name": "AccessControlUnauthorizedAccount",
      "type": "error"
    },
    {
      "inputs": [
        {
          "internalType": "address",
          "name": "sender",
          "type": "address"
        },
        {
          "internalType": "uint256",
          "name": "tokenId",
          "type": "uint256"
        },
        {
          "internalType": "address",
          "name": "owner",
          "type": "address"
        }
      ],
      "name": "ERC721IncorrectOwner",
      "type": "error"
    },
    {
      "inputs": [
        {
          "internalType": "address",
          "name": "operator",
          "type": "address"
        },
        {
          "internalType": "uint256",
          "name": "tokenId",
          "type": "uint256"
        }
      ],
      "name": "ERC721InsufficientApproval",
      "type": "error"
    },
    {
      "inputs": [
        {
          "internalType": "address",
          "name": "approver",
          "type": "address"
        }
      ],
      "name": "ERC721InvalidApprover",
      "type": "error"
    },
    {
      "inputs": [
        {
          "internalType": "address",
          "name": "operator",
          "type": "address"
        }
      ],
      "name": "ERC721InvalidOperator",
      "type": "error"
    },
    {
      "inputs": [
        {
          "internalType": "address",
          "name": "owner",
          "type": "address"
        }
      ],
      "name": "ERC721InvalidOwner",
      "type": "error"
    },
    {
      "inputs": [
        {
          "internalType": "address",
          "name": "receiver",
          "type": "address"
        }
      ],
      "name": "ERC721InvalidReceiver",
      "type": "error"
    },
    {
      "inputs": [
        {
          "internalType": "address",
          "name": "sender",
          "type": "address"
        }
      ],
      "name": "ERC721InvalidSender",
      "type": "error"
    },
    {
      "inputs": [
        {
          "internalType": "uint256",
          "name": "tokenId",
          "type": "uint256"
        }
      ],
      "name": "ERC721NonexistentToken",
      "type": "error"
    },
    {
      "inputs": [],
      "name": "ErrLocked",
      "type": "error"
    },
    {
      "inputs": [],
      "name": "ErrNotFound",
      "type": "error"
    },
    {
      "anonymous": false,
      "inputs": [
        {
          "indexed": true,
          "internalType": "address",
          "name": "owner",
          "type": "address"
        },
        {
          "indexed": true,
          "internalType": "address",
          "name": "approved",
          "type": "address"
        },
        {
          "indexed": true,
          "internalType": "uint256",
          "name": "tokenId",
          "type": "uint256"
        }
      ],
      "name": "Approval",
      "type": "event"
    },
    {
      "anonymous": false,
      "inputs": [
        {
          "indexed": true,
          "internalType": "address",
          "name": "owner",
          "type": "address"
        },
        {
          "indexed": true,
          "internalType": "address",
          "name": "operator",
          "type": "address"
        },
        {
          "indexed": false,
          "internalType": "bool",
          "name": "approved",
          "type": "bool"
        }
      ],
      "name": "ApprovalForAll",
      "type": "event"
    },
    {
      "anonymous": false,
      "inputs": [
        {
          "indexed": false,
          "internalType": "uint256",
          "name": "tokenId",
          "type": "uint256"
        }
      ],
      "name": "Locked",
      "type": "event"
    },
    {
      "anonymous": false,
      "inputs": [
        {
          "indexed": true,
          "internalType": "bytes32",
          "name": "role",
          "type": "bytes32"
        },
        {
          "indexed": true,
          "internalType": "bytes32",
          "name": "previousAdminRole",
          "type": "bytes32"
        },
        {
          "indexed": true,
          "internalType": "bytes32",
          "name": "newAdminRole",
          "type": "bytes32"
        }
      ],
      "name": "RoleAdminChanged",
      "type": "event"
    },
    {
      "anonymous": false,
      "inputs": [
        {
          "indexed": true,
          "internalType": "bytes32",
          "name": "role",
          "type": "bytes32"
        },
        {
          "indexed": true,
          "internalType": "address",
          "name": "account",
          "type": "address"
        },
        {
          "indexed": true,
          "internalType": "address",
          "name": "sender",
          "type": "address"
        }
      ],
      "name": "RoleGranted",
      "type": "event"
    },
    {
      "anonymous": false,
      "inputs": [
        {
          "indexed": true,
          "internalType": "bytes32",
          "name": "role",
          "type": "bytes32"
        },
        {
          "indexed": true,
          "internalType": "address",
          "name": "account",
          "type": "address"
        },
        {
          "indexed": true,
          "internalType": "address",
          "name": "sender",
          "type": "address"
        }
      ],
      "name": "RoleRevoked",
      "type": "event"
    },
    {
      "anonymous": false,
      "inputs": [
        {
          "indexed": true,
          "internalType": "address",
          "name": "to",
          "type": "address"
        },
        {
          "indexed": true,
          "internalType": "uint256",
          "name": "tokenId",
          "type": "uint256"
        },
        {
          "indexed": false,
          "internalType": "string",
          "name": "userName",
          "type": "string"
        }
      ],
      "name": "SBTMinted",
      "type": "event"
    },
    {
      "anonymous": false,
      "inputs": [
        {
          "indexed": true,
          "internalType": "address",
          "name": "from",
          "type": "address"
        },
        {
          "indexed": true,
          "internalType": "address",
          "name": "to",
          "type": "address"
        },
        {
          "indexed": true,
          "internalType": "uint256",
          "name": "tokenId",
          "type": "uint256"
        }
      ],
      "name": "Transfer",
      "type": "event"
    },
    {
      "anonymous": false,
      "inputs": [
        {
          "indexed": false,
          "internalType": "uint256",
          "name": "tokenId",
          "type": "uint256"
        }
      ],
      "name": "Unlocked",
      "type": "event"
    },
    {
      "inputs": [],
      "name": "DEFAULT_ADMIN_ROLE",
      "outputs": [
        {
          "internalType": "bytes32",
          "name": "",
          "type": "bytes32"
        }
      ],
      "stateMutability": "view",
      "type": "function"
    },
    {
      "inputs": [
        {
          "internalType": "address",
          "name": "approved",
          "type": "address"
        },
        {
          "internalType": "uint256",
          "name": "tokenId",
          "type": "uint256"
        }
      ],
      "name": "approve",
      "outputs": [],
      "stateMutability": "nonpayable",
      "type": "function"
    },
    {
      "inputs": [
        {
          "internalType": "address",
          "name": "owner",
          "type": "address"
        }
      ],
      "name": "balanceOf",
      "outputs": [
        {
          "internalType": "uint256",
          "name": "",
          "type": "uint256"
        }
      ],
      "stateMutability": "view",
      "type": "function"
    },
    {
      "inputs": [
        {
          "internalType": "uint256",
          "name": "tokenId",
          "type": "uint256"
        }
      ],
      "name": "getApproved",
      "outputs": [
        {
          "internalType": "address",
          "name": "",
          "type": "address"
        }
      ],
      "stateMutability": "view",
      "type": "function"
    },
    {
      "inputs": [
        {
          "internalType": "bytes32",
          "name": "role",
          "type": "bytes32"
        }
      ],
      "name": "getRoleAdmin",
      "outputs": [
        {
          "internalType": "bytes32",
          "name": "",
          "type": "bytes32"
        }
      ],
      "stateMutability": "view",
      "type": "function"
    },
    {
      "inputs": [
        {
          "internalType": "uint256",
          "name": "tokenId",
          "type": "uint256"
        }
      ],
      "name": "getUserName",
      "outputs": [
        {
          "internalType": "string",
          "name": "",
          "type": "string"
        }
      ],
      "stateMutability": "view",
      "type": "function"
    },
    {
      "inputs": [
        {
          "internalType": "bytes32",
          "name": "role",
          "type": "bytes32"
        },
        {
          "internalType": "address",
          "name": "account",
          "type": "address"
        }
      ],
      "name": "grantRole",
      "outputs": [],
      "stateMutability": "nonpayable",
      "type": "function"
    },
    {
      "inputs": [
        {
          "internalType": "bytes32",
          "name": "role",
          "type": "bytes32"
        },
        {
          "internalType": "address",
          "name": "account",
          "type": "address"
        }
      ],
      "name": "hasRole",
      "outputs": [
        {
          "internalType": "bool",
          "name": "",
          "type": "bool"
        }
      ],
      "stateMutability": "view",
      "type": "function"
    },
    {
      "inputs": [
        {
          "internalType": "address",
          "name": "owner",
          "type": "address"
        },
        {
          "internalType": "address",
          "name": "operator",
          "type": "address"
        }
      ],
      "name": "isApprovedForAll",
      "outputs": [
        {
          "internalType": "bool",
          "name": "",
          "type": "bool"
        }
      ],
      "stateMutability": "view",
      "type": "function"
    },
    {
      "inputs": [
        {
          "internalType": "uint256",
          "name": "tokenId",
          "type": "uint256"
        }
      ],
      "name": "locked",
      "outputs": [
        {
          "internalType": "bool",
          "name": "",
          "type": "bool"
        }
      ],
      "stateMutability": "view",
      "type": "function"
    },
    {
      "inputs": [],
      "name": "name",
      "outputs": [
        {
          "internalType": "string",
          "name": "",
          "type": "string"
        }
      ],
      "stateMutability": "view",
      "type": "function"
    },
    {
      "inputs": [
        {
          "internalType": "uint256",
          "name": "tokenId",
          "type": "uint256"
        }
      ],
      "name": "ownerOf",
      "outputs": [
        {
          "internalType": "address",
          "name": "",
          "type": "address"
        }
      ],
      "stateMutability": "view",
      "type": "function"
    },
    {
      "inputs": [
        {
          "internalType": "bytes32",
          "name": "role",
          "type": "bytes32"
        },
        {
          "internalType": "address",
          "name": "callerConfirmation",
          "type": "address"
        }
      ],
      "name": "renounceRole",
      "outputs": [],
      "stateMutability": "nonpayable",
      "type": "function"
    },
    {
      "inputs": [
        {
          "internalType": "bytes32",
          "name": "role",
          "type": "bytes32"
        },
        {
          "internalType": "address",
          "name": "account",
          "type": "address"
        }
      ],
      "name": "revokeRole",
      "outputs": [],
      "stateMutability": "nonpayable",
      "type": "function"
    },
    {
      "inputs": [
        {
          "internalType": "address",
          "name": "to",
          "type": "address"
        },
        {
          "internalType": "string",
          "name": "userName",
          "type": "string"
        }
      ],
      "name": "safeMint",
      "outputs": [
        {
          "internalType": "uint256",
          "name": "",
          "type": "uint256"
        }
      ],
      "stateMutability": "nonpayable",
      "type": "function"
    },
    {
      "inputs": [
        {
          "internalType": "address",
          "name": "from",
          "type": "address"
        },
        {
          "internalType": "address",
          "name": "to",
          "type": "address"
        },
        {
          "internalType": "uint256",
          "name": "tokenId",
          "type": "uint256"
        }
      ],
      "name": "safeTransferFrom",
      "outputs": [],
      "stateMutability": "nonpayable",
      "type": "function"
    },
    {
      "inputs": [
        {
          "internalType": "address",
          "name": "from",
          "type": "address"
        },
        {
          "internalType": "address",
          "name": "to",
          "type": "address"
        },
        {
          "internalType": "uint256",
          "name": "tokenId",
          "type": "uint256"
        },
        {
          "internalType": "bytes",
          "name": "data",
          "type": "bytes"
        }
      ],
      "name": "safeTransferFrom",
      "outputs": [],
      "stateMutability": "nonpayable",
      "type": "function"
    },
    {
      "inputs": [
        {
          "internalType": "address",
          "name": "operator",
          "type": "address"
        },
        {
          "internalType": "bool",
          "name": "approved",
          "type": "bool"
        }
      ],
      "name": "setApprovalForAll",
      "outputs": [],
      "stateMutability": "nonpayable",
      "type": "function"
    },
    {
      "inputs": [
        {
          "internalType": "bytes4",
          "name": "interfaceId",
          "type": "bytes4"
        }
      ],
      "name": "supportsInterface",
      "outputs": [
        {
          "internalType": "bool",
          "name": "",
          "type": "bool"
        }
      ],
      "stateMutability": "view",
      "type": "function"
    },
    {
      "inputs": [],
      "name": "symbol",
      "outputs": [
        {
          "internalType": "string",
          "name": "",
          "type": "string"
        }
      ],
      "stateMutability": "view",
      "type": "function"
    },
    {
      "inputs": [
        {
          "internalType": "uint256",
          "name": "tokenId",
          "type": "uint256"
        }
      ],
      "name": "tokenURI",
      "outputs": [
        {
          "internalType": "string",
          "name": "",
          "type": "string"
        }
      ],
      "stateMutability": "view",
      "type": "function"
    },
    {
      "inputs": [
        {
          "internalType": "address",
          "name": "from",
          "type": "address"
        },
        {
          "internalType": "address",
          "name": "to",
          "type": "address"
        },
        {
          "internalType": "uint256",
          "name": "tokenId",
          "type": "uint256"
        }
      ],
      "name": "transferFrom",
      "outputs": [],
      "stateMutability": "nonpayable",
      "type": "function"
    }
  ],
  "bytecode": "0x608060405234801561001057600080fd5b506040516135de3803806135de8339818101604052810190610032919061040f565b8383838282816000908161004691906106cf565b50806001908161005691906106cf565b50505080600660006101000a81548160ff0219169083151502179055505050506100896000801b8261009360201b60201c565b50505050506107a1565b60006100a5838361019160201b60201c565b6101865760016007600085815260200190815260200160002060000160008473ffffffffffffffffffffffffffffffffffffffff1673ffffffffffffffffffffffffffffffffffffffff16815260200190815260200160002060006101000a81548160ff0219169083151502179055506101236101fc60201b60201c565b73ffffffffffffffffffffffffffffffffffffffff168273ffffffffffffffffffffffffffffffffffffffff16847f2f8788117e7eff1d82e926ec794901d17c78024a50270940304540a733656f0d60405160405180910390a46001905061018b565b600090505b92915050565b60006007600084815260200190815260200160002060000160008373ffffffffffffffffffffffffffffffffffffffff1673ffffffffffffffffffffffffffffffffffffffff16815260200190815260200160002060009054906101000a900460ff16905092915050565b600033905090565b6000604051905090565b600080fd5b600080fd5b600080fd5b600080fd5b6000601f19601f8301169050919050565b7f4e487b7100000000000000000000000000000000000000000000000000000000600052604160045260246000fd5b61026b82610222565b810181811067ffffffffffffffff8211171561028a57610289610233565b5b80604052505050565b600061029d610204565b90506102a98282610262565b919050565b600067ffffffffffffffff8211156102c9576102c8610233565b5b6102d282610222565b9050602081019050919050565b60005b838110156102fd5780820151818401526020810190506102e2565b60008484015250505050565b600061031c610317846102ae565b610293565b9050828152602081018484840111156103385761033761021d565b5b6103438482856102df565b509392505050565b600082601f8301126103605761035f610218565b5b8151610370848260208601610309565b91505092915050565b60008115159050919050565b61038e81610379565b811461039957600080fd5b50565b6000815190506103ab81610385565b92915050565b600073ffffffffffffffffffffffffffffffffffffffff82169050919050565b60006103dc826103b1565b9050919050565b6103ec816103d1565b81146103f757600080fd5b50565b600081519050610409816103e3565b92915050565b600080600080608085870312156104295761042861020e565b5b600085015167ffffffffffffffff81111561044757610446610213565b5b6104538782880161034b565b945050602085015167ffffffffffffffff81111561047457610473610213565b5b6104808782880161034b565b93505060406104918782880161039c565b92505060606104a2878288016103fa565b91505092959194509250565b600081519050919050565b7f4e487b7100000000000000000000000000000000000000000000000000000000600052602260045260246000fd5b6000600282049050600182168061050057607f821691505b602082108103610513576105126104b9565b5b50919050565b60008190508160005260206000209050919050565b60006020601f8301049050919050565b600082821b905092915050565b60006008830261057b7fffffffffffffffffffffffffffffffffffffffffffffffffffffffffffffffff8261053e565b610585868361053e565b95508019841693508086168417925050509392505050565b6000819050919050565b6000819050919050565b60006105cc6105c76105c28461059d565b6105a7565b61059d565b9050919050565b6000819050919050565b6105e6836105b1565b6105fa6105f2826105d3565b84845461054b565b825550505050565b600090565b61060f610602565b61061a8184846105dd565b505050565b5b8181101561063e57610633600082610607565b600181019050610620565b5050565b601f8211156106835761065481610519565b61065d8461052e565b8101602085101561066c578190505b6106806106788561052e565b83018261061f565b50505b505050565b600082821c905092915050565b60006106a660001984600802610688565b1980831691505092915050565b60006106bf8383610695565b9150826002028217905092915050565b6106d8826104ae565b67ffffffffffffffff8111156106f1576106f0610233565b5b6106fb82546104e8565b610706828285610642565b600060209050601f8311600181146107395760008415610727578287015190505b61073185826106b3565b865550610799565b601f19841661074786610519565b60005b8281101561076f5784890151825560018201915060208501945060208101905061074a565b8683101561078c5784890151610788601f891682610695565b8355505b6001600288020188555050505b505050505050565b612e2e806107b06000396000f3fe608060405234801561001057600080fd5b50600436106101425760003560e01c806391d14854116100b8578063b45a3c0e1161007c578063b45a3c0e14610399578063b88d4fde146103c9578063c87b56dd146103e5578063d204c45e14610415578063d547741f14610445578063e985e9c51461046157610142565b806391d14854146102e157806395d89b4114610311578063988da80f1461032f578063a217fddf1461035f578063a22cb4651461037d57610142565b8063248a9ca31161010a578063248a9ca3146101fd5780632f2ff15d1461022d57806336568abe1461024957806342842e0e146102655780636352211e1461028157806370a08231146102b157610142565b806301ffc9a71461014757806306fdde0314610177578063081812fc14610195578063095ea7b3146101c557806323b872dd146101e1575b600080fd5b610161600480360381019061015c919061206c565b610491565b60405161016e91906120b4565b60405180910390f35b61017f6104a3565b60405161018c919061215f565b60405180910390f35b6101af60048036038101906101aa91906121b7565b610535565b6040516101bc9190612225565b60405180910390f35b6101df60048036038101906101da919061226c565b610551565b005b6101fb60048036038101906101f691906122ac565b6105a6565b005b61021760048036038101906102129190612335565b6105fd565b6040516102249190612371565b60405180910390f35b6102476004803603810190610242919061238c565b61061d565b005b610263600480360381019061025e919061238c565b61063f565b005b61027f600480360381019061027a91906122ac565b6106ba565b005b61029b600480360381019061029691906121b7565b6106da565b6040516102a89190612225565b60405180910390f35b6102cb60048036038101906102c691906123cc565b6106ec565b6040516102d89190612408565b60405180910390f35b6102fb60048036038101906102f6919061238c565b6107a6565b60405161030891906120b4565b60405180910390f35b610319610811565b604051610326919061215f565b60405180910390f35b610349600480360381019061034491906121b7565b6108a3565b604051610356919061215f565b60405180910390f35b610367610990565b6040516103749190612371565b60405180910390f35b6103976004803603810190610392919061244f565b610997565b005b6103b360048036038101906103ae91906121b7565b6109ec565b6040516103c091906120b4565b60405180910390f35b6103e360048036038101906103de91906125c4565b610a44565b005b6103ff60048036038101906103fa91906121b7565b610a9d565b60405161040c919061215f565b60405180910390f35b61042f600480360381019061042a91906126e8565b610b06565b60405161043c9190612408565b60405180910390f35b61045f600480360381019061045a919061238c565b610c19565b005b61047b60048036038101906104769190612744565b610c3b565b60405161048891906120b4565b60405180910390f35b600061049c82610ccf565b9050919050565b6060600080546104b2906127b3565b80601f01602080910402602001604051908101604052809291908181526020018280546104de906127b3565b801561052b5780601f106105005761010080835404028352916020019161052b565b820191906000526020600020905b81548152906001019060200180831161050e57829003601f168201915b5050505050905090565b600061054082610d49565b5061054a82610dd1565b9050919050565b600660009054906101000a900460ff1615610598576040517fbd291a9500000000000000000000000000000000000000000000000000000000815260040160405180910390fd5b6105a28282610e0e565b5050565b600660009054906101000a900460ff16156105ed576040517fbd291a9500000000000000000000000000000000000000000000000000000000815260040160405180910390fd5b6105f8838383610e24565b505050565b600060076000838152602001908152602001600020600101549050919050565b610626826105fd565b61062f81610f26565b6106398383610f3a565b50505050565b61064761102c565b73ffffffffffffffffffffffffffffffffffffffff168173ffffffffffffffffffffffffffffffffffffffff16146106ab576040517f6697b23200000000000000000000000000000000000000000000000000000000815260040160405180910390fd5b6106b58282611034565b505050565b6106d583838360405180602001604052806000815250610a44565b505050565b60006106e582610d49565b9050919050565b60008073ffffffffffffffffffffffffffffffffffffffff168273ffffffffffffffffffffffffffffffffffffffff160361075f5760006040517f89c62b640000000000000000000000000000000000000000000000000000000081526004016107569190612225565b60405180910390fd5b600360008373ffffffffffffffffffffffffffffffffffffffff1673ffffffffffffffffffffffffffffffffffffffff168152602001908152602001600020549050919050565b60006007600084815260200190815260200160002060000160008373ffffffffffffffffffffffffffffffffffffffff1673ffffffffffffffffffffffffffffffffffffffff16815260200190815260200160002060009054906101000a900460ff16905092915050565b606060018054610820906127b3565b80601f016020809104026020016040519081016040528092919081815260200182805461084c906127b3565b80156108995780601f1061086e57610100808354040283529160200191610899565b820191906000526020600020905b81548152906001019060200180831161087c57829003601f168201915b5050505050905090565b60606108ae82611127565b6108ed576040517f08c379a00000000000000000000000000000000000000000000000000000000081526004016108e490612856565b60405180910390fd5b60096000838152602001908152602001600020805461090b906127b3565b80601f0160208091040260200160405190810160405280929190818152602001828054610937906127b3565b80156109845780601f1061095957610100808354040283529160200191610984565b820191906000526020600020905b81548152906001019060200180831161096757829003601f168201915b50505050509050919050565b6000801b81565b600660009054906101000a900460ff16156109de576040517fbd291a9500000000000000000000000000000000000000000000000000000000815260040160405180910390fd5b6109e88282611168565b5050565b60006109f782611127565b610a2d576040517fae9a63f500000000000000000000000000000000000000000000000000000000815260040160405180910390fd5b600660009054906101000a900460ff169050919050565b600660009054906101000a900460ff1615610a8b576040517fbd291a9500000000000000000000000000000000000000000000000000000000815260040160405180910390fd5b610a978484848461117e565b50505050565b6060610aa882610d49565b506000610ab36111a3565b90506000815111610ad35760405180602001604052806000815250610afe565b80610add846111ba565b604051602001610aee9291906128b2565b6040516020818303038152906040525b915050919050565b60003373ffffffffffffffffffffffffffffffffffffffff168373ffffffffffffffffffffffffffffffffffffffff1614610b76576040517f08c379a0000000000000000000000000000000000000000000000000000000008152600401610b6d90612948565b60405180910390fd5b60006008549050610b878482611288565b60086000815480929190610b9a90612997565b919050555082600960008381526020019081526020016000209081610bbf9190612b8b565b50808473ffffffffffffffffffffffffffffffffffffffff167f4b9ad712e7eaa8cc24efaf239a9107a8e27385fb66e301d70c4f0d5747bde65385604051610c07919061215f565b60405180910390a38091505092915050565b610c22826105fd565b610c2b81610f26565b610c358383611034565b50505050565b6000600560008473ffffffffffffffffffffffffffffffffffffffff1673ffffffffffffffffffffffffffffffffffffffff16815260200190815260200160002060008373ffffffffffffffffffffffffffffffffffffffff1673ffffffffffffffffffffffffffffffffffffffff16815260200190815260200160002060009054906101000a900460ff16905092915050565b60007f7965db0b000000000000000000000000000000000000000000000000000000007bffffffffffffffffffffffffffffffffffffffffffffffffffffffff1916827bffffffffffffffffffffffffffffffffffffffffffffffffffffffff19161480610d425750610d41826112a6565b5b9050919050565b600080610d5583611320565b9050600073ffffffffffffffffffffffffffffffffffffffff168173ffffffffffffffffffffffffffffffffffffffff1603610dc857826040517f7e273289000000000000000000000000000000000000000000000000000000008152600401610dbf9190612408565b60405180910390fd5b80915050919050565b60006004600083815260200190815260200160002060009054906101000a900473ffffffffffffffffffffffffffffffffffffffff169050919050565b610e208282610e1b61102c565b61135d565b5050565b600073ffffffffffffffffffffffffffffffffffffffff168273ffffffffffffffffffffffffffffffffffffffff1603610e965760006040517f64a0ae92000000000000000000000000000000000000000000000000000000008152600401610e8d9190612225565b60405180910390fd5b6000610eaa8383610ea561102c565b61136f565b90508373ffffffffffffffffffffffffffffffffffffffff168173ffffffffffffffffffffffffffffffffffffffff1614610f20578382826040517f64283d7b000000000000000000000000000000000000000000000000000000008152600401610f1793929190612c5d565b60405180910390fd5b50505050565b610f3781610f3261102c565b611589565b50565b6000610f4683836107a6565b6110215760016007600085815260200190815260200160002060000160008473ffffffffffffffffffffffffffffffffffffffff1673ffffffffffffffffffffffffffffffffffffffff16815260200190815260200160002060006101000a81548160ff021916908315150217905550610fbe61102c565b73ffffffffffffffffffffffffffffffffffffffff168273ffffffffffffffffffffffffffffffffffffffff16847f2f8788117e7eff1d82e926ec794901d17c78024a50270940304540a733656f0d60405160405180910390a460019050611026565b600090505b92915050565b600033905090565b600061104083836107a6565b1561111c5760006007600085815260200190815260200160002060000160008473ffffffffffffffffffffffffffffffffffffffff1673ffffffffffffffffffffffffffffffffffffffff16815260200190815260200160002060006101000a81548160ff0219169083151502179055506110b961102c565b73ffffffffffffffffffffffffffffffffffffffff168273ffffffffffffffffffffffffffffffffffffffff16847ff6391f5c32d9c69d2a47ea670b442974b53935d1edc7fd64eb21e047a839171b60405160405180910390a460019050611121565b600090505b92915050565b60008073ffffffffffffffffffffffffffffffffffffffff1661114983611320565b73ffffffffffffffffffffffffffffffffffffffff1614159050919050565b61117a61117361102c565b83836115da565b5050565b6111898484846105a6565b61119d61119461102c565b85858585611749565b50505050565b606060405180602001604052806000815250905090565b6060600060016111c9846118fa565b01905060008167ffffffffffffffff8111156111e8576111e7612499565b5b6040519080825280601f01601f19166020018201604052801561121a5781602001600182028036833780820191505090505b509050600082602001820190505b60011561127d578080600190039150507f3031323334353637383961626364656600000000000000000000000000000000600a86061a8153600a858161127157611270612c94565b5b04945060008503611228575b819350505050919050565b6112a2828260405180602001604052806000815250611a4d565b5050565b60007fb45a3c0e000000000000000000000000000000000000000000000000000000007bffffffffffffffffffffffffffffffffffffffffffffffffffffffff1916827bffffffffffffffffffffffffffffffffffffffffffffffffffffffff19161480611319575061131882611a71565b5b9050919050565b60006002600083815260200190815260200160002060009054906101000a900473ffffffffffffffffffffffffffffffffffffffff169050919050565b61136a8383836001611b53565b505050565b60008061137b84611320565b9050600073ffffffffffffffffffffffffffffffffffffffff168373ffffffffffffffffffffffffffffffffffffffff16146113bd576113bc818486611d18565b5b600073ffffffffffffffffffffffffffffffffffffffff168173ffffffffffffffffffffffffffffffffffffffff161461144e576113ff600085600080611b53565b6001600360008373ffffffffffffffffffffffffffffffffffffffff1673ffffffffffffffffffffffffffffffffffffffff168152602001908152602001600020600082825403925050819055505b600073ffffffffffffffffffffffffffffffffffffffff168573ffffffffffffffffffffffffffffffffffffffff16146114d1576001600360008773ffffffffffffffffffffffffffffffffffffffff1673ffffffffffffffffffffffffffffffffffffffff168152602001908152602001600020600082825401925050819055505b846002600086815260200190815260200160002060006101000a81548173ffffffffffffffffffffffffffffffffffffffff021916908373ffffffffffffffffffffffffffffffffffffffff160217905550838573ffffffffffffffffffffffffffffffffffffffff168273ffffffffffffffffffffffffffffffffffffffff167fddf252ad1be2c89b69c2b068fc378daa952ba7f163c4a11628f55a4df523b3ef60405160405180910390a4809150509392505050565b61159382826107a6565b6115d65780826040517fe2517d3f0000000000000000000000000000000000000000000000000000000081526004016115cd929190612cc3565b60405180910390fd5b5050565b600073ffffffffffffffffffffffffffffffffffffffff168273ffffffffffffffffffffffffffffffffffffffff160361164b57816040517f5b08ba180000000000000000000000000000000000000000000000000000000081526004016116429190612225565b60405180910390fd5b80600560008573ffffffffffffffffffffffffffffffffffffffff1673ffffffffffffffffffffffffffffffffffffffff16815260200190815260200160002060008473ffffffffffffffffffffffffffffffffffffffff1673ffffffffffffffffffffffffffffffffffffffff16815260200190815260200160002060006101000a81548160ff0219169083151502179055508173ffffffffffffffffffffffffffffffffffffffff168373ffffffffffffffffffffffffffffffffffffffff167f17307eab39ab6107e8899845ad3d59bd9653f200f220920489ca2b5937696c318360405161173c91906120b4565b60405180910390a3505050565b60008373ffffffffffffffffffffffffffffffffffffffff163b11156118f3578273ffffffffffffffffffffffffffffffffffffffff1663150b7a02868685856040518563ffffffff1660e01b81526004016117a89493929190612d41565b6020604051808303816000875af19250505080156117e457506040513d601f19601f820116820180604052508101906117e19190612da2565b60015b611868573d8060008114611814576040519150601f19603f3d011682016040523d82523d6000602084013e611819565b606091505b50600081510361186057836040517f64a0ae920000000000000000000000000000000000000000000000000000000081526004016118579190612225565b60405180910390fd5b805181602001fd5b63150b7a0260e01b7bffffffffffffffffffffffffffffffffffffffffffffffffffffffff1916817bffffffffffffffffffffffffffffffffffffffffffffffffffffffff1916146118f157836040517f64a0ae920000000000000000000000000000000000000000000000000000000081526004016118e89190612225565b60405180910390fd5b505b5050505050565b600080600090507a184f03e93ff9f4daa797ed6e38ed64bf6a1f0100000000000000008310611958577a184f03e93ff9f4daa797ed6e38ed64bf6a1f010000000000000000838161194e5761194d612c94565b5b0492506040810190505b6d04ee2d6d415b85acef81000000008310611995576d04ee2d6d415b85acef8100000000838161198b5761198a612c94565b5b0492506020810190505b662386f26fc1000083106119c457662386f26fc1000083816119ba576119b9612c94565b5b0492506010810190505b6305f5e10083106119ed576305f5e10083816119e3576119e2612c94565b5b0492506008810190505b6127108310611a12576127108381611a0857611a07612c94565b5b0492506004810190505b60648310611a355760648381611a2b57611a2a612c94565b5b0492506002810190505b600a8310611a44576001810190505b80915050919050565b611a578383611ddc565b611a6c611a6261102c565b6000858585611749565b505050565b60007f80ac58cd000000000000000000000000000000000000000000000000000000007bffffffffffffffffffffffffffffffffffffffffffffffffffffffff1916827bffffffffffffffffffffffffffffffffffffffffffffffffffffffff19161480611b3c57507f5b5e139f000000000000000000000000000000000000000000000000000000007bffffffffffffffffffffffffffffffffffffffffffffffffffffffff1916827bffffffffffffffffffffffffffffffffffffffffffffffffffffffff1916145b80611b4c5750611b4b82611ed5565b5b9050919050565b8080611b8c5750600073ffffffffffffffffffffffffffffffffffffffff168273ffffffffffffffffffffffffffffffffffffffff1614155b15611cc0576000611b9c84610d49565b9050600073ffffffffffffffffffffffffffffffffffffffff168373ffffffffffffffffffffffffffffffffffffffff1614158015611c0757508273ffffffffffffffffffffffffffffffffffffffff168173ffffffffffffffffffffffffffffffffffffffff1614155b8015611c1a5750611c188184610c3b565b155b15611c5c57826040517fa9fbf51f000000000000000000000000000000000000000000000000000000008152600401611c539190612225565b60405180910390fd5b8115611cbe57838573ffffffffffffffffffffffffffffffffffffffff168273ffffffffffffffffffffffffffffffffffffffff167f8c5be1e5ebec7d5bd14f71427d1e84f3dd0314c0f7b2291e5b200ac8c7c3b92560405160405180910390a45b505b836004600085815260200190815260200160002060006101000a81548173ffffffffffffffffffffffffffffffffffffffff021916908373ffffffffffffffffffffffffffffffffffffffff16021790555050505050565b611d23838383611f3f565b611dd757600073ffffffffffffffffffffffffffffffffffffffff168373ffffffffffffffffffffffffffffffffffffffff1603611d9857806040517f7e273289000000000000000000000000000000000000000000000000000000008152600401611d8f9190612408565b60405180910390fd5b81816040517f177e802f000000000000000000000000000000000000000000000000000000008152600401611dce929190612dcf565b60405180910390fd5b505050565b600073ffffffffffffffffffffffffffffffffffffffff168273ffffffffffffffffffffffffffffffffffffffff1603611e4e5760006040517f64a0ae92000000000000000000000000000000000000000000000000000000008152600401611e459190612225565b60405180910390fd5b6000611e5c8383600061136f565b9050600073ffffffffffffffffffffffffffffffffffffffff168173ffffffffffffffffffffffffffffffffffffffff1614611ed05760006040517f73c6ac6e000000000000000000000000000000000000000000000000000000008152600401611ec79190612225565b60405180910390fd5b505050565b60007f01ffc9a7000000000000000000000000000000000000000000000000000000007bffffffffffffffffffffffffffffffffffffffffffffffffffffffff1916827bffffffffffffffffffffffffffffffffffffffffffffffffffffffff1916149050919050565b60008073ffffffffffffffffffffffffffffffffffffffff168373ffffffffffffffffffffffffffffffffffffffff1614158015611ff757508273ffffffffffffffffffffffffffffffffffffffff168473ffffffffffffffffffffffffffffffffffffffff161480611fb85750611fb78484610c3b565b5b80611ff657508273ffffffffffffffffffffffffffffffffffffffff16611fde83610dd1565b73ffffffffffffffffffffffffffffffffffffffff16145b5b90509392505050565b6000604051905090565b600080fd5b600080fd5b60007fffffffff0000000000000000000000000000000000000000000000000000000082169050919050565b61204981612014565b811461205457600080fd5b50565b60008135905061206681612040565b92915050565b6000602082840312156120825761208161200a565b5b600061209084828501612057565b91505092915050565b60008115159050919050565b6120ae81612099565b82525050565b60006020820190506120c960008301846120a5565b92915050565b600081519050919050565b600082825260208201905092915050565b60005b838110156121095780820151818401526020810190506120ee565b60008484015250505050565b6000601f19601f8301169050919050565b6000612131826120cf565b61213b81856120da565b935061214b8185602086016120eb565b61215481612115565b840191505092915050565b600060208201905081810360008301526121798184612126565b905092915050565b6000819050919050565b61219481612181565b811461219f57600080fd5b50565b6000813590506121b18161218b565b92915050565b6000602082840312156121cd576121cc61200a565b5b60006121db848285016121a2565b91505092915050565b600073ffffffffffffffffffffffffffffffffffffffff82169050919050565b600061220f826121e4565b9050919050565b61221f81612204565b82525050565b600060208201905061223a6000830184612216565b92915050565b61224981612204565b811461225457600080fd5b50565b60008135905061226681612240565b92915050565b600080604083850312156122835761228261200a565b5b600061229185828601612257565b92505060206122a2858286016121a2565b9150509250929050565b6000806000606084860312156122c5576122c461200a565b5b60006122d386828701612257565b93505060206122e486828701612257565b92505060406122f5868287016121a2565b9150509250925092565b6000819050919050565b612312816122ff565b811461231d57600080fd5b50565b60008135905061232f81612309565b92915050565b60006020828403121561234b5761234a61200a565b5b600061235984828501612320565b91505092915050565b61236b816122ff565b82525050565b60006020820190506123866000830184612362565b92915050565b600080604083850312156123a3576123a261200a565b5b60006123b185828601612320565b92505060206123c285828601612257565b9150509250929050565b6000602082840312156123e2576123e161200a565b5b60006123f084828501612257565b91505092915050565b61240281612181565b82525050565b600060208201905061241d60008301846123f9565b92915050565b61242c81612099565b811461243757600080fd5b50565b60008135905061244981612423565b92915050565b600080604083850312156124665761246561200a565b5b600061247485828601612257565b92505060206124858582860161243a565b9150509250929050565b600080fd5b600080fd5b7f4e487b7100000000000000000000000000000000000000000000000000000000600052604160045260246000fd5b6124d182612115565b810181811067ffffffffffffffff821117156124f0576124ef612499565b5b80604052505050565b6000612503612000565b905061250f82826124c8565b919050565b600067ffffffffffffffff82111561252f5761252e612499565b5b61253882612115565b9050602081019050919050565b82818337600083830152505050565b600061256761256284612514565b6124f9565b90508281526020810184848401111561258357612582612494565b5b61258e848285612545565b509392505050565b600082601f8301126125ab576125aa61248f565b5b81356125bb848260208601612554565b91505092915050565b600080600080608085870312156125de576125dd61200a565b5b60006125ec87828801612257565b94505060206125fd87828801612257565b935050604061260e878288016121a2565b925050606085013567ffffffffffffffff81111561262f5761262e61200f565b5b61263b87828801612596565b91505092959194509250565b600067ffffffffffffffff82111561266257612661612499565b5b61266b82612115565b9050602081019050919050565b600061268b61268684612647565b6124f9565b9050828152602081018484840111156126a7576126a6612494565b5b6126b2848285612545565b509392505050565b600082601f8301126126cf576126ce61248f565b5b81356126df848260208601612678565b91505092915050565b600080604083850312156126ff576126fe61200a565b5b600061270d85828601612257565b925050602083013567ffffffffffffffff81111561272e5761272d61200f565b5b61273a858286016126ba565b9150509250929050565b6000806040838503121561275b5761275a61200a565b5b600061276985828601612257565b925050602061277a85828601612257565b9150509250929050565b7f4e487b7100000000000000000000000000000000000000000000000000000000600052602260045260246000fd5b600060028204905060018216806127cb57607f821691505b6020821081036127de576127dd612784565b5b50919050565b7f4d656d6265725342543a20517565727920666f72206e6f6e6578697374656e7460008201527f20746f6b656e0000000000000000000000000000000000000000000000000000602082015250565b60006128406026836120da565b915061284b826127e4565b604082019050919050565b6000602082019050818103600083015261286f81612833565b9050919050565b600081905092915050565b600061288c826120cf565b6128968185612876565b93506128a68185602086016120eb565b80840191505092915050565b60006128be8285612881565b91506128ca8284612881565b91508190509392505050565b7f4d656d6265725342545f44656d6f3a20596f752063616e206f6e6c79206d696e60008201527f7420616e2053425420666f7220796f757273656c662e00000000000000000000602082015250565b60006129326036836120da565b915061293d826128d6565b604082019050919050565b6000602082019050818103600083015261296181612925565b9050919050565b7f4e487b7100000000000000000000000000000000000000000000000000000000600052601160045260246000fd5b60006129a282612181565b91507fffffffffffffffffffffffffffffffffffffffffffffffffffffffffffffffff82036129d4576129d3612968565b5b600182019050919050565b60008190508160005260206000209050919050565b60006020601f8301049050919050565b600082821b905092915050565b600060088302612a417fffffffffffffffffffffffffffffffffffffffffffffffffffffffffffffffff82612a04565b612a4b8683612a04565b95508019841693508086168417925050509392505050565b6000819050919050565b6000612a88612a83612a7e84612181565b612a63565b612181565b9050919050565b6000819050919050565b612aa283612a6d565b612ab6612aae82612a8f565b848454612a11565b825550505050565b600090565b612acb612abe565b612ad6818484612a99565b505050565b5b81811015612afa57612aef600082612ac3565b600181019050612adc565b5050565b601f821115612b3f57612b10816129df565b612b19846129f4565b81016020851015612b28578190505b612b3c612b34856129f4565b830182612adb565b50505b505050565b600082821c905092915050565b6000612b6260001984600802612b44565b1980831691505092915050565b6000612b7b8383612b51565b9150826002028217905092915050565b612b94826120cf565b67ffffffffffffffff811115612bad57612bac612499565b5b612bb782546127b3565b612bc2828285612afe565b600060209050601f831160018114612bf55760008415612be3578287015190505b612bed8582612b6f565b865550612c55565b601f198416612c03866129df565b60005b82811015612c2b57848901518255600182019150602085019450602081019050612c06565b86831015612c485784890151612c44601f891682612b51565b8355505b6001600288020188555050505b505050505050565b6000606082019050612c726000830186612216565b612c7f60208301856123f9565b612c8c6040830184612216565b949350505050565b7f4e487b7100000000000000000000000000000000000000000000000000000000600052601260045260246000fd5b6000604082019050612cd86000830185612216565b612ce56020830184612362565b9392505050565b600081519050919050565b600082825260208201905092915050565b6000612d1382612cec565b612d1d8185612cf7565b9350612d2d8185602086016120eb565b612d3681612115565b840191505092915050565b6000608082019050612d566000830187612216565b612d636020830186612216565b612d7060408301856123f9565b8181036060830152612d828184612d08565b905095945050505050565b600081519050612d9c81612040565b92915050565b600060208284031215612db857612db761200a565b5b6000612dc684828501612d8d565b91505092915050565b6000604082019050612de46000830185612216565b612df160208301846123f9565b939250505056fea26469706673582212205fa0b101d1ecd8f62edc2c5e123bfb6e1cad240e0b02c74e54273ffeea1ab39b64736f6c634300081c0033",
  "linkReferences": {},
  "deployedLinkReferences": {}
}