{
  "_format": "hh-sol-artifact-1",
  "contractName": "MemberSBT",
  "sourceName": "contracts/MemberSBT.sol",
  "abi": [
    {
      "inputs": [
        {
          "internalType": "string",
          "name": "_name",
          "type": "string"
        },
        {
          "internalType": "string",
          "name": "_symbol",
          "type": "string"
        },
        {
          "internalType": "bool",
          "name": "_isLocked",
          "type": "bool"
        },
        {
          "internalType": "address",
          "name": "ownerAdmin",
          "type": "address"
        },
        {
          "internalType": "address",
          "name": "minter1",
          "type": "address"
        },
        {
          "internalType": "address",
          "name": "minter2",
          "type": "address"
        }
      ],
      "stateMutability": "nonpayable",
      "type": "constructor"
    },
    {
      "inputs": [],
      "name": "AccessControlBadConfirmation",
      "type": "error"
    },
    {
      "inputs": [
        {
          "internalType": "address",
          "name": "account",
          "type": "address"
        },
        {
          "internalType": "bytes32",
          "name": "neededRole",
          "type": "bytes32"
        }
      ],
      "name": "AccessControlUnauthorizedAccount",
      "type": "error"
    },
    {
      "inputs": [
        {
          "internalType": "address",
          "name": "sender",
          "type": "address"
        },
        {
          "internalType": "uint256",
          "name": "tokenId",
          "type": "uint256"
        },
        {
          "internalType": "address",
          "name": "owner",
          "type": "address"
        }
      ],
      "name": "ERC721IncorrectOwner",
      "type": "error"
    },
    {
      "inputs": [
        {
          "internalType": "address",
          "name": "operator",
          "type": "address"
        },
        {
          "internalType": "uint256",
          "name": "tokenId",
          "type": "uint256"
        }
      ],
      "name": "ERC721InsufficientApproval",
      "type": "error"
    },
    {
      "inputs": [
        {
          "internalType": "address",
          "name": "approver",
          "type": "address"
        }
      ],
      "name": "ERC721InvalidApprover",
      "type": "error"
    },
    {
      "inputs": [
        {
          "internalType": "address",
          "name": "operator",
          "type": "address"
        }
      ],
      "name": "ERC721InvalidOperator",
      "type": "error"
    },
    {
      "inputs": [
        {
          "internalType": "address",
          "name": "owner",
          "type": "address"
        }
      ],
      "name": "ERC721InvalidOwner",
      "type": "error"
    },
    {
      "inputs": [
        {
          "internalType": "address",
          "name": "receiver",
          "type": "address"
        }
      ],
      "name": "ERC721InvalidReceiver",
      "type": "error"
    },
    {
      "inputs": [
        {
          "internalType": "address",
          "name": "sender",
          "type": "address"
        }
      ],
      "name": "ERC721InvalidSender",
      "type": "error"
    },
    {
      "inputs": [
        {
          "internalType": "uint256",
          "name": "tokenId",
          "type": "uint256"
        }
      ],
      "name": "ERC721NonexistentToken",
      "type": "error"
    },
    {
      "inputs": [],
      "name": "ErrLocked",
      "type": "error"
    },
    {
      "inputs": [],
      "name": "ErrNotFound",
      "type": "error"
    },
    {
      "anonymous": false,
      "inputs": [
        {
          "indexed": true,
          "internalType": "address",
          "name": "owner",
          "type": "address"
        },
        {
          "indexed": true,
          "internalType": "address",
          "name": "approved",
          "type": "address"
        },
        {
          "indexed": true,
          "internalType": "uint256",
          "name": "tokenId",
          "type": "uint256"
        }
      ],
      "name": "Approval",
      "type": "event"
    },
    {
      "anonymous": false,
      "inputs": [
        {
          "indexed": true,
          "internalType": "address",
          "name": "owner",
          "type": "address"
        },
        {
          "indexed": true,
          "internalType": "address",
          "name": "operator",
          "type": "address"
        },
        {
          "indexed": false,
          "internalType": "bool",
          "name": "approved",
          "type": "bool"
        }
      ],
      "name": "ApprovalForAll",
      "type": "event"
    },
    {
      "anonymous": false,
      "inputs": [
        {
          "indexed": false,
          "internalType": "uint256",
          "name": "tokenId",
          "type": "uint256"
        }
      ],
      "name": "Locked",
      "type": "event"
    },
    {
      "anonymous": false,
      "inputs": [
        {
          "indexed": true,
          "internalType": "bytes32",
          "name": "role",
          "type": "bytes32"
        },
        {
          "indexed": true,
          "internalType": "bytes32",
          "name": "previousAdminRole",
          "type": "bytes32"
        },
        {
          "indexed": true,
          "internalType": "bytes32",
          "name": "newAdminRole",
          "type": "bytes32"
        }
      ],
      "name": "RoleAdminChanged",
      "type": "event"
    },
    {
      "anonymous": false,
      "inputs": [
        {
          "indexed": true,
          "internalType": "bytes32",
          "name": "role",
          "type": "bytes32"
        },
        {
          "indexed": true,
          "internalType": "address",
          "name": "account",
          "type": "address"
        },
        {
          "indexed": true,
          "internalType": "address",
          "name": "sender",
          "type": "address"
        }
      ],
      "name": "RoleGranted",
      "type": "event"
    },
    {
      "anonymous": false,
      "inputs": [
        {
          "indexed": true,
          "internalType": "bytes32",
          "name": "role",
          "type": "bytes32"
        },
        {
          "indexed": true,
          "internalType": "address",
          "name": "account",
          "type": "address"
        },
        {
          "indexed": true,
          "internalType": "address",
          "name": "sender",
          "type": "address"
        }
      ],
      "name": "RoleRevoked",
      "type": "event"
    },
    {
      "anonymous": false,
      "inputs": [
        {
          "indexed": true,
          "internalType": "address",
          "name": "from",
          "type": "address"
        },
        {
          "indexed": true,
          "internalType": "address",
          "name": "to",
          "type": "address"
        },
        {
          "indexed": true,
          "internalType": "uint256",
          "name": "tokenId",
          "type": "uint256"
        }
      ],
      "name": "Transfer",
      "type": "event"
    },
    {
      "anonymous": false,
      "inputs": [
        {
          "indexed": false,
          "internalType": "uint256",
          "name": "tokenId",
          "type": "uint256"
        }
      ],
      "name": "Unlocked",
      "type": "event"
    },
    {
      "inputs": [],
      "name": "DEFAULT_ADMIN_ROLE",
      "outputs": [
        {
          "internalType": "bytes32",
          "name": "",
          "type": "bytes32"
        }
      ],
      "stateMutability": "view",
      "type": "function"
    },
    {
      "inputs": [],
      "name": "MINTER_ROLE",
      "outputs": [
        {
          "internalType": "bytes32",
          "name": "",
          "type": "bytes32"
        }
      ],
      "stateMutability": "view",
      "type": "function"
    },
    {
      "inputs": [
        {
          "internalType": "address",
          "name": "approved",
          "type": "address"
        },
        {
          "internalType": "uint256",
          "name": "tokenId",
          "type": "uint256"
        }
      ],
      "name": "approve",
      "outputs": [],
      "stateMutability": "nonpayable",
      "type": "function"
    },
    {
      "inputs": [
        {
          "internalType": "address",
          "name": "owner",
          "type": "address"
        }
      ],
      "name": "balanceOf",
      "outputs": [
        {
          "internalType": "uint256",
          "name": "",
          "type": "uint256"
        }
      ],
      "stateMutability": "view",
      "type": "function"
    },
    {
      "inputs": [
        {
          "internalType": "uint256",
          "name": "tokenId",
          "type": "uint256"
        }
      ],
      "name": "getApproved",
      "outputs": [
        {
          "internalType": "address",
          "name": "",
          "type": "address"
        }
      ],
      "stateMutability": "view",
      "type": "function"
    },
    {
      "inputs": [
        {
          "internalType": "bytes32",
          "name": "role",
          "type": "bytes32"
        }
      ],
      "name": "getRoleAdmin",
      "outputs": [
        {
          "internalType": "bytes32",
          "name": "",
          "type": "bytes32"
        }
      ],
      "stateMutability": "view",
      "type": "function"
    },
    {
      "inputs": [
        {
          "internalType": "uint256",
          "name": "tokenId",
          "type": "uint256"
        }
      ],
      "name": "getTokenName",
      "outputs": [
        {
          "internalType": "string",
          "name": "",
          "type": "string"
        }
      ],
      "stateMutability": "view",
      "type": "function"
    },
    {
      "inputs": [
        {
          "internalType": "bytes32",
          "name": "role",
          "type": "bytes32"
        },
        {
          "internalType": "address",
          "name": "account",
          "type": "address"
        }
      ],
      "name": "grantRole",
      "outputs": [],
      "stateMutability": "nonpayable",
      "type": "function"
    },
    {
      "inputs": [
        {
          "internalType": "bytes32",
          "name": "role",
          "type": "bytes32"
        },
        {
          "internalType": "address",
          "name": "account",
          "type": "address"
        }
      ],
      "name": "hasRole",
      "outputs": [
        {
          "internalType": "bool",
          "name": "",
          "type": "bool"
        }
      ],
      "stateMutability": "view",
      "type": "function"
    },
    {
      "inputs": [
        {
          "internalType": "address",
          "name": "owner",
          "type": "address"
        },
        {
          "internalType": "address",
          "name": "operator",
          "type": "address"
        }
      ],
      "name": "isApprovedForAll",
      "outputs": [
        {
          "internalType": "bool",
          "name": "",
          "type": "bool"
        }
      ],
      "stateMutability": "view",
      "type": "function"
    },
    {
      "inputs": [
        {
          "internalType": "uint256",
          "name": "tokenId",
          "type": "uint256"
        }
      ],
      "name": "locked",
      "outputs": [
        {
          "internalType": "bool",
          "name": "",
          "type": "bool"
        }
      ],
      "stateMutability": "view",
      "type": "function"
    },
    {
      "inputs": [],
      "name": "name",
      "outputs": [
        {
          "internalType": "string",
          "name": "",
          "type": "string"
        }
      ],
      "stateMutability": "view",
      "type": "function"
    },
    {
      "inputs": [
        {
          "internalType": "uint256",
          "name": "tokenId",
          "type": "uint256"
        }
      ],
      "name": "ownerOf",
      "outputs": [
        {
          "internalType": "address",
          "name": "",
          "type": "address"
        }
      ],
      "stateMutability": "view",
      "type": "function"
    },
    {
      "inputs": [
        {
          "internalType": "bytes32",
          "name": "role",
          "type": "bytes32"
        },
        {
          "internalType": "address",
          "name": "callerConfirmation",
          "type": "address"
        }
      ],
      "name": "renounceRole",
      "outputs": [],
      "stateMutability": "nonpayable",
      "type": "function"
    },
    {
      "inputs": [
        {
          "internalType": "bytes32",
          "name": "role",
          "type": "bytes32"
        },
        {
          "internalType": "address",
          "name": "account",
          "type": "address"
        }
      ],
      "name": "revokeRole",
      "outputs": [],
      "stateMutability": "nonpayable",
      "type": "function"
    },
    {
      "inputs": [
        {
          "internalType": "address",
          "name": "to",
          "type": "address"
        },
        {
          "internalType": "uint256",
          "name": "tokenId",
          "type": "uint256"
        },
        {
          "internalType": "string",
          "name": "tokenName",
          "type": "string"
        }
      ],
      "name": "safeMint",
      "outputs": [
        {
          "internalType": "uint256",
          "name": "",
          "type": "uint256"
        }
      ],
      "stateMutability": "nonpayable",
      "type": "function"
    },
    {
      "inputs": [
        {
          "internalType": "address",
          "name": "from",
          "type": "address"
        },
        {
          "internalType": "address",
          "name": "to",
          "type": "address"
        },
        {
          "internalType": "uint256",
          "name": "tokenId",
          "type": "uint256"
        }
      ],
      "name": "safeTransferFrom",
      "outputs": [],
      "stateMutability": "nonpayable",
      "type": "function"
    },
    {
      "inputs": [
        {
          "internalType": "address",
          "name": "from",
          "type": "address"
        },
        {
          "internalType": "address",
          "name": "to",
          "type": "address"
        },
        {
          "internalType": "uint256",
          "name": "tokenId",
          "type": "uint256"
        },
        {
          "internalType": "bytes",
          "name": "data",
          "type": "bytes"
        }
      ],
      "name": "safeTransferFrom",
      "outputs": [],
      "stateMutability": "nonpayable",
      "type": "function"
    },
    {
      "inputs": [
        {
          "internalType": "address",
          "name": "operator",
          "type": "address"
        },
        {
          "internalType": "bool",
          "name": "approved",
          "type": "bool"
        }
      ],
      "name": "setApprovalForAll",
      "outputs": [],
      "stateMutability": "nonpayable",
      "type": "function"
    },
    {
      "inputs": [
        {
          "internalType": "bytes4",
          "name": "interfaceId",
          "type": "bytes4"
        }
      ],
      "name": "supportsInterface",
      "outputs": [
        {
          "internalType": "bool",
          "name": "",
          "type": "bool"
        }
      ],
      "stateMutability": "view",
      "type": "function"
    },
    {
      "inputs": [],
      "name": "symbol",
      "outputs": [
        {
          "internalType": "string",
          "name": "",
          "type": "string"
        }
      ],
      "stateMutability": "view",
      "type": "function"
    },
    {
      "inputs": [
        {
          "internalType": "uint256",
          "name": "tokenId",
          "type": "uint256"
        }
      ],
      "name": "tokenURI",
      "outputs": [
        {
          "internalType": "string",
          "name": "",
          "type": "string"
        }
      ],
      "stateMutability": "view",
      "type": "function"
    },
    {
      "inputs": [
        {
          "internalType": "address",
          "name": "from",
          "type": "address"
        },
        {
          "internalType": "address",
          "name": "to",
          "type": "address"
        },
        {
          "internalType": "uint256",
          "name": "tokenId",
          "type": "uint256"
        }
      ],
      "name": "transferFrom",
      "outputs": [],
      "stateMutability": "nonpayable",
      "type": "function"
    }
  ],
  "bytecode": "0x608060405234801561001057600080fd5b5060405161349b38038061349b8339818101604052810190610032919061048d565b858585828281600090816100469190610773565b5080600190816100569190610773565b50505080600660006101000a81548160ff02191690831515021790555050505083600a60006101000a81548160ff0219169083151502179055506100a36000801b8461011160201b60201c565b506100d47f9f2df0fed2c77648de5860a4cc508cd0818c85b8b8a1ab4ceeef8d981c8956a68361011160201b60201c565b506101057f9f2df0fed2c77648de5860a4cc508cd0818c85b8b8a1ab4ceeef8d981c8956a68261011160201b60201c565b50505050505050610845565b6000610123838361020f60201b60201c565b6102045760016007600085815260200190815260200160002060000160008473ffffffffffffffffffffffffffffffffffffffff1673ffffffffffffffffffffffffffffffffffffffff16815260200190815260200160002060006101000a81548160ff0219169083151502179055506101a161027a60201b60201c565b73ffffffffffffffffffffffffffffffffffffffff168273ffffffffffffffffffffffffffffffffffffffff16847f2f8788117e7eff1d82e926ec794901d17c78024a50270940304540a733656f0d60405160405180910390a460019050610209565b600090505b92915050565b60006007600084815260200190815260200160002060000160008373ffffffffffffffffffffffffffffffffffffffff1673ffffffffffffffffffffffffffffffffffffffff16815260200190815260200160002060009054906101000a900460ff16905092915050565b600033905090565b6000604051905090565b600080fd5b600080fd5b600080fd5b600080fd5b6000601f19601f8301169050919050565b7f4e487b7100000000000000000000000000000000000000000000000000000000600052604160045260246000fd5b6102e9826102a0565b810181811067ffffffffffffffff82111715610308576103076102b1565b5b80604052505050565b600061031b610282565b905061032782826102e0565b919050565b600067ffffffffffffffff821115610347576103466102b1565b5b610350826102a0565b9050602081019050919050565b60005b8381101561037b578082015181840152602081019050610360565b60008484015250505050565b600061039a6103958461032c565b610311565b9050828152602081018484840111156103b6576103b561029b565b5b6103c184828561035d565b509392505050565b600082601f8301126103de576103dd610296565b5b81516103ee848260208601610387565b91505092915050565b60008115159050919050565b61040c816103f7565b811461041757600080fd5b50565b60008151905061042981610403565b92915050565b600073ffffffffffffffffffffffffffffffffffffffff82169050919050565b600061045a8261042f565b9050919050565b61046a8161044f565b811461047557600080fd5b50565b60008151905061048781610461565b92915050565b60008060008060008060c087890312156104aa576104a961028c565b5b600087015167ffffffffffffffff8111156104c8576104c7610291565b5b6104d489828a016103c9565b965050602087015167ffffffffffffffff8111156104f5576104f4610291565b5b61050189828a016103c9565b955050604061051289828a0161041a565b945050606061052389828a01610478565b935050608061053489828a01610478565b92505060a061054589828a01610478565b9150509295509295509295565b600081519050919050565b7f4e487b7100000000000000000000000000000000000000000000000000000000600052602260045260246000fd5b600060028204905060018216806105a457607f821691505b6020821081036105b7576105b661055d565b5b50919050565b60008190508160005260206000209050919050565b60006020601f8301049050919050565b600082821b905092915050565b60006008830261061f7fffffffffffffffffffffffffffffffffffffffffffffffffffffffffffffffff826105e2565b61062986836105e2565b95508019841693508086168417925050509392505050565b6000819050919050565b6000819050919050565b600061067061066b61066684610641565b61064b565b610641565b9050919050565b6000819050919050565b61068a83610655565b61069e61069682610677565b8484546105ef565b825550505050565b600090565b6106b36106a6565b6106be818484610681565b505050565b5b818110156106e2576106d76000826106ab565b6001810190506106c4565b5050565b601f821115610727576106f8816105bd565b610701846105d2565b81016020851015610710578190505b61072461071c856105d2565b8301826106c3565b50505b505050565b600082821c905092915050565b600061074a6000198460080261072c565b1980831691505092915050565b60006107638383610739565b9150826002028217905092915050565b61077c82610552565b67ffffffffffffffff811115610795576107946102b1565b5b61079f825461058c565b6107aa8282856106e6565b600060209050601f8311600181146107dd57600084156107cb578287015190505b6107d58582610757565b86555061083d565b601f1984166107eb866105bd565b60005b82811015610813578489015182556001820191506020850194506020810190506107ee565b86831015610830578489015161082c601f891682610739565b8355505b6001600288020188555050505b505050505050565b612c47806108546000396000f3fe608060405234801561001057600080fd5b506004361061014d5760003560e01c806391d14854116100c3578063c87b56dd1161007c578063c87b56dd146103c0578063cd279c7c146103f0578063d539139314610420578063d547741f1461043e578063dbe16c071461045a578063e985e9c51461048a5761014d565b806391d14854146102ec57806395d89b411461031c578063a217fddf1461033a578063a22cb46514610358578063b45a3c0e14610374578063b88d4fde146103a45761014d565b8063248a9ca311610115578063248a9ca3146102085780632f2ff15d1461023857806336568abe1461025457806342842e0e146102705780636352211e1461028c57806370a08231146102bc5761014d565b806301ffc9a71461015257806306fdde0314610182578063081812fc146101a0578063095ea7b3146101d057806323b872dd146101ec575b600080fd5b61016c6004803603810190610167919061200d565b6104ba565b6040516101799190612055565b60405180910390f35b61018a6104cc565b6040516101979190612100565b60405180910390f35b6101ba60048036038101906101b59190612158565b61055e565b6040516101c791906121c6565b60405180910390f35b6101ea60048036038101906101e5919061220d565b61057a565b005b6102066004803603810190610201919061224d565b6105cf565b005b610222600480360381019061021d91906122d6565b610626565b60405161022f9190612312565b60405180910390f35b610252600480360381019061024d919061232d565b610646565b005b61026e6004803603810190610269919061232d565b610668565b005b61028a6004803603810190610285919061224d565b6106e3565b005b6102a660048036038101906102a19190612158565b610703565b6040516102b391906121c6565b60405180910390f35b6102d660048036038101906102d1919061236d565b610715565b6040516102e391906123a9565b60405180910390f35b6103066004803603810190610301919061232d565b6107cf565b6040516103139190612055565b60405180910390f35b61032461083a565b6040516103319190612100565b60405180910390f35b6103426108cc565b60405161034f9190612312565b60405180910390f35b610372600480360381019061036d91906123f0565b6108d3565b005b61038e60048036038101906103899190612158565b610928565b60405161039b9190612055565b60405180910390f35b6103be60048036038101906103b99190612565565b610980565b005b6103da60048036038101906103d59190612158565b6109d9565b6040516103e79190612100565b60405180910390f35b61040a60048036038101906104059190612689565b610a42565b60405161041791906123a9565b60405180910390f35b610428610af1565b6040516104359190612312565b60405180910390f35b6104586004803603810190610453919061232d565b610b15565b005b610474600480360381019061046f9190612158565b610b37565b6040516104819190612100565b60405180910390f35b6104a4600480360381019061049f91906126f8565b610bdc565b6040516104b19190612055565b60405180910390f35b60006104c582610c70565b9050919050565b6060600080546104db90612767565b80601f016020809104026020016040519081016040528092919081815260200182805461050790612767565b80156105545780601f1061052957610100808354040283529160200191610554565b820191906000526020600020905b81548152906001019060200180831161053757829003601f168201915b5050505050905090565b600061056982610cea565b5061057382610d72565b9050919050565b600660009054906101000a900460ff16156105c1576040517fbd291a9500000000000000000000000000000000000000000000000000000000815260040160405180910390fd5b6105cb8282610daf565b5050565b600660009054906101000a900460ff1615610616576040517fbd291a9500000000000000000000000000000000000000000000000000000000815260040160405180910390fd5b610621838383610dc5565b505050565b600060076000838152602001908152602001600020600101549050919050565b61064f82610626565b61065881610ec7565b6106628383610edb565b50505050565b610670610fcd565b73ffffffffffffffffffffffffffffffffffffffff168173ffffffffffffffffffffffffffffffffffffffff16146106d4576040517f6697b23200000000000000000000000000000000000000000000000000000000815260040160405180910390fd5b6106de8282610fd5565b505050565b6106fe83838360405180602001604052806000815250610980565b505050565b600061070e82610cea565b9050919050565b60008073ffffffffffffffffffffffffffffffffffffffff168273ffffffffffffffffffffffffffffffffffffffff16036107885760006040517f89c62b6400000000000000000000000000000000000000000000000000000000815260040161077f91906121c6565b60405180910390fd5b600360008373ffffffffffffffffffffffffffffffffffffffff1673ffffffffffffffffffffffffffffffffffffffff168152602001908152602001600020549050919050565b60006007600084815260200190815260200160002060000160008373ffffffffffffffffffffffffffffffffffffffff1673ffffffffffffffffffffffffffffffffffffffff16815260200190815260200160002060009054906101000a900460ff16905092915050565b60606001805461084990612767565b80601f016020809104026020016040519081016040528092919081815260200182805461087590612767565b80156108c25780601f10610897576101008083540402835291602001916108c2565b820191906000526020600020905b8154815290600101906020018083116108a557829003601f168201915b5050505050905090565b6000801b81565b600660009054906101000a900460ff161561091a576040517fbd291a9500000000000000000000000000000000000000000000000000000000815260040160405180910390fd5b61092482826110c8565b5050565b6000610933826110de565b610969576040517fae9a63f500000000000000000000000000000000000000000000000000000000815260040160405180910390fd5b600660009054906101000a900460ff169050919050565b600660009054906101000a900460ff16156109c7576040517fbd291a9500000000000000000000000000000000000000000000000000000000815260040160405180910390fd5b6109d38484848461111f565b50505050565b60606109e482610cea565b5060006109ef611144565b90506000815111610a0f5760405180602001604052806000815250610a3a565b80610a198461115b565b604051602001610a2a9291906127d4565b6040516020818303038152906040525b915050919050565b60007f9f2df0fed2c77648de5860a4cc508cd0818c85b8b8a1ab4ceeef8d981c8956a6610a6e81610ec7565b610a788585611229565b82600960008681526020019081526020016000209081610a9891906129a4565b50600a60009054906101000a900460ff1615610ae6577f032bc66be43dbccb7487781d168eb7bda224628a3b2c3388bdf69b532a3a161184604051610add91906123a9565b60405180910390a15b839150509392505050565b7f9f2df0fed2c77648de5860a4cc508cd0818c85b8b8a1ab4ceeef8d981c8956a681565b610b1e82610626565b610b2781610ec7565b610b318383610fd5565b50505050565b6060600960008381526020019081526020016000208054610b5790612767565b80601f0160208091040260200160405190810160405280929190818152602001828054610b8390612767565b8015610bd05780601f10610ba557610100808354040283529160200191610bd0565b820191906000526020600020905b815481529060010190602001808311610bb357829003601f168201915b50505050509050919050565b6000600560008473ffffffffffffffffffffffffffffffffffffffff1673ffffffffffffffffffffffffffffffffffffffff16815260200190815260200160002060008373ffffffffffffffffffffffffffffffffffffffff1673ffffffffffffffffffffffffffffffffffffffff16815260200190815260200160002060009054906101000a900460ff16905092915050565b60007f7965db0b000000000000000000000000000000000000000000000000000000007bffffffffffffffffffffffffffffffffffffffffffffffffffffffff1916827bffffffffffffffffffffffffffffffffffffffffffffffffffffffff19161480610ce35750610ce282611247565b5b9050919050565b600080610cf6836112c1565b9050600073ffffffffffffffffffffffffffffffffffffffff168173ffffffffffffffffffffffffffffffffffffffff1603610d6957826040517f7e273289000000000000000000000000000000000000000000000000000000008152600401610d6091906123a9565b60405180910390fd5b80915050919050565b60006004600083815260200190815260200160002060009054906101000a900473ffffffffffffffffffffffffffffffffffffffff169050919050565b610dc18282610dbc610fcd565b6112fe565b5050565b600073ffffffffffffffffffffffffffffffffffffffff168273ffffffffffffffffffffffffffffffffffffffff1603610e375760006040517f64a0ae92000000000000000000000000000000000000000000000000000000008152600401610e2e91906121c6565b60405180910390fd5b6000610e4b8383610e46610fcd565b611310565b90508373ffffffffffffffffffffffffffffffffffffffff168173ffffffffffffffffffffffffffffffffffffffff1614610ec1578382826040517f64283d7b000000000000000000000000000000000000000000000000000000008152600401610eb893929190612a76565b60405180910390fd5b50505050565b610ed881610ed3610fcd565b61152a565b50565b6000610ee783836107cf565b610fc25760016007600085815260200190815260200160002060000160008473ffffffffffffffffffffffffffffffffffffffff1673ffffffffffffffffffffffffffffffffffffffff16815260200190815260200160002060006101000a81548160ff021916908315150217905550610f5f610fcd565b73ffffffffffffffffffffffffffffffffffffffff168273ffffffffffffffffffffffffffffffffffffffff16847f2f8788117e7eff1d82e926ec794901d17c78024a50270940304540a733656f0d60405160405180910390a460019050610fc7565b600090505b92915050565b600033905090565b6000610fe183836107cf565b156110bd5760006007600085815260200190815260200160002060000160008473ffffffffffffffffffffffffffffffffffffffff1673ffffffffffffffffffffffffffffffffffffffff16815260200190815260200160002060006101000a81548160ff02191690831515021790555061105a610fcd565b73ffffffffffffffffffffffffffffffffffffffff168273ffffffffffffffffffffffffffffffffffffffff16847ff6391f5c32d9c69d2a47ea670b442974b53935d1edc7fd64eb21e047a839171b60405160405180910390a4600190506110c2565b600090505b92915050565b6110da6110d3610fcd565b838361157b565b5050565b60008073ffffffffffffffffffffffffffffffffffffffff16611100836112c1565b73ffffffffffffffffffffffffffffffffffffffff1614159050919050565b61112a8484846105cf565b61113e611135610fcd565b858585856116ea565b50505050565b606060405180602001604052806000815250905090565b60606000600161116a8461189b565b01905060008167ffffffffffffffff8111156111895761118861243a565b5b6040519080825280601f01601f1916602001820160405280156111bb5781602001600182028036833780820191505090505b509050600082602001820190505b60011561121e578080600190039150507f3031323334353637383961626364656600000000000000000000000000000000600a86061a8153600a858161121257611211612aad565b5b049450600085036111c9575b819350505050919050565b6112438282604051806020016040528060008152506119ee565b5050565b60007fb45a3c0e000000000000000000000000000000000000000000000000000000007bffffffffffffffffffffffffffffffffffffffffffffffffffffffff1916827bffffffffffffffffffffffffffffffffffffffffffffffffffffffff191614806112ba57506112b982611a12565b5b9050919050565b60006002600083815260200190815260200160002060009054906101000a900473ffffffffffffffffffffffffffffffffffffffff169050919050565b61130b8383836001611af4565b505050565b60008061131c846112c1565b9050600073ffffffffffffffffffffffffffffffffffffffff168373ffffffffffffffffffffffffffffffffffffffff161461135e5761135d818486611cb9565b5b600073ffffffffffffffffffffffffffffffffffffffff168173ffffffffffffffffffffffffffffffffffffffff16146113ef576113a0600085600080611af4565b6001600360008373ffffffffffffffffffffffffffffffffffffffff1673ffffffffffffffffffffffffffffffffffffffff168152602001908152602001600020600082825403925050819055505b600073ffffffffffffffffffffffffffffffffffffffff168573ffffffffffffffffffffffffffffffffffffffff1614611472576001600360008773ffffffffffffffffffffffffffffffffffffffff1673ffffffffffffffffffffffffffffffffffffffff168152602001908152602001600020600082825401925050819055505b846002600086815260200190815260200160002060006101000a81548173ffffffffffffffffffffffffffffffffffffffff021916908373ffffffffffffffffffffffffffffffffffffffff160217905550838573ffffffffffffffffffffffffffffffffffffffff168273ffffffffffffffffffffffffffffffffffffffff167fddf252ad1be2c89b69c2b068fc378daa952ba7f163c4a11628f55a4df523b3ef60405160405180910390a4809150509392505050565b61153482826107cf565b6115775780826040517fe2517d3f00000000000000000000000000000000000000000000000000000000815260040161156e929190612adc565b60405180910390fd5b5050565b600073ffffffffffffffffffffffffffffffffffffffff168273ffffffffffffffffffffffffffffffffffffffff16036115ec57816040517f5b08ba180000000000000000000000000000000000000000000000000000000081526004016115e391906121c6565b60405180910390fd5b80600560008573ffffffffffffffffffffffffffffffffffffffff1673ffffffffffffffffffffffffffffffffffffffff16815260200190815260200160002060008473ffffffffffffffffffffffffffffffffffffffff1673ffffffffffffffffffffffffffffffffffffffff16815260200190815260200160002060006101000a81548160ff0219169083151502179055508173ffffffffffffffffffffffffffffffffffffffff168373ffffffffffffffffffffffffffffffffffffffff167f17307eab39ab6107e8899845ad3d59bd9653f200f220920489ca2b5937696c31836040516116dd9190612055565b60405180910390a3505050565b60008373ffffffffffffffffffffffffffffffffffffffff163b1115611894578273ffffffffffffffffffffffffffffffffffffffff1663150b7a02868685856040518563ffffffff1660e01b81526004016117499493929190612b5a565b6020604051808303816000875af192505050801561178557506040513d601f19601f820116820180604052508101906117829190612bbb565b60015b611809573d80600081146117b5576040519150601f19603f3d011682016040523d82523d6000602084013e6117ba565b606091505b50600081510361180157836040517f64a0ae920000000000000000000000000000000000000000000000000000000081526004016117f891906121c6565b60405180910390fd5b805181602001fd5b63150b7a0260e01b7bffffffffffffffffffffffffffffffffffffffffffffffffffffffff1916817bffffffffffffffffffffffffffffffffffffffffffffffffffffffff19161461189257836040517f64a0ae9200000000000000000000000000000000000000000000000000000000815260040161188991906121c6565b60405180910390fd5b505b5050505050565b600080600090507a184f03e93ff9f4daa797ed6e38ed64bf6a1f01000000000000000083106118f9577a184f03e93ff9f4daa797ed6e38ed64bf6a1f01000000000000000083816118ef576118ee612aad565b5b0492506040810190505b6d04ee2d6d415b85acef81000000008310611936576d04ee2d6d415b85acef8100000000838161192c5761192b612aad565b5b0492506020810190505b662386f26fc10000831061196557662386f26fc10000838161195b5761195a612aad565b5b0492506010810190505b6305f5e100831061198e576305f5e100838161198457611983612aad565b5b0492506008810190505b61271083106119b35761271083816119a9576119a8612aad565b5b0492506004810190505b606483106119d657606483816119cc576119cb612aad565b5b0492506002810190505b600a83106119e5576001810190505b80915050919050565b6119f88383611d7d565b611a0d611a03610fcd565b60008585856116ea565b505050565b60007f80ac58cd000000000000000000000000000000000000000000000000000000007bffffffffffffffffffffffffffffffffffffffffffffffffffffffff1916827bffffffffffffffffffffffffffffffffffffffffffffffffffffffff19161480611add57507f5b5e139f000000000000000000000000000000000000000000000000000000007bffffffffffffffffffffffffffffffffffffffffffffffffffffffff1916827bffffffffffffffffffffffffffffffffffffffffffffffffffffffff1916145b80611aed5750611aec82611e76565b5b9050919050565b8080611b2d5750600073ffffffffffffffffffffffffffffffffffffffff168273ffffffffffffffffffffffffffffffffffffffff1614155b15611c61576000611b3d84610cea565b9050600073ffffffffffffffffffffffffffffffffffffffff168373ffffffffffffffffffffffffffffffffffffffff1614158015611ba857508273ffffffffffffffffffffffffffffffffffffffff168173ffffffffffffffffffffffffffffffffffffffff1614155b8015611bbb5750611bb98184610bdc565b155b15611bfd57826040517fa9fbf51f000000000000000000000000000000000000000000000000000000008152600401611bf491906121c6565b60405180910390fd5b8115611c5f57838573ffffffffffffffffffffffffffffffffffffffff168273ffffffffffffffffffffffffffffffffffffffff167f8c5be1e5ebec7d5bd14f71427d1e84f3dd0314c0f7b2291e5b200ac8c7c3b92560405160405180910390a45b505b836004600085815260200190815260200160002060006101000a81548173ffffffffffffffffffffffffffffffffffffffff021916908373ffffffffffffffffffffffffffffffffffffffff16021790555050505050565b611cc4838383611ee0565b611d7857600073ffffffffffffffffffffffffffffffffffffffff168373ffffffffffffffffffffffffffffffffffffffff1603611d3957806040517f7e273289000000000000000000000000000000000000000000000000000000008152600401611d3091906123a9565b60405180910390fd5b81816040517f177e802f000000000000000000000000000000000000000000000000000000008152600401611d6f929190612be8565b60405180910390fd5b505050565b600073ffffffffffffffffffffffffffffffffffffffff168273ffffffffffffffffffffffffffffffffffffffff1603611def5760006040517f64a0ae92000000000000000000000000000000000000000000000000000000008152600401611de691906121c6565b60405180910390fd5b6000611dfd83836000611310565b9050600073ffffffffffffffffffffffffffffffffffffffff168173ffffffffffffffffffffffffffffffffffffffff1614611e715760006040517f73c6ac6e000000000000000000000000000000000000000000000000000000008152600401611e6891906121c6565b60405180910390fd5b505050565b60007f01ffc9a7000000000000000000000000000000000000000000000000000000007bffffffffffffffffffffffffffffffffffffffffffffffffffffffff1916827bffffffffffffffffffffffffffffffffffffffffffffffffffffffff1916149050919050565b60008073ffffffffffffffffffffffffffffffffffffffff168373ffffffffffffffffffffffffffffffffffffffff1614158015611f9857508273ffffffffffffffffffffffffffffffffffffffff168473ffffffffffffffffffffffffffffffffffffffff161480611f595750611f588484610bdc565b5b80611f9757508273ffffffffffffffffffffffffffffffffffffffff16611f7f83610d72565b73ffffffffffffffffffffffffffffffffffffffff16145b5b90509392505050565b6000604051905090565b600080fd5b600080fd5b60007fffffffff0000000000000000000000000000000000000000000000000000000082169050919050565b611fea81611fb5565b8114611ff557600080fd5b50565b60008135905061200781611fe1565b92915050565b60006020828403121561202357612022611fab565b5b600061203184828501611ff8565b91505092915050565b60008115159050919050565b61204f8161203a565b82525050565b600060208201905061206a6000830184612046565b92915050565b600081519050919050565b600082825260208201905092915050565b60005b838110156120aa57808201518184015260208101905061208f565b60008484015250505050565b6000601f19601f8301169050919050565b60006120d282612070565b6120dc818561207b565b93506120ec81856020860161208c565b6120f5816120b6565b840191505092915050565b6000602082019050818103600083015261211a81846120c7565b905092915050565b6000819050919050565b61213581612122565b811461214057600080fd5b50565b6000813590506121528161212c565b92915050565b60006020828403121561216e5761216d611fab565b5b600061217c84828501612143565b91505092915050565b600073ffffffffffffffffffffffffffffffffffffffff82169050919050565b60006121b082612185565b9050919050565b6121c0816121a5565b82525050565b60006020820190506121db60008301846121b7565b92915050565b6121ea816121a5565b81146121f557600080fd5b50565b600081359050612207816121e1565b92915050565b6000806040838503121561222457612223611fab565b5b6000612232858286016121f8565b925050602061224385828601612143565b9150509250929050565b60008060006060848603121561226657612265611fab565b5b6000612274868287016121f8565b9350506020612285868287016121f8565b925050604061229686828701612143565b9150509250925092565b6000819050919050565b6122b3816122a0565b81146122be57600080fd5b50565b6000813590506122d0816122aa565b92915050565b6000602082840312156122ec576122eb611fab565b5b60006122fa848285016122c1565b91505092915050565b61230c816122a0565b82525050565b60006020820190506123276000830184612303565b92915050565b6000806040838503121561234457612343611fab565b5b6000612352858286016122c1565b9250506020612363858286016121f8565b9150509250929050565b60006020828403121561238357612382611fab565b5b6000612391848285016121f8565b91505092915050565b6123a381612122565b82525050565b60006020820190506123be600083018461239a565b92915050565b6123cd8161203a565b81146123d857600080fd5b50565b6000813590506123ea816123c4565b92915050565b6000806040838503121561240757612406611fab565b5b6000612415858286016121f8565b9250506020612426858286016123db565b9150509250929050565b600080fd5b600080fd5b7f4e487b7100000000000000000000000000000000000000000000000000000000600052604160045260246000fd5b612472826120b6565b810181811067ffffffffffffffff821117156124915761249061243a565b5b80604052505050565b60006124a4611fa1565b90506124b08282612469565b919050565b600067ffffffffffffffff8211156124d0576124cf61243a565b5b6124d9826120b6565b9050602081019050919050565b82818337600083830152505050565b6000612508612503846124b5565b61249a565b90508281526020810184848401111561252457612523612435565b5b61252f8482856124e6565b509392505050565b600082601f83011261254c5761254b612430565b5b813561255c8482602086016124f5565b91505092915050565b6000806000806080858703121561257f5761257e611fab565b5b600061258d878288016121f8565b945050602061259e878288016121f8565b93505060406125af87828801612143565b925050606085013567ffffffffffffffff8111156125d0576125cf611fb0565b5b6125dc87828801612537565b91505092959194509250565b600067ffffffffffffffff8211156126035761260261243a565b5b61260c826120b6565b9050602081019050919050565b600061262c612627846125e8565b61249a565b90508281526020810184848401111561264857612647612435565b5b6126538482856124e6565b509392505050565b600082601f8301126126705761266f612430565b5b8135612680848260208601612619565b91505092915050565b6000806000606084860312156126a2576126a1611fab565b5b60006126b0868287016121f8565b93505060206126c186828701612143565b925050604084013567ffffffffffffffff8111156126e2576126e1611fb0565b5b6126ee8682870161265b565b9150509250925092565b6000806040838503121561270f5761270e611fab565b5b600061271d858286016121f8565b925050602061272e858286016121f8565b9150509250929050565b7f4e487b7100000000000000000000000000000000000000000000000000000000600052602260045260246000fd5b6000600282049050600182168061277f57607f821691505b60208210810361279257612791612738565b5b50919050565b600081905092915050565b60006127ae82612070565b6127b88185612798565b93506127c881856020860161208c565b80840191505092915050565b60006127e082856127a3565b91506127ec82846127a3565b91508190509392505050565b60008190508160005260206000209050919050565b60006020601f8301049050919050565b600082821b905092915050565b60006008830261285a7fffffffffffffffffffffffffffffffffffffffffffffffffffffffffffffffff8261281d565b612864868361281d565b95508019841693508086168417925050509392505050565b6000819050919050565b60006128a161289c61289784612122565b61287c565b612122565b9050919050565b6000819050919050565b6128bb83612886565b6128cf6128c7826128a8565b84845461282a565b825550505050565b600090565b6128e46128d7565b6128ef8184846128b2565b505050565b5b81811015612913576129086000826128dc565b6001810190506128f5565b5050565b601f82111561295857612929816127f8565b6129328461280d565b81016020851015612941578190505b61295561294d8561280d565b8301826128f4565b50505b505050565b600082821c905092915050565b600061297b6000198460080261295d565b1980831691505092915050565b6000612994838361296a565b9150826002028217905092915050565b6129ad82612070565b67ffffffffffffffff8111156129c6576129c561243a565b5b6129d08254612767565b6129db828285612917565b600060209050601f831160018114612a0e57600084156129fc578287015190505b612a068582612988565b865550612a6e565b601f198416612a1c866127f8565b60005b82811015612a4457848901518255600182019150602085019450602081019050612a1f565b86831015612a615784890151612a5d601f89168261296a565b8355505b6001600288020188555050505b505050505050565b6000606082019050612a8b60008301866121b7565b612a98602083018561239a565b612aa560408301846121b7565b949350505050565b7f4e487b7100000000000000000000000000000000000000000000000000000000600052601260045260246000fd5b6000604082019050612af160008301856121b7565b612afe6020830184612303565b9392505050565b600081519050919050565b600082825260208201905092915050565b6000612b2c82612b05565b612b368185612b10565b9350612b4681856020860161208c565b612b4f816120b6565b840191505092915050565b6000608082019050612b6f60008301876121b7565b612b7c60208301866121b7565b612b89604083018561239a565b8181036060830152612b9b8184612b21565b905095945050505050565b600081519050612bb581611fe1565b92915050565b600060208284031215612bd157612bd0611fab565b5b6000612bdf84828501612ba6565b91505092915050565b6000604082019050612bfd60008301856121b7565b612c0a602083018461239a565b939250505056fea2646970667358221220951ded26c91ab949cffe4f5a9ebbae5393c8492be46627575e656dbfcd2a14d964736f6c634300081c0033",
  "linkReferences": {},
  "deployedLinkReferences": {}
}