{
  "_format": "hh-sol-artifact-1",
  "contractName": "MemberSBT_Demo",
  "sourceName": "contracts/sbt/MemberSBT_Demo.sol",
  "abi": [
    {
      "inputs": [
        {
          "internalType": "string",
          "name": "_name",
          "type": "string"
        },
        {
          "internalType": "string",
          "name": "_symbol",
          "type": "string"
        },
        {
          "internalType": "bool",
          "name": "_isLocked",
          "type": "bool"
        },
        {
          "internalType": "address",
          "name": "ownerAdmin",
          "type": "address"
        }
      ],
      "stateMutability": "nonpayable",
      "type": "constructor"
    },
    {
      "inputs": [],
      "name": "AccessControlBadConfirmation",
      "type": "error"
    },
    {
      "inputs": [
        {
          "internalType": "address",
          "name": "account",
          "type": "address"
        },
        {
          "internalType": "bytes32",
          "name": "neededRole",
          "type": "bytes32"
        }
      ],
      "name": "AccessControlUnauthorizedAccount",
      "type": "error"
    },
    {
      "inputs": [
        {
          "internalType": "address",
          "name": "sender",
          "type": "address"
        },
        {
          "internalType": "uint256",
          "name": "tokenId",
          "type": "uint256"
        },
        {
          "internalType": "address",
          "name": "owner",
          "type": "address"
        }
      ],
      "name": "ERC721IncorrectOwner",
      "type": "error"
    },
    {
      "inputs": [
        {
          "internalType": "address",
          "name": "operator",
          "type": "address"
        },
        {
          "internalType": "uint256",
          "name": "tokenId",
          "type": "uint256"
        }
      ],
      "name": "ERC721InsufficientApproval",
      "type": "error"
    },
    {
      "inputs": [
        {
          "internalType": "address",
          "name": "approver",
          "type": "address"
        }
      ],
      "name": "ERC721InvalidApprover",
      "type": "error"
    },
    {
      "inputs": [
        {
          "internalType": "address",
          "name": "operator",
          "type": "address"
        }
      ],
      "name": "ERC721InvalidOperator",
      "type": "error"
    },
    {
      "inputs": [
        {
          "internalType": "address",
          "name": "owner",
          "type": "address"
        }
      ],
      "name": "ERC721InvalidOwner",
      "type": "error"
    },
    {
      "inputs": [
        {
          "internalType": "address",
          "name": "receiver",
          "type": "address"
        }
      ],
      "name": "ERC721InvalidReceiver",
      "type": "error"
    },
    {
      "inputs": [
        {
          "internalType": "address",
          "name": "sender",
          "type": "address"
        }
      ],
      "name": "ERC721InvalidSender",
      "type": "error"
    },
    {
      "inputs": [
        {
          "internalType": "uint256",
          "name": "tokenId",
          "type": "uint256"
        }
      ],
      "name": "ERC721NonexistentToken",
      "type": "error"
    },
    {
      "inputs": [],
      "name": "ErrLocked",
      "type": "error"
    },
    {
      "inputs": [],
      "name": "ErrNotFound",
      "type": "error"
    },
    {
      "anonymous": false,
      "inputs": [
        {
          "indexed": true,
          "internalType": "address",
          "name": "owner",
          "type": "address"
        },
        {
          "indexed": true,
          "internalType": "address",
          "name": "approved",
          "type": "address"
        },
        {
          "indexed": true,
          "internalType": "uint256",
          "name": "tokenId",
          "type": "uint256"
        }
      ],
      "name": "Approval",
      "type": "event"
    },
    {
      "anonymous": false,
      "inputs": [
        {
          "indexed": true,
          "internalType": "address",
          "name": "owner",
          "type": "address"
        },
        {
          "indexed": true,
          "internalType": "address",
          "name": "operator",
          "type": "address"
        },
        {
          "indexed": false,
          "internalType": "bool",
          "name": "approved",
          "type": "bool"
        }
      ],
      "name": "ApprovalForAll",
      "type": "event"
    },
    {
      "anonymous": false,
      "inputs": [
        {
          "indexed": false,
          "internalType": "uint256",
          "name": "tokenId",
          "type": "uint256"
        }
      ],
      "name": "Locked",
      "type": "event"
    },
    {
      "anonymous": false,
      "inputs": [
        {
          "indexed": true,
          "internalType": "bytes32",
          "name": "role",
          "type": "bytes32"
        },
        {
          "indexed": true,
          "internalType": "bytes32",
          "name": "previousAdminRole",
          "type": "bytes32"
        },
        {
          "indexed": true,
          "internalType": "bytes32",
          "name": "newAdminRole",
          "type": "bytes32"
        }
      ],
      "name": "RoleAdminChanged",
      "type": "event"
    },
    {
      "anonymous": false,
      "inputs": [
        {
          "indexed": true,
          "internalType": "bytes32",
          "name": "role",
          "type": "bytes32"
        },
        {
          "indexed": true,
          "internalType": "address",
          "name": "account",
          "type": "address"
        },
        {
          "indexed": true,
          "internalType": "address",
          "name": "sender",
          "type": "address"
        }
      ],
      "name": "RoleGranted",
      "type": "event"
    },
    {
      "anonymous": false,
      "inputs": [
        {
          "indexed": true,
          "internalType": "bytes32",
          "name": "role",
          "type": "bytes32"
        },
        {
          "indexed": true,
          "internalType": "address",
          "name": "account",
          "type": "address"
        },
        {
          "indexed": true,
          "internalType": "address",
          "name": "sender",
          "type": "address"
        }
      ],
      "name": "RoleRevoked",
      "type": "event"
    },
    {
      "anonymous": false,
      "inputs": [
        {
          "indexed": true,
          "internalType": "address",
          "name": "to",
          "type": "address"
        },
        {
          "indexed": true,
          "internalType": "uint256",
          "name": "tokenId",
          "type": "uint256"
        },
        {
          "indexed": false,
          "internalType": "string",
          "name": "userName",
          "type": "string"
        }
      ],
      "name": "SBTMinted",
      "type": "event"
    },
    {
      "anonymous": false,
      "inputs": [
        {
          "indexed": true,
          "internalType": "address",
          "name": "from",
          "type": "address"
        },
        {
          "indexed": true,
          "internalType": "address",
          "name": "to",
          "type": "address"
        },
        {
          "indexed": true,
          "internalType": "uint256",
          "name": "tokenId",
          "type": "uint256"
        }
      ],
      "name": "Transfer",
      "type": "event"
    },
    {
      "anonymous": false,
      "inputs": [
        {
          "indexed": false,
          "internalType": "uint256",
          "name": "tokenId",
          "type": "uint256"
        }
      ],
      "name": "Unlocked",
      "type": "event"
    },
    {
      "inputs": [],
      "name": "DEFAULT_ADMIN_ROLE",
      "outputs": [
        {
          "internalType": "bytes32",
          "name": "",
          "type": "bytes32"
        }
      ],
      "stateMutability": "view",
      "type": "function"
    },
    {
      "inputs": [
        {
          "internalType": "address",
          "name": "approved",
          "type": "address"
        },
        {
          "internalType": "uint256",
          "name": "tokenId",
          "type": "uint256"
        }
      ],
      "name": "approve",
      "outputs": [],
      "stateMutability": "nonpayable",
      "type": "function"
    },
    {
      "inputs": [
        {
          "internalType": "address",
          "name": "owner",
          "type": "address"
        }
      ],
      "name": "balanceOf",
      "outputs": [
        {
          "internalType": "uint256",
          "name": "",
          "type": "uint256"
        }
      ],
      "stateMutability": "view",
      "type": "function"
    },
    {
      "inputs": [
        {
          "internalType": "uint256",
          "name": "tokenId",
          "type": "uint256"
        }
      ],
      "name": "getApproved",
      "outputs": [
        {
          "internalType": "address",
          "name": "",
          "type": "address"
        }
      ],
      "stateMutability": "view",
      "type": "function"
    },
    {
      "inputs": [
        {
          "internalType": "bytes32",
          "name": "role",
          "type": "bytes32"
        }
      ],
      "name": "getRoleAdmin",
      "outputs": [
        {
          "internalType": "bytes32",
          "name": "",
          "type": "bytes32"
        }
      ],
      "stateMutability": "view",
      "type": "function"
    },
    {
      "inputs": [],
      "name": "getTotalSupply",
      "outputs": [
        {
          "internalType": "uint256",
          "name": "",
          "type": "uint256"
        }
      ],
      "stateMutability": "view",
      "type": "function"
    },
    {
      "inputs": [
        {
          "internalType": "uint256",
          "name": "tokenId",
          "type": "uint256"
        }
      ],
      "name": "getUserName",
      "outputs": [
        {
          "internalType": "string",
          "name": "",
          "type": "string"
        }
      ],
      "stateMutability": "view",
      "type": "function"
    },
    {
      "inputs": [
        {
          "internalType": "bytes32",
          "name": "role",
          "type": "bytes32"
        },
        {
          "internalType": "address",
          "name": "account",
          "type": "address"
        }
      ],
      "name": "grantRole",
      "outputs": [],
      "stateMutability": "nonpayable",
      "type": "function"
    },
    {
      "inputs": [
        {
          "internalType": "bytes32",
          "name": "role",
          "type": "bytes32"
        },
        {
          "internalType": "address",
          "name": "account",
          "type": "address"
        }
      ],
      "name": "hasRole",
      "outputs": [
        {
          "internalType": "bool",
          "name": "",
          "type": "bool"
        }
      ],
      "stateMutability": "view",
      "type": "function"
    },
    {
      "inputs": [
        {
          "internalType": "address",
          "name": "owner",
          "type": "address"
        },
        {
          "internalType": "address",
          "name": "operator",
          "type": "address"
        }
      ],
      "name": "isApprovedForAll",
      "outputs": [
        {
          "internalType": "bool",
          "name": "",
          "type": "bool"
        }
      ],
      "stateMutability": "view",
      "type": "function"
    },
    {
      "inputs": [
        {
          "internalType": "uint256",
          "name": "tokenId",
          "type": "uint256"
        }
      ],
      "name": "locked",
      "outputs": [
        {
          "internalType": "bool",
          "name": "",
          "type": "bool"
        }
      ],
      "stateMutability": "view",
      "type": "function"
    },
    {
      "inputs": [],
      "name": "name",
      "outputs": [
        {
          "internalType": "string",
          "name": "",
          "type": "string"
        }
      ],
      "stateMutability": "view",
      "type": "function"
    },
    {
      "inputs": [
        {
          "internalType": "uint256",
          "name": "tokenId",
          "type": "uint256"
        }
      ],
      "name": "ownerOf",
      "outputs": [
        {
          "internalType": "address",
          "name": "",
          "type": "address"
        }
      ],
      "stateMutability": "view",
      "type": "function"
    },
    {
      "inputs": [
        {
          "internalType": "bytes32",
          "name": "role",
          "type": "bytes32"
        },
        {
          "internalType": "address",
          "name": "callerConfirmation",
          "type": "address"
        }
      ],
      "name": "renounceRole",
      "outputs": [],
      "stateMutability": "nonpayable",
      "type": "function"
    },
    {
      "inputs": [
        {
          "internalType": "bytes32",
          "name": "role",
          "type": "bytes32"
        },
        {
          "internalType": "address",
          "name": "account",
          "type": "address"
        }
      ],
      "name": "revokeRole",
      "outputs": [],
      "stateMutability": "nonpayable",
      "type": "function"
    },
    {
      "inputs": [
        {
          "internalType": "address",
          "name": "to",
          "type": "address"
        },
        {
          "internalType": "string",
          "name": "userName",
          "type": "string"
        }
      ],
      "name": "safeMint",
      "outputs": [
        {
          "internalType": "uint256",
          "name": "",
          "type": "uint256"
        }
      ],
      "stateMutability": "nonpayable",
      "type": "function"
    },
    {
      "inputs": [
        {
          "internalType": "address",
          "name": "from",
          "type": "address"
        },
        {
          "internalType": "address",
          "name": "to",
          "type": "address"
        },
        {
          "internalType": "uint256",
          "name": "tokenId",
          "type": "uint256"
        }
      ],
      "name": "safeTransferFrom",
      "outputs": [],
      "stateMutability": "nonpayable",
      "type": "function"
    },
    {
      "inputs": [
        {
          "internalType": "address",
          "name": "from",
          "type": "address"
        },
        {
          "internalType": "address",
          "name": "to",
          "type": "address"
        },
        {
          "internalType": "uint256",
          "name": "tokenId",
          "type": "uint256"
        },
        {
          "internalType": "bytes",
          "name": "data",
          "type": "bytes"
        }
      ],
      "name": "safeTransferFrom",
      "outputs": [],
      "stateMutability": "nonpayable",
      "type": "function"
    },
    {
      "inputs": [
        {
          "internalType": "address",
          "name": "operator",
          "type": "address"
        },
        {
          "internalType": "bool",
          "name": "approved",
          "type": "bool"
        }
      ],
      "name": "setApprovalForAll",
      "outputs": [],
      "stateMutability": "nonpayable",
      "type": "function"
    },
    {
      "inputs": [
        {
          "internalType": "bytes4",
          "name": "interfaceId",
          "type": "bytes4"
        }
      ],
      "name": "supportsInterface",
      "outputs": [
        {
          "internalType": "bool",
          "name": "",
          "type": "bool"
        }
      ],
      "stateMutability": "view",
      "type": "function"
    },
    {
      "inputs": [],
      "name": "symbol",
      "outputs": [
        {
          "internalType": "string",
          "name": "",
          "type": "string"
        }
      ],
      "stateMutability": "view",
      "type": "function"
    },
    {
      "inputs": [
        {
          "internalType": "uint256",
          "name": "tokenId",
          "type": "uint256"
        }
      ],
      "name": "tokenURI",
      "outputs": [
        {
          "internalType": "string",
          "name": "",
          "type": "string"
        }
      ],
      "stateMutability": "view",
      "type": "function"
    },
    {
      "inputs": [
        {
          "internalType": "address",
          "name": "from",
          "type": "address"
        },
        {
          "internalType": "address",
          "name": "to",
          "type": "address"
        },
        {
          "internalType": "uint256",
          "name": "tokenId",
          "type": "uint256"
        }
      ],
      "name": "transferFrom",
      "outputs": [],
      "stateMutability": "nonpayable",
      "type": "function"
    }
  ],
  "bytecode": "0x608060405234801561001057600080fd5b506040516136113803806136118339818101604052810190610032919061040f565b8383838282816000908161004691906106cf565b50806001908161005691906106cf565b50505080600660006101000a81548160ff0219169083151502179055505050506100896000801b8261009360201b60201c565b50505050506107a1565b60006100a5838361019160201b60201c565b6101865760016007600085815260200190815260200160002060000160008473ffffffffffffffffffffffffffffffffffffffff1673ffffffffffffffffffffffffffffffffffffffff16815260200190815260200160002060006101000a81548160ff0219169083151502179055506101236101fc60201b60201c565b73ffffffffffffffffffffffffffffffffffffffff168273ffffffffffffffffffffffffffffffffffffffff16847f2f8788117e7eff1d82e926ec794901d17c78024a50270940304540a733656f0d60405160405180910390a46001905061018b565b600090505b92915050565b60006007600084815260200190815260200160002060000160008373ffffffffffffffffffffffffffffffffffffffff1673ffffffffffffffffffffffffffffffffffffffff16815260200190815260200160002060009054906101000a900460ff16905092915050565b600033905090565b6000604051905090565b600080fd5b600080fd5b600080fd5b600080fd5b6000601f19601f8301169050919050565b7f4e487b7100000000000000000000000000000000000000000000000000000000600052604160045260246000fd5b61026b82610222565b810181811067ffffffffffffffff8211171561028a57610289610233565b5b80604052505050565b600061029d610204565b90506102a98282610262565b919050565b600067ffffffffffffffff8211156102c9576102c8610233565b5b6102d282610222565b9050602081019050919050565b60005b838110156102fd5780820151818401526020810190506102e2565b60008484015250505050565b600061031c610317846102ae565b610293565b9050828152602081018484840111156103385761033761021d565b5b6103438482856102df565b509392505050565b600082601f8301126103605761035f610218565b5b8151610370848260208601610309565b91505092915050565b60008115159050919050565b61038e81610379565b811461039957600080fd5b50565b6000815190506103ab81610385565b92915050565b600073ffffffffffffffffffffffffffffffffffffffff82169050919050565b60006103dc826103b1565b9050919050565b6103ec816103d1565b81146103f757600080fd5b50565b600081519050610409816103e3565b92915050565b600080600080608085870312156104295761042861020e565b5b600085015167ffffffffffffffff81111561044757610446610213565b5b6104538782880161034b565b945050602085015167ffffffffffffffff81111561047457610473610213565b5b6104808782880161034b565b93505060406104918782880161039c565b92505060606104a2878288016103fa565b91505092959194509250565b600081519050919050565b7f4e487b7100000000000000000000000000000000000000000000000000000000600052602260045260246000fd5b6000600282049050600182168061050057607f821691505b602082108103610513576105126104b9565b5b50919050565b60008190508160005260206000209050919050565b60006020601f8301049050919050565b600082821b905092915050565b60006008830261057b7fffffffffffffffffffffffffffffffffffffffffffffffffffffffffffffffff8261053e565b610585868361053e565b95508019841693508086168417925050509392505050565b6000819050919050565b6000819050919050565b60006105cc6105c76105c28461059d565b6105a7565b61059d565b9050919050565b6000819050919050565b6105e6836105b1565b6105fa6105f2826105d3565b84845461054b565b825550505050565b600090565b61060f610602565b61061a8184846105dd565b505050565b5b8181101561063e57610633600082610607565b600181019050610620565b5050565b601f8211156106835761065481610519565b61065d8461052e565b8101602085101561066c578190505b6106806106788561052e565b83018261061f565b50505b505050565b600082821c905092915050565b60006106a660001984600802610688565b1980831691505092915050565b60006106bf8383610695565b9150826002028217905092915050565b6106d8826104ae565b67ffffffffffffffff8111156106f1576106f0610233565b5b6106fb82546104e8565b610706828285610642565b600060209050601f8311600181146107395760008415610727578287015190505b61073185826106b3565b865550610799565b601f19841661074786610519565b60005b8281101561076f5784890151825560018201915060208501945060208101905061074a565b8683101561078c5784890151610788601f891682610695565b8355505b6001600288020188555050505b505050505050565b612e61806107b06000396000f3fe608060405234801561001057600080fd5b506004361061014d5760003560e01c806391d14854116100c3578063b88d4fde1161007c578063b88d4fde146103d4578063c4e41b22146103f0578063c87b56dd1461040e578063d204c45e1461043e578063d547741f1461046e578063e985e9c51461048a5761014d565b806391d14854146102ec57806395d89b411461031c578063988da80f1461033a578063a217fddf1461036a578063a22cb46514610388578063b45a3c0e146103a45761014d565b8063248a9ca311610115578063248a9ca3146102085780632f2ff15d1461023857806336568abe1461025457806342842e0e146102705780636352211e1461028c57806370a08231146102bc5761014d565b806301ffc9a71461015257806306fdde0314610182578063081812fc146101a0578063095ea7b3146101d057806323b872dd146101ec575b600080fd5b61016c6004803603810190610167919061209f565b6104ba565b60405161017991906120e7565b60405180910390f35b61018a6104cc565b6040516101979190612192565b60405180910390f35b6101ba60048036038101906101b591906121ea565b61055e565b6040516101c79190612258565b60405180910390f35b6101ea60048036038101906101e5919061229f565b61057a565b005b610206600480360381019061020191906122df565b6105cf565b005b610222600480360381019061021d9190612368565b610626565b60405161022f91906123a4565b60405180910390f35b610252600480360381019061024d91906123bf565b610646565b005b61026e600480360381019061026991906123bf565b610668565b005b61028a600480360381019061028591906122df565b6106e3565b005b6102a660048036038101906102a191906121ea565b610703565b6040516102b39190612258565b60405180910390f35b6102d660048036038101906102d191906123ff565b610715565b6040516102e3919061243b565b60405180910390f35b610306600480360381019061030191906123bf565b6107cf565b60405161031391906120e7565b60405180910390f35b61032461083a565b6040516103319190612192565b60405180910390f35b610354600480360381019061034f91906121ea565b6108cc565b6040516103619190612192565b60405180910390f35b6103726109b9565b60405161037f91906123a4565b60405180910390f35b6103a2600480360381019061039d9190612482565b6109c0565b005b6103be60048036038101906103b991906121ea565b610a15565b6040516103cb91906120e7565b60405180910390f35b6103ee60048036038101906103e991906125f7565b610a6d565b005b6103f8610ac6565b604051610405919061243b565b60405180910390f35b610428600480360381019061042391906121ea565b610ad0565b6040516104359190612192565b60405180910390f35b6104586004803603810190610453919061271b565b610b39565b604051610465919061243b565b60405180910390f35b610488600480360381019061048391906123bf565b610c4c565b005b6104a4600480360381019061049f9190612777565b610c6e565b6040516104b191906120e7565b60405180910390f35b60006104c582610d02565b9050919050565b6060600080546104db906127e6565b80601f0160208091040260200160405190810160405280929190818152602001828054610507906127e6565b80156105545780601f1061052957610100808354040283529160200191610554565b820191906000526020600020905b81548152906001019060200180831161053757829003601f168201915b5050505050905090565b600061056982610d7c565b5061057382610e04565b9050919050565b600660009054906101000a900460ff16156105c1576040517fbd291a9500000000000000000000000000000000000000000000000000000000815260040160405180910390fd5b6105cb8282610e41565b5050565b600660009054906101000a900460ff1615610616576040517fbd291a9500000000000000000000000000000000000000000000000000000000815260040160405180910390fd5b610621838383610e57565b505050565b600060076000838152602001908152602001600020600101549050919050565b61064f82610626565b61065881610f59565b6106628383610f6d565b50505050565b61067061105f565b73ffffffffffffffffffffffffffffffffffffffff168173ffffffffffffffffffffffffffffffffffffffff16146106d4576040517f6697b23200000000000000000000000000000000000000000000000000000000815260040160405180910390fd5b6106de8282611067565b505050565b6106fe83838360405180602001604052806000815250610a6d565b505050565b600061070e82610d7c565b9050919050565b60008073ffffffffffffffffffffffffffffffffffffffff168273ffffffffffffffffffffffffffffffffffffffff16036107885760006040517f89c62b6400000000000000000000000000000000000000000000000000000000815260040161077f9190612258565b60405180910390fd5b600360008373ffffffffffffffffffffffffffffffffffffffff1673ffffffffffffffffffffffffffffffffffffffff168152602001908152602001600020549050919050565b60006007600084815260200190815260200160002060000160008373ffffffffffffffffffffffffffffffffffffffff1673ffffffffffffffffffffffffffffffffffffffff16815260200190815260200160002060009054906101000a900460ff16905092915050565b606060018054610849906127e6565b80601f0160208091040260200160405190810160405280929190818152602001828054610875906127e6565b80156108c25780601f10610897576101008083540402835291602001916108c2565b820191906000526020600020905b8154815290600101906020018083116108a557829003601f168201915b5050505050905090565b60606108d78261115a565b610916576040517f08c379a000000000000000000000000000000000000000000000000000000000815260040161090d90612889565b60405180910390fd5b600960008381526020019081526020016000208054610934906127e6565b80601f0160208091040260200160405190810160405280929190818152602001828054610960906127e6565b80156109ad5780601f10610982576101008083540402835291602001916109ad565b820191906000526020600020905b81548152906001019060200180831161099057829003601f168201915b50505050509050919050565b6000801b81565b600660009054906101000a900460ff1615610a07576040517fbd291a9500000000000000000000000000000000000000000000000000000000815260040160405180910390fd5b610a11828261119b565b5050565b6000610a208261115a565b610a56576040517fae9a63f500000000000000000000000000000000000000000000000000000000815260040160405180910390fd5b600660009054906101000a900460ff169050919050565b600660009054906101000a900460ff1615610ab4576040517fbd291a9500000000000000000000000000000000000000000000000000000000815260040160405180910390fd5b610ac0848484846111b1565b50505050565b6000600854905090565b6060610adb82610d7c565b506000610ae66111d6565b90506000815111610b065760405180602001604052806000815250610b31565b80610b10846111ed565b604051602001610b219291906128e5565b6040516020818303038152906040525b915050919050565b60003373ffffffffffffffffffffffffffffffffffffffff168373ffffffffffffffffffffffffffffffffffffffff1614610ba9576040517f08c379a0000000000000000000000000000000000000000000000000000000008152600401610ba09061297b565b60405180910390fd5b60006008549050610bba84826112bb565b60086000815480929190610bcd906129ca565b919050555082600960008381526020019081526020016000209081610bf29190612bbe565b50808473ffffffffffffffffffffffffffffffffffffffff167f4b9ad712e7eaa8cc24efaf239a9107a8e27385fb66e301d70c4f0d5747bde65385604051610c3a9190612192565b60405180910390a38091505092915050565b610c5582610626565b610c5e81610f59565b610c688383611067565b50505050565b6000600560008473ffffffffffffffffffffffffffffffffffffffff1673ffffffffffffffffffffffffffffffffffffffff16815260200190815260200160002060008373ffffffffffffffffffffffffffffffffffffffff1673ffffffffffffffffffffffffffffffffffffffff16815260200190815260200160002060009054906101000a900460ff16905092915050565b60007f7965db0b000000000000000000000000000000000000000000000000000000007bffffffffffffffffffffffffffffffffffffffffffffffffffffffff1916827bffffffffffffffffffffffffffffffffffffffffffffffffffffffff19161480610d755750610d74826112d9565b5b9050919050565b600080610d8883611353565b9050600073ffffffffffffffffffffffffffffffffffffffff168173ffffffffffffffffffffffffffffffffffffffff1603610dfb57826040517f7e273289000000000000000000000000000000000000000000000000000000008152600401610df2919061243b565b60405180910390fd5b80915050919050565b60006004600083815260200190815260200160002060009054906101000a900473ffffffffffffffffffffffffffffffffffffffff169050919050565b610e538282610e4e61105f565b611390565b5050565b600073ffffffffffffffffffffffffffffffffffffffff168273ffffffffffffffffffffffffffffffffffffffff1603610ec95760006040517f64a0ae92000000000000000000000000000000000000000000000000000000008152600401610ec09190612258565b60405180910390fd5b6000610edd8383610ed861105f565b6113a2565b90508373ffffffffffffffffffffffffffffffffffffffff168173ffffffffffffffffffffffffffffffffffffffff1614610f53578382826040517f64283d7b000000000000000000000000000000000000000000000000000000008152600401610f4a93929190612c90565b60405180910390fd5b50505050565b610f6a81610f6561105f565b6115bc565b50565b6000610f7983836107cf565b6110545760016007600085815260200190815260200160002060000160008473ffffffffffffffffffffffffffffffffffffffff1673ffffffffffffffffffffffffffffffffffffffff16815260200190815260200160002060006101000a81548160ff021916908315150217905550610ff161105f565b73ffffffffffffffffffffffffffffffffffffffff168273ffffffffffffffffffffffffffffffffffffffff16847f2f8788117e7eff1d82e926ec794901d17c78024a50270940304540a733656f0d60405160405180910390a460019050611059565b600090505b92915050565b600033905090565b600061107383836107cf565b1561114f5760006007600085815260200190815260200160002060000160008473ffffffffffffffffffffffffffffffffffffffff1673ffffffffffffffffffffffffffffffffffffffff16815260200190815260200160002060006101000a81548160ff0219169083151502179055506110ec61105f565b73ffffffffffffffffffffffffffffffffffffffff168273ffffffffffffffffffffffffffffffffffffffff16847ff6391f5c32d9c69d2a47ea670b442974b53935d1edc7fd64eb21e047a839171b60405160405180910390a460019050611154565b600090505b92915050565b60008073ffffffffffffffffffffffffffffffffffffffff1661117c83611353565b73ffffffffffffffffffffffffffffffffffffffff1614159050919050565b6111ad6111a661105f565b838361160d565b5050565b6111bc8484846105cf565b6111d06111c761105f565b8585858561177c565b50505050565b606060405180602001604052806000815250905090565b6060600060016111fc8461192d565b01905060008167ffffffffffffffff81111561121b5761121a6124cc565b5b6040519080825280601f01601f19166020018201604052801561124d5781602001600182028036833780820191505090505b509050600082602001820190505b6001156112b0578080600190039150507f3031323334353637383961626364656600000000000000000000000000000000600a86061a8153600a85816112a4576112a3612cc7565b5b0494506000850361125b575b819350505050919050565b6112d5828260405180602001604052806000815250611a80565b5050565b60007fb45a3c0e000000000000000000000000000000000000000000000000000000007bffffffffffffffffffffffffffffffffffffffffffffffffffffffff1916827bffffffffffffffffffffffffffffffffffffffffffffffffffffffff1916148061134c575061134b82611aa4565b5b9050919050565b60006002600083815260200190815260200160002060009054906101000a900473ffffffffffffffffffffffffffffffffffffffff169050919050565b61139d8383836001611b86565b505050565b6000806113ae84611353565b9050600073ffffffffffffffffffffffffffffffffffffffff168373ffffffffffffffffffffffffffffffffffffffff16146113f0576113ef818486611d4b565b5b600073ffffffffffffffffffffffffffffffffffffffff168173ffffffffffffffffffffffffffffffffffffffff161461148157611432600085600080611b86565b6001600360008373ffffffffffffffffffffffffffffffffffffffff1673ffffffffffffffffffffffffffffffffffffffff168152602001908152602001600020600082825403925050819055505b600073ffffffffffffffffffffffffffffffffffffffff168573ffffffffffffffffffffffffffffffffffffffff1614611504576001600360008773ffffffffffffffffffffffffffffffffffffffff1673ffffffffffffffffffffffffffffffffffffffff168152602001908152602001600020600082825401925050819055505b846002600086815260200190815260200160002060006101000a81548173ffffffffffffffffffffffffffffffffffffffff021916908373ffffffffffffffffffffffffffffffffffffffff160217905550838573ffffffffffffffffffffffffffffffffffffffff168273ffffffffffffffffffffffffffffffffffffffff167fddf252ad1be2c89b69c2b068fc378daa952ba7f163c4a11628f55a4df523b3ef60405160405180910390a4809150509392505050565b6115c682826107cf565b6116095780826040517fe2517d3f000000000000000000000000000000000000000000000000000000008152600401611600929190612cf6565b60405180910390fd5b5050565b600073ffffffffffffffffffffffffffffffffffffffff168273ffffffffffffffffffffffffffffffffffffffff160361167e57816040517f5b08ba180000000000000000000000000000000000000000000000000000000081526004016116759190612258565b60405180910390fd5b80600560008573ffffffffffffffffffffffffffffffffffffffff1673ffffffffffffffffffffffffffffffffffffffff16815260200190815260200160002060008473ffffffffffffffffffffffffffffffffffffffff1673ffffffffffffffffffffffffffffffffffffffff16815260200190815260200160002060006101000a81548160ff0219169083151502179055508173ffffffffffffffffffffffffffffffffffffffff168373ffffffffffffffffffffffffffffffffffffffff167f17307eab39ab6107e8899845ad3d59bd9653f200f220920489ca2b5937696c318360405161176f91906120e7565b60405180910390a3505050565b60008373ffffffffffffffffffffffffffffffffffffffff163b1115611926578273ffffffffffffffffffffffffffffffffffffffff1663150b7a02868685856040518563ffffffff1660e01b81526004016117db9493929190612d74565b6020604051808303816000875af192505050801561181757506040513d601f19601f820116820180604052508101906118149190612dd5565b60015b61189b573d8060008114611847576040519150601f19603f3d011682016040523d82523d6000602084013e61184c565b606091505b50600081510361189357836040517f64a0ae9200000000000000000000000000000000000000000000000000000000815260040161188a9190612258565b60405180910390fd5b805181602001fd5b63150b7a0260e01b7bffffffffffffffffffffffffffffffffffffffffffffffffffffffff1916817bffffffffffffffffffffffffffffffffffffffffffffffffffffffff19161461192457836040517f64a0ae9200000000000000000000000000000000000000000000000000000000815260040161191b9190612258565b60405180910390fd5b505b5050505050565b600080600090507a184f03e93ff9f4daa797ed6e38ed64bf6a1f010000000000000000831061198b577a184f03e93ff9f4daa797ed6e38ed64bf6a1f010000000000000000838161198157611980612cc7565b5b0492506040810190505b6d04ee2d6d415b85acef810000000083106119c8576d04ee2d6d415b85acef810000000083816119be576119bd612cc7565b5b0492506020810190505b662386f26fc1000083106119f757662386f26fc1000083816119ed576119ec612cc7565b5b0492506010810190505b6305f5e1008310611a20576305f5e1008381611a1657611a15612cc7565b5b0492506008810190505b6127108310611a45576127108381611a3b57611a3a612cc7565b5b0492506004810190505b60648310611a685760648381611a5e57611a5d612cc7565b5b0492506002810190505b600a8310611a77576001810190505b80915050919050565b611a8a8383611e0f565b611a9f611a9561105f565b600085858561177c565b505050565b60007f80ac58cd000000000000000000000000000000000000000000000000000000007bffffffffffffffffffffffffffffffffffffffffffffffffffffffff1916827bffffffffffffffffffffffffffffffffffffffffffffffffffffffff19161480611b6f57507f5b5e139f000000000000000000000000000000000000000000000000000000007bffffffffffffffffffffffffffffffffffffffffffffffffffffffff1916827bffffffffffffffffffffffffffffffffffffffffffffffffffffffff1916145b80611b7f5750611b7e82611f08565b5b9050919050565b8080611bbf5750600073ffffffffffffffffffffffffffffffffffffffff168273ffffffffffffffffffffffffffffffffffffffff1614155b15611cf3576000611bcf84610d7c565b9050600073ffffffffffffffffffffffffffffffffffffffff168373ffffffffffffffffffffffffffffffffffffffff1614158015611c3a57508273ffffffffffffffffffffffffffffffffffffffff168173ffffffffffffffffffffffffffffffffffffffff1614155b8015611c4d5750611c4b8184610c6e565b155b15611c8f57826040517fa9fbf51f000000000000000000000000000000000000000000000000000000008152600401611c869190612258565b60405180910390fd5b8115611cf157838573ffffffffffffffffffffffffffffffffffffffff168273ffffffffffffffffffffffffffffffffffffffff167f8c5be1e5ebec7d5bd14f71427d1e84f3dd0314c0f7b2291e5b200ac8c7c3b92560405160405180910390a45b505b836004600085815260200190815260200160002060006101000a81548173ffffffffffffffffffffffffffffffffffffffff021916908373ffffffffffffffffffffffffffffffffffffffff16021790555050505050565b611d56838383611f72565b611e0a57600073ffffffffffffffffffffffffffffffffffffffff168373ffffffffffffffffffffffffffffffffffffffff1603611dcb57806040517f7e273289000000000000000000000000000000000000000000000000000000008152600401611dc2919061243b565b60405180910390fd5b81816040517f177e802f000000000000000000000000000000000000000000000000000000008152600401611e01929190612e02565b60405180910390fd5b505050565b600073ffffffffffffffffffffffffffffffffffffffff168273ffffffffffffffffffffffffffffffffffffffff1603611e815760006040517f64a0ae92000000000000000000000000000000000000000000000000000000008152600401611e789190612258565b60405180910390fd5b6000611e8f838360006113a2565b9050600073ffffffffffffffffffffffffffffffffffffffff168173ffffffffffffffffffffffffffffffffffffffff1614611f035760006040517f73c6ac6e000000000000000000000000000000000000000000000000000000008152600401611efa9190612258565b60405180910390fd5b505050565b60007f01ffc9a7000000000000000000000000000000000000000000000000000000007bffffffffffffffffffffffffffffffffffffffffffffffffffffffff1916827bffffffffffffffffffffffffffffffffffffffffffffffffffffffff1916149050919050565b60008073ffffffffffffffffffffffffffffffffffffffff168373ffffffffffffffffffffffffffffffffffffffff161415801561202a57508273ffffffffffffffffffffffffffffffffffffffff168473ffffffffffffffffffffffffffffffffffffffff161480611feb5750611fea8484610c6e565b5b8061202957508273ffffffffffffffffffffffffffffffffffffffff1661201183610e04565b73ffffffffffffffffffffffffffffffffffffffff16145b5b90509392505050565b6000604051905090565b600080fd5b600080fd5b60007fffffffff0000000000000000000000000000000000000000000000000000000082169050919050565b61207c81612047565b811461208757600080fd5b50565b60008135905061209981612073565b92915050565b6000602082840312156120b5576120b461203d565b5b60006120c38482850161208a565b91505092915050565b60008115159050919050565b6120e1816120cc565b82525050565b60006020820190506120fc60008301846120d8565b92915050565b600081519050919050565b600082825260208201905092915050565b60005b8381101561213c578082015181840152602081019050612121565b60008484015250505050565b6000601f19601f8301169050919050565b600061216482612102565b61216e818561210d565b935061217e81856020860161211e565b61218781612148565b840191505092915050565b600060208201905081810360008301526121ac8184612159565b905092915050565b6000819050919050565b6121c7816121b4565b81146121d257600080fd5b50565b6000813590506121e4816121be565b92915050565b600060208284031215612200576121ff61203d565b5b600061220e848285016121d5565b91505092915050565b600073ffffffffffffffffffffffffffffffffffffffff82169050919050565b600061224282612217565b9050919050565b61225281612237565b82525050565b600060208201905061226d6000830184612249565b92915050565b61227c81612237565b811461228757600080fd5b50565b60008135905061229981612273565b92915050565b600080604083850312156122b6576122b561203d565b5b60006122c48582860161228a565b92505060206122d5858286016121d5565b9150509250929050565b6000806000606084860312156122f8576122f761203d565b5b60006123068682870161228a565b93505060206123178682870161228a565b9250506040612328868287016121d5565b9150509250925092565b6000819050919050565b61234581612332565b811461235057600080fd5b50565b6000813590506123628161233c565b92915050565b60006020828403121561237e5761237d61203d565b5b600061238c84828501612353565b91505092915050565b61239e81612332565b82525050565b60006020820190506123b96000830184612395565b92915050565b600080604083850312156123d6576123d561203d565b5b60006123e485828601612353565b92505060206123f58582860161228a565b9150509250929050565b6000602082840312156124155761241461203d565b5b60006124238482850161228a565b91505092915050565b612435816121b4565b82525050565b6000602082019050612450600083018461242c565b92915050565b61245f816120cc565b811461246a57600080fd5b50565b60008135905061247c81612456565b92915050565b600080604083850312156124995761249861203d565b5b60006124a78582860161228a565b92505060206124b88582860161246d565b9150509250929050565b600080fd5b600080fd5b7f4e487b7100000000000000000000000000000000000000000000000000000000600052604160045260246000fd5b61250482612148565b810181811067ffffffffffffffff82111715612523576125226124cc565b5b80604052505050565b6000612536612033565b905061254282826124fb565b919050565b600067ffffffffffffffff821115612562576125616124cc565b5b61256b82612148565b9050602081019050919050565b82818337600083830152505050565b600061259a61259584612547565b61252c565b9050828152602081018484840111156125b6576125b56124c7565b5b6125c1848285612578565b509392505050565b600082601f8301126125de576125dd6124c2565b5b81356125ee848260208601612587565b91505092915050565b600080600080608085870312156126115761261061203d565b5b600061261f8782880161228a565b94505060206126308782880161228a565b9350506040612641878288016121d5565b925050606085013567ffffffffffffffff81111561266257612661612042565b5b61266e878288016125c9565b91505092959194509250565b600067ffffffffffffffff821115612695576126946124cc565b5b61269e82612148565b9050602081019050919050565b60006126be6126b98461267a565b61252c565b9050828152602081018484840111156126da576126d96124c7565b5b6126e5848285612578565b509392505050565b600082601f830112612702576127016124c2565b5b81356127128482602086016126ab565b91505092915050565b600080604083850312156127325761273161203d565b5b60006127408582860161228a565b925050602083013567ffffffffffffffff81111561276157612760612042565b5b61276d858286016126ed565b9150509250929050565b6000806040838503121561278e5761278d61203d565b5b600061279c8582860161228a565b92505060206127ad8582860161228a565b9150509250929050565b7f4e487b7100000000000000000000000000000000000000000000000000000000600052602260045260246000fd5b600060028204905060018216806127fe57607f821691505b602082108103612811576128106127b7565b5b50919050565b7f4d656d6265725342543a20517565727920666f72206e6f6e6578697374656e7460008201527f20746f6b656e0000000000000000000000000000000000000000000000000000602082015250565b600061287360268361210d565b915061287e82612817565b604082019050919050565b600060208201905081810360008301526128a281612866565b9050919050565b600081905092915050565b60006128bf82612102565b6128c981856128a9565b93506128d981856020860161211e565b80840191505092915050565b60006128f182856128b4565b91506128fd82846128b4565b91508190509392505050565b7f4d656d6265725342545f44656d6f3a20596f752063616e206f6e6c79206d696e60008201527f7420616e2053425420666f7220796f757273656c662e00000000000000000000602082015250565b600061296560368361210d565b915061297082612909565b604082019050919050565b6000602082019050818103600083015261299481612958565b9050919050565b7f4e487b7100000000000000000000000000000000000000000000000000000000600052601160045260246000fd5b60006129d5826121b4565b91507fffffffffffffffffffffffffffffffffffffffffffffffffffffffffffffffff8203612a0757612a0661299b565b5b600182019050919050565b60008190508160005260206000209050919050565b60006020601f8301049050919050565b600082821b905092915050565b600060088302612a747fffffffffffffffffffffffffffffffffffffffffffffffffffffffffffffffff82612a37565b612a7e8683612a37565b95508019841693508086168417925050509392505050565b6000819050919050565b6000612abb612ab6612ab1846121b4565b612a96565b6121b4565b9050919050565b6000819050919050565b612ad583612aa0565b612ae9612ae182612ac2565b848454612a44565b825550505050565b600090565b612afe612af1565b612b09818484612acc565b505050565b5b81811015612b2d57612b22600082612af6565b600181019050612b0f565b5050565b601f821115612b7257612b4381612a12565b612b4c84612a27565b81016020851015612b5b578190505b612b6f612b6785612a27565b830182612b0e565b50505b505050565b600082821c905092915050565b6000612b9560001984600802612b77565b1980831691505092915050565b6000612bae8383612b84565b9150826002028217905092915050565b612bc782612102565b67ffffffffffffffff811115612be057612bdf6124cc565b5b612bea82546127e6565b612bf5828285612b31565b600060209050601f831160018114612c285760008415612c16578287015190505b612c208582612ba2565b865550612c88565b601f198416612c3686612a12565b60005b82811015612c5e57848901518255600182019150602085019450602081019050612c39565b86831015612c7b5784890151612c77601f891682612b84565b8355505b6001600288020188555050505b505050505050565b6000606082019050612ca56000830186612249565b612cb2602083018561242c565b612cbf6040830184612249565b949350505050565b7f4e487b7100000000000000000000000000000000000000000000000000000000600052601260045260246000fd5b6000604082019050612d0b6000830185612249565b612d186020830184612395565b9392505050565b600081519050919050565b600082825260208201905092915050565b6000612d4682612d1f565b612d508185612d2a565b9350612d6081856020860161211e565b612d6981612148565b840191505092915050565b6000608082019050612d896000830187612249565b612d966020830186612249565b612da3604083018561242c565b8181036060830152612db58184612d3b565b905095945050505050565b600081519050612dcf81612073565b92915050565b600060208284031215612deb57612dea61203d565b5b6000612df984828501612dc0565b91505092915050565b6000604082019050612e176000830185612249565b612e24602083018461242c565b939250505056fea26469706673582212208754203455eeb1bf2d078304f18180f5a1126c75e9fddcee7e618dd74f6afc3664736f6c634300081c0033",
  "linkReferences": {},
  "deployedLinkReferences": {}
}