{
  "_format": "hh-sol-artifact-1",
  "contractName": "MemberSbtDemo",
  "sourceName": "contracts/sbt/MemberSbtDemo.sol",
  "abi": [
    {
      "inputs": [
        {
          "internalType": "string",
          "name": "_name",
          "type": "string"
        },
        {
          "internalType": "string",
          "name": "_symbol",
          "type": "string"
        },
        {
          "internalType": "bool",
          "name": "_isLocked",
          "type": "bool"
        },
        {
          "internalType": "address",
          "name": "ownerAdmin",
          "type": "address"
        }
      ],
      "stateMutability": "nonpayable",
      "type": "constructor"
    },
    {
      "inputs": [],
      "name": "AccessControlBadConfirmation",
      "type": "error"
    },
    {
      "inputs": [
        {
          "internalType": "address",
          "name": "account",
          "type": "address"
        },
        {
          "internalType": "bytes32",
          "name": "neededRole",
          "type": "bytes32"
        }
      ],
      "name": "AccessControlUnauthorizedAccount",
      "type": "error"
    },
    {
      "inputs": [
        {
          "internalType": "address",
          "name": "sender",
          "type": "address"
        },
        {
          "internalType": "uint256",
          "name": "tokenId",
          "type": "uint256"
        },
        {
          "internalType": "address",
          "name": "owner",
          "type": "address"
        }
      ],
      "name": "ERC721IncorrectOwner",
      "type": "error"
    },
    {
      "inputs": [
        {
          "internalType": "address",
          "name": "operator",
          "type": "address"
        },
        {
          "internalType": "uint256",
          "name": "tokenId",
          "type": "uint256"
        }
      ],
      "name": "ERC721InsufficientApproval",
      "type": "error"
    },
    {
      "inputs": [
        {
          "internalType": "address",
          "name": "approver",
          "type": "address"
        }
      ],
      "name": "ERC721InvalidApprover",
      "type": "error"
    },
    {
      "inputs": [
        {
          "internalType": "address",
          "name": "operator",
          "type": "address"
        }
      ],
      "name": "ERC721InvalidOperator",
      "type": "error"
    },
    {
      "inputs": [
        {
          "internalType": "address",
          "name": "owner",
          "type": "address"
        }
      ],
      "name": "ERC721InvalidOwner",
      "type": "error"
    },
    {
      "inputs": [
        {
          "internalType": "address",
          "name": "receiver",
          "type": "address"
        }
      ],
      "name": "ERC721InvalidReceiver",
      "type": "error"
    },
    {
      "inputs": [
        {
          "internalType": "address",
          "name": "sender",
          "type": "address"
        }
      ],
      "name": "ERC721InvalidSender",
      "type": "error"
    },
    {
      "inputs": [
        {
          "internalType": "uint256",
          "name": "tokenId",
          "type": "uint256"
        }
      ],
      "name": "ERC721NonexistentToken",
      "type": "error"
    },
    {
      "inputs": [],
      "name": "ErrLocked",
      "type": "error"
    },
    {
      "inputs": [],
      "name": "ErrNotFound",
      "type": "error"
    },
    {
      "anonymous": false,
      "inputs": [
        {
          "indexed": true,
          "internalType": "address",
          "name": "owner",
          "type": "address"
        },
        {
          "indexed": true,
          "internalType": "address",
          "name": "approved",
          "type": "address"
        },
        {
          "indexed": true,
          "internalType": "uint256",
          "name": "tokenId",
          "type": "uint256"
        }
      ],
      "name": "Approval",
      "type": "event"
    },
    {
      "anonymous": false,
      "inputs": [
        {
          "indexed": true,
          "internalType": "address",
          "name": "owner",
          "type": "address"
        },
        {
          "indexed": true,
          "internalType": "address",
          "name": "operator",
          "type": "address"
        },
        {
          "indexed": false,
          "internalType": "bool",
          "name": "approved",
          "type": "bool"
        }
      ],
      "name": "ApprovalForAll",
      "type": "event"
    },
    {
      "anonymous": false,
      "inputs": [
        {
          "indexed": false,
          "internalType": "uint256",
          "name": "tokenId",
          "type": "uint256"
        }
      ],
      "name": "Locked",
      "type": "event"
    },
    {
      "anonymous": false,
      "inputs": [
        {
          "indexed": true,
          "internalType": "bytes32",
          "name": "role",
          "type": "bytes32"
        },
        {
          "indexed": true,
          "internalType": "bytes32",
          "name": "previousAdminRole",
          "type": "bytes32"
        },
        {
          "indexed": true,
          "internalType": "bytes32",
          "name": "newAdminRole",
          "type": "bytes32"
        }
      ],
      "name": "RoleAdminChanged",
      "type": "event"
    },
    {
      "anonymous": false,
      "inputs": [
        {
          "indexed": true,
          "internalType": "bytes32",
          "name": "role",
          "type": "bytes32"
        },
        {
          "indexed": true,
          "internalType": "address",
          "name": "account",
          "type": "address"
        },
        {
          "indexed": true,
          "internalType": "address",
          "name": "sender",
          "type": "address"
        }
      ],
      "name": "RoleGranted",
      "type": "event"
    },
    {
      "anonymous": false,
      "inputs": [
        {
          "indexed": true,
          "internalType": "bytes32",
          "name": "role",
          "type": "bytes32"
        },
        {
          "indexed": true,
          "internalType": "address",
          "name": "account",
          "type": "address"
        },
        {
          "indexed": true,
          "internalType": "address",
          "name": "sender",
          "type": "address"
        }
      ],
      "name": "RoleRevoked",
      "type": "event"
    },
    {
      "anonymous": false,
      "inputs": [
        {
          "indexed": true,
          "internalType": "address",
          "name": "to",
          "type": "address"
        },
        {
          "indexed": true,
          "internalType": "uint256",
          "name": "tokenId",
          "type": "uint256"
        },
        {
          "indexed": false,
          "internalType": "string",
          "name": "userName",
          "type": "string"
        }
      ],
      "name": "SBTMinted",
      "type": "event"
    },
    {
      "anonymous": false,
      "inputs": [
        {
          "indexed": true,
          "internalType": "address",
          "name": "from",
          "type": "address"
        },
        {
          "indexed": true,
          "internalType": "address",
          "name": "to",
          "type": "address"
        },
        {
          "indexed": true,
          "internalType": "uint256",
          "name": "tokenId",
          "type": "uint256"
        }
      ],
      "name": "Transfer",
      "type": "event"
    },
    {
      "anonymous": false,
      "inputs": [
        {
          "indexed": false,
          "internalType": "uint256",
          "name": "tokenId",
          "type": "uint256"
        }
      ],
      "name": "Unlocked",
      "type": "event"
    },
    {
      "inputs": [],
      "name": "DEFAULT_ADMIN_ROLE",
      "outputs": [
        {
          "internalType": "bytes32",
          "name": "",
          "type": "bytes32"
        }
      ],
      "stateMutability": "view",
      "type": "function"
    },
    {
      "inputs": [
        {
          "internalType": "address",
          "name": "approved",
          "type": "address"
        },
        {
          "internalType": "uint256",
          "name": "tokenId",
          "type": "uint256"
        }
      ],
      "name": "approve",
      "outputs": [],
      "stateMutability": "nonpayable",
      "type": "function"
    },
    {
      "inputs": [
        {
          "internalType": "address",
          "name": "owner",
          "type": "address"
        }
      ],
      "name": "balanceOf",
      "outputs": [
        {
          "internalType": "uint256",
          "name": "",
          "type": "uint256"
        }
      ],
      "stateMutability": "view",
      "type": "function"
    },
    {
      "inputs": [
        {
          "internalType": "uint256",
          "name": "tokenId",
          "type": "uint256"
        }
      ],
      "name": "getApproved",
      "outputs": [
        {
          "internalType": "address",
          "name": "",
          "type": "address"
        }
      ],
      "stateMutability": "view",
      "type": "function"
    },
    {
      "inputs": [
        {
          "internalType": "bytes32",
          "name": "role",
          "type": "bytes32"
        }
      ],
      "name": "getRoleAdmin",
      "outputs": [
        {
          "internalType": "bytes32",
          "name": "",
          "type": "bytes32"
        }
      ],
      "stateMutability": "view",
      "type": "function"
    },
    {
      "inputs": [],
      "name": "getTotalSupply",
      "outputs": [
        {
          "internalType": "uint256",
          "name": "",
          "type": "uint256"
        }
      ],
      "stateMutability": "view",
      "type": "function"
    },
    {
      "inputs": [
        {
          "internalType": "uint256",
          "name": "tokenId",
          "type": "uint256"
        }
      ],
      "name": "getUserName",
      "outputs": [
        {
          "internalType": "string",
          "name": "",
          "type": "string"
        }
      ],
      "stateMutability": "view",
      "type": "function"
    },
    {
      "inputs": [
        {
          "internalType": "bytes32",
          "name": "role",
          "type": "bytes32"
        },
        {
          "internalType": "address",
          "name": "account",
          "type": "address"
        }
      ],
      "name": "grantRole",
      "outputs": [],
      "stateMutability": "nonpayable",
      "type": "function"
    },
    {
      "inputs": [
        {
          "internalType": "bytes32",
          "name": "role",
          "type": "bytes32"
        },
        {
          "internalType": "address",
          "name": "account",
          "type": "address"
        }
      ],
      "name": "hasRole",
      "outputs": [
        {
          "internalType": "bool",
          "name": "",
          "type": "bool"
        }
      ],
      "stateMutability": "view",
      "type": "function"
    },
    {
      "inputs": [
        {
          "internalType": "address",
          "name": "owner",
          "type": "address"
        },
        {
          "internalType": "address",
          "name": "operator",
          "type": "address"
        }
      ],
      "name": "isApprovedForAll",
      "outputs": [
        {
          "internalType": "bool",
          "name": "",
          "type": "bool"
        }
      ],
      "stateMutability": "view",
      "type": "function"
    },
    {
      "inputs": [
        {
          "internalType": "uint256",
          "name": "tokenId",
          "type": "uint256"
        }
      ],
      "name": "locked",
      "outputs": [
        {
          "internalType": "bool",
          "name": "",
          "type": "bool"
        }
      ],
      "stateMutability": "view",
      "type": "function"
    },
    {
      "inputs": [],
      "name": "name",
      "outputs": [
        {
          "internalType": "string",
          "name": "",
          "type": "string"
        }
      ],
      "stateMutability": "view",
      "type": "function"
    },
    {
      "inputs": [
        {
          "internalType": "uint256",
          "name": "tokenId",
          "type": "uint256"
        }
      ],
      "name": "ownerOf",
      "outputs": [
        {
          "internalType": "address",
          "name": "",
          "type": "address"
        }
      ],
      "stateMutability": "view",
      "type": "function"
    },
    {
      "inputs": [
        {
          "internalType": "bytes32",
          "name": "role",
          "type": "bytes32"
        },
        {
          "internalType": "address",
          "name": "callerConfirmation",
          "type": "address"
        }
      ],
      "name": "renounceRole",
      "outputs": [],
      "stateMutability": "nonpayable",
      "type": "function"
    },
    {
      "inputs": [
        {
          "internalType": "bytes32",
          "name": "role",
          "type": "bytes32"
        },
        {
          "internalType": "address",
          "name": "account",
          "type": "address"
        }
      ],
      "name": "revokeRole",
      "outputs": [],
      "stateMutability": "nonpayable",
      "type": "function"
    },
    {
      "inputs": [
        {
          "internalType": "address",
          "name": "to",
          "type": "address"
        },
        {
          "internalType": "string",
          "name": "userName",
          "type": "string"
        }
      ],
      "name": "safeMint",
      "outputs": [
        {
          "internalType": "uint256",
          "name": "",
          "type": "uint256"
        }
      ],
      "stateMutability": "nonpayable",
      "type": "function"
    },
    {
      "inputs": [
        {
          "internalType": "address",
          "name": "from",
          "type": "address"
        },
        {
          "internalType": "address",
          "name": "to",
          "type": "address"
        },
        {
          "internalType": "uint256",
          "name": "tokenId",
          "type": "uint256"
        }
      ],
      "name": "safeTransferFrom",
      "outputs": [],
      "stateMutability": "nonpayable",
      "type": "function"
    },
    {
      "inputs": [
        {
          "internalType": "address",
          "name": "from",
          "type": "address"
        },
        {
          "internalType": "address",
          "name": "to",
          "type": "address"
        },
        {
          "internalType": "uint256",
          "name": "tokenId",
          "type": "uint256"
        },
        {
          "internalType": "bytes",
          "name": "data",
          "type": "bytes"
        }
      ],
      "name": "safeTransferFrom",
      "outputs": [],
      "stateMutability": "nonpayable",
      "type": "function"
    },
    {
      "inputs": [
        {
          "internalType": "address",
          "name": "operator",
          "type": "address"
        },
        {
          "internalType": "bool",
          "name": "approved",
          "type": "bool"
        }
      ],
      "name": "setApprovalForAll",
      "outputs": [],
      "stateMutability": "nonpayable",
      "type": "function"
    },
    {
      "inputs": [
        {
          "internalType": "bytes4",
          "name": "interfaceId",
          "type": "bytes4"
        }
      ],
      "name": "supportsInterface",
      "outputs": [
        {
          "internalType": "bool",
          "name": "",
          "type": "bool"
        }
      ],
      "stateMutability": "view",
      "type": "function"
    },
    {
      "inputs": [],
      "name": "symbol",
      "outputs": [
        {
          "internalType": "string",
          "name": "",
          "type": "string"
        }
      ],
      "stateMutability": "view",
      "type": "function"
    },
    {
      "inputs": [
        {
          "internalType": "uint256",
          "name": "tokenId",
          "type": "uint256"
        }
      ],
      "name": "tokenURI",
      "outputs": [
        {
          "internalType": "string",
          "name": "",
          "type": "string"
        }
      ],
      "stateMutability": "view",
      "type": "function"
    },
    {
      "inputs": [
        {
          "internalType": "address",
          "name": "from",
          "type": "address"
        },
        {
          "internalType": "address",
          "name": "to",
          "type": "address"
        },
        {
          "internalType": "uint256",
          "name": "tokenId",
          "type": "uint256"
        }
      ],
      "name": "transferFrom",
      "outputs": [],
      "stateMutability": "nonpayable",
      "type": "function"
    },
    {
      "inputs": [
        {
          "internalType": "uint256",
          "name": "tokenId",
          "type": "uint256"
        },
        {
          "internalType": "address",
          "name": "userAddress",
          "type": "address"
        }
      ],
      "name": "verifyCredential",
      "outputs": [
        {
          "internalType": "bool",
          "name": "",
          "type": "bool"
        }
      ],
      "stateMutability": "view",
      "type": "function"
    }
  ],
  "bytecode": "0x608060405234801561001057600080fd5b506040516137153803806137158339818101604052810190610032919061040f565b8383838282816000908161004691906106cf565b50806001908161005691906106cf565b50505080600660006101000a81548160ff0219169083151502179055505050506100896000801b8261009360201b60201c565b50505050506107a1565b60006100a5838361019160201b60201c565b6101865760016007600085815260200190815260200160002060000160008473ffffffffffffffffffffffffffffffffffffffff1673ffffffffffffffffffffffffffffffffffffffff16815260200190815260200160002060006101000a81548160ff0219169083151502179055506101236101fc60201b60201c565b73ffffffffffffffffffffffffffffffffffffffff168273ffffffffffffffffffffffffffffffffffffffff16847f2f8788117e7eff1d82e926ec794901d17c78024a50270940304540a733656f0d60405160405180910390a46001905061018b565b600090505b92915050565b60006007600084815260200190815260200160002060000160008373ffffffffffffffffffffffffffffffffffffffff1673ffffffffffffffffffffffffffffffffffffffff16815260200190815260200160002060009054906101000a900460ff16905092915050565b600033905090565b6000604051905090565b600080fd5b600080fd5b600080fd5b600080fd5b6000601f19601f8301169050919050565b7f4e487b7100000000000000000000000000000000000000000000000000000000600052604160045260246000fd5b61026b82610222565b810181811067ffffffffffffffff8211171561028a57610289610233565b5b80604052505050565b600061029d610204565b90506102a98282610262565b919050565b600067ffffffffffffffff8211156102c9576102c8610233565b5b6102d282610222565b9050602081019050919050565b60005b838110156102fd5780820151818401526020810190506102e2565b60008484015250505050565b600061031c610317846102ae565b610293565b9050828152602081018484840111156103385761033761021d565b5b6103438482856102df565b509392505050565b600082601f8301126103605761035f610218565b5b8151610370848260208601610309565b91505092915050565b60008115159050919050565b61038e81610379565b811461039957600080fd5b50565b6000815190506103ab81610385565b92915050565b600073ffffffffffffffffffffffffffffffffffffffff82169050919050565b60006103dc826103b1565b9050919050565b6103ec816103d1565b81146103f757600080fd5b50565b600081519050610409816103e3565b92915050565b600080600080608085870312156104295761042861020e565b5b600085015167ffffffffffffffff81111561044757610446610213565b5b6104538782880161034b565b945050602085015167ffffffffffffffff81111561047457610473610213565b5b6104808782880161034b565b93505060406104918782880161039c565b92505060606104a2878288016103fa565b91505092959194509250565b600081519050919050565b7f4e487b7100000000000000000000000000000000000000000000000000000000600052602260045260246000fd5b6000600282049050600182168061050057607f821691505b602082108103610513576105126104b9565b5b50919050565b60008190508160005260206000209050919050565b60006020601f8301049050919050565b600082821b905092915050565b60006008830261057b7fffffffffffffffffffffffffffffffffffffffffffffffffffffffffffffffff8261053e565b610585868361053e565b95508019841693508086168417925050509392505050565b6000819050919050565b6000819050919050565b60006105cc6105c76105c28461059d565b6105a7565b61059d565b9050919050565b6000819050919050565b6105e6836105b1565b6105fa6105f2826105d3565b84845461054b565b825550505050565b600090565b61060f610602565b61061a8184846105dd565b505050565b5b8181101561063e57610633600082610607565b600181019050610620565b5050565b601f8211156106835761065481610519565b61065d8461052e565b8101602085101561066c578190505b6106806106788561052e565b83018261061f565b50505b505050565b600082821c905092915050565b60006106a660001984600802610688565b1980831691505092915050565b60006106bf8383610695565b9150826002028217905092915050565b6106d8826104ae565b67ffffffffffffffff8111156106f1576106f0610233565b5b6106fb82546104e8565b610706828285610642565b600060209050601f8311600181146107395760008415610727578287015190505b61073185826106b3565b865550610799565b601f19841661074786610519565b60005b8281101561076f5784890151825560018201915060208501945060208101905061074a565b8683101561078c5784890151610788601f891682610695565b8355505b6001600288020188555050505b505050505050565b612f65806107b06000396000f3fe608060405234801561001057600080fd5b50600436106101585760003560e01c806395d89b41116100c3578063c4e41b221161007c578063c4e41b22146103fb578063c87b56dd14610419578063d204c45e14610449578063d547741f14610479578063e985e9c514610495578063ee6f13e9146104c557610158565b806395d89b4114610327578063988da80f14610345578063a217fddf14610375578063a22cb46514610393578063b45a3c0e146103af578063b88d4fde146103df57610158565b80632f2ff15d116101155780632f2ff15d1461024357806336568abe1461025f57806342842e0e1461027b5780636352211e1461029757806370a08231146102c757806391d14854146102f757610158565b806301ffc9a71461015d57806306fdde031461018d578063081812fc146101ab578063095ea7b3146101db57806323b872dd146101f7578063248a9ca314610213575b600080fd5b61017760048036038101906101729190612163565b6104f5565b60405161018491906121ab565b60405180910390f35b610195610507565b6040516101a29190612256565b60405180910390f35b6101c560048036038101906101c091906122ae565b610599565b6040516101d2919061231c565b60405180910390f35b6101f560048036038101906101f09190612363565b6105b5565b005b610211600480360381019061020c91906123a3565b61060a565b005b61022d6004803603810190610228919061242c565b610661565b60405161023a9190612468565b60405180910390f35b61025d60048036038101906102589190612483565b610681565b005b61027960048036038101906102749190612483565b6106a3565b005b610295600480360381019061029091906123a3565b61071e565b005b6102b160048036038101906102ac91906122ae565b61073e565b6040516102be919061231c565b60405180910390f35b6102e160048036038101906102dc91906124c3565b610750565b6040516102ee91906124ff565b60405180910390f35b610311600480360381019061030c9190612483565b61080a565b60405161031e91906121ab565b60405180910390f35b61032f610875565b60405161033c9190612256565b60405180910390f35b61035f600480360381019061035a91906122ae565b610907565b60405161036c9190612256565b60405180910390f35b61037d6109f4565b60405161038a9190612468565b60405180910390f35b6103ad60048036038101906103a89190612546565b6109fb565b005b6103c960048036038101906103c491906122ae565b610a50565b6040516103d691906121ab565b60405180910390f35b6103f960048036038101906103f491906126bb565b610aa8565b005b610403610b01565b60405161041091906124ff565b60405180910390f35b610433600480360381019061042e91906122ae565b610b0b565b6040516104409190612256565b60405180910390f35b610463600480360381019061045e91906127df565b610b74565b60405161047091906124ff565b60405180910390f35b610493600480360381019061048e9190612483565b610c87565b005b6104af60048036038101906104aa919061283b565b610ca9565b6040516104bc91906121ab565b60405180910390f35b6104df60048036038101906104da919061287b565b610d3d565b6040516104ec91906121ab565b60405180910390f35b600061050082610dc6565b9050919050565b606060008054610516906128ea565b80601f0160208091040260200160405190810160405280929190818152602001828054610542906128ea565b801561058f5780601f106105645761010080835404028352916020019161058f565b820191906000526020600020905b81548152906001019060200180831161057257829003601f168201915b5050505050905090565b60006105a482610e40565b506105ae82610ec8565b9050919050565b600660009054906101000a900460ff16156105fc576040517fbd291a9500000000000000000000000000000000000000000000000000000000815260040160405180910390fd5b6106068282610f05565b5050565b600660009054906101000a900460ff1615610651576040517fbd291a9500000000000000000000000000000000000000000000000000000000815260040160405180910390fd5b61065c838383610f1b565b505050565b600060076000838152602001908152602001600020600101549050919050565b61068a82610661565b6106938161101d565b61069d8383611031565b50505050565b6106ab611123565b73ffffffffffffffffffffffffffffffffffffffff168173ffffffffffffffffffffffffffffffffffffffff161461070f576040517f6697b23200000000000000000000000000000000000000000000000000000000815260040160405180910390fd5b610719828261112b565b505050565b61073983838360405180602001604052806000815250610aa8565b505050565b600061074982610e40565b9050919050565b60008073ffffffffffffffffffffffffffffffffffffffff168273ffffffffffffffffffffffffffffffffffffffff16036107c35760006040517f89c62b640000000000000000000000000000000000000000000000000000000081526004016107ba919061231c565b60405180910390fd5b600360008373ffffffffffffffffffffffffffffffffffffffff1673ffffffffffffffffffffffffffffffffffffffff168152602001908152602001600020549050919050565b60006007600084815260200190815260200160002060000160008373ffffffffffffffffffffffffffffffffffffffff1673ffffffffffffffffffffffffffffffffffffffff16815260200190815260200160002060009054906101000a900460ff16905092915050565b606060018054610884906128ea565b80601f01602080910402602001604051908101604052809291908181526020018280546108b0906128ea565b80156108fd5780601f106108d2576101008083540402835291602001916108fd565b820191906000526020600020905b8154815290600101906020018083116108e057829003601f168201915b5050505050905090565b60606109128261121e565b610951576040517f08c379a00000000000000000000000000000000000000000000000000000000081526004016109489061298d565b60405180910390fd5b60096000838152602001908152602001600020805461096f906128ea565b80601f016020809104026020016040519081016040528092919081815260200182805461099b906128ea565b80156109e85780601f106109bd576101008083540402835291602001916109e8565b820191906000526020600020905b8154815290600101906020018083116109cb57829003601f168201915b50505050509050919050565b6000801b81565b600660009054906101000a900460ff1615610a42576040517fbd291a9500000000000000000000000000000000000000000000000000000000815260040160405180910390fd5b610a4c828261125f565b5050565b6000610a5b8261121e565b610a91576040517fae9a63f500000000000000000000000000000000000000000000000000000000815260040160405180910390fd5b600660009054906101000a900460ff169050919050565b600660009054906101000a900460ff1615610aef576040517fbd291a9500000000000000000000000000000000000000000000000000000000815260040160405180910390fd5b610afb84848484611275565b50505050565b6000600854905090565b6060610b1682610e40565b506000610b2161129a565b90506000815111610b415760405180602001604052806000815250610b6c565b80610b4b846112b1565b604051602001610b5c9291906129e9565b6040516020818303038152906040525b915050919050565b60003373ffffffffffffffffffffffffffffffffffffffff168373ffffffffffffffffffffffffffffffffffffffff1614610be4576040517f08c379a0000000000000000000000000000000000000000000000000000000008152600401610bdb90612a7f565b60405180910390fd5b60006008549050610bf5848261137f565b60086000815480929190610c0890612ace565b919050555082600960008381526020019081526020016000209081610c2d9190612cc2565b50808473ffffffffffffffffffffffffffffffffffffffff167f4b9ad712e7eaa8cc24efaf239a9107a8e27385fb66e301d70c4f0d5747bde65385604051610c759190612256565b60405180910390a38091505092915050565b610c9082610661565b610c998161101d565b610ca3838361112b565b50505050565b6000600560008473ffffffffffffffffffffffffffffffffffffffff1673ffffffffffffffffffffffffffffffffffffffff16815260200190815260200160002060008373ffffffffffffffffffffffffffffffffffffffff1673ffffffffffffffffffffffffffffffffffffffff16815260200190815260200160002060009054906101000a900460ff16905092915050565b6000610d488361121e565b610d87576040517f08c379a0000000000000000000000000000000000000000000000000000000008152600401610d7e9061298d565b60405180910390fd5b8173ffffffffffffffffffffffffffffffffffffffff16610da78461073e565b73ffffffffffffffffffffffffffffffffffffffff1614905092915050565b60007f7965db0b000000000000000000000000000000000000000000000000000000007bffffffffffffffffffffffffffffffffffffffffffffffffffffffff1916827bffffffffffffffffffffffffffffffffffffffffffffffffffffffff19161480610e395750610e388261139d565b5b9050919050565b600080610e4c83611417565b9050600073ffffffffffffffffffffffffffffffffffffffff168173ffffffffffffffffffffffffffffffffffffffff1603610ebf57826040517f7e273289000000000000000000000000000000000000000000000000000000008152600401610eb691906124ff565b60405180910390fd5b80915050919050565b60006004600083815260200190815260200160002060009054906101000a900473ffffffffffffffffffffffffffffffffffffffff169050919050565b610f178282610f12611123565b611454565b5050565b600073ffffffffffffffffffffffffffffffffffffffff168273ffffffffffffffffffffffffffffffffffffffff1603610f8d5760006040517f64a0ae92000000000000000000000000000000000000000000000000000000008152600401610f84919061231c565b60405180910390fd5b6000610fa18383610f9c611123565b611466565b90508373ffffffffffffffffffffffffffffffffffffffff168173ffffffffffffffffffffffffffffffffffffffff1614611017578382826040517f64283d7b00000000000000000000000000000000000000000000000000000000815260040161100e93929190612d94565b60405180910390fd5b50505050565b61102e81611029611123565b611680565b50565b600061103d838361080a565b6111185760016007600085815260200190815260200160002060000160008473ffffffffffffffffffffffffffffffffffffffff1673ffffffffffffffffffffffffffffffffffffffff16815260200190815260200160002060006101000a81548160ff0219169083151502179055506110b5611123565b73ffffffffffffffffffffffffffffffffffffffff168273ffffffffffffffffffffffffffffffffffffffff16847f2f8788117e7eff1d82e926ec794901d17c78024a50270940304540a733656f0d60405160405180910390a46001905061111d565b600090505b92915050565b600033905090565b6000611137838361080a565b156112135760006007600085815260200190815260200160002060000160008473ffffffffffffffffffffffffffffffffffffffff1673ffffffffffffffffffffffffffffffffffffffff16815260200190815260200160002060006101000a81548160ff0219169083151502179055506111b0611123565b73ffffffffffffffffffffffffffffffffffffffff168273ffffffffffffffffffffffffffffffffffffffff16847ff6391f5c32d9c69d2a47ea670b442974b53935d1edc7fd64eb21e047a839171b60405160405180910390a460019050611218565b600090505b92915050565b60008073ffffffffffffffffffffffffffffffffffffffff1661124083611417565b73ffffffffffffffffffffffffffffffffffffffff1614159050919050565b61127161126a611123565b83836116d1565b5050565b61128084848461060a565b61129461128b611123565b85858585611840565b50505050565b606060405180602001604052806000815250905090565b6060600060016112c0846119f1565b01905060008167ffffffffffffffff8111156112df576112de612590565b5b6040519080825280601f01601f1916602001820160405280156113115781602001600182028036833780820191505090505b509050600082602001820190505b600115611374578080600190039150507f3031323334353637383961626364656600000000000000000000000000000000600a86061a8153600a858161136857611367612dcb565b5b0494506000850361131f575b819350505050919050565b611399828260405180602001604052806000815250611b44565b5050565b60007fb45a3c0e000000000000000000000000000000000000000000000000000000007bffffffffffffffffffffffffffffffffffffffffffffffffffffffff1916827bffffffffffffffffffffffffffffffffffffffffffffffffffffffff19161480611410575061140f82611b68565b5b9050919050565b60006002600083815260200190815260200160002060009054906101000a900473ffffffffffffffffffffffffffffffffffffffff169050919050565b6114618383836001611c4a565b505050565b60008061147284611417565b9050600073ffffffffffffffffffffffffffffffffffffffff168373ffffffffffffffffffffffffffffffffffffffff16146114b4576114b3818486611e0f565b5b600073ffffffffffffffffffffffffffffffffffffffff168173ffffffffffffffffffffffffffffffffffffffff1614611545576114f6600085600080611c4a565b6001600360008373ffffffffffffffffffffffffffffffffffffffff1673ffffffffffffffffffffffffffffffffffffffff168152602001908152602001600020600082825403925050819055505b600073ffffffffffffffffffffffffffffffffffffffff168573ffffffffffffffffffffffffffffffffffffffff16146115c8576001600360008773ffffffffffffffffffffffffffffffffffffffff1673ffffffffffffffffffffffffffffffffffffffff168152602001908152602001600020600082825401925050819055505b846002600086815260200190815260200160002060006101000a81548173ffffffffffffffffffffffffffffffffffffffff021916908373ffffffffffffffffffffffffffffffffffffffff160217905550838573ffffffffffffffffffffffffffffffffffffffff168273ffffffffffffffffffffffffffffffffffffffff167fddf252ad1be2c89b69c2b068fc378daa952ba7f163c4a11628f55a4df523b3ef60405160405180910390a4809150509392505050565b61168a828261080a565b6116cd5780826040517fe2517d3f0000000000000000000000000000000000000000000000000000000081526004016116c4929190612dfa565b60405180910390fd5b5050565b600073ffffffffffffffffffffffffffffffffffffffff168273ffffffffffffffffffffffffffffffffffffffff160361174257816040517f5b08ba18000000000000000000000000000000000000000000000000000000008152600401611739919061231c565b60405180910390fd5b80600560008573ffffffffffffffffffffffffffffffffffffffff1673ffffffffffffffffffffffffffffffffffffffff16815260200190815260200160002060008473ffffffffffffffffffffffffffffffffffffffff1673ffffffffffffffffffffffffffffffffffffffff16815260200190815260200160002060006101000a81548160ff0219169083151502179055508173ffffffffffffffffffffffffffffffffffffffff168373ffffffffffffffffffffffffffffffffffffffff167f17307eab39ab6107e8899845ad3d59bd9653f200f220920489ca2b5937696c318360405161183391906121ab565b60405180910390a3505050565b60008373ffffffffffffffffffffffffffffffffffffffff163b11156119ea578273ffffffffffffffffffffffffffffffffffffffff1663150b7a02868685856040518563ffffffff1660e01b815260040161189f9493929190612e78565b6020604051808303816000875af19250505080156118db57506040513d601f19601f820116820180604052508101906118d89190612ed9565b60015b61195f573d806000811461190b576040519150601f19603f3d011682016040523d82523d6000602084013e611910565b606091505b50600081510361195757836040517f64a0ae9200000000000000000000000000000000000000000000000000000000815260040161194e919061231c565b60405180910390fd5b805181602001fd5b63150b7a0260e01b7bffffffffffffffffffffffffffffffffffffffffffffffffffffffff1916817bffffffffffffffffffffffffffffffffffffffffffffffffffffffff1916146119e857836040517f64a0ae920000000000000000000000000000000000000000000000000000000081526004016119df919061231c565b60405180910390fd5b505b5050505050565b600080600090507a184f03e93ff9f4daa797ed6e38ed64bf6a1f0100000000000000008310611a4f577a184f03e93ff9f4daa797ed6e38ed64bf6a1f0100000000000000008381611a4557611a44612dcb565b5b0492506040810190505b6d04ee2d6d415b85acef81000000008310611a8c576d04ee2d6d415b85acef81000000008381611a8257611a81612dcb565b5b0492506020810190505b662386f26fc100008310611abb57662386f26fc100008381611ab157611ab0612dcb565b5b0492506010810190505b6305f5e1008310611ae4576305f5e1008381611ada57611ad9612dcb565b5b0492506008810190505b6127108310611b09576127108381611aff57611afe612dcb565b5b0492506004810190505b60648310611b2c5760648381611b2257611b21612dcb565b5b0492506002810190505b600a8310611b3b576001810190505b80915050919050565b611b4e8383611ed3565b611b63611b59611123565b6000858585611840565b505050565b60007f80ac58cd000000000000000000000000000000000000000000000000000000007bffffffffffffffffffffffffffffffffffffffffffffffffffffffff1916827bffffffffffffffffffffffffffffffffffffffffffffffffffffffff19161480611c3357507f5b5e139f000000000000000000000000000000000000000000000000000000007bffffffffffffffffffffffffffffffffffffffffffffffffffffffff1916827bffffffffffffffffffffffffffffffffffffffffffffffffffffffff1916145b80611c435750611c4282611fcc565b5b9050919050565b8080611c835750600073ffffffffffffffffffffffffffffffffffffffff168273ffffffffffffffffffffffffffffffffffffffff1614155b15611db7576000611c9384610e40565b9050600073ffffffffffffffffffffffffffffffffffffffff168373ffffffffffffffffffffffffffffffffffffffff1614158015611cfe57508273ffffffffffffffffffffffffffffffffffffffff168173ffffffffffffffffffffffffffffffffffffffff1614155b8015611d115750611d0f8184610ca9565b155b15611d5357826040517fa9fbf51f000000000000000000000000000000000000000000000000000000008152600401611d4a919061231c565b60405180910390fd5b8115611db557838573ffffffffffffffffffffffffffffffffffffffff168273ffffffffffffffffffffffffffffffffffffffff167f8c5be1e5ebec7d5bd14f71427d1e84f3dd0314c0f7b2291e5b200ac8c7c3b92560405160405180910390a45b505b836004600085815260200190815260200160002060006101000a81548173ffffffffffffffffffffffffffffffffffffffff021916908373ffffffffffffffffffffffffffffffffffffffff16021790555050505050565b611e1a838383612036565b611ece57600073ffffffffffffffffffffffffffffffffffffffff168373ffffffffffffffffffffffffffffffffffffffff1603611e8f57806040517f7e273289000000000000000000000000000000000000000000000000000000008152600401611e8691906124ff565b60405180910390fd5b81816040517f177e802f000000000000000000000000000000000000000000000000000000008152600401611ec5929190612f06565b60405180910390fd5b505050565b600073ffffffffffffffffffffffffffffffffffffffff168273ffffffffffffffffffffffffffffffffffffffff1603611f455760006040517f64a0ae92000000000000000000000000000000000000000000000000000000008152600401611f3c919061231c565b60405180910390fd5b6000611f5383836000611466565b9050600073ffffffffffffffffffffffffffffffffffffffff168173ffffffffffffffffffffffffffffffffffffffff1614611fc75760006040517f73c6ac6e000000000000000000000000000000000000000000000000000000008152600401611fbe919061231c565b60405180910390fd5b505050565b60007f01ffc9a7000000000000000000000000000000000000000000000000000000007bffffffffffffffffffffffffffffffffffffffffffffffffffffffff1916827bffffffffffffffffffffffffffffffffffffffffffffffffffffffff1916149050919050565b60008073ffffffffffffffffffffffffffffffffffffffff168373ffffffffffffffffffffffffffffffffffffffff16141580156120ee57508273ffffffffffffffffffffffffffffffffffffffff168473ffffffffffffffffffffffffffffffffffffffff1614806120af57506120ae8484610ca9565b5b806120ed57508273ffffffffffffffffffffffffffffffffffffffff166120d583610ec8565b73ffffffffffffffffffffffffffffffffffffffff16145b5b90509392505050565b6000604051905090565b600080fd5b600080fd5b60007fffffffff0000000000000000000000000000000000000000000000000000000082169050919050565b6121408161210b565b811461214b57600080fd5b50565b60008135905061215d81612137565b92915050565b60006020828403121561217957612178612101565b5b60006121878482850161214e565b91505092915050565b60008115159050919050565b6121a581612190565b82525050565b60006020820190506121c0600083018461219c565b92915050565b600081519050919050565b600082825260208201905092915050565b60005b838110156122005780820151818401526020810190506121e5565b60008484015250505050565b6000601f19601f8301169050919050565b6000612228826121c6565b61223281856121d1565b93506122428185602086016121e2565b61224b8161220c565b840191505092915050565b60006020820190508181036000830152612270818461221d565b905092915050565b6000819050919050565b61228b81612278565b811461229657600080fd5b50565b6000813590506122a881612282565b92915050565b6000602082840312156122c4576122c3612101565b5b60006122d284828501612299565b91505092915050565b600073ffffffffffffffffffffffffffffffffffffffff82169050919050565b6000612306826122db565b9050919050565b612316816122fb565b82525050565b6000602082019050612331600083018461230d565b92915050565b612340816122fb565b811461234b57600080fd5b50565b60008135905061235d81612337565b92915050565b6000806040838503121561237a57612379612101565b5b60006123888582860161234e565b925050602061239985828601612299565b9150509250929050565b6000806000606084860312156123bc576123bb612101565b5b60006123ca8682870161234e565b93505060206123db8682870161234e565b92505060406123ec86828701612299565b9150509250925092565b6000819050919050565b612409816123f6565b811461241457600080fd5b50565b60008135905061242681612400565b92915050565b60006020828403121561244257612441612101565b5b600061245084828501612417565b91505092915050565b612462816123f6565b82525050565b600060208201905061247d6000830184612459565b92915050565b6000806040838503121561249a57612499612101565b5b60006124a885828601612417565b92505060206124b98582860161234e565b9150509250929050565b6000602082840312156124d9576124d8612101565b5b60006124e78482850161234e565b91505092915050565b6124f981612278565b82525050565b600060208201905061251460008301846124f0565b92915050565b61252381612190565b811461252e57600080fd5b50565b6000813590506125408161251a565b92915050565b6000806040838503121561255d5761255c612101565b5b600061256b8582860161234e565b925050602061257c85828601612531565b9150509250929050565b600080fd5b600080fd5b7f4e487b7100000000000000000000000000000000000000000000000000000000600052604160045260246000fd5b6125c88261220c565b810181811067ffffffffffffffff821117156125e7576125e6612590565b5b80604052505050565b60006125fa6120f7565b905061260682826125bf565b919050565b600067ffffffffffffffff82111561262657612625612590565b5b61262f8261220c565b9050602081019050919050565b82818337600083830152505050565b600061265e6126598461260b565b6125f0565b90508281526020810184848401111561267a5761267961258b565b5b61268584828561263c565b509392505050565b600082601f8301126126a2576126a1612586565b5b81356126b284826020860161264b565b91505092915050565b600080600080608085870312156126d5576126d4612101565b5b60006126e38782880161234e565b94505060206126f48782880161234e565b935050604061270587828801612299565b925050606085013567ffffffffffffffff81111561272657612725612106565b5b6127328782880161268d565b91505092959194509250565b600067ffffffffffffffff82111561275957612758612590565b5b6127628261220c565b9050602081019050919050565b600061278261277d8461273e565b6125f0565b90508281526020810184848401111561279e5761279d61258b565b5b6127a984828561263c565b509392505050565b600082601f8301126127c6576127c5612586565b5b81356127d684826020860161276f565b91505092915050565b600080604083850312156127f6576127f5612101565b5b60006128048582860161234e565b925050602083013567ffffffffffffffff81111561282557612824612106565b5b612831858286016127b1565b9150509250929050565b6000806040838503121561285257612851612101565b5b60006128608582860161234e565b92505060206128718582860161234e565b9150509250929050565b6000806040838503121561289257612891612101565b5b60006128a085828601612299565b92505060206128b18582860161234e565b9150509250929050565b7f4e487b7100000000000000000000000000000000000000000000000000000000600052602260045260246000fd5b6000600282049050600182168061290257607f821691505b602082108103612915576129146128bb565b5b50919050565b7f4d656d6265725342543a20517565727920666f72206e6f6e6578697374656e7460008201527f20746f6b656e0000000000000000000000000000000000000000000000000000602082015250565b60006129776026836121d1565b91506129828261291b565b604082019050919050565b600060208201905081810360008301526129a68161296a565b9050919050565b600081905092915050565b60006129c3826121c6565b6129cd81856129ad565b93506129dd8185602086016121e2565b80840191505092915050565b60006129f582856129b8565b9150612a0182846129b8565b91508190509392505050565b7f4d656d62657253627444656d6f3a20596f752063616e206f6e6c79206d696e7460008201527f20616e2053425420666f7220796f757273656c662e0000000000000000000000602082015250565b6000612a696035836121d1565b9150612a7482612a0d565b604082019050919050565b60006020820190508181036000830152612a9881612a5c565b9050919050565b7f4e487b7100000000000000000000000000000000000000000000000000000000600052601160045260246000fd5b6000612ad982612278565b91507fffffffffffffffffffffffffffffffffffffffffffffffffffffffffffffffff8203612b0b57612b0a612a9f565b5b600182019050919050565b60008190508160005260206000209050919050565b60006020601f8301049050919050565b600082821b905092915050565b600060088302612b787fffffffffffffffffffffffffffffffffffffffffffffffffffffffffffffffff82612b3b565b612b828683612b3b565b95508019841693508086168417925050509392505050565b6000819050919050565b6000612bbf612bba612bb584612278565b612b9a565b612278565b9050919050565b6000819050919050565b612bd983612ba4565b612bed612be582612bc6565b848454612b48565b825550505050565b600090565b612c02612bf5565b612c0d818484612bd0565b505050565b5b81811015612c3157612c26600082612bfa565b600181019050612c13565b5050565b601f821115612c7657612c4781612b16565b612c5084612b2b565b81016020851015612c5f578190505b612c73612c6b85612b2b565b830182612c12565b50505b505050565b600082821c905092915050565b6000612c9960001984600802612c7b565b1980831691505092915050565b6000612cb28383612c88565b9150826002028217905092915050565b612ccb826121c6565b67ffffffffffffffff811115612ce457612ce3612590565b5b612cee82546128ea565b612cf9828285612c35565b600060209050601f831160018114612d2c5760008415612d1a578287015190505b612d248582612ca6565b865550612d8c565b601f198416612d3a86612b16565b60005b82811015612d6257848901518255600182019150602085019450602081019050612d3d565b86831015612d7f5784890151612d7b601f891682612c88565b8355505b6001600288020188555050505b505050505050565b6000606082019050612da9600083018661230d565b612db660208301856124f0565b612dc3604083018461230d565b949350505050565b7f4e487b7100000000000000000000000000000000000000000000000000000000600052601260045260246000fd5b6000604082019050612e0f600083018561230d565b612e1c6020830184612459565b9392505050565b600081519050919050565b600082825260208201905092915050565b6000612e4a82612e23565b612e548185612e2e565b9350612e648185602086016121e2565b612e6d8161220c565b840191505092915050565b6000608082019050612e8d600083018761230d565b612e9a602083018661230d565b612ea760408301856124f0565b8181036060830152612eb98184612e3f565b905095945050505050565b600081519050612ed381612137565b92915050565b600060208284031215612eef57612eee612101565b5b6000612efd84828501612ec4565b91505092915050565b6000604082019050612f1b600083018561230d565b612f2860208301846124f0565b939250505056fea2646970667358221220667051d4a2e2fc967a897746c5dbda1aaabee7bb7b9082ca47cac856f7374e8864736f6c634300081c0033",
  "linkReferences": {},
  "deployedLinkReferences": {}
}