{
  "_format": "hh-sol-artifact-1",
  "contractName": "MemberSBT",
  "sourceName": "contracts/sbt/MemberSBT.sol",
  "abi": [
    {
      "inputs": [
        {
          "internalType": "string",
          "name": "_name",
          "type": "string"
        },
        {
          "internalType": "string",
          "name": "_symbol",
          "type": "string"
        },
        {
          "internalType": "bool",
          "name": "_isLocked",
          "type": "bool"
        },
        {
          "internalType": "address",
          "name": "ownerAdmin",
          "type": "address"
        },
        {
          "internalType": "address[]",
          "name": "initialMinters",
          "type": "address[]"
        }
      ],
      "stateMutability": "nonpayable",
      "type": "constructor"
    },
    {
      "inputs": [],
      "name": "AccessControlBadConfirmation",
      "type": "error"
    },
    {
      "inputs": [
        {
          "internalType": "address",
          "name": "account",
          "type": "address"
        },
        {
          "internalType": "bytes32",
          "name": "neededRole",
          "type": "bytes32"
        }
      ],
      "name": "AccessControlUnauthorizedAccount",
      "type": "error"
    },
    {
      "inputs": [
        {
          "internalType": "address",
          "name": "sender",
          "type": "address"
        },
        {
          "internalType": "uint256",
          "name": "tokenId",
          "type": "uint256"
        },
        {
          "internalType": "address",
          "name": "owner",
          "type": "address"
        }
      ],
      "name": "ERC721IncorrectOwner",
      "type": "error"
    },
    {
      "inputs": [
        {
          "internalType": "address",
          "name": "operator",
          "type": "address"
        },
        {
          "internalType": "uint256",
          "name": "tokenId",
          "type": "uint256"
        }
      ],
      "name": "ERC721InsufficientApproval",
      "type": "error"
    },
    {
      "inputs": [
        {
          "internalType": "address",
          "name": "approver",
          "type": "address"
        }
      ],
      "name": "ERC721InvalidApprover",
      "type": "error"
    },
    {
      "inputs": [
        {
          "internalType": "address",
          "name": "operator",
          "type": "address"
        }
      ],
      "name": "ERC721InvalidOperator",
      "type": "error"
    },
    {
      "inputs": [
        {
          "internalType": "address",
          "name": "owner",
          "type": "address"
        }
      ],
      "name": "ERC721InvalidOwner",
      "type": "error"
    },
    {
      "inputs": [
        {
          "internalType": "address",
          "name": "receiver",
          "type": "address"
        }
      ],
      "name": "ERC721InvalidReceiver",
      "type": "error"
    },
    {
      "inputs": [
        {
          "internalType": "address",
          "name": "sender",
          "type": "address"
        }
      ],
      "name": "ERC721InvalidSender",
      "type": "error"
    },
    {
      "inputs": [
        {
          "internalType": "uint256",
          "name": "tokenId",
          "type": "uint256"
        }
      ],
      "name": "ERC721NonexistentToken",
      "type": "error"
    },
    {
      "inputs": [],
      "name": "ErrLocked",
      "type": "error"
    },
    {
      "inputs": [],
      "name": "ErrNotFound",
      "type": "error"
    },
    {
      "anonymous": false,
      "inputs": [
        {
          "indexed": true,
          "internalType": "address",
          "name": "owner",
          "type": "address"
        },
        {
          "indexed": true,
          "internalType": "address",
          "name": "approved",
          "type": "address"
        },
        {
          "indexed": true,
          "internalType": "uint256",
          "name": "tokenId",
          "type": "uint256"
        }
      ],
      "name": "Approval",
      "type": "event"
    },
    {
      "anonymous": false,
      "inputs": [
        {
          "indexed": true,
          "internalType": "address",
          "name": "owner",
          "type": "address"
        },
        {
          "indexed": true,
          "internalType": "address",
          "name": "operator",
          "type": "address"
        },
        {
          "indexed": false,
          "internalType": "bool",
          "name": "approved",
          "type": "bool"
        }
      ],
      "name": "ApprovalForAll",
      "type": "event"
    },
    {
      "anonymous": false,
      "inputs": [
        {
          "indexed": false,
          "internalType": "uint256",
          "name": "tokenId",
          "type": "uint256"
        }
      ],
      "name": "Locked",
      "type": "event"
    },
    {
      "anonymous": false,
      "inputs": [
        {
          "indexed": true,
          "internalType": "bytes32",
          "name": "role",
          "type": "bytes32"
        },
        {
          "indexed": true,
          "internalType": "bytes32",
          "name": "previousAdminRole",
          "type": "bytes32"
        },
        {
          "indexed": true,
          "internalType": "bytes32",
          "name": "newAdminRole",
          "type": "bytes32"
        }
      ],
      "name": "RoleAdminChanged",
      "type": "event"
    },
    {
      "anonymous": false,
      "inputs": [
        {
          "indexed": true,
          "internalType": "bytes32",
          "name": "role",
          "type": "bytes32"
        },
        {
          "indexed": true,
          "internalType": "address",
          "name": "account",
          "type": "address"
        },
        {
          "indexed": true,
          "internalType": "address",
          "name": "sender",
          "type": "address"
        }
      ],
      "name": "RoleGranted",
      "type": "event"
    },
    {
      "anonymous": false,
      "inputs": [
        {
          "indexed": true,
          "internalType": "bytes32",
          "name": "role",
          "type": "bytes32"
        },
        {
          "indexed": true,
          "internalType": "address",
          "name": "account",
          "type": "address"
        },
        {
          "indexed": true,
          "internalType": "address",
          "name": "sender",
          "type": "address"
        }
      ],
      "name": "RoleRevoked",
      "type": "event"
    },
    {
      "anonymous": false,
      "inputs": [
        {
          "indexed": true,
          "internalType": "address",
          "name": "to",
          "type": "address"
        },
        {
          "indexed": true,
          "internalType": "uint256",
          "name": "tokenId",
          "type": "uint256"
        },
        {
          "indexed": false,
          "internalType": "string",
          "name": "userName",
          "type": "string"
        }
      ],
      "name": "SBTMinted",
      "type": "event"
    },
    {
      "anonymous": false,
      "inputs": [
        {
          "indexed": true,
          "internalType": "address",
          "name": "from",
          "type": "address"
        },
        {
          "indexed": true,
          "internalType": "address",
          "name": "to",
          "type": "address"
        },
        {
          "indexed": true,
          "internalType": "uint256",
          "name": "tokenId",
          "type": "uint256"
        }
      ],
      "name": "Transfer",
      "type": "event"
    },
    {
      "anonymous": false,
      "inputs": [
        {
          "indexed": false,
          "internalType": "uint256",
          "name": "tokenId",
          "type": "uint256"
        }
      ],
      "name": "Unlocked",
      "type": "event"
    },
    {
      "inputs": [],
      "name": "DEFAULT_ADMIN_ROLE",
      "outputs": [
        {
          "internalType": "bytes32",
          "name": "",
          "type": "bytes32"
        }
      ],
      "stateMutability": "view",
      "type": "function"
    },
    {
      "inputs": [],
      "name": "MINTER_ROLE",
      "outputs": [
        {
          "internalType": "bytes32",
          "name": "",
          "type": "bytes32"
        }
      ],
      "stateMutability": "view",
      "type": "function"
    },
    {
      "inputs": [
        {
          "internalType": "address",
          "name": "approved",
          "type": "address"
        },
        {
          "internalType": "uint256",
          "name": "tokenId",
          "type": "uint256"
        }
      ],
      "name": "approve",
      "outputs": [],
      "stateMutability": "nonpayable",
      "type": "function"
    },
    {
      "inputs": [
        {
          "internalType": "address",
          "name": "owner",
          "type": "address"
        }
      ],
      "name": "balanceOf",
      "outputs": [
        {
          "internalType": "uint256",
          "name": "",
          "type": "uint256"
        }
      ],
      "stateMutability": "view",
      "type": "function"
    },
    {
      "inputs": [
        {
          "internalType": "uint256",
          "name": "tokenId",
          "type": "uint256"
        }
      ],
      "name": "getApproved",
      "outputs": [
        {
          "internalType": "address",
          "name": "",
          "type": "address"
        }
      ],
      "stateMutability": "view",
      "type": "function"
    },
    {
      "inputs": [
        {
          "internalType": "bytes32",
          "name": "role",
          "type": "bytes32"
        }
      ],
      "name": "getRoleAdmin",
      "outputs": [
        {
          "internalType": "bytes32",
          "name": "",
          "type": "bytes32"
        }
      ],
      "stateMutability": "view",
      "type": "function"
    },
    {
      "inputs": [
        {
          "internalType": "uint256",
          "name": "tokenId",
          "type": "uint256"
        }
      ],
      "name": "getUserName",
      "outputs": [
        {
          "internalType": "string",
          "name": "",
          "type": "string"
        }
      ],
      "stateMutability": "view",
      "type": "function"
    },
    {
      "inputs": [
        {
          "internalType": "bytes32",
          "name": "role",
          "type": "bytes32"
        },
        {
          "internalType": "address",
          "name": "account",
          "type": "address"
        }
      ],
      "name": "grantRole",
      "outputs": [],
      "stateMutability": "nonpayable",
      "type": "function"
    },
    {
      "inputs": [
        {
          "internalType": "bytes32",
          "name": "role",
          "type": "bytes32"
        },
        {
          "internalType": "address",
          "name": "account",
          "type": "address"
        }
      ],
      "name": "hasRole",
      "outputs": [
        {
          "internalType": "bool",
          "name": "",
          "type": "bool"
        }
      ],
      "stateMutability": "view",
      "type": "function"
    },
    {
      "inputs": [
        {
          "internalType": "address",
          "name": "owner",
          "type": "address"
        },
        {
          "internalType": "address",
          "name": "operator",
          "type": "address"
        }
      ],
      "name": "isApprovedForAll",
      "outputs": [
        {
          "internalType": "bool",
          "name": "",
          "type": "bool"
        }
      ],
      "stateMutability": "view",
      "type": "function"
    },
    {
      "inputs": [
        {
          "internalType": "uint256",
          "name": "tokenId",
          "type": "uint256"
        }
      ],
      "name": "locked",
      "outputs": [
        {
          "internalType": "bool",
          "name": "",
          "type": "bool"
        }
      ],
      "stateMutability": "view",
      "type": "function"
    },
    {
      "inputs": [],
      "name": "name",
      "outputs": [
        {
          "internalType": "string",
          "name": "",
          "type": "string"
        }
      ],
      "stateMutability": "view",
      "type": "function"
    },
    {
      "inputs": [
        {
          "internalType": "uint256",
          "name": "tokenId",
          "type": "uint256"
        }
      ],
      "name": "ownerOf",
      "outputs": [
        {
          "internalType": "address",
          "name": "",
          "type": "address"
        }
      ],
      "stateMutability": "view",
      "type": "function"
    },
    {
      "inputs": [
        {
          "internalType": "bytes32",
          "name": "role",
          "type": "bytes32"
        },
        {
          "internalType": "address",
          "name": "callerConfirmation",
          "type": "address"
        }
      ],
      "name": "renounceRole",
      "outputs": [],
      "stateMutability": "nonpayable",
      "type": "function"
    },
    {
      "inputs": [
        {
          "internalType": "bytes32",
          "name": "role",
          "type": "bytes32"
        },
        {
          "internalType": "address",
          "name": "account",
          "type": "address"
        }
      ],
      "name": "revokeRole",
      "outputs": [],
      "stateMutability": "nonpayable",
      "type": "function"
    },
    {
      "inputs": [
        {
          "internalType": "address",
          "name": "to",
          "type": "address"
        },
        {
          "internalType": "string",
          "name": "userName",
          "type": "string"
        }
      ],
      "name": "safeMint",
      "outputs": [
        {
          "internalType": "uint256",
          "name": "",
          "type": "uint256"
        }
      ],
      "stateMutability": "nonpayable",
      "type": "function"
    },
    {
      "inputs": [
        {
          "internalType": "address",
          "name": "from",
          "type": "address"
        },
        {
          "internalType": "address",
          "name": "to",
          "type": "address"
        },
        {
          "internalType": "uint256",
          "name": "tokenId",
          "type": "uint256"
        }
      ],
      "name": "safeTransferFrom",
      "outputs": [],
      "stateMutability": "nonpayable",
      "type": "function"
    },
    {
      "inputs": [
        {
          "internalType": "address",
          "name": "from",
          "type": "address"
        },
        {
          "internalType": "address",
          "name": "to",
          "type": "address"
        },
        {
          "internalType": "uint256",
          "name": "tokenId",
          "type": "uint256"
        },
        {
          "internalType": "bytes",
          "name": "data",
          "type": "bytes"
        }
      ],
      "name": "safeTransferFrom",
      "outputs": [],
      "stateMutability": "nonpayable",
      "type": "function"
    },
    {
      "inputs": [
        {
          "internalType": "address",
          "name": "operator",
          "type": "address"
        },
        {
          "internalType": "bool",
          "name": "approved",
          "type": "bool"
        }
      ],
      "name": "setApprovalForAll",
      "outputs": [],
      "stateMutability": "nonpayable",
      "type": "function"
    },
    {
      "inputs": [
        {
          "internalType": "bytes4",
          "name": "interfaceId",
          "type": "bytes4"
        }
      ],
      "name": "supportsInterface",
      "outputs": [
        {
          "internalType": "bool",
          "name": "",
          "type": "bool"
        }
      ],
      "stateMutability": "view",
      "type": "function"
    },
    {
      "inputs": [],
      "name": "symbol",
      "outputs": [
        {
          "internalType": "string",
          "name": "",
          "type": "string"
        }
      ],
      "stateMutability": "view",
      "type": "function"
    },
    {
      "inputs": [
        {
          "internalType": "uint256",
          "name": "tokenId",
          "type": "uint256"
        }
      ],
      "name": "tokenURI",
      "outputs": [
        {
          "internalType": "string",
          "name": "",
          "type": "string"
        }
      ],
      "stateMutability": "view",
      "type": "function"
    },
    {
      "inputs": [
        {
          "internalType": "address",
          "name": "from",
          "type": "address"
        },
        {
          "internalType": "address",
          "name": "to",
          "type": "address"
        },
        {
          "internalType": "uint256",
          "name": "tokenId",
          "type": "uint256"
        }
      ],
      "name": "transferFrom",
      "outputs": [],
      "stateMutability": "nonpayable",
      "type": "function"
    }
  ],
  "bytecode": "0x608060405234801561001057600080fd5b506040516136e33803806136e38339818101604052810190610032919061053d565b84848482828160009081610046919061082d565b508060019081610056919061082d565b50505080600660006101000a81548160ff0219169083151502179055505050506100896000801b836100f960201b60201c565b5060005b81518110156100ee576100e07f9f2df0fed2c77648de5860a4cc508cd0818c85b8b8a1ab4ceeef8d981c8956a68383815181106100cd576100cc6108ff565b5b60200260200101516100f960201b60201c565b50808060010191505061008d565b50505050505061092e565b600061010b83836101f760201b60201c565b6101ec5760016007600085815260200190815260200160002060000160008473ffffffffffffffffffffffffffffffffffffffff1673ffffffffffffffffffffffffffffffffffffffff16815260200190815260200160002060006101000a81548160ff02191690831515021790555061018961026260201b60201c565b73ffffffffffffffffffffffffffffffffffffffff168273ffffffffffffffffffffffffffffffffffffffff16847f2f8788117e7eff1d82e926ec794901d17c78024a50270940304540a733656f0d60405160405180910390a4600190506101f1565b600090505b92915050565b60006007600084815260200190815260200160002060000160008373ffffffffffffffffffffffffffffffffffffffff1673ffffffffffffffffffffffffffffffffffffffff16815260200190815260200160002060009054906101000a900460ff16905092915050565b600033905090565b6000604051905090565b600080fd5b600080fd5b600080fd5b600080fd5b6000601f19601f8301169050919050565b7f4e487b7100000000000000000000000000000000000000000000000000000000600052604160045260246000fd5b6102d182610288565b810181811067ffffffffffffffff821117156102f0576102ef610299565b5b80604052505050565b600061030361026a565b905061030f82826102c8565b919050565b600067ffffffffffffffff82111561032f5761032e610299565b5b61033882610288565b9050602081019050919050565b60005b83811015610363578082015181840152602081019050610348565b60008484015250505050565b600061038261037d84610314565b6102f9565b90508281526020810184848401111561039e5761039d610283565b5b6103a9848285610345565b509392505050565b600082601f8301126103c6576103c561027e565b5b81516103d684826020860161036f565b91505092915050565b60008115159050919050565b6103f4816103df565b81146103ff57600080fd5b50565b600081519050610411816103eb565b92915050565b600073ffffffffffffffffffffffffffffffffffffffff82169050919050565b600061044282610417565b9050919050565b61045281610437565b811461045d57600080fd5b50565b60008151905061046f81610449565b92915050565b600067ffffffffffffffff8211156104905761048f610299565b5b602082029050602081019050919050565b600080fd5b60006104b96104b484610475565b6102f9565b905080838252602082019050602084028301858111156104dc576104db6104a1565b5b835b8181101561050557806104f18882610460565b8452602084019350506020810190506104de565b5050509392505050565b600082601f8301126105245761052361027e565b5b81516105348482602086016104a6565b91505092915050565b600080600080600060a0868803121561055957610558610274565b5b600086015167ffffffffffffffff81111561057757610576610279565b5b610583888289016103b1565b955050602086015167ffffffffffffffff8111156105a4576105a3610279565b5b6105b0888289016103b1565b94505060406105c188828901610402565b93505060606105d288828901610460565b925050608086015167ffffffffffffffff8111156105f3576105f2610279565b5b6105ff8882890161050f565b9150509295509295909350565b600081519050919050565b7f4e487b7100000000000000000000000000000000000000000000000000000000600052602260045260246000fd5b6000600282049050600182168061065e57607f821691505b60208210810361067157610670610617565b5b50919050565b60008190508160005260206000209050919050565b60006020601f8301049050919050565b600082821b905092915050565b6000600883026106d97fffffffffffffffffffffffffffffffffffffffffffffffffffffffffffffffff8261069c565b6106e3868361069c565b95508019841693508086168417925050509392505050565b6000819050919050565b6000819050919050565b600061072a610725610720846106fb565b610705565b6106fb565b9050919050565b6000819050919050565b6107448361070f565b61075861075082610731565b8484546106a9565b825550505050565b600090565b61076d610760565b61077881848461073b565b505050565b5b8181101561079c57610791600082610765565b60018101905061077e565b5050565b601f8211156107e1576107b281610677565b6107bb8461068c565b810160208510156107ca578190505b6107de6107d68561068c565b83018261077d565b50505b505050565b600082821c905092915050565b6000610804600019846008026107e6565b1980831691505092915050565b600061081d83836107f3565b9150826002028217905092915050565b6108368261060c565b67ffffffffffffffff81111561084f5761084e610299565b5b6108598254610646565b6108648282856107a0565b600060209050601f8311600181146108975760008415610885578287015190505b61088f8582610811565b8655506108f7565b601f1984166108a586610677565b60005b828110156108cd578489015182556001820191506020850194506020810190506108a8565b868310156108ea57848901516108e6601f8916826107f3565b8355505b6001600288020188555050505b505050505050565b7f4e487b7100000000000000000000000000000000000000000000000000000000600052603260045260246000fd5b612da68061093d6000396000f3fe608060405234801561001057600080fd5b506004361061014d5760003560e01c806391d14854116100c3578063b88d4fde1161007c578063b88d4fde146103d4578063c87b56dd146103f0578063d204c45e14610420578063d539139314610450578063d547741f1461046e578063e985e9c51461048a5761014d565b806391d14854146102ec57806395d89b411461031c578063988da80f1461033a578063a217fddf1461036a578063a22cb46514610388578063b45a3c0e146103a45761014d565b8063248a9ca311610115578063248a9ca3146102085780632f2ff15d1461023857806336568abe1461025457806342842e0e146102705780636352211e1461028c57806370a08231146102bc5761014d565b806301ffc9a71461015257806306fdde0314610182578063081812fc146101a0578063095ea7b3146101d057806323b872dd146101ec575b600080fd5b61016c60048036038101906101679190612076565b6104ba565b60405161017991906120be565b60405180910390f35b61018a6104cc565b6040516101979190612169565b60405180910390f35b6101ba60048036038101906101b591906121c1565b61055e565b6040516101c7919061222f565b60405180910390f35b6101ea60048036038101906101e59190612276565b61057a565b005b610206600480360381019061020191906122b6565b6105cf565b005b610222600480360381019061021d919061233f565b610626565b60405161022f919061237b565b60405180910390f35b610252600480360381019061024d9190612396565b610646565b005b61026e60048036038101906102699190612396565b610668565b005b61028a600480360381019061028591906122b6565b6106e3565b005b6102a660048036038101906102a191906121c1565b610703565b6040516102b3919061222f565b60405180910390f35b6102d660048036038101906102d191906123d6565b610715565b6040516102e39190612412565b60405180910390f35b61030660048036038101906103019190612396565b6107cf565b60405161031391906120be565b60405180910390f35b61032461083a565b6040516103319190612169565b60405180910390f35b610354600480360381019061034f91906121c1565b6108cc565b6040516103619190612169565b60405180910390f35b6103726109b9565b60405161037f919061237b565b60405180910390f35b6103a2600480360381019061039d9190612459565b6109c0565b005b6103be60048036038101906103b991906121c1565b610a15565b6040516103cb91906120be565b60405180910390f35b6103ee60048036038101906103e991906125ce565b610a6d565b005b61040a600480360381019061040591906121c1565b610ac6565b6040516104179190612169565b60405180910390f35b61043a600480360381019061043591906126f2565b610b2f565b6040516104479190612412565b60405180910390f35b610458610bff565b604051610465919061237b565b60405180910390f35b61048860048036038101906104839190612396565b610c23565b005b6104a4600480360381019061049f919061274e565b610c45565b6040516104b191906120be565b60405180910390f35b60006104c582610cd9565b9050919050565b6060600080546104db906127bd565b80601f0160208091040260200160405190810160405280929190818152602001828054610507906127bd565b80156105545780601f1061052957610100808354040283529160200191610554565b820191906000526020600020905b81548152906001019060200180831161053757829003601f168201915b5050505050905090565b600061056982610d53565b5061057382610ddb565b9050919050565b600660009054906101000a900460ff16156105c1576040517fbd291a9500000000000000000000000000000000000000000000000000000000815260040160405180910390fd5b6105cb8282610e18565b5050565b600660009054906101000a900460ff1615610616576040517fbd291a9500000000000000000000000000000000000000000000000000000000815260040160405180910390fd5b610621838383610e2e565b505050565b600060076000838152602001908152602001600020600101549050919050565b61064f82610626565b61065881610f30565b6106628383610f44565b50505050565b610670611036565b73ffffffffffffffffffffffffffffffffffffffff168173ffffffffffffffffffffffffffffffffffffffff16146106d4576040517f6697b23200000000000000000000000000000000000000000000000000000000815260040160405180910390fd5b6106de828261103e565b505050565b6106fe83838360405180602001604052806000815250610a6d565b505050565b600061070e82610d53565b9050919050565b60008073ffffffffffffffffffffffffffffffffffffffff168273ffffffffffffffffffffffffffffffffffffffff16036107885760006040517f89c62b6400000000000000000000000000000000000000000000000000000000815260040161077f919061222f565b60405180910390fd5b600360008373ffffffffffffffffffffffffffffffffffffffff1673ffffffffffffffffffffffffffffffffffffffff168152602001908152602001600020549050919050565b60006007600084815260200190815260200160002060000160008373ffffffffffffffffffffffffffffffffffffffff1673ffffffffffffffffffffffffffffffffffffffff16815260200190815260200160002060009054906101000a900460ff16905092915050565b606060018054610849906127bd565b80601f0160208091040260200160405190810160405280929190818152602001828054610875906127bd565b80156108c25780601f10610897576101008083540402835291602001916108c2565b820191906000526020600020905b8154815290600101906020018083116108a557829003601f168201915b5050505050905090565b60606108d782611131565b610916576040517f08c379a000000000000000000000000000000000000000000000000000000000815260040161090d90612860565b60405180910390fd5b600960008381526020019081526020016000208054610934906127bd565b80601f0160208091040260200160405190810160405280929190818152602001828054610960906127bd565b80156109ad5780601f10610982576101008083540402835291602001916109ad565b820191906000526020600020905b81548152906001019060200180831161099057829003601f168201915b50505050509050919050565b6000801b81565b600660009054906101000a900460ff1615610a07576040517fbd291a9500000000000000000000000000000000000000000000000000000000815260040160405180910390fd5b610a118282611172565b5050565b6000610a2082611131565b610a56576040517fae9a63f500000000000000000000000000000000000000000000000000000000815260040160405180910390fd5b600660009054906101000a900460ff169050919050565b600660009054906101000a900460ff1615610ab4576040517fbd291a9500000000000000000000000000000000000000000000000000000000815260040160405180910390fd5b610ac084848484611188565b50505050565b6060610ad182610d53565b506000610adc6111ad565b90506000815111610afc5760405180602001604052806000815250610b27565b80610b06846111c4565b604051602001610b179291906128bc565b6040516020818303038152906040525b915050919050565b60007f9f2df0fed2c77648de5860a4cc508cd0818c85b8b8a1ab4ceeef8d981c8956a6610b5b81610f30565b60006008549050610b6c8582611292565b60086000815480929190610b7f9061290f565b919050555083600960008381526020019081526020016000209081610ba49190612b03565b50808573ffffffffffffffffffffffffffffffffffffffff167f4b9ad712e7eaa8cc24efaf239a9107a8e27385fb66e301d70c4f0d5747bde65386604051610bec9190612169565b60405180910390a3809250505092915050565b7f9f2df0fed2c77648de5860a4cc508cd0818c85b8b8a1ab4ceeef8d981c8956a681565b610c2c82610626565b610c3581610f30565b610c3f838361103e565b50505050565b6000600560008473ffffffffffffffffffffffffffffffffffffffff1673ffffffffffffffffffffffffffffffffffffffff16815260200190815260200160002060008373ffffffffffffffffffffffffffffffffffffffff1673ffffffffffffffffffffffffffffffffffffffff16815260200190815260200160002060009054906101000a900460ff16905092915050565b60007f7965db0b000000000000000000000000000000000000000000000000000000007bffffffffffffffffffffffffffffffffffffffffffffffffffffffff1916827bffffffffffffffffffffffffffffffffffffffffffffffffffffffff19161480610d4c5750610d4b826112b0565b5b9050919050565b600080610d5f8361132a565b9050600073ffffffffffffffffffffffffffffffffffffffff168173ffffffffffffffffffffffffffffffffffffffff1603610dd257826040517f7e273289000000000000000000000000000000000000000000000000000000008152600401610dc99190612412565b60405180910390fd5b80915050919050565b60006004600083815260200190815260200160002060009054906101000a900473ffffffffffffffffffffffffffffffffffffffff169050919050565b610e2a8282610e25611036565b611367565b5050565b600073ffffffffffffffffffffffffffffffffffffffff168273ffffffffffffffffffffffffffffffffffffffff1603610ea05760006040517f64a0ae92000000000000000000000000000000000000000000000000000000008152600401610e97919061222f565b60405180910390fd5b6000610eb48383610eaf611036565b611379565b90508373ffffffffffffffffffffffffffffffffffffffff168173ffffffffffffffffffffffffffffffffffffffff1614610f2a578382826040517f64283d7b000000000000000000000000000000000000000000000000000000008152600401610f2193929190612bd5565b60405180910390fd5b50505050565b610f4181610f3c611036565b611593565b50565b6000610f5083836107cf565b61102b5760016007600085815260200190815260200160002060000160008473ffffffffffffffffffffffffffffffffffffffff1673ffffffffffffffffffffffffffffffffffffffff16815260200190815260200160002060006101000a81548160ff021916908315150217905550610fc8611036565b73ffffffffffffffffffffffffffffffffffffffff168273ffffffffffffffffffffffffffffffffffffffff16847f2f8788117e7eff1d82e926ec794901d17c78024a50270940304540a733656f0d60405160405180910390a460019050611030565b600090505b92915050565b600033905090565b600061104a83836107cf565b156111265760006007600085815260200190815260200160002060000160008473ffffffffffffffffffffffffffffffffffffffff1673ffffffffffffffffffffffffffffffffffffffff16815260200190815260200160002060006101000a81548160ff0219169083151502179055506110c3611036565b73ffffffffffffffffffffffffffffffffffffffff168273ffffffffffffffffffffffffffffffffffffffff16847ff6391f5c32d9c69d2a47ea670b442974b53935d1edc7fd64eb21e047a839171b60405160405180910390a46001905061112b565b600090505b92915050565b60008073ffffffffffffffffffffffffffffffffffffffff166111538361132a565b73ffffffffffffffffffffffffffffffffffffffff1614159050919050565b61118461117d611036565b83836115e4565b5050565b6111938484846105cf565b6111a761119e611036565b85858585611753565b50505050565b606060405180602001604052806000815250905090565b6060600060016111d384611904565b01905060008167ffffffffffffffff8111156111f2576111f16124a3565b5b6040519080825280601f01601f1916602001820160405280156112245781602001600182028036833780820191505090505b509050600082602001820190505b600115611287578080600190039150507f3031323334353637383961626364656600000000000000000000000000000000600a86061a8153600a858161127b5761127a612c0c565b5b04945060008503611232575b819350505050919050565b6112ac828260405180602001604052806000815250611a57565b5050565b60007fb45a3c0e000000000000000000000000000000000000000000000000000000007bffffffffffffffffffffffffffffffffffffffffffffffffffffffff1916827bffffffffffffffffffffffffffffffffffffffffffffffffffffffff19161480611323575061132282611a7b565b5b9050919050565b60006002600083815260200190815260200160002060009054906101000a900473ffffffffffffffffffffffffffffffffffffffff169050919050565b6113748383836001611b5d565b505050565b6000806113858461132a565b9050600073ffffffffffffffffffffffffffffffffffffffff168373ffffffffffffffffffffffffffffffffffffffff16146113c7576113c6818486611d22565b5b600073ffffffffffffffffffffffffffffffffffffffff168173ffffffffffffffffffffffffffffffffffffffff161461145857611409600085600080611b5d565b6001600360008373ffffffffffffffffffffffffffffffffffffffff1673ffffffffffffffffffffffffffffffffffffffff168152602001908152602001600020600082825403925050819055505b600073ffffffffffffffffffffffffffffffffffffffff168573ffffffffffffffffffffffffffffffffffffffff16146114db576001600360008773ffffffffffffffffffffffffffffffffffffffff1673ffffffffffffffffffffffffffffffffffffffff168152602001908152602001600020600082825401925050819055505b846002600086815260200190815260200160002060006101000a81548173ffffffffffffffffffffffffffffffffffffffff021916908373ffffffffffffffffffffffffffffffffffffffff160217905550838573ffffffffffffffffffffffffffffffffffffffff168273ffffffffffffffffffffffffffffffffffffffff167fddf252ad1be2c89b69c2b068fc378daa952ba7f163c4a11628f55a4df523b3ef60405160405180910390a4809150509392505050565b61159d82826107cf565b6115e05780826040517fe2517d3f0000000000000000000000000000000000000000000000000000000081526004016115d7929190612c3b565b60405180910390fd5b5050565b600073ffffffffffffffffffffffffffffffffffffffff168273ffffffffffffffffffffffffffffffffffffffff160361165557816040517f5b08ba1800000000000000000000000000000000000000000000000000000000815260040161164c919061222f565b60405180910390fd5b80600560008573ffffffffffffffffffffffffffffffffffffffff1673ffffffffffffffffffffffffffffffffffffffff16815260200190815260200160002060008473ffffffffffffffffffffffffffffffffffffffff1673ffffffffffffffffffffffffffffffffffffffff16815260200190815260200160002060006101000a81548160ff0219169083151502179055508173ffffffffffffffffffffffffffffffffffffffff168373ffffffffffffffffffffffffffffffffffffffff167f17307eab39ab6107e8899845ad3d59bd9653f200f220920489ca2b5937696c318360405161174691906120be565b60405180910390a3505050565b60008373ffffffffffffffffffffffffffffffffffffffff163b11156118fd578273ffffffffffffffffffffffffffffffffffffffff1663150b7a02868685856040518563ffffffff1660e01b81526004016117b29493929190612cb9565b6020604051808303816000875af19250505080156117ee57506040513d601f19601f820116820180604052508101906117eb9190612d1a565b60015b611872573d806000811461181e576040519150601f19603f3d011682016040523d82523d6000602084013e611823565b606091505b50600081510361186a57836040517f64a0ae92000000000000000000000000000000000000000000000000000000008152600401611861919061222f565b60405180910390fd5b805181602001fd5b63150b7a0260e01b7bffffffffffffffffffffffffffffffffffffffffffffffffffffffff1916817bffffffffffffffffffffffffffffffffffffffffffffffffffffffff1916146118fb57836040517f64a0ae920000000000000000000000000000000000000000000000000000000081526004016118f2919061222f565b60405180910390fd5b505b5050505050565b600080600090507a184f03e93ff9f4daa797ed6e38ed64bf6a1f0100000000000000008310611962577a184f03e93ff9f4daa797ed6e38ed64bf6a1f010000000000000000838161195857611957612c0c565b5b0492506040810190505b6d04ee2d6d415b85acef8100000000831061199f576d04ee2d6d415b85acef8100000000838161199557611994612c0c565b5b0492506020810190505b662386f26fc1000083106119ce57662386f26fc1000083816119c4576119c3612c0c565b5b0492506010810190505b6305f5e10083106119f7576305f5e10083816119ed576119ec612c0c565b5b0492506008810190505b6127108310611a1c576127108381611a1257611a11612c0c565b5b0492506004810190505b60648310611a3f5760648381611a3557611a34612c0c565b5b0492506002810190505b600a8310611a4e576001810190505b80915050919050565b611a618383611de6565b611a76611a6c611036565b6000858585611753565b505050565b60007f80ac58cd000000000000000000000000000000000000000000000000000000007bffffffffffffffffffffffffffffffffffffffffffffffffffffffff1916827bffffffffffffffffffffffffffffffffffffffffffffffffffffffff19161480611b4657507f5b5e139f000000000000000000000000000000000000000000000000000000007bffffffffffffffffffffffffffffffffffffffffffffffffffffffff1916827bffffffffffffffffffffffffffffffffffffffffffffffffffffffff1916145b80611b565750611b5582611edf565b5b9050919050565b8080611b965750600073ffffffffffffffffffffffffffffffffffffffff168273ffffffffffffffffffffffffffffffffffffffff1614155b15611cca576000611ba684610d53565b9050600073ffffffffffffffffffffffffffffffffffffffff168373ffffffffffffffffffffffffffffffffffffffff1614158015611c1157508273ffffffffffffffffffffffffffffffffffffffff168173ffffffffffffffffffffffffffffffffffffffff1614155b8015611c245750611c228184610c45565b155b15611c6657826040517fa9fbf51f000000000000000000000000000000000000000000000000000000008152600401611c5d919061222f565b60405180910390fd5b8115611cc857838573ffffffffffffffffffffffffffffffffffffffff168273ffffffffffffffffffffffffffffffffffffffff167f8c5be1e5ebec7d5bd14f71427d1e84f3dd0314c0f7b2291e5b200ac8c7c3b92560405160405180910390a45b505b836004600085815260200190815260200160002060006101000a81548173ffffffffffffffffffffffffffffffffffffffff021916908373ffffffffffffffffffffffffffffffffffffffff16021790555050505050565b611d2d838383611f49565b611de157600073ffffffffffffffffffffffffffffffffffffffff168373ffffffffffffffffffffffffffffffffffffffff1603611da257806040517f7e273289000000000000000000000000000000000000000000000000000000008152600401611d999190612412565b60405180910390fd5b81816040517f177e802f000000000000000000000000000000000000000000000000000000008152600401611dd8929190612d47565b60405180910390fd5b505050565b600073ffffffffffffffffffffffffffffffffffffffff168273ffffffffffffffffffffffffffffffffffffffff1603611e585760006040517f64a0ae92000000000000000000000000000000000000000000000000000000008152600401611e4f919061222f565b60405180910390fd5b6000611e6683836000611379565b9050600073ffffffffffffffffffffffffffffffffffffffff168173ffffffffffffffffffffffffffffffffffffffff1614611eda5760006040517f73c6ac6e000000000000000000000000000000000000000000000000000000008152600401611ed1919061222f565b60405180910390fd5b505050565b60007f01ffc9a7000000000000000000000000000000000000000000000000000000007bffffffffffffffffffffffffffffffffffffffffffffffffffffffff1916827bffffffffffffffffffffffffffffffffffffffffffffffffffffffff1916149050919050565b60008073ffffffffffffffffffffffffffffffffffffffff168373ffffffffffffffffffffffffffffffffffffffff161415801561200157508273ffffffffffffffffffffffffffffffffffffffff168473ffffffffffffffffffffffffffffffffffffffff161480611fc25750611fc18484610c45565b5b8061200057508273ffffffffffffffffffffffffffffffffffffffff16611fe883610ddb565b73ffffffffffffffffffffffffffffffffffffffff16145b5b90509392505050565b6000604051905090565b600080fd5b600080fd5b60007fffffffff0000000000000000000000000000000000000000000000000000000082169050919050565b6120538161201e565b811461205e57600080fd5b50565b6000813590506120708161204a565b92915050565b60006020828403121561208c5761208b612014565b5b600061209a84828501612061565b91505092915050565b60008115159050919050565b6120b8816120a3565b82525050565b60006020820190506120d360008301846120af565b92915050565b600081519050919050565b600082825260208201905092915050565b60005b838110156121135780820151818401526020810190506120f8565b60008484015250505050565b6000601f19601f8301169050919050565b600061213b826120d9565b61214581856120e4565b93506121558185602086016120f5565b61215e8161211f565b840191505092915050565b600060208201905081810360008301526121838184612130565b905092915050565b6000819050919050565b61219e8161218b565b81146121a957600080fd5b50565b6000813590506121bb81612195565b92915050565b6000602082840312156121d7576121d6612014565b5b60006121e5848285016121ac565b91505092915050565b600073ffffffffffffffffffffffffffffffffffffffff82169050919050565b6000612219826121ee565b9050919050565b6122298161220e565b82525050565b60006020820190506122446000830184612220565b92915050565b6122538161220e565b811461225e57600080fd5b50565b6000813590506122708161224a565b92915050565b6000806040838503121561228d5761228c612014565b5b600061229b85828601612261565b92505060206122ac858286016121ac565b9150509250929050565b6000806000606084860312156122cf576122ce612014565b5b60006122dd86828701612261565b93505060206122ee86828701612261565b92505060406122ff868287016121ac565b9150509250925092565b6000819050919050565b61231c81612309565b811461232757600080fd5b50565b60008135905061233981612313565b92915050565b60006020828403121561235557612354612014565b5b60006123638482850161232a565b91505092915050565b61237581612309565b82525050565b6000602082019050612390600083018461236c565b92915050565b600080604083850312156123ad576123ac612014565b5b60006123bb8582860161232a565b92505060206123cc85828601612261565b9150509250929050565b6000602082840312156123ec576123eb612014565b5b60006123fa84828501612261565b91505092915050565b61240c8161218b565b82525050565b60006020820190506124276000830184612403565b92915050565b612436816120a3565b811461244157600080fd5b50565b6000813590506124538161242d565b92915050565b600080604083850312156124705761246f612014565b5b600061247e85828601612261565b925050602061248f85828601612444565b9150509250929050565b600080fd5b600080fd5b7f4e487b7100000000000000000000000000000000000000000000000000000000600052604160045260246000fd5b6124db8261211f565b810181811067ffffffffffffffff821117156124fa576124f96124a3565b5b80604052505050565b600061250d61200a565b905061251982826124d2565b919050565b600067ffffffffffffffff821115612539576125386124a3565b5b6125428261211f565b9050602081019050919050565b82818337600083830152505050565b600061257161256c8461251e565b612503565b90508281526020810184848401111561258d5761258c61249e565b5b61259884828561254f565b509392505050565b600082601f8301126125b5576125b4612499565b5b81356125c584826020860161255e565b91505092915050565b600080600080608085870312156125e8576125e7612014565b5b60006125f687828801612261565b945050602061260787828801612261565b9350506040612618878288016121ac565b925050606085013567ffffffffffffffff81111561263957612638612019565b5b612645878288016125a0565b91505092959194509250565b600067ffffffffffffffff82111561266c5761266b6124a3565b5b6126758261211f565b9050602081019050919050565b600061269561269084612651565b612503565b9050828152602081018484840111156126b1576126b061249e565b5b6126bc84828561254f565b509392505050565b600082601f8301126126d9576126d8612499565b5b81356126e9848260208601612682565b91505092915050565b6000806040838503121561270957612708612014565b5b600061271785828601612261565b925050602083013567ffffffffffffffff81111561273857612737612019565b5b612744858286016126c4565b9150509250929050565b6000806040838503121561276557612764612014565b5b600061277385828601612261565b925050602061278485828601612261565b9150509250929050565b7f4e487b7100000000000000000000000000000000000000000000000000000000600052602260045260246000fd5b600060028204905060018216806127d557607f821691505b6020821081036127e8576127e761278e565b5b50919050565b7f4d656d6265725342543a20517565727920666f72206e6f6e6578697374656e7460008201527f20746f6b656e0000000000000000000000000000000000000000000000000000602082015250565b600061284a6026836120e4565b9150612855826127ee565b604082019050919050565b600060208201905081810360008301526128798161283d565b9050919050565b600081905092915050565b6000612896826120d9565b6128a08185612880565b93506128b08185602086016120f5565b80840191505092915050565b60006128c8828561288b565b91506128d4828461288b565b91508190509392505050565b7f4e487b7100000000000000000000000000000000000000000000000000000000600052601160045260246000fd5b600061291a8261218b565b91507fffffffffffffffffffffffffffffffffffffffffffffffffffffffffffffffff820361294c5761294b6128e0565b5b600182019050919050565b60008190508160005260206000209050919050565b60006020601f8301049050919050565b600082821b905092915050565b6000600883026129b97fffffffffffffffffffffffffffffffffffffffffffffffffffffffffffffffff8261297c565b6129c3868361297c565b95508019841693508086168417925050509392505050565b6000819050919050565b6000612a006129fb6129f68461218b565b6129db565b61218b565b9050919050565b6000819050919050565b612a1a836129e5565b612a2e612a2682612a07565b848454612989565b825550505050565b600090565b612a43612a36565b612a4e818484612a11565b505050565b5b81811015612a7257612a67600082612a3b565b600181019050612a54565b5050565b601f821115612ab757612a8881612957565b612a918461296c565b81016020851015612aa0578190505b612ab4612aac8561296c565b830182612a53565b50505b505050565b600082821c905092915050565b6000612ada60001984600802612abc565b1980831691505092915050565b6000612af38383612ac9565b9150826002028217905092915050565b612b0c826120d9565b67ffffffffffffffff811115612b2557612b246124a3565b5b612b2f82546127bd565b612b3a828285612a76565b600060209050601f831160018114612b6d5760008415612b5b578287015190505b612b658582612ae7565b865550612bcd565b601f198416612b7b86612957565b60005b82811015612ba357848901518255600182019150602085019450602081019050612b7e565b86831015612bc05784890151612bbc601f891682612ac9565b8355505b6001600288020188555050505b505050505050565b6000606082019050612bea6000830186612220565b612bf76020830185612403565b612c046040830184612220565b949350505050565b7f4e487b7100000000000000000000000000000000000000000000000000000000600052601260045260246000fd5b6000604082019050612c506000830185612220565b612c5d602083018461236c565b9392505050565b600081519050919050565b600082825260208201905092915050565b6000612c8b82612c64565b612c958185612c6f565b9350612ca58185602086016120f5565b612cae8161211f565b840191505092915050565b6000608082019050612cce6000830187612220565b612cdb6020830186612220565b612ce86040830185612403565b8181036060830152612cfa8184612c80565b905095945050505050565b600081519050612d148161204a565b92915050565b600060208284031215612d3057612d2f612014565b5b6000612d3e84828501612d05565b91505092915050565b6000604082019050612d5c6000830185612220565b612d696020830184612403565b939250505056fea2646970667358221220bb564fc2490dbbc753312fd21d81bc98b13afb16326374a52a6bd16e7747038164736f6c634300081c0033",
  "linkReferences": {},
  "deployedLinkReferences": {}
}