{
  "_format": "hh-sol-artifact-1",
  "contractName": "Scoring",
  "sourceName": "contracts/scoring/Scoring.sol",
  "abi": [
    {
      "inputs": [
        {
          "internalType": "address",
          "name": "_operator",
          "type": "address"
        }
      ],
      "stateMutability": "nonpayable",
      "type": "constructor"
    },
    {
      "anonymous": false,
      "inputs": [
        {
          "indexed": true,
          "internalType": "address",
          "name": "userA",
          "type": "address"
        },
        {
          "indexed": true,
          "internalType": "address",
          "name": "userB",
          "type": "address"
        }
      ],
      "name": "ConnectionAdded",
      "type": "event"
    },
    {
      "anonymous": false,
      "inputs": [
        {
          "indexed": true,
          "internalType": "address",
          "name": "userA",
          "type": "address"
        },
        {
          "indexed": true,
          "internalType": "address",
          "name": "userB",
          "type": "address"
        }
      ],
      "name": "ConnectionRemoved",
      "type": "event"
    },
    {
      "anonymous": false,
      "inputs": [
        {
          "indexed": true,
          "internalType": "address",
          "name": "_operator",
          "type": "address"
        }
      ],
      "name": "NewOperator",
      "type": "event"
    },
    {
      "anonymous": false,
      "inputs": [
        {
          "indexed": false,
          "internalType": "address",
          "name": "_rated",
          "type": "address"
        },
        {
          "indexed": false,
          "internalType": "int8",
          "name": "_rating",
          "type": "int8"
        }
      ],
      "name": "Rating",
      "type": "event"
    },
    {
      "anonymous": false,
      "inputs": [
        {
          "indexed": false,
          "internalType": "address",
          "name": "_removed",
          "type": "address"
        }
      ],
      "name": "Removal",
      "type": "event"
    },
    {
      "anonymous": false,
      "inputs": [
        {
          "indexed": true,
          "internalType": "address",
          "name": "user",
          "type": "address"
        }
      ],
      "name": "UserAdded",
      "type": "event"
    },
    {
      "inputs": [
        {
          "internalType": "address",
          "name": "userA",
          "type": "address"
        },
        {
          "internalType": "address",
          "name": "userB",
          "type": "address"
        }
      ],
      "name": "addEdge",
      "outputs": [],
      "stateMutability": "nonpayable",
      "type": "function"
    },
    {
      "inputs": [
        {
          "internalType": "address",
          "name": "user",
          "type": "address"
        }
      ],
      "name": "addVertex",
      "outputs": [],
      "stateMutability": "nonpayable",
      "type": "function"
    },
    {
      "inputs": [
        {
          "internalType": "address",
          "name": "",
          "type": "address"
        },
        {
          "internalType": "uint256",
          "name": "",
          "type": "uint256"
        }
      ],
      "name": "adjacencyList",
      "outputs": [
        {
          "internalType": "address",
          "name": "",
          "type": "address"
        }
      ],
      "stateMutability": "view",
      "type": "function"
    },
    {
      "inputs": [
        {
          "internalType": "address",
          "name": "user",
          "type": "address"
        }
      ],
      "name": "calculateDegreeCentrality",
      "outputs": [
        {
          "internalType": "int8",
          "name": "",
          "type": "int8"
        }
      ],
      "stateMutability": "view",
      "type": "function"
    },
    {
      "inputs": [],
      "name": "getAllDegreeCentralities",
      "outputs": [
        {
          "internalType": "address[]",
          "name": "users",
          "type": "address[]"
        },
        {
          "internalType": "int8[]",
          "name": "centralities",
          "type": "int8[]"
        }
      ],
      "stateMutability": "view",
      "type": "function"
    },
    {
      "inputs": [],
      "name": "getAllUsers",
      "outputs": [
        {
          "internalType": "address[]",
          "name": "",
          "type": "address[]"
        }
      ],
      "stateMutability": "view",
      "type": "function"
    },
    {
      "inputs": [
        {
          "internalType": "address",
          "name": "user",
          "type": "address"
        }
      ],
      "name": "getConnections",
      "outputs": [
        {
          "internalType": "address[]",
          "name": "",
          "type": "address[]"
        }
      ],
      "stateMutability": "view",
      "type": "function"
    },
    {
      "inputs": [
        {
          "internalType": "address",
          "name": "user",
          "type": "address"
        }
      ],
      "name": "getDegree",
      "outputs": [
        {
          "internalType": "uint256",
          "name": "",
          "type": "uint256"
        }
      ],
      "stateMutability": "view",
      "type": "function"
    },
    {
      "inputs": [
        {
          "internalType": "address",
          "name": "_user",
          "type": "address"
        }
      ],
      "name": "getScore",
      "outputs": [
        {
          "internalType": "int8",
          "name": "",
          "type": "int8"
        }
      ],
      "stateMutability": "view",
      "type": "function"
    },
    {
      "inputs": [],
      "name": "getTotalConnections",
      "outputs": [
        {
          "internalType": "uint256",
          "name": "",
          "type": "uint256"
        }
      ],
      "stateMutability": "view",
      "type": "function"
    },
    {
      "inputs": [],
      "name": "getUserCount",
      "outputs": [
        {
          "internalType": "uint256",
          "name": "",
          "type": "uint256"
        }
      ],
      "stateMutability": "view",
      "type": "function"
    },
    {
      "inputs": [
        {
          "internalType": "address",
          "name": "userA",
          "type": "address"
        },
        {
          "internalType": "address",
          "name": "userB",
          "type": "address"
        }
      ],
      "name": "isConnected",
      "outputs": [
        {
          "internalType": "bool",
          "name": "",
          "type": "bool"
        }
      ],
      "stateMutability": "view",
      "type": "function"
    },
    {
      "inputs": [
        {
          "internalType": "address",
          "name": "_rated",
          "type": "address"
        },
        {
          "internalType": "int8",
          "name": "_rating",
          "type": "int8"
        }
      ],
      "name": "rate",
      "outputs": [],
      "stateMutability": "nonpayable",
      "type": "function"
    },
    {
      "inputs": [
        {
          "internalType": "address",
          "name": "_rated",
          "type": "address"
        }
      ],
      "name": "ratingOf",
      "outputs": [
        {
          "internalType": "int8",
          "name": "",
          "type": "int8"
        }
      ],
      "stateMutability": "view",
      "type": "function"
    },
    {
      "inputs": [
        {
          "internalType": "address",
          "name": "_removed",
          "type": "address"
        }
      ],
      "name": "removeRating",
      "outputs": [],
      "stateMutability": "nonpayable",
      "type": "function"
    },
    {
      "inputs": [
        {
          "internalType": "address",
          "name": "_operator",
          "type": "address"
        }
      ],
      "name": "setOperator",
      "outputs": [],
      "stateMutability": "nonpayable",
      "type": "function"
    },
    {
      "inputs": [
        {
          "internalType": "bytes4",
          "name": "interfaceID",
          "type": "bytes4"
        }
      ],
      "name": "supportsInterface",
      "outputs": [
        {
          "internalType": "bool",
          "name": "",
          "type": "bool"
        }
      ],
      "stateMutability": "view",
      "type": "function"
    },
    {
      "inputs": [
        {
          "internalType": "address",
          "name": "myAddress",
          "type": "address"
        },
        {
          "internalType": "address",
          "name": "targetAddress",
          "type": "address"
        }
      ],
      "name": "verifyScore",
      "outputs": [
        {
          "internalType": "bool",
          "name": "",
          "type": "bool"
        }
      ],
      "stateMutability": "view",
      "type": "function"
    },
    {
      "inputs": [
        {
          "internalType": "address",
          "name": "",
          "type": "address"
        }
      ],
      "name": "vertexExists",
      "outputs": [
        {
          "internalType": "bool",
          "name": "",
          "type": "bool"
        }
      ],
      "stateMutability": "view",
      "type": "function"
    },
    {
      "inputs": [
        {
          "internalType": "uint256",
          "name": "",
          "type": "uint256"
        }
      ],
      "name": "vertices",
      "outputs": [
        {
          "internalType": "address",
          "name": "",
          "type": "address"
        }
      ],
      "stateMutability": "view",
      "type": "function"
    }
  ],
  "bytecode": "0x608060405234801561001057600080fd5b506040516128ee3803806128ee83398181016040528101906100329190610136565b6001600360008373ffffffffffffffffffffffffffffffffffffffff1673ffffffffffffffffffffffffffffffffffffffff16815260200190815260200160002060006101000a81548160ff0219169083151502179055508073ffffffffffffffffffffffffffffffffffffffff167fda12ee837e6978172aaf54b16145ffe08414fd8710092ef033c71b8eb6ec189a60405160405180910390a250610163565b600080fd5b600073ffffffffffffffffffffffffffffffffffffffff82169050919050565b6000610103826100d8565b9050919050565b610113816100f8565b811461011e57600080fd5b50565b6000815190506101308161010a565b92915050565b60006020828403121561014c5761014b6100d3565b5b600061015a84828501610121565b91505092915050565b61277c806101726000396000f3fe608060405234801561001057600080fd5b506004361061012c5760003560e01c80636fcb532f116100ad578063d66827ad11610071578063d66827ad14610390578063d6d08dca146103c0578063e2842d79146103f0578063e4e2f5561461040e578063fb9c5fe71461042a5761012c565b80636fcb532f146102d75780638dde557714610307578063b3ab15fb14610326578063b5cb15f714610342578063d47875d0146103605761012c565b806336896d38116100f457806336896d381461020f57806336b56dfc1461023f5780633d9600861461025b57806346552e61146102775780636205f4c5146102a75761012c565b8063018ecb121461013157806301ffc9a714610161578063109d3ee81461019157806322e6f1b3146101c1578063328d1e60146101f1575b600080fd5b61014b60048036038101906101469190611b33565b610446565b6040516101589190611ba1565b60405180910390f35b61017b60048036038101906101769190611c14565b610485565b6040516101889190611c5c565b60405180910390f35b6101ab60048036038101906101a69190611ca3565b610557565b6040516101b89190611c5c565b60405180910390f35b6101db60048036038101906101d69190611cd0565b610577565b6040516101e89190611c5c565b60405180910390f35b6101f9610684565b6040516102069190611d1f565b60405180910390f35b61022960048036038101906102249190611cd0565b610749565b6040516102369190611c5c565b60405180910390f35b61025960048036038101906102549190611ca3565b610941565b005b61027560048036038101906102709190611cd0565b610b03565b005b610291600480360381019061028c9190611ca3565b610e7b565b60405161029e9190611df8565b60405180910390f35b6102c160048036038101906102bc9190611ca3565b610fd3565b6040516102ce9190611e36565b60405180910390f35b6102f160048036038101906102ec9190611ca3565b611029565b6040516102fe9190611e36565b60405180910390f35b61030f61114a565b60405161031d929190611f0f565b60405180910390f35b610340600480360381019061033b9190611ca3565b611305565b005b61034a61152b565b6040516103579190611d1f565b60405180910390f35b61037a60048036038101906103759190611ca3565b611538565b6040516103879190611e36565b60405180910390f35b6103aa60048036038101906103a59190611f46565b6115b8565b6040516103b79190611ba1565b60405180910390f35b6103da60048036038101906103d59190611ca3565b611606565b6040516103e79190611d1f565b60405180910390f35b6103f86116dd565b6040516104059190611df8565b60405180910390f35b61042860048036038101906104239190611fb2565b61176b565b005b610444600480360381019061043f9190611ca3565b611974565b005b6001818154811061045657600080fd5b906000526020600020016000915054906101000a900473ffffffffffffffffffffffffffffffffffffffff1681565b60007f01ffc9a7000000000000000000000000000000000000000000000000000000007bffffffffffffffffffffffffffffffffffffffffffffffffffffffff1916827bffffffffffffffffffffffffffffffffffffffffffffffffffffffff1916148061055057507fced04b8f000000000000000000000000000000000000000000000000000000007bffffffffffffffffffffffffffffffffffffffffffffffffffffffff1916827bffffffffffffffffffffffffffffffffffffffffffffffffffffffff1916145b9050919050565b60026020528060005260406000206000915054906101000a900460ff1681565b60008073ffffffffffffffffffffffffffffffffffffffff168373ffffffffffffffffffffffffffffffffffffffff16036105e7576040517f08c379a00000000000000000000000000000000000000000000000000000000081526004016105de9061204f565b60405180910390fd5b600073ffffffffffffffffffffffffffffffffffffffff168273ffffffffffffffffffffffffffffffffffffffff1603610656576040517f08c379a000000000000000000000000000000000000000000000000000000000815260040161064d906120bb565b60405180910390fd5b600061066184611538565b9050600061066e84611538565b90508060000b8260000b12159250505092915050565b6000806000905060005b60018054905081101561073557600080600183815481106106b2576106b16120db565b5b9060005260206000200160009054906101000a900473ffffffffffffffffffffffffffffffffffffffff1673ffffffffffffffffffffffffffffffffffffffff1673ffffffffffffffffffffffffffffffffffffffff16815260200190815260200160002080549050826107269190612139565b9150808060010191505061068e565b50600281610743919061219c565b91505090565b6000600260008473ffffffffffffffffffffffffffffffffffffffff1673ffffffffffffffffffffffffffffffffffffffff16815260200190815260200160002060009054906101000a900460ff1615806107ee5750600260008373ffffffffffffffffffffffffffffffffffffffff1673ffffffffffffffffffffffffffffffffffffffff16815260200190815260200160002060009054906101000a900460ff16155b156107fc576000905061093b565b60008060008573ffffffffffffffffffffffffffffffffffffffff1673ffffffffffffffffffffffffffffffffffffffff1681526020019081526020016000208054806020026020016040519081016040528092919081815260200182805480156108bc57602002820191906000526020600020905b8160009054906101000a900473ffffffffffffffffffffffffffffffffffffffff1673ffffffffffffffffffffffffffffffffffffffff1681526020019060010190808311610872575b5050505050905060005b8151811015610934578373ffffffffffffffffffffffffffffffffffffffff168282815181106108f9576108f86120db565b5b602002602001015173ffffffffffffffffffffffffffffffffffffffff16036109275760019250505061093b565b80806001019150506108c6565b5060009150505b92915050565b600073ffffffffffffffffffffffffffffffffffffffff168173ffffffffffffffffffffffffffffffffffffffff16036109b0576040517f08c379a00000000000000000000000000000000000000000000000000000000081526004016109a790612219565b60405180910390fd5b600260008273ffffffffffffffffffffffffffffffffffffffff1673ffffffffffffffffffffffffffffffffffffffff16815260200190815260200160002060009054906101000a900460ff16610b00576001819080600181540180825580915050600190039060005260206000200160009091909190916101000a81548173ffffffffffffffffffffffffffffffffffffffff021916908373ffffffffffffffffffffffffffffffffffffffff1602179055506001600260008373ffffffffffffffffffffffffffffffffffffffff1673ffffffffffffffffffffffffffffffffffffffff16815260200190815260200160002060006101000a81548160ff0219169083151502179055508073ffffffffffffffffffffffffffffffffffffffff167f19ef9a4877199f89440a26acb26895ec02ed86f2df1aeaa90dc18041b892f71f60405160405180910390a25b50565b600073ffffffffffffffffffffffffffffffffffffffff168273ffffffffffffffffffffffffffffffffffffffff1614158015610b6d5750600073ffffffffffffffffffffffffffffffffffffffff168173ffffffffffffffffffffffffffffffffffffffff1614155b610bac576040517f08c379a0000000000000000000000000000000000000000000000000000000008152600401610ba390612219565b60405180910390fd5b8073ffffffffffffffffffffffffffffffffffffffff168273ffffffffffffffffffffffffffffffffffffffff1603610c1a576040517f08c379a0000000000000000000000000000000000000000000000000000000008152600401610c1190612285565b60405180910390fd5b600260008373ffffffffffffffffffffffffffffffffffffffff1673ffffffffffffffffffffffffffffffffffffffff16815260200190815260200160002060009054906101000a900460ff16610c7557610c7482610941565b5b600260008273ffffffffffffffffffffffffffffffffffffffff1673ffffffffffffffffffffffffffffffffffffffff16815260200190815260200160002060009054906101000a900460ff16610cd057610ccf81610941565b5b610cda8282610749565b610e77576000808373ffffffffffffffffffffffffffffffffffffffff1673ffffffffffffffffffffffffffffffffffffffff168152602001908152602001600020819080600181540180825580915050600190039060005260206000200160009091909190916101000a81548173ffffffffffffffffffffffffffffffffffffffff021916908373ffffffffffffffffffffffffffffffffffffffff1602179055506000808273ffffffffffffffffffffffffffffffffffffffff1673ffffffffffffffffffffffffffffffffffffffff168152602001908152602001600020829080600181540180825580915050600190039060005260206000200160009091909190916101000a81548173ffffffffffffffffffffffffffffffffffffffff021916908373ffffffffffffffffffffffffffffffffffffffff1602179055508073ffffffffffffffffffffffffffffffffffffffff168273ffffffffffffffffffffffffffffffffffffffff167fb5592a9532ccbdc9d02f659e19cca35ddd0c274b937362cee3a1973a6b5ebe9160405160405180910390a35b5050565b6060600260008373ffffffffffffffffffffffffffffffffffffffff1673ffffffffffffffffffffffffffffffffffffffff16815260200190815260200160002060009054906101000a900460ff16610f09576040517f08c379a0000000000000000000000000000000000000000000000000000000008152600401610f00906122f1565b60405180910390fd5b6000808373ffffffffffffffffffffffffffffffffffffffff1673ffffffffffffffffffffffffffffffffffffffff168152602001908152602001600020805480602002602001604051908101604052809291908181526020018280548015610fc757602002820191906000526020600020905b8160009054906101000a900473ffffffffffffffffffffffffffffffffffffffff1673ffffffffffffffffffffffffffffffffffffffff1681526020019060010190808311610f7d575b50505050509050919050565b6000600460008373ffffffffffffffffffffffffffffffffffffffff1673ffffffffffffffffffffffffffffffffffffffff16815260200190815260200160002060009054906101000a900460000b9050919050565b60008073ffffffffffffffffffffffffffffffffffffffff168273ffffffffffffffffffffffffffffffffffffffff1603611099576040517f08c379a000000000000000000000000000000000000000000000000000000000815260040161109090612219565b60405180910390fd5b600260008373ffffffffffffffffffffffffffffffffffffffff1673ffffffffffffffffffffffffffffffffffffffff16815260200190815260200160002060009054906101000a900460ff166110f35760009050611145565b600060018054905090506001811361110f576000915050611145565b600061111a84611606565b9050600182611129919061231b565b606482611136919061235e565b61114091906123d6565b925050505b919050565b606080600060018054905090508067ffffffffffffffff81111561117157611170612440565b5b60405190808252806020026020018201604052801561119f5781602001602082028036833780820191505090505b5092508067ffffffffffffffff8111156111bc576111bb612440565b5b6040519080825280602002602001820160405280156111ea5781602001602082028036833780820191505090505b50915060005b818110156112ff576001818154811061120c5761120b6120db565b5b9060005260206000200160009054906101000a900473ffffffffffffffffffffffffffffffffffffffff1684828151811061124a576112496120db565b5b602002602001019073ffffffffffffffffffffffffffffffffffffffff16908173ffffffffffffffffffffffffffffffffffffffff16815250506112cb6001828154811061129b5761129a6120db565b5b9060005260206000200160009054906101000a900473ffffffffffffffffffffffffffffffffffffffff16611029565b8382815181106112de576112dd6120db565b5b602002602001019060000b908160000b8152505080806001019150506111f0565b50509091565b600360003373ffffffffffffffffffffffffffffffffffffffff1673ffffffffffffffffffffffffffffffffffffffff16815260200190815260200160002060009054906101000a900460ff16611391576040517f08c379a0000000000000000000000000000000000000000000000000000000008152600401611388906124bb565b60405180910390fd5b600073ffffffffffffffffffffffffffffffffffffffff168173ffffffffffffffffffffffffffffffffffffffff1603611400576040517f08c379a00000000000000000000000000000000000000000000000000000000081526004016113f790612527565b60405180910390fd5b600360008273ffffffffffffffffffffffffffffffffffffffff1673ffffffffffffffffffffffffffffffffffffffff16815260200190815260200160002060009054906101000a900460ff161561148d576040517f08c379a000000000000000000000000000000000000000000000000000000000815260040161148490612593565b60405180910390fd5b6001600360008373ffffffffffffffffffffffffffffffffffffffff1673ffffffffffffffffffffffffffffffffffffffff16815260200190815260200160002060006101000a81548160ff0219169083151502179055508073ffffffffffffffffffffffffffffffffffffffff167fda12ee837e6978172aaf54b16145ffe08414fd8710092ef033c71b8eb6ec189a60405160405180910390a250565b6000600180549050905090565b60008073ffffffffffffffffffffffffffffffffffffffff168273ffffffffffffffffffffffffffffffffffffffff16036115a8576040517f08c379a000000000000000000000000000000000000000000000000000000000815260040161159f90612219565b60405180910390fd5b6115b182611029565b9050919050565b600060205281600052604060002081815481106115d457600080fd5b906000526020600020016000915091509054906101000a900473ffffffffffffffffffffffffffffffffffffffff1681565b6000600260008373ffffffffffffffffffffffffffffffffffffffff1673ffffffffffffffffffffffffffffffffffffffff16815260200190815260200160002060009054906101000a900460ff16611694576040517f08c379a000000000000000000000000000000000000000000000000000000000815260040161168b906122f1565b60405180910390fd5b6000808373ffffffffffffffffffffffffffffffffffffffff1673ffffffffffffffffffffffffffffffffffffffff168152602001908152602001600020805490509050919050565b6060600180548060200260200160405190810160405280929190818152602001828054801561176157602002820191906000526020600020905b8160009054906101000a900473ffffffffffffffffffffffffffffffffffffffff1673ffffffffffffffffffffffffffffffffffffffff1681526020019060010190808311611717575b5050505050905090565b600360003373ffffffffffffffffffffffffffffffffffffffff1673ffffffffffffffffffffffffffffffffffffffff16815260200190815260200160002060009054906101000a900460ff166117f7576040517f08c379a00000000000000000000000000000000000000000000000000000000081526004016117ee906124bb565b60405180910390fd5b600073ffffffffffffffffffffffffffffffffffffffff168273ffffffffffffffffffffffffffffffffffffffff1603611866576040517f08c379a000000000000000000000000000000000000000000000000000000000815260040161185d906125ff565b60405180910390fd5b7fffffffffffffffffffffffffffffffffffffffffffffffffffffffffffffff818160000b1215801561189d5750607f8160000b13155b6118dc576040517f08c379a00000000000000000000000000000000000000000000000000000000081526004016118d390612691565b60405180910390fd5b80600460008473ffffffffffffffffffffffffffffffffffffffff1673ffffffffffffffffffffffffffffffffffffffff16815260200190815260200160002060006101000a81548160ff021916908360000b60ff1602179055507f5f1944295bdaf381959cb2811e6e622d6a1a7d1e0ff555f1e28fc54ddc5c465282826040516119689291906126b1565b60405180910390a15050565b600360003373ffffffffffffffffffffffffffffffffffffffff1673ffffffffffffffffffffffffffffffffffffffff16815260200190815260200160002060009054906101000a900460ff16611a00576040517f08c379a00000000000000000000000000000000000000000000000000000000081526004016119f7906124bb565b60405180910390fd5b600073ffffffffffffffffffffffffffffffffffffffff168173ffffffffffffffffffffffffffffffffffffffff1603611a6f576040517f08c379a0000000000000000000000000000000000000000000000000000000008152600401611a6690612726565b60405180910390fd5b600460008273ffffffffffffffffffffffffffffffffffffffff1673ffffffffffffffffffffffffffffffffffffffff16815260200190815260200160002060006101000a81549060ff02191690557f44a5b7afbb86623b8774fc11ab50ba2d84f43f00274a13506ce93a3066bc0d0f81604051611aed9190611ba1565b60405180910390a150565b600080fd5b6000819050919050565b611b1081611afd565b8114611b1b57600080fd5b50565b600081359050611b2d81611b07565b92915050565b600060208284031215611b4957611b48611af8565b5b6000611b5784828501611b1e565b91505092915050565b600073ffffffffffffffffffffffffffffffffffffffff82169050919050565b6000611b8b82611b60565b9050919050565b611b9b81611b80565b82525050565b6000602082019050611bb66000830184611b92565b92915050565b60007fffffffff0000000000000000000000000000000000000000000000000000000082169050919050565b611bf181611bbc565b8114611bfc57600080fd5b50565b600081359050611c0e81611be8565b92915050565b600060208284031215611c2a57611c29611af8565b5b6000611c3884828501611bff565b91505092915050565b60008115159050919050565b611c5681611c41565b82525050565b6000602082019050611c716000830184611c4d565b92915050565b611c8081611b80565b8114611c8b57600080fd5b50565b600081359050611c9d81611c77565b92915050565b600060208284031215611cb957611cb8611af8565b5b6000611cc784828501611c8e565b91505092915050565b60008060408385031215611ce757611ce6611af8565b5b6000611cf585828601611c8e565b9250506020611d0685828601611c8e565b9150509250929050565b611d1981611afd565b82525050565b6000602082019050611d346000830184611d10565b92915050565b600081519050919050565b600082825260208201905092915050565b6000819050602082019050919050565b611d6f81611b80565b82525050565b6000611d818383611d66565b60208301905092915050565b6000602082019050919050565b6000611da582611d3a565b611daf8185611d45565b9350611dba83611d56565b8060005b83811015611deb578151611dd28882611d75565b9750611ddd83611d8d565b925050600181019050611dbe565b5085935050505092915050565b60006020820190508181036000830152611e128184611d9a565b905092915050565b60008160000b9050919050565b611e3081611e1a565b82525050565b6000602082019050611e4b6000830184611e27565b92915050565b600081519050919050565b600082825260208201905092915050565b6000819050602082019050919050565b611e8681611e1a565b82525050565b6000611e988383611e7d565b60208301905092915050565b6000602082019050919050565b6000611ebc82611e51565b611ec68185611e5c565b9350611ed183611e6d565b8060005b83811015611f02578151611ee98882611e8c565b9750611ef483611ea4565b925050600181019050611ed5565b5085935050505092915050565b60006040820190508181036000830152611f298185611d9a565b90508181036020830152611f3d8184611eb1565b90509392505050565b60008060408385031215611f5d57611f5c611af8565b5b6000611f6b85828601611c8e565b9250506020611f7c85828601611b1e565b9150509250929050565b611f8f81611e1a565b8114611f9a57600080fd5b50565b600081359050611fac81611f86565b92915050565b60008060408385031215611fc957611fc8611af8565b5b6000611fd785828601611c8e565b9250506020611fe885828601611f9d565b9150509250929050565b600082825260208201905092915050565b7f496e76616c6964206d7941646472657373000000000000000000000000000000600082015250565b6000612039601183611ff2565b915061204482612003565b602082019050919050565b600060208201905081810360008301526120688161202c565b9050919050565b7f496e76616c696420746172676574416464726573730000000000000000000000600082015250565b60006120a5601583611ff2565b91506120b08261206f565b602082019050919050565b600060208201905081810360008301526120d481612098565b9050919050565b7f4e487b7100000000000000000000000000000000000000000000000000000000600052603260045260246000fd5b7f4e487b7100000000000000000000000000000000000000000000000000000000600052601160045260246000fd5b600061214482611afd565b915061214f83611afd565b92508282019050808211156121675761216661210a565b5b92915050565b7f4e487b7100000000000000000000000000000000000000000000000000000000600052601260045260246000fd5b60006121a782611afd565b91506121b283611afd565b9250826121c2576121c161216d565b5b828204905092915050565b7f496e76616c696420757365722061646472657373000000000000000000000000600082015250565b6000612203601483611ff2565b915061220e826121cd565b602082019050919050565b60006020820190508181036000830152612232816121f6565b9050919050565b7f53656c662d636f6e6e656374696f6e206e6f7420616c6c6f7765640000000000600082015250565b600061226f601b83611ff2565b915061227a82612239565b602082019050919050565b6000602082019050818103600083015261229e81612262565b9050919050565b7f5573657220646f6573206e6f7420657869737400000000000000000000000000600082015250565b60006122db601383611ff2565b91506122e6826122a5565b602082019050919050565b6000602082019050818103600083015261230a816122ce565b9050919050565b6000819050919050565b600061232682612311565b915061233183612311565b92508282039050818112600084121682821360008512151617156123585761235761210a565b5b92915050565b600061236982612311565b915061237483612311565b925082820261238281612311565b91507f800000000000000000000000000000000000000000000000000000000000000084146000841216156123ba576123b961210a565b5b82820584148315176123cf576123ce61210a565b5b5092915050565b60006123e182612311565b91506123ec83612311565b9250826123fc576123fb61216d565b5b600160000383147f8000000000000000000000000000000000000000000000000000000000000000831416156124355761243461210a565b5b828205905092915050565b7f4e487b7100000000000000000000000000000000000000000000000000000000600052604160045260246000fd5b7f43616c6c6572206973206e6f7420746865206f70657261746f72000000000000600082015250565b60006124a5601a83611ff2565b91506124b08261246f565b602082019050919050565b600060208201905081810360008301526124d481612498565b9050919050565b7f496e76616c6964206f70657261746f7220616464726573730000000000000000600082015250565b6000612511601883611ff2565b915061251c826124db565b602082019050919050565b6000602082019050818103600083015261254081612504565b9050919050565b7f4f70657261746f7220616c726561647920736574000000000000000000000000600082015250565b600061257d601483611ff2565b915061258882612547565b602082019050919050565b600060208201905081810360008301526125ac81612570565b9050919050565b7f526174656420616464726573732063616e6e6f74206265207a65726f00000000600082015250565b60006125e9601c83611ff2565b91506125f4826125b3565b602082019050919050565b60006020820190508181036000830152612618816125dc565b9050919050565b7f526174696e67206d757374206265206265747765656e202d31323720616e642060008201527f3132370000000000000000000000000000000000000000000000000000000000602082015250565b600061267b602383611ff2565b91506126868261261f565b604082019050919050565b600060208201905081810360008301526126aa8161266e565b9050919050565b60006040820190506126c66000830185611b92565b6126d36020830184611e27565b9392505050565b7f52656d6f76656420616464726573732063616e6e6f74206265207a65726f0000600082015250565b6000612710601e83611ff2565b915061271b826126da565b602082019050919050565b6000602082019050818103600083015261273f81612703565b905091905056fea2646970667358221220c4c32e997a5bfbfb18497b370d11e9f6defab4ea0d89bebb6fc4d0fa3781f5ba64736f6c634300081c0033",
  "linkReferences": {},
  "deployedLinkReferences": {}
}