{
  "_format": "hh-sol-artifact-1",
  "contractName": "SsdlabToken",
  "sourceName": "contracts/SsdlabToken.sol",
  "abi": [
    {
      "inputs": [
        {
          "internalType": "address",
          "name": "teacher",
          "type": "address"
        },
        {
          "internalType": "address",
          "name": "student",
          "type": "address"
        }
      ],
      "stateMutability": "nonpayable",
      "type": "constructor"
    },
    {
      "inputs": [],
      "name": "AccessControlBadConfirmation",
      "type": "error"
    },
    {
      "inputs": [
        {
          "internalType": "address",
          "name": "account",
          "type": "address"
        },
        {
          "internalType": "bytes32",
          "name": "neededRole",
          "type": "bytes32"
        }
      ],
      "name": "AccessControlUnauthorizedAccount",
      "type": "error"
    },
    {
      "inputs": [
        {
          "internalType": "address",
          "name": "sender",
          "type": "address"
        },
        {
          "internalType": "uint256",
          "name": "tokenId",
          "type": "uint256"
        },
        {
          "internalType": "address",
          "name": "owner",
          "type": "address"
        }
      ],
      "name": "ERC721IncorrectOwner",
      "type": "error"
    },
    {
      "inputs": [
        {
          "internalType": "address",
          "name": "operator",
          "type": "address"
        },
        {
          "internalType": "uint256",
          "name": "tokenId",
          "type": "uint256"
        }
      ],
      "name": "ERC721InsufficientApproval",
      "type": "error"
    },
    {
      "inputs": [
        {
          "internalType": "address",
          "name": "approver",
          "type": "address"
        }
      ],
      "name": "ERC721InvalidApprover",
      "type": "error"
    },
    {
      "inputs": [
        {
          "internalType": "address",
          "name": "operator",
          "type": "address"
        }
      ],
      "name": "ERC721InvalidOperator",
      "type": "error"
    },
    {
      "inputs": [
        {
          "internalType": "address",
          "name": "owner",
          "type": "address"
        }
      ],
      "name": "ERC721InvalidOwner",
      "type": "error"
    },
    {
      "inputs": [
        {
          "internalType": "address",
          "name": "receiver",
          "type": "address"
        }
      ],
      "name": "ERC721InvalidReceiver",
      "type": "error"
    },
    {
      "inputs": [
        {
          "internalType": "address",
          "name": "sender",
          "type": "address"
        }
      ],
      "name": "ERC721InvalidSender",
      "type": "error"
    },
    {
      "inputs": [
        {
          "internalType": "uint256",
          "name": "tokenId",
          "type": "uint256"
        }
      ],
      "name": "ERC721NonexistentToken",
      "type": "error"
    },
    {
      "anonymous": false,
      "inputs": [
        {
          "indexed": true,
          "internalType": "address",
          "name": "owner",
          "type": "address"
        },
        {
          "indexed": true,
          "internalType": "address",
          "name": "approved",
          "type": "address"
        },
        {
          "indexed": true,
          "internalType": "uint256",
          "name": "tokenId",
          "type": "uint256"
        }
      ],
      "name": "Approval",
      "type": "event"
    },
    {
      "anonymous": false,
      "inputs": [
        {
          "indexed": true,
          "internalType": "address",
          "name": "owner",
          "type": "address"
        },
        {
          "indexed": true,
          "internalType": "address",
          "name": "operator",
          "type": "address"
        },
        {
          "indexed": false,
          "internalType": "bool",
          "name": "approved",
          "type": "bool"
        }
      ],
      "name": "ApprovalForAll",
      "type": "event"
    },
    {
      "anonymous": false,
      "inputs": [
        {
          "indexed": true,
          "internalType": "address",
          "name": "userA",
          "type": "address"
        },
        {
          "indexed": true,
          "internalType": "address",
          "name": "userB",
          "type": "address"
        }
      ],
      "name": "ConnectionAdded",
      "type": "event"
    },
    {
      "anonymous": false,
      "inputs": [
        {
          "indexed": true,
          "internalType": "address",
          "name": "userA",
          "type": "address"
        },
        {
          "indexed": true,
          "internalType": "address",
          "name": "userB",
          "type": "address"
        }
      ],
      "name": "ConnectionRemoved",
      "type": "event"
    },
    {
      "anonymous": false,
      "inputs": [
        {
          "indexed": true,
          "internalType": "address",
          "name": "_operator",
          "type": "address"
        }
      ],
      "name": "NewOperator",
      "type": "event"
    },
    {
      "anonymous": false,
      "inputs": [
        {
          "indexed": false,
          "internalType": "address",
          "name": "_rated",
          "type": "address"
        },
        {
          "indexed": false,
          "internalType": "int8",
          "name": "_rating",
          "type": "int8"
        }
      ],
      "name": "Rating",
      "type": "event"
    },
    {
      "anonymous": false,
      "inputs": [
        {
          "indexed": false,
          "internalType": "address",
          "name": "_removed",
          "type": "address"
        }
      ],
      "name": "Removal",
      "type": "event"
    },
    {
      "anonymous": false,
      "inputs": [
        {
          "indexed": true,
          "internalType": "bytes32",
          "name": "role",
          "type": "bytes32"
        },
        {
          "indexed": true,
          "internalType": "bytes32",
          "name": "previousAdminRole",
          "type": "bytes32"
        },
        {
          "indexed": true,
          "internalType": "bytes32",
          "name": "newAdminRole",
          "type": "bytes32"
        }
      ],
      "name": "RoleAdminChanged",
      "type": "event"
    },
    {
      "anonymous": false,
      "inputs": [
        {
          "indexed": true,
          "internalType": "bytes32",
          "name": "role",
          "type": "bytes32"
        },
        {
          "indexed": true,
          "internalType": "address",
          "name": "account",
          "type": "address"
        },
        {
          "indexed": true,
          "internalType": "address",
          "name": "sender",
          "type": "address"
        }
      ],
      "name": "RoleGranted",
      "type": "event"
    },
    {
      "anonymous": false,
      "inputs": [
        {
          "indexed": true,
          "internalType": "bytes32",
          "name": "role",
          "type": "bytes32"
        },
        {
          "indexed": true,
          "internalType": "address",
          "name": "account",
          "type": "address"
        },
        {
          "indexed": true,
          "internalType": "address",
          "name": "sender",
          "type": "address"
        }
      ],
      "name": "RoleRevoked",
      "type": "event"
    },
    {
      "anonymous": false,
      "inputs": [
        {
          "indexed": true,
          "internalType": "address",
          "name": "from",
          "type": "address"
        },
        {
          "indexed": true,
          "internalType": "address",
          "name": "to",
          "type": "address"
        },
        {
          "indexed": true,
          "internalType": "uint256",
          "name": "tokenId",
          "type": "uint256"
        }
      ],
      "name": "Transfer",
      "type": "event"
    },
    {
      "anonymous": false,
      "inputs": [
        {
          "indexed": true,
          "internalType": "address",
          "name": "user",
          "type": "address"
        }
      ],
      "name": "UserAdded",
      "type": "event"
    },
    {
      "inputs": [],
      "name": "DEFAULT_ADMIN_ROLE",
      "outputs": [
        {
          "internalType": "bytes32",
          "name": "",
          "type": "bytes32"
        }
      ],
      "stateMutability": "view",
      "type": "function"
    },
    {
      "inputs": [],
      "name": "STUDENTS_ROLE",
      "outputs": [
        {
          "internalType": "bytes32",
          "name": "",
          "type": "bytes32"
        }
      ],
      "stateMutability": "view",
      "type": "function"
    },
    {
      "inputs": [],
      "name": "TEACHER_ROLE",
      "outputs": [
        {
          "internalType": "bytes32",
          "name": "",
          "type": "bytes32"
        }
      ],
      "stateMutability": "view",
      "type": "function"
    },
    {
      "inputs": [
        {
          "internalType": "address",
          "name": "userA",
          "type": "address"
        },
        {
          "internalType": "address",
          "name": "userB",
          "type": "address"
        }
      ],
      "name": "addEdge",
      "outputs": [],
      "stateMutability": "nonpayable",
      "type": "function"
    },
    {
      "inputs": [
        {
          "internalType": "address",
          "name": "user",
          "type": "address"
        }
      ],
      "name": "addVertex",
      "outputs": [],
      "stateMutability": "nonpayable",
      "type": "function"
    },
    {
      "inputs": [
        {
          "internalType": "address",
          "name": "",
          "type": "address"
        },
        {
          "internalType": "uint256",
          "name": "",
          "type": "uint256"
        }
      ],
      "name": "adjacencyList",
      "outputs": [
        {
          "internalType": "address",
          "name": "",
          "type": "address"
        }
      ],
      "stateMutability": "view",
      "type": "function"
    },
    {
      "inputs": [
        {
          "internalType": "address",
          "name": "to",
          "type": "address"
        },
        {
          "internalType": "uint256",
          "name": "tokenId",
          "type": "uint256"
        }
      ],
      "name": "approve",
      "outputs": [],
      "stateMutability": "nonpayable",
      "type": "function"
    },
    {
      "inputs": [
        {
          "internalType": "address",
          "name": "owner",
          "type": "address"
        }
      ],
      "name": "balanceOf",
      "outputs": [
        {
          "internalType": "uint256",
          "name": "",
          "type": "uint256"
        }
      ],
      "stateMutability": "view",
      "type": "function"
    },
    {
      "inputs": [
        {
          "internalType": "address",
          "name": "user",
          "type": "address"
        }
      ],
      "name": "calculateDegreeCentrality",
      "outputs": [
        {
          "internalType": "int8",
          "name": "",
          "type": "int8"
        }
      ],
      "stateMutability": "view",
      "type": "function"
    },
    {
      "inputs": [],
      "name": "getAllDegreeCentralities",
      "outputs": [
        {
          "internalType": "address[]",
          "name": "users",
          "type": "address[]"
        },
        {
          "internalType": "int8[]",
          "name": "centralities",
          "type": "int8[]"
        }
      ],
      "stateMutability": "view",
      "type": "function"
    },
    {
      "inputs": [],
      "name": "getAllUsers",
      "outputs": [
        {
          "internalType": "address[]",
          "name": "",
          "type": "address[]"
        }
      ],
      "stateMutability": "view",
      "type": "function"
    },
    {
      "inputs": [
        {
          "internalType": "uint256",
          "name": "tokenId",
          "type": "uint256"
        }
      ],
      "name": "getApproved",
      "outputs": [
        {
          "internalType": "address",
          "name": "",
          "type": "address"
        }
      ],
      "stateMutability": "view",
      "type": "function"
    },
    {
      "inputs": [
        {
          "internalType": "address",
          "name": "user",
          "type": "address"
        }
      ],
      "name": "getConnections",
      "outputs": [
        {
          "internalType": "address[]",
          "name": "",
          "type": "address[]"
        }
      ],
      "stateMutability": "view",
      "type": "function"
    },
    {
      "inputs": [
        {
          "internalType": "address",
          "name": "user",
          "type": "address"
        }
      ],
      "name": "getDegree",
      "outputs": [
        {
          "internalType": "uint256",
          "name": "",
          "type": "uint256"
        }
      ],
      "stateMutability": "view",
      "type": "function"
    },
    {
      "inputs": [
        {
          "internalType": "uint256",
          "name": "tokenId",
          "type": "uint256"
        }
      ],
      "name": "getExchangeTokenId",
      "outputs": [
        {
          "internalType": "uint256",
          "name": "",
          "type": "uint256"
        }
      ],
      "stateMutability": "view",
      "type": "function"
    },
    {
      "inputs": [
        {
          "internalType": "bytes32",
          "name": "role",
          "type": "bytes32"
        }
      ],
      "name": "getRoleAdmin",
      "outputs": [
        {
          "internalType": "bytes32",
          "name": "",
          "type": "bytes32"
        }
      ],
      "stateMutability": "view",
      "type": "function"
    },
    {
      "inputs": [
        {
          "internalType": "address",
          "name": "_user",
          "type": "address"
        }
      ],
      "name": "getScore",
      "outputs": [
        {
          "internalType": "int8",
          "name": "",
          "type": "int8"
        }
      ],
      "stateMutability": "view",
      "type": "function"
    },
    {
      "inputs": [
        {
          "internalType": "uint256",
          "name": "tokenId",
          "type": "uint256"
        }
      ],
      "name": "getTokenName",
      "outputs": [
        {
          "internalType": "string",
          "name": "",
          "type": "string"
        }
      ],
      "stateMutability": "view",
      "type": "function"
    },
    {
      "inputs": [
        {
          "internalType": "uint256",
          "name": "tokenId",
          "type": "uint256"
        }
      ],
      "name": "getTokenURI",
      "outputs": [
        {
          "internalType": "string",
          "name": "",
          "type": "string"
        }
      ],
      "stateMutability": "view",
      "type": "function"
    },
    {
      "inputs": [],
      "name": "getTotalConnections",
      "outputs": [
        {
          "internalType": "uint256",
          "name": "",
          "type": "uint256"
        }
      ],
      "stateMutability": "view",
      "type": "function"
    },
    {
      "inputs": [
        {
          "internalType": "string",
          "name": "userName",
          "type": "string"
        }
      ],
      "name": "getUserAddress",
      "outputs": [
        {
          "internalType": "address",
          "name": "",
          "type": "address"
        }
      ],
      "stateMutability": "view",
      "type": "function"
    },
    {
      "inputs": [],
      "name": "getUserCount",
      "outputs": [
        {
          "internalType": "uint256",
          "name": "",
          "type": "uint256"
        }
      ],
      "stateMutability": "view",
      "type": "function"
    },
    {
      "inputs": [
        {
          "internalType": "bytes32",
          "name": "role",
          "type": "bytes32"
        },
        {
          "internalType": "address",
          "name": "account",
          "type": "address"
        }
      ],
      "name": "grantRole",
      "outputs": [],
      "stateMutability": "nonpayable",
      "type": "function"
    },
    {
      "inputs": [
        {
          "internalType": "bytes32",
          "name": "role",
          "type": "bytes32"
        },
        {
          "internalType": "address",
          "name": "account",
          "type": "address"
        }
      ],
      "name": "hasRole",
      "outputs": [
        {
          "internalType": "bool",
          "name": "",
          "type": "bool"
        }
      ],
      "stateMutability": "view",
      "type": "function"
    },
    {
      "inputs": [
        {
          "internalType": "address",
          "name": "owner",
          "type": "address"
        },
        {
          "internalType": "address",
          "name": "operator",
          "type": "address"
        }
      ],
      "name": "isApprovedForAll",
      "outputs": [
        {
          "internalType": "bool",
          "name": "",
          "type": "bool"
        }
      ],
      "stateMutability": "view",
      "type": "function"
    },
    {
      "inputs": [
        {
          "internalType": "address",
          "name": "userA",
          "type": "address"
        },
        {
          "internalType": "address",
          "name": "userB",
          "type": "address"
        }
      ],
      "name": "isConnected",
      "outputs": [
        {
          "internalType": "bool",
          "name": "",
          "type": "bool"
        }
      ],
      "stateMutability": "view",
      "type": "function"
    },
    {
      "inputs": [],
      "name": "name",
      "outputs": [
        {
          "internalType": "string",
          "name": "",
          "type": "string"
        }
      ],
      "stateMutability": "view",
      "type": "function"
    },
    {
      "inputs": [
        {
          "internalType": "uint256",
          "name": "tokenId",
          "type": "uint256"
        }
      ],
      "name": "ownerOf",
      "outputs": [
        {
          "internalType": "address",
          "name": "",
          "type": "address"
        }
      ],
      "stateMutability": "view",
      "type": "function"
    },
    {
      "inputs": [
        {
          "internalType": "address",
          "name": "_rated",
          "type": "address"
        },
        {
          "internalType": "int8",
          "name": "_rating",
          "type": "int8"
        }
      ],
      "name": "rate",
      "outputs": [],
      "stateMutability": "nonpayable",
      "type": "function"
    },
    {
      "inputs": [
        {
          "internalType": "address",
          "name": "_rated",
          "type": "address"
        }
      ],
      "name": "ratingOf",
      "outputs": [
        {
          "internalType": "int8",
          "name": "",
          "type": "int8"
        }
      ],
      "stateMutability": "view",
      "type": "function"
    },
    {
      "inputs": [
        {
          "internalType": "address",
          "name": "_removed",
          "type": "address"
        }
      ],
      "name": "removeRating",
      "outputs": [],
      "stateMutability": "nonpayable",
      "type": "function"
    },
    {
      "inputs": [
        {
          "internalType": "bytes32",
          "name": "role",
          "type": "bytes32"
        },
        {
          "internalType": "address",
          "name": "callerConfirmation",
          "type": "address"
        }
      ],
      "name": "renounceRole",
      "outputs": [],
      "stateMutability": "nonpayable",
      "type": "function"
    },
    {
      "inputs": [
        {
          "internalType": "bytes32",
          "name": "role",
          "type": "bytes32"
        },
        {
          "internalType": "address",
          "name": "account",
          "type": "address"
        }
      ],
      "name": "revokeRole",
      "outputs": [],
      "stateMutability": "nonpayable",
      "type": "function"
    },
    {
      "inputs": [
        {
          "internalType": "address",
          "name": "to",
          "type": "address"
        },
        {
          "internalType": "string",
          "name": "_tokenName",
          "type": "string"
        }
      ],
      "name": "safeMint",
      "outputs": [
        {
          "internalType": "uint256",
          "name": "",
          "type": "uint256"
        }
      ],
      "stateMutability": "nonpayable",
      "type": "function"
    },
    {
      "inputs": [
        {
          "internalType": "address",
          "name": "to",
          "type": "address"
        },
        {
          "internalType": "string",
          "name": "_tokenName",
          "type": "string"
        },
        {
          "internalType": "string",
          "name": "_tokenURI",
          "type": "string"
        }
      ],
      "name": "safeMintIPFS",
      "outputs": [
        {
          "internalType": "uint256",
          "name": "",
          "type": "uint256"
        }
      ],
      "stateMutability": "nonpayable",
      "type": "function"
    },
    {
      "inputs": [
        {
          "internalType": "address",
          "name": "from",
          "type": "address"
        },
        {
          "internalType": "address",
          "name": "to",
          "type": "address"
        },
        {
          "internalType": "uint256",
          "name": "tokenId",
          "type": "uint256"
        }
      ],
      "name": "safeTransferFrom",
      "outputs": [],
      "stateMutability": "nonpayable",
      "type": "function"
    },
    {
      "inputs": [
        {
          "internalType": "address",
          "name": "from",
          "type": "address"
        },
        {
          "internalType": "address",
          "name": "to",
          "type": "address"
        },
        {
          "internalType": "uint256",
          "name": "tokenId",
          "type": "uint256"
        },
        {
          "internalType": "bytes",
          "name": "data",
          "type": "bytes"
        }
      ],
      "name": "safeTransferFrom",
      "outputs": [],
      "stateMutability": "nonpayable",
      "type": "function"
    },
    {
      "inputs": [
        {
          "internalType": "address payable",
          "name": "_to",
          "type": "address"
        }
      ],
      "name": "sendTransaction",
      "outputs": [],
      "stateMutability": "payable",
      "type": "function"
    },
    {
      "inputs": [
        {
          "internalType": "address",
          "name": "operator",
          "type": "address"
        },
        {
          "internalType": "bool",
          "name": "approved",
          "type": "bool"
        }
      ],
      "name": "setApprovalForAll",
      "outputs": [],
      "stateMutability": "nonpayable",
      "type": "function"
    },
    {
      "inputs": [
        {
          "internalType": "uint256",
          "name": "tokenId",
          "type": "uint256"
        },
        {
          "internalType": "uint256",
          "name": "exchangeTokenId",
          "type": "uint256"
        }
      ],
      "name": "setExchangeTokenId",
      "outputs": [],
      "stateMutability": "nonpayable",
      "type": "function"
    },
    {
      "inputs": [
        {
          "internalType": "address",
          "name": "_operator",
          "type": "address"
        }
      ],
      "name": "setOperator",
      "outputs": [],
      "stateMutability": "nonpayable",
      "type": "function"
    },
    {
      "inputs": [
        {
          "internalType": "uint256",
          "name": "tokenId",
          "type": "uint256"
        },
        {
          "internalType": "string",
          "name": "tokenName",
          "type": "string"
        }
      ],
      "name": "setTokenName",
      "outputs": [],
      "stateMutability": "nonpayable",
      "type": "function"
    },
    {
      "inputs": [
        {
          "internalType": "string",
          "name": "userName",
          "type": "string"
        },
        {
          "internalType": "address",
          "name": "userAddress",
          "type": "address"
        }
      ],
      "name": "setUserAddress",
      "outputs": [],
      "stateMutability": "nonpayable",
      "type": "function"
    },
    {
      "inputs": [
        {
          "internalType": "bytes4",
          "name": "interfaceId",
          "type": "bytes4"
        }
      ],
      "name": "supportsInterface",
      "outputs": [
        {
          "internalType": "bool",
          "name": "",
          "type": "bool"
        }
      ],
      "stateMutability": "view",
      "type": "function"
    },
    {
      "inputs": [],
      "name": "symbol",
      "outputs": [
        {
          "internalType": "string",
          "name": "",
          "type": "string"
        }
      ],
      "stateMutability": "view",
      "type": "function"
    },
    {
      "inputs": [
        {
          "internalType": "uint256",
          "name": "tokenId",
          "type": "uint256"
        }
      ],
      "name": "tokenURI",
      "outputs": [
        {
          "internalType": "string",
          "name": "",
          "type": "string"
        }
      ],
      "stateMutability": "view",
      "type": "function"
    },
    {
      "inputs": [
        {
          "internalType": "address",
          "name": "from",
          "type": "address"
        },
        {
          "internalType": "address",
          "name": "to",
          "type": "address"
        },
        {
          "internalType": "uint256",
          "name": "tokenId",
          "type": "uint256"
        }
      ],
      "name": "transferFrom",
      "outputs": [],
      "stateMutability": "nonpayable",
      "type": "function"
    },
    {
      "inputs": [
        {
          "internalType": "address",
          "name": "myAddress",
          "type": "address"
        },
        {
          "internalType": "address",
          "name": "targetAddress",
          "type": "address"
        }
      ],
      "name": "verifyScore",
      "outputs": [
        {
          "internalType": "bool",
          "name": "",
          "type": "bool"
        }
      ],
      "stateMutability": "view",
      "type": "function"
    },
    {
      "inputs": [
        {
          "internalType": "address",
          "name": "",
          "type": "address"
        }
      ],
      "name": "vertexExists",
      "outputs": [
        {
          "internalType": "bool",
          "name": "",
          "type": "bool"
        }
      ],
      "stateMutability": "view",
      "type": "function"
    },
    {
      "inputs": [
        {
          "internalType": "uint256",
          "name": "",
          "type": "uint256"
        }
      ],
      "name": "vertices",
      "outputs": [
        {
          "internalType": "address",
          "name": "",
          "type": "address"
        }
      ],
      "stateMutability": "view",
      "type": "function"
    }
  ],
  "bytecode": "0x60806040526000600d5534801561001557600080fd5b50604051615c7c380380615c7c8339818101604052810190610037919061035c565b816040518060400160405280600781526020017f4d79546f6b656e0000000000000000000000000000000000000000000000000081525060405180602001604052806000815250816000908161008d91906105ec565b50806001908161009d91906105ec565b5050506001600a60008373ffffffffffffffffffffffffffffffffffffffff1673ffffffffffffffffffffffffffffffffffffffff16815260200190815260200160002060006101000a81548160ff0219169083151502179055508073ffffffffffffffffffffffffffffffffffffffff167fda12ee837e6978172aaf54b16145ffe08414fd8710092ef033c71b8eb6ec189a60405160405180910390a25061014f6000801b8361018860201b60201c565b506101807f5eeefbd1446176eeb282e93f50761c372c4e4e43ec23a79407cb9bf29660c4ce8261018860201b60201c565b5050506106be565b600061019a838361028660201b60201c565b61027b5760016006600085815260200190815260200160002060000160008473ffffffffffffffffffffffffffffffffffffffff1673ffffffffffffffffffffffffffffffffffffffff16815260200190815260200160002060006101000a81548160ff0219169083151502179055506102186102f160201b60201c565b73ffffffffffffffffffffffffffffffffffffffff168273ffffffffffffffffffffffffffffffffffffffff16847f2f8788117e7eff1d82e926ec794901d17c78024a50270940304540a733656f0d60405160405180910390a460019050610280565b600090505b92915050565b60006006600084815260200190815260200160002060000160008373ffffffffffffffffffffffffffffffffffffffff1673ffffffffffffffffffffffffffffffffffffffff16815260200190815260200160002060009054906101000a900460ff16905092915050565b600033905090565b600080fd5b600073ffffffffffffffffffffffffffffffffffffffff82169050919050565b6000610329826102fe565b9050919050565b6103398161031e565b811461034457600080fd5b50565b60008151905061035681610330565b92915050565b60008060408385031215610373576103726102f9565b5b600061038185828601610347565b925050602061039285828601610347565b9150509250929050565b600081519050919050565b7f4e487b7100000000000000000000000000000000000000000000000000000000600052604160045260246000fd5b7f4e487b7100000000000000000000000000000000000000000000000000000000600052602260045260246000fd5b6000600282049050600182168061041d57607f821691505b6020821081036104305761042f6103d6565b5b50919050565b60008190508160005260206000209050919050565b60006020601f8301049050919050565b600082821b905092915050565b6000600883026104987fffffffffffffffffffffffffffffffffffffffffffffffffffffffffffffffff8261045b565b6104a2868361045b565b95508019841693508086168417925050509392505050565b6000819050919050565b6000819050919050565b60006104e96104e46104df846104ba565b6104c4565b6104ba565b9050919050565b6000819050919050565b610503836104ce565b61051761050f826104f0565b848454610468565b825550505050565b600090565b61052c61051f565b6105378184846104fa565b505050565b5b8181101561055b57610550600082610524565b60018101905061053d565b5050565b601f8211156105a05761057181610436565b61057a8461044b565b81016020851015610589578190505b61059d6105958561044b565b83018261053c565b50505b505050565b600082821c905092915050565b60006105c3600019846008026105a5565b1980831691505092915050565b60006105dc83836105b2565b9150826002028217905092915050565b6105f58261039c565b67ffffffffffffffff81111561060e5761060d6103a7565b5b6106188254610405565b61062382828561055f565b600060209050601f8311600181146106565760008415610644578287015190505b61064e85826105d0565b8655506106b6565b601f19841661066486610436565b60005b8281101561068c57848901518255600182019150602085019450602081019050610667565b868310156106a957848901516106a5601f8916826105b2565b8355505b6001600288020188555050505b505050505050565b6155af806106cd6000396000f3fe6080604052600436106102c95760003560e01c806385ef3ded11610175578063c9e130ca116100dc578063d6d08dca11610095578063e2842d791161006f578063e2842d7914610bfc578063e4e2f55614610c27578063e985e9c514610c50578063fb9c5fe714610c8d576102c9565b8063d6d08dca14610b57578063dbe16c0714610b94578063e2133bef14610bd1576102c9565b8063c9e130ca14610a11578063cdb0e89e14610a4e578063d204c45e14610a77578063d47875d014610ab4578063d547741f14610af1578063d66827ad14610b1a576102c9565b8063a22cb4651161012e578063a22cb46514610905578063b3ab15fb1461092e578063b5cb15f714610957578063b88d4fde14610982578063c422c9bb146109ab578063c87b56dd146109d4576102c9565b806385ef3ded146107de57806386e5c15a1461081b5780638dde55771461084657806391d148541461087257806395d89b41146108af578063a217fddf146108da576102c9565b8063328d1e601161023457806342842e0e116101ed5780636205f4c5116101c75780636205f4c5146106ea5780636352211e146107275780636fcb532f1461076457806370a08231146107a1576102c9565b806342842e0e1461064757806346552e61146106705780634985e85c146106ad576102c9565b8063328d1e601461052757806336568abe1461055257806336896d381461057b57806336b56dfc146105b85780633bb3a24d146105e15780633d9600861461061e576102c9565b806322e6f1b31161028657806322e6f1b31461041657806323b872dd14610453578063248a9ca31461047c5780632bd123fe146104b95780632c588077146104d55780632f2ff15d146104fe576102c9565b8063018ecb12146102ce57806301ffc9a71461030b57806306fdde0314610348578063081812fc14610373578063095ea7b3146103b0578063109d3ee8146103d9575b600080fd5b3480156102da57600080fd5b506102f560048036038101906102f09190613ce1565b610cb6565b6040516103029190613d4f565b60405180910390f35b34801561031757600080fd5b50610332600480360381019061032d9190613dc2565b610cf5565b60405161033f9190613e0a565b60405180910390f35b34801561035457600080fd5b5061035d610d07565b60405161036a9190613eb5565b60405180910390f35b34801561037f57600080fd5b5061039a60048036038101906103959190613ce1565b610d99565b6040516103a79190613d4f565b60405180910390f35b3480156103bc57600080fd5b506103d760048036038101906103d29190613f03565b610db5565b005b3480156103e557600080fd5b5061040060048036038101906103fb9190613f43565b610dcb565b60405161040d9190613e0a565b60405180910390f35b34801561042257600080fd5b5061043d60048036038101906104389190613f70565b610deb565b60405161044a9190613e0a565b60405180910390f35b34801561045f57600080fd5b5061047a60048036038101906104759190613fb0565b610ef8565b005b34801561048857600080fd5b506104a3600480360381019061049e9190614039565b610f12565b6040516104b09190614075565b60405180910390f35b6104d360048036038101906104ce91906140ce565b610f32565b005b3480156104e157600080fd5b506104fc60048036038101906104f79190614230565b610f7c565b005b34801561050a57600080fd5b506105256004803603810190610520919061428c565b610fdd565b005b34801561053357600080fd5b5061053c610fff565b60405161054991906142db565b60405180910390f35b34801561055e57600080fd5b506105796004803603810190610574919061428c565b6110c5565b005b34801561058757600080fd5b506105a2600480360381019061059d9190613f70565b611140565b6040516105af9190613e0a565b60405180910390f35b3480156105c457600080fd5b506105df60048036038101906105da9190613f43565b611339565b005b3480156105ed57600080fd5b5061060860048036038101906106039190613ce1565b6114fb565b6040516106159190613eb5565b60405180910390f35b34801561062a57600080fd5b5061064560048036038101906106409190613f70565b6115a0565b005b34801561065357600080fd5b5061066e60048036038101906106699190613fb0565b61191a565b005b34801561067c57600080fd5b5061069760048036038101906106929190613f43565b61193a565b6040516106a491906143b4565b60405180910390f35b3480156106b957600080fd5b506106d460048036038101906106cf91906143d6565b611a93565b6040516106e19190613d4f565b60405180910390f35b3480156106f657600080fd5b50610711600480360381019061070c9190613f43565b611adb565b60405161071e919061443b565b60405180910390f35b34801561073357600080fd5b5061074e60048036038101906107499190613ce1565b611b31565b60405161075b9190613d4f565b60405180910390f35b34801561077057600080fd5b5061078b60048036038101906107869190613f43565b611b43565b604051610798919061443b565b60405180910390f35b3480156107ad57600080fd5b506107c860048036038101906107c39190613f43565b611c64565b6040516107d591906142db565b60405180910390f35b3480156107ea57600080fd5b5061080560048036038101906108009190613ce1565b611d1e565b60405161081291906142db565b60405180910390f35b34801561082757600080fd5b50610830611d3b565b60405161083d9190614075565b60405180910390f35b34801561085257600080fd5b5061085b611d5f565b604051610869929190614514565b60405180910390f35b34801561087e57600080fd5b506108996004803603810190610894919061428c565b611f1a565b6040516108a69190613e0a565b60405180910390f35b3480156108bb57600080fd5b506108c4611f85565b6040516108d19190613eb5565b60405180910390f35b3480156108e657600080fd5b506108ef612017565b6040516108fc9190614075565b60405180910390f35b34801561091157600080fd5b5061092c60048036038101906109279190614577565b61201e565b005b34801561093a57600080fd5b5061095560048036038101906109509190613f43565b612034565b005b34801561096357600080fd5b5061096c61225a565b60405161097991906142db565b60405180910390f35b34801561098e57600080fd5b506109a960048036038101906109a49190614658565b612267565b005b3480156109b757600080fd5b506109d260048036038101906109cd91906146db565b61228c565b005b3480156109e057600080fd5b506109fb60048036038101906109f69190613ce1565b6122a8565b604051610a089190613eb5565b60405180910390f35b348015610a1d57600080fd5b50610a386004803603810190610a33919061471b565b612311565b604051610a4591906142db565b60405180910390f35b348015610a5a57600080fd5b50610a756004803603810190610a7091906147a6565b61235a565b005b348015610a8357600080fd5b50610a9e6004803603810190610a999190614802565b61237f565b604051610aab91906142db565b60405180910390f35b348015610ac057600080fd5b50610adb6004803603810190610ad69190613f43565b6123bd565b604051610ae8919061443b565b60405180910390f35b348015610afd57600080fd5b50610b186004803603810190610b13919061428c565b61243d565b005b348015610b2657600080fd5b50610b416004803603810190610b3c9190613f03565b61245f565b604051610b4e9190613d4f565b60405180910390f35b348015610b6357600080fd5b50610b7e6004803603810190610b799190613f43565b6124ad565b604051610b8b91906142db565b60405180910390f35b348015610ba057600080fd5b50610bbb6004803603810190610bb69190613ce1565b612585565b604051610bc89190613eb5565b60405180910390f35b348015610bdd57600080fd5b50610be661262a565b604051610bf39190614075565b60405180910390f35b348015610c0857600080fd5b50610c1161264e565b604051610c1e91906143b4565b60405180910390f35b348015610c3357600080fd5b50610c4e6004803603810190610c49919061488a565b6126dc565b005b348015610c5c57600080fd5b50610c776004803603810190610c729190613f70565b6128e5565b604051610c849190613e0a565b60405180910390f35b348015610c9957600080fd5b50610cb46004803603810190610caf9190613f43565b612979565b005b60088181548110610cc657600080fd5b906000526020600020016000915054906101000a900473ffffffffffffffffffffffffffffffffffffffff1681565b6000610d0082612afd565b9050919050565b606060008054610d16906148f9565b80601f0160208091040260200160405190810160405280929190818152602001828054610d42906148f9565b8015610d8f5780601f10610d6457610100808354040283529160200191610d8f565b820191906000526020600020905b815481529060010190602001808311610d7257829003601f168201915b5050505050905090565b6000610da482612bcf565b50610dae82612c57565b9050919050565b610dc78282610dc2612c94565b612c9c565b5050565b60096020528060005260406000206000915054906101000a900460ff1681565b60008073ffffffffffffffffffffffffffffffffffffffff168373ffffffffffffffffffffffffffffffffffffffff1603610e5b576040517f08c379a0000000000000000000000000000000000000000000000000000000008152600401610e5290614976565b60405180910390fd5b600073ffffffffffffffffffffffffffffffffffffffff168273ffffffffffffffffffffffffffffffffffffffff1603610eca576040517f08c379a0000000000000000000000000000000000000000000000000000000008152600401610ec1906149e2565b60405180910390fd5b6000610ed5846123bd565b90506000610ee2846123bd565b90508060000b8260000b12159250505092915050565b610f03838383612cae565b610f0d83836115a0565b505050565b600060066000838152602001908152602001600020600101549050919050565b8073ffffffffffffffffffffffffffffffffffffffff166108fc349081150290604051600060405180830381858888f19350505050158015610f78573d6000803e3d6000fd5b5050565b80601083604051610f8d9190614a3e565b908152602001604051809103902060006101000a81548173ffffffffffffffffffffffffffffffffffffffff021916908373ffffffffffffffffffffffffffffffffffffffff1602179055505050565b610fe682610f12565b610fef81612db0565b610ff98383612dc4565b50505050565b6000806000905060005b6008805490508110156110b157600760006008838154811061102e5761102d614a55565b5b9060005260206000200160009054906101000a900473ffffffffffffffffffffffffffffffffffffffff1673ffffffffffffffffffffffffffffffffffffffff1673ffffffffffffffffffffffffffffffffffffffff16815260200190815260200160002080549050826110a29190614ab3565b91508080600101915050611009565b506002816110bf9190614b16565b91505090565b6110cd612c94565b73ffffffffffffffffffffffffffffffffffffffff168173ffffffffffffffffffffffffffffffffffffffff1614611131576040517f6697b23200000000000000000000000000000000000000000000000000000000815260040160405180910390fd5b61113b8282612eb6565b505050565b6000600960008473ffffffffffffffffffffffffffffffffffffffff1673ffffffffffffffffffffffffffffffffffffffff16815260200190815260200160002060009054906101000a900460ff1615806111e55750600960008373ffffffffffffffffffffffffffffffffffffffff1673ffffffffffffffffffffffffffffffffffffffff16815260200190815260200160002060009054906101000a900460ff16155b156111f35760009050611333565b6000600760008573ffffffffffffffffffffffffffffffffffffffff1673ffffffffffffffffffffffffffffffffffffffff1681526020019081526020016000208054806020026020016040519081016040528092919081815260200182805480156112b457602002820191906000526020600020905b8160009054906101000a900473ffffffffffffffffffffffffffffffffffffffff1673ffffffffffffffffffffffffffffffffffffffff168152602001906001019080831161126a575b5050505050905060005b815181101561132c578373ffffffffffffffffffffffffffffffffffffffff168282815181106112f1576112f0614a55565b5b602002602001015173ffffffffffffffffffffffffffffffffffffffff160361131f57600192505050611333565b80806001019150506112be565b5060009150505b92915050565b600073ffffffffffffffffffffffffffffffffffffffff168173ffffffffffffffffffffffffffffffffffffffff16036113a8576040517f08c379a000000000000000000000000000000000000000000000000000000000815260040161139f90614b93565b60405180910390fd5b600960008273ffffffffffffffffffffffffffffffffffffffff1673ffffffffffffffffffffffffffffffffffffffff16815260200190815260200160002060009054906101000a900460ff166114f8576008819080600181540180825580915050600190039060005260206000200160009091909190916101000a81548173ffffffffffffffffffffffffffffffffffffffff021916908373ffffffffffffffffffffffffffffffffffffffff1602179055506001600960008373ffffffffffffffffffffffffffffffffffffffff1673ffffffffffffffffffffffffffffffffffffffff16815260200190815260200160002060006101000a81548160ff0219169083151502179055508073ffffffffffffffffffffffffffffffffffffffff167f19ef9a4877199f89440a26acb26895ec02ed86f2df1aeaa90dc18041b892f71f60405160405180910390a25b50565b606060116000838152602001908152602001600020805461151b906148f9565b80601f0160208091040260200160405190810160405280929190818152602001828054611547906148f9565b80156115945780601f1061156957610100808354040283529160200191611594565b820191906000526020600020905b81548152906001019060200180831161157757829003601f168201915b50505050509050919050565b600073ffffffffffffffffffffffffffffffffffffffff168273ffffffffffffffffffffffffffffffffffffffff161415801561160a5750600073ffffffffffffffffffffffffffffffffffffffff168173ffffffffffffffffffffffffffffffffffffffff1614155b611649576040517f08c379a000000000000000000000000000000000000000000000000000000000815260040161164090614b93565b60405180910390fd5b8073ffffffffffffffffffffffffffffffffffffffff168273ffffffffffffffffffffffffffffffffffffffff16036116b7576040517f08c379a00000000000000000000000000000000000000000000000000000000081526004016116ae90614bff565b60405180910390fd5b600960008373ffffffffffffffffffffffffffffffffffffffff1673ffffffffffffffffffffffffffffffffffffffff16815260200190815260200160002060009054906101000a900460ff166117125761171182611339565b5b600960008273ffffffffffffffffffffffffffffffffffffffff1673ffffffffffffffffffffffffffffffffffffffff16815260200190815260200160002060009054906101000a900460ff1661176d5761176c81611339565b5b6117778282611140565b61191657600760008373ffffffffffffffffffffffffffffffffffffffff1673ffffffffffffffffffffffffffffffffffffffff168152602001908152602001600020819080600181540180825580915050600190039060005260206000200160009091909190916101000a81548173ffffffffffffffffffffffffffffffffffffffff021916908373ffffffffffffffffffffffffffffffffffffffff160217905550600760008273ffffffffffffffffffffffffffffffffffffffff1673ffffffffffffffffffffffffffffffffffffffff168152602001908152602001600020829080600181540180825580915050600190039060005260206000200160009091909190916101000a81548173ffffffffffffffffffffffffffffffffffffffff021916908373ffffffffffffffffffffffffffffffffffffffff1602179055508073ffffffffffffffffffffffffffffffffffffffff168273ffffffffffffffffffffffffffffffffffffffff167fb5592a9532ccbdc9d02f659e19cca35ddd0c274b937362cee3a1973a6b5ebe9160405160405180910390a35b5050565b61193583838360405180602001604052806000815250612267565b505050565b6060600960008373ffffffffffffffffffffffffffffffffffffffff1673ffffffffffffffffffffffffffffffffffffffff16815260200190815260200160002060009054906101000a900460ff166119c8576040517f08c379a00000000000000000000000000000000000000000000000000000000081526004016119bf90614c6b565b60405180910390fd5b600760008373ffffffffffffffffffffffffffffffffffffffff1673ffffffffffffffffffffffffffffffffffffffff168152602001908152602001600020805480602002602001604051908101604052809291908181526020018280548015611a8757602002820191906000526020600020905b8160009054906101000a900473ffffffffffffffffffffffffffffffffffffffff1673ffffffffffffffffffffffffffffffffffffffff1681526020019060010190808311611a3d575b50505050509050919050565b6000601082604051611aa59190614a3e565b908152602001604051809103902060009054906101000a900473ffffffffffffffffffffffffffffffffffffffff169050919050565b6000600b60008373ffffffffffffffffffffffffffffffffffffffff1673ffffffffffffffffffffffffffffffffffffffff16815260200190815260200160002060009054906101000a900460000b9050919050565b6000611b3c82612bcf565b9050919050565b60008073ffffffffffffffffffffffffffffffffffffffff168273ffffffffffffffffffffffffffffffffffffffff1603611bb3576040517f08c379a0000000000000000000000000000000000000000000000000000000008152600401611baa90614b93565b60405180910390fd5b600960008373ffffffffffffffffffffffffffffffffffffffff1673ffffffffffffffffffffffffffffffffffffffff16815260200190815260200160002060009054906101000a900460ff16611c0d5760009050611c5f565b6000600880549050905060018113611c29576000915050611c5f565b6000611c34846124ad565b9050600182611c439190614c95565b606482611c509190614cd8565b611c5a9190614d50565b925050505b919050565b60008073ffffffffffffffffffffffffffffffffffffffff168273ffffffffffffffffffffffffffffffffffffffff1603611cd75760006040517f89c62b64000000000000000000000000000000000000000000000000000000008152600401611cce9190613d4f565b60405180910390fd5b600360008373ffffffffffffffffffffffffffffffffffffffff1673ffffffffffffffffffffffffffffffffffffffff168152602001908152602001600020549050919050565b6000600f6000838152602001908152602001600020549050919050565b7fd16e204b8a42a15ab0ea6bb8ec1ecdfbe69f38074fc865323af19efe7d9573d981565b606080600060088054905090508067ffffffffffffffff811115611d8657611d85614105565b5b604051908082528060200260200182016040528015611db45781602001602082028036833780820191505090505b5092508067ffffffffffffffff811115611dd157611dd0614105565b5b604051908082528060200260200182016040528015611dff5781602001602082028036833780820191505090505b50915060005b81811015611f145760088181548110611e2157611e20614a55565b5b9060005260206000200160009054906101000a900473ffffffffffffffffffffffffffffffffffffffff16848281518110611e5f57611e5e614a55565b5b602002602001019073ffffffffffffffffffffffffffffffffffffffff16908173ffffffffffffffffffffffffffffffffffffffff1681525050611ee060088281548110611eb057611eaf614a55565b5b9060005260206000200160009054906101000a900473ffffffffffffffffffffffffffffffffffffffff16611b43565b838281518110611ef357611ef2614a55565b5b602002602001019060000b908160000b815250508080600101915050611e05565b50509091565b60006006600084815260200190815260200160002060000160008373ffffffffffffffffffffffffffffffffffffffff1673ffffffffffffffffffffffffffffffffffffffff16815260200190815260200160002060009054906101000a900460ff16905092915050565b606060018054611f94906148f9565b80601f0160208091040260200160405190810160405280929190818152602001828054611fc0906148f9565b801561200d5780601f10611fe25761010080835404028352916020019161200d565b820191906000526020600020905b815481529060010190602001808311611ff057829003601f168201915b5050505050905090565b6000801b81565b612030612029612c94565b8383612fa9565b5050565b600a60003373ffffffffffffffffffffffffffffffffffffffff1673ffffffffffffffffffffffffffffffffffffffff16815260200190815260200160002060009054906101000a900460ff166120c0576040517f08c379a00000000000000000000000000000000000000000000000000000000081526004016120b790614e06565b60405180910390fd5b600073ffffffffffffffffffffffffffffffffffffffff168173ffffffffffffffffffffffffffffffffffffffff160361212f576040517f08c379a000000000000000000000000000000000000000000000000000000000815260040161212690614e72565b60405180910390fd5b600a60008273ffffffffffffffffffffffffffffffffffffffff1673ffffffffffffffffffffffffffffffffffffffff16815260200190815260200160002060009054906101000a900460ff16156121bc576040517f08c379a00000000000000000000000000000000000000000000000000000000081526004016121b390614ede565b60405180910390fd5b6001600a60008373ffffffffffffffffffffffffffffffffffffffff1673ffffffffffffffffffffffffffffffffffffffff16815260200190815260200160002060006101000a81548160ff0219169083151502179055508073ffffffffffffffffffffffffffffffffffffffff167fda12ee837e6978172aaf54b16145ffe08414fd8710092ef033c71b8eb6ec189a60405160405180910390a250565b6000600880549050905090565b612272848484610ef8565b61228661227d612c94565b85858585613118565b50505050565b80600f6000848152602001908152602001600020819055505050565b60606122b382612bcf565b5060006122be6132c9565b905060008151116122de5760405180602001604052806000815250612309565b806122e8846132e0565b6040516020016122f9929190614efe565b6040516020818303038152906040525b915050919050565b600080600d54905061232385826133ae565b61232d818561235a565b61233781846133cc565b600d600081548092919061234a90614f22565b9190505550809150509392505050565b80600e6000848152602001908152602001600020908161237a9190615116565b505050565b600080600d54905061239184826133ae565b61239b818461235a565b600d60008154809291906123ae90614f22565b91905055508091505092915050565b60008073ffffffffffffffffffffffffffffffffffffffff168273ffffffffffffffffffffffffffffffffffffffff160361242d576040517f08c379a000000000000000000000000000000000000000000000000000000000815260040161242490614b93565b60405180910390fd5b61243682611b43565b9050919050565b61244682610f12565b61244f81612db0565b6124598383612eb6565b50505050565b6007602052816000526040600020818154811061247b57600080fd5b906000526020600020016000915091509054906101000a900473ffffffffffffffffffffffffffffffffffffffff1681565b6000600960008373ffffffffffffffffffffffffffffffffffffffff1673ffffffffffffffffffffffffffffffffffffffff16815260200190815260200160002060009054906101000a900460ff1661253b576040517f08c379a000000000000000000000000000000000000000000000000000000000815260040161253290614c6b565b60405180910390fd5b600760008373ffffffffffffffffffffffffffffffffffffffff1673ffffffffffffffffffffffffffffffffffffffff168152602001908152602001600020805490509050919050565b6060600e600083815260200190815260200160002080546125a5906148f9565b80601f01602080910402602001604051908101604052809291908181526020018280546125d1906148f9565b801561261e5780601f106125f35761010080835404028352916020019161261e565b820191906000526020600020905b81548152906001019060200180831161260157829003601f168201915b50505050509050919050565b7f5eeefbd1446176eeb282e93f50761c372c4e4e43ec23a79407cb9bf29660c4ce81565b606060088054806020026020016040519081016040528092919081815260200182805480156126d257602002820191906000526020600020905b8160009054906101000a900473ffffffffffffffffffffffffffffffffffffffff1673ffffffffffffffffffffffffffffffffffffffff1681526020019060010190808311612688575b5050505050905090565b600a60003373ffffffffffffffffffffffffffffffffffffffff1673ffffffffffffffffffffffffffffffffffffffff16815260200190815260200160002060009054906101000a900460ff16612768576040517f08c379a000000000000000000000000000000000000000000000000000000000815260040161275f90614e06565b60405180910390fd5b600073ffffffffffffffffffffffffffffffffffffffff168273ffffffffffffffffffffffffffffffffffffffff16036127d7576040517f08c379a00000000000000000000000000000000000000000000000000000000081526004016127ce90615234565b60405180910390fd5b7fffffffffffffffffffffffffffffffffffffffffffffffffffffffffffffff818160000b1215801561280e5750607f8160000b13155b61284d576040517f08c379a0000000000000000000000000000000000000000000000000000000008152600401612844906152c6565b60405180910390fd5b80600b60008473ffffffffffffffffffffffffffffffffffffffff1673ffffffffffffffffffffffffffffffffffffffff16815260200190815260200160002060006101000a81548160ff021916908360000b60ff1602179055507f5f1944295bdaf381959cb2811e6e622d6a1a7d1e0ff555f1e28fc54ddc5c465282826040516128d99291906152e6565b60405180910390a15050565b6000600560008473ffffffffffffffffffffffffffffffffffffffff1673ffffffffffffffffffffffffffffffffffffffff16815260200190815260200160002060008373ffffffffffffffffffffffffffffffffffffffff1673ffffffffffffffffffffffffffffffffffffffff16815260200190815260200160002060009054906101000a900460ff16905092915050565b600a60003373ffffffffffffffffffffffffffffffffffffffff1673ffffffffffffffffffffffffffffffffffffffff16815260200190815260200160002060009054906101000a900460ff16612a05576040517f08c379a00000000000000000000000000000000000000000000000000000000081526004016129fc90614e06565b60405180910390fd5b600073ffffffffffffffffffffffffffffffffffffffff168173ffffffffffffffffffffffffffffffffffffffff1603612a74576040517f08c379a0000000000000000000000000000000000000000000000000000000008152600401612a6b9061535b565b60405180910390fd5b600b60008273ffffffffffffffffffffffffffffffffffffffff1673ffffffffffffffffffffffffffffffffffffffff16815260200190815260200160002060006101000a81549060ff02191690557f44a5b7afbb86623b8774fc11ab50ba2d84f43f00274a13506ce93a3066bc0d0f81604051612af29190613d4f565b60405180910390a150565b60007f01ffc9a7000000000000000000000000000000000000000000000000000000007bffffffffffffffffffffffffffffffffffffffffffffffffffffffff1916827bffffffffffffffffffffffffffffffffffffffffffffffffffffffff19161480612bc857507fced04b8f000000000000000000000000000000000000000000000000000000007bffffffffffffffffffffffffffffffffffffffffffffffffffffffff1916827bffffffffffffffffffffffffffffffffffffffffffffffffffffffff1916145b9050919050565b600080612bdb83613435565b9050600073ffffffffffffffffffffffffffffffffffffffff168173ffffffffffffffffffffffffffffffffffffffff1603612c4e57826040517f7e273289000000000000000000000000000000000000000000000000000000008152600401612c4591906142db565b60405180910390fd5b80915050919050565b60006004600083815260200190815260200160002060009054906101000a900473ffffffffffffffffffffffffffffffffffffffff169050919050565b600033905090565b612ca98383836001613472565b505050565b600073ffffffffffffffffffffffffffffffffffffffff168273ffffffffffffffffffffffffffffffffffffffff1603612d205760006040517f64a0ae92000000000000000000000000000000000000000000000000000000008152600401612d179190613d4f565b60405180910390fd5b6000612d348383612d2f612c94565b613637565b90508373ffffffffffffffffffffffffffffffffffffffff168173ffffffffffffffffffffffffffffffffffffffff1614612daa578382826040517f64283d7b000000000000000000000000000000000000000000000000000000008152600401612da19392919061537b565b60405180910390fd5b50505050565b612dc181612dbc612c94565b613851565b50565b6000612dd08383611f1a565b612eab5760016006600085815260200190815260200160002060000160008473ffffffffffffffffffffffffffffffffffffffff1673ffffffffffffffffffffffffffffffffffffffff16815260200190815260200160002060006101000a81548160ff021916908315150217905550612e48612c94565b73ffffffffffffffffffffffffffffffffffffffff168273ffffffffffffffffffffffffffffffffffffffff16847f2f8788117e7eff1d82e926ec794901d17c78024a50270940304540a733656f0d60405160405180910390a460019050612eb0565b600090505b92915050565b6000612ec28383611f1a565b15612f9e5760006006600085815260200190815260200160002060000160008473ffffffffffffffffffffffffffffffffffffffff1673ffffffffffffffffffffffffffffffffffffffff16815260200190815260200160002060006101000a81548160ff021916908315150217905550612f3b612c94565b73ffffffffffffffffffffffffffffffffffffffff168273ffffffffffffffffffffffffffffffffffffffff16847ff6391f5c32d9c69d2a47ea670b442974b53935d1edc7fd64eb21e047a839171b60405160405180910390a460019050612fa3565b600090505b92915050565b600073ffffffffffffffffffffffffffffffffffffffff168273ffffffffffffffffffffffffffffffffffffffff160361301a57816040517f5b08ba180000000000000000000000000000000000000000000000000000000081526004016130119190613d4f565b60405180910390fd5b80600560008573ffffffffffffffffffffffffffffffffffffffff1673ffffffffffffffffffffffffffffffffffffffff16815260200190815260200160002060008473ffffffffffffffffffffffffffffffffffffffff1673ffffffffffffffffffffffffffffffffffffffff16815260200190815260200160002060006101000a81548160ff0219169083151502179055508173ffffffffffffffffffffffffffffffffffffffff168373ffffffffffffffffffffffffffffffffffffffff167f17307eab39ab6107e8899845ad3d59bd9653f200f220920489ca2b5937696c318360405161310b9190613e0a565b60405180910390a3505050565b60008373ffffffffffffffffffffffffffffffffffffffff163b11156132c2578273ffffffffffffffffffffffffffffffffffffffff1663150b7a02868685856040518563ffffffff1660e01b81526004016131779493929190615407565b6020604051808303816000875af19250505080156131b357506040513d601f19601f820116820180604052508101906131b09190615468565b60015b613237573d80600081146131e3576040519150601f19603f3d011682016040523d82523d6000602084013e6131e8565b606091505b50600081510361322f57836040517f64a0ae920000000000000000000000000000000000000000000000000000000081526004016132269190613d4f565b60405180910390fd5b805160208201fd5b63150b7a0260e01b7bffffffffffffffffffffffffffffffffffffffffffffffffffffffff1916817bffffffffffffffffffffffffffffffffffffffffffffffffffffffff1916146132c057836040517f64a0ae920000000000000000000000000000000000000000000000000000000081526004016132b79190613d4f565b60405180910390fd5b505b5050505050565b606060405180602001604052806000815250905090565b6060600060016132ef846138a2565b01905060008167ffffffffffffffff81111561330e5761330d614105565b5b6040519080825280601f01601f1916602001820160405280156133405781602001600182028036833780820191505090505b509050600082602083010190505b6001156133a3578080600190039150507f3031323334353637383961626364656600000000000000000000000000000000600a86061a8153600a858161339757613396614ae7565b5b0494506000850361334e575b819350505050919050565b6133c88282604051806020016040528060008152506139f5565b5050565b6000821015613410576040517f08c379a000000000000000000000000000000000000000000000000000000000815260040161340790615507565b60405180910390fd5b806011600084815260200190815260200160002090816134309190615116565b505050565b60006002600083815260200190815260200160002060009054906101000a900473ffffffffffffffffffffffffffffffffffffffff169050919050565b80806134ab5750600073ffffffffffffffffffffffffffffffffffffffff168273ffffffffffffffffffffffffffffffffffffffff1614155b156135df5760006134bb84612bcf565b9050600073ffffffffffffffffffffffffffffffffffffffff168373ffffffffffffffffffffffffffffffffffffffff161415801561352657508273ffffffffffffffffffffffffffffffffffffffff168173ffffffffffffffffffffffffffffffffffffffff1614155b8015613539575061353781846128e5565b155b1561357b57826040517fa9fbf51f0000000000000000000000000000000000000000000000000000000081526004016135729190613d4f565b60405180910390fd5b81156135dd57838573ffffffffffffffffffffffffffffffffffffffff168273ffffffffffffffffffffffffffffffffffffffff167f8c5be1e5ebec7d5bd14f71427d1e84f3dd0314c0f7b2291e5b200ac8c7c3b92560405160405180910390a45b505b836004600085815260200190815260200160002060006101000a81548173ffffffffffffffffffffffffffffffffffffffff021916908373ffffffffffffffffffffffffffffffffffffffff16021790555050505050565b60008061364384613435565b9050600073ffffffffffffffffffffffffffffffffffffffff168373ffffffffffffffffffffffffffffffffffffffff161461368557613684818486613a19565b5b600073ffffffffffffffffffffffffffffffffffffffff168173ffffffffffffffffffffffffffffffffffffffff1614613716576136c7600085600080613472565b6001600360008373ffffffffffffffffffffffffffffffffffffffff1673ffffffffffffffffffffffffffffffffffffffff168152602001908152602001600020600082825403925050819055505b600073ffffffffffffffffffffffffffffffffffffffff168573ffffffffffffffffffffffffffffffffffffffff1614613799576001600360008773ffffffffffffffffffffffffffffffffffffffff1673ffffffffffffffffffffffffffffffffffffffff168152602001908152602001600020600082825401925050819055505b846002600086815260200190815260200160002060006101000a81548173ffffffffffffffffffffffffffffffffffffffff021916908373ffffffffffffffffffffffffffffffffffffffff160217905550838573ffffffffffffffffffffffffffffffffffffffff168273ffffffffffffffffffffffffffffffffffffffff167fddf252ad1be2c89b69c2b068fc378daa952ba7f163c4a11628f55a4df523b3ef60405160405180910390a4809150509392505050565b61385b8282611f1a565b61389e5780826040517fe2517d3f000000000000000000000000000000000000000000000000000000008152600401613895929190615527565b60405180910390fd5b5050565b600080600090507a184f03e93ff9f4daa797ed6e38ed64bf6a1f0100000000000000008310613900577a184f03e93ff9f4daa797ed6e38ed64bf6a1f01000000000000000083816138f6576138f5614ae7565b5b0492506040810190505b6d04ee2d6d415b85acef8100000000831061393d576d04ee2d6d415b85acef8100000000838161393357613932614ae7565b5b0492506020810190505b662386f26fc10000831061396c57662386f26fc10000838161396257613961614ae7565b5b0492506010810190505b6305f5e1008310613995576305f5e100838161398b5761398a614ae7565b5b0492506008810190505b61271083106139ba5761271083816139b0576139af614ae7565b5b0492506004810190505b606483106139dd57606483816139d3576139d2614ae7565b5b0492506002810190505b600a83106139ec576001810190505b80915050919050565b6139ff8383613add565b613a14613a0a612c94565b6000858585613118565b505050565b613a24838383613bd6565b613ad857600073ffffffffffffffffffffffffffffffffffffffff168373ffffffffffffffffffffffffffffffffffffffff1603613a9957806040517f7e273289000000000000000000000000000000000000000000000000000000008152600401613a9091906142db565b60405180910390fd5b81816040517f177e802f000000000000000000000000000000000000000000000000000000008152600401613acf929190615550565b60405180910390fd5b505050565b600073ffffffffffffffffffffffffffffffffffffffff168273ffffffffffffffffffffffffffffffffffffffff1603613b4f5760006040517f64a0ae92000000000000000000000000000000000000000000000000000000008152600401613b469190613d4f565b60405180910390fd5b6000613b5d83836000613637565b9050600073ffffffffffffffffffffffffffffffffffffffff168173ffffffffffffffffffffffffffffffffffffffff1614613bd15760006040517f73c6ac6e000000000000000000000000000000000000000000000000000000008152600401613bc89190613d4f565b60405180910390fd5b505050565b60008073ffffffffffffffffffffffffffffffffffffffff168373ffffffffffffffffffffffffffffffffffffffff1614158015613c8e57508273ffffffffffffffffffffffffffffffffffffffff168473ffffffffffffffffffffffffffffffffffffffff161480613c4f5750613c4e84846128e5565b5b80613c8d57508273ffffffffffffffffffffffffffffffffffffffff16613c7583612c57565b73ffffffffffffffffffffffffffffffffffffffff16145b5b90509392505050565b6000604051905090565b600080fd5b600080fd5b6000819050919050565b613cbe81613cab565b8114613cc957600080fd5b50565b600081359050613cdb81613cb5565b92915050565b600060208284031215613cf757613cf6613ca1565b5b6000613d0584828501613ccc565b91505092915050565b600073ffffffffffffffffffffffffffffffffffffffff82169050919050565b6000613d3982613d0e565b9050919050565b613d4981613d2e565b82525050565b6000602082019050613d646000830184613d40565b92915050565b60007fffffffff0000000000000000000000000000000000000000000000000000000082169050919050565b613d9f81613d6a565b8114613daa57600080fd5b50565b600081359050613dbc81613d96565b92915050565b600060208284031215613dd857613dd7613ca1565b5b6000613de684828501613dad565b91505092915050565b60008115159050919050565b613e0481613def565b82525050565b6000602082019050613e1f6000830184613dfb565b92915050565b600081519050919050565b600082825260208201905092915050565b60005b83811015613e5f578082015181840152602081019050613e44565b60008484015250505050565b6000601f19601f8301169050919050565b6000613e8782613e25565b613e918185613e30565b9350613ea1818560208601613e41565b613eaa81613e6b565b840191505092915050565b60006020820190508181036000830152613ecf8184613e7c565b905092915050565b613ee081613d2e565b8114613eeb57600080fd5b50565b600081359050613efd81613ed7565b92915050565b60008060408385031215613f1a57613f19613ca1565b5b6000613f2885828601613eee565b9250506020613f3985828601613ccc565b9150509250929050565b600060208284031215613f5957613f58613ca1565b5b6000613f6784828501613eee565b91505092915050565b60008060408385031215613f8757613f86613ca1565b5b6000613f9585828601613eee565b9250506020613fa685828601613eee565b9150509250929050565b600080600060608486031215613fc957613fc8613ca1565b5b6000613fd786828701613eee565b9350506020613fe886828701613eee565b9250506040613ff986828701613ccc565b9150509250925092565b6000819050919050565b61401681614003565b811461402157600080fd5b50565b6000813590506140338161400d565b92915050565b60006020828403121561404f5761404e613ca1565b5b600061405d84828501614024565b91505092915050565b61406f81614003565b82525050565b600060208201905061408a6000830184614066565b92915050565b600061409b82613d0e565b9050919050565b6140ab81614090565b81146140b657600080fd5b50565b6000813590506140c8816140a2565b92915050565b6000602082840312156140e4576140e3613ca1565b5b60006140f2848285016140b9565b91505092915050565b600080fd5b600080fd5b7f4e487b7100000000000000000000000000000000000000000000000000000000600052604160045260246000fd5b61413d82613e6b565b810181811067ffffffffffffffff8211171561415c5761415b614105565b5b80604052505050565b600061416f613c97565b905061417b8282614134565b919050565b600067ffffffffffffffff82111561419b5761419a614105565b5b6141a482613e6b565b9050602081019050919050565b82818337600083830152505050565b60006141d36141ce84614180565b614165565b9050828152602081018484840111156141ef576141ee614100565b5b6141fa8482856141b1565b509392505050565b600082601f830112614217576142166140fb565b5b81356142278482602086016141c0565b91505092915050565b6000806040838503121561424757614246613ca1565b5b600083013567ffffffffffffffff81111561426557614264613ca6565b5b61427185828601614202565b925050602061428285828601613eee565b9150509250929050565b600080604083850312156142a3576142a2613ca1565b5b60006142b185828601614024565b92505060206142c285828601613eee565b9150509250929050565b6142d581613cab565b82525050565b60006020820190506142f060008301846142cc565b92915050565b600081519050919050565b600082825260208201905092915050565b6000819050602082019050919050565b61432b81613d2e565b82525050565b600061433d8383614322565b60208301905092915050565b6000602082019050919050565b6000614361826142f6565b61436b8185614301565b935061437683614312565b8060005b838110156143a757815161438e8882614331565b975061439983614349565b92505060018101905061437a565b5085935050505092915050565b600060208201905081810360008301526143ce8184614356565b905092915050565b6000602082840312156143ec576143eb613ca1565b5b600082013567ffffffffffffffff81111561440a57614409613ca6565b5b61441684828501614202565b91505092915050565b60008160000b9050919050565b6144358161441f565b82525050565b6000602082019050614450600083018461442c565b92915050565b600081519050919050565b600082825260208201905092915050565b6000819050602082019050919050565b61448b8161441f565b82525050565b600061449d8383614482565b60208301905092915050565b6000602082019050919050565b60006144c182614456565b6144cb8185614461565b93506144d683614472565b8060005b838110156145075781516144ee8882614491565b97506144f9836144a9565b9250506001810190506144da565b5085935050505092915050565b6000604082019050818103600083015261452e8185614356565b9050818103602083015261454281846144b6565b90509392505050565b61455481613def565b811461455f57600080fd5b50565b6000813590506145718161454b565b92915050565b6000806040838503121561458e5761458d613ca1565b5b600061459c85828601613eee565b92505060206145ad85828601614562565b9150509250929050565b600067ffffffffffffffff8211156145d2576145d1614105565b5b6145db82613e6b565b9050602081019050919050565b60006145fb6145f6846145b7565b614165565b90508281526020810184848401111561461757614616614100565b5b6146228482856141b1565b509392505050565b600082601f83011261463f5761463e6140fb565b5b813561464f8482602086016145e8565b91505092915050565b6000806000806080858703121561467257614671613ca1565b5b600061468087828801613eee565b945050602061469187828801613eee565b93505060406146a287828801613ccc565b925050606085013567ffffffffffffffff8111156146c3576146c2613ca6565b5b6146cf8782880161462a565b91505092959194509250565b600080604083850312156146f2576146f1613ca1565b5b600061470085828601613ccc565b925050602061471185828601613ccc565b9150509250929050565b60008060006060848603121561473457614733613ca1565b5b600061474286828701613eee565b935050602084013567ffffffffffffffff81111561476357614762613ca6565b5b61476f86828701614202565b925050604084013567ffffffffffffffff8111156147905761478f613ca6565b5b61479c86828701614202565b9150509250925092565b600080604083850312156147bd576147bc613ca1565b5b60006147cb85828601613ccc565b925050602083013567ffffffffffffffff8111156147ec576147eb613ca6565b5b6147f885828601614202565b9150509250929050565b6000806040838503121561481957614818613ca1565b5b600061482785828601613eee565b925050602083013567ffffffffffffffff81111561484857614847613ca6565b5b61485485828601614202565b9150509250929050565b6148678161441f565b811461487257600080fd5b50565b6000813590506148848161485e565b92915050565b600080604083850312156148a1576148a0613ca1565b5b60006148af85828601613eee565b92505060206148c085828601614875565b9150509250929050565b7f4e487b7100000000000000000000000000000000000000000000000000000000600052602260045260246000fd5b6000600282049050600182168061491157607f821691505b602082108103614924576149236148ca565b5b50919050565b7f496e76616c6964206d7941646472657373000000000000000000000000000000600082015250565b6000614960601183613e30565b915061496b8261492a565b602082019050919050565b6000602082019050818103600083015261498f81614953565b9050919050565b7f496e76616c696420746172676574416464726573730000000000000000000000600082015250565b60006149cc601583613e30565b91506149d782614996565b602082019050919050565b600060208201905081810360008301526149fb816149bf565b9050919050565b600081905092915050565b6000614a1882613e25565b614a228185614a02565b9350614a32818560208601613e41565b80840191505092915050565b6000614a4a8284614a0d565b915081905092915050565b7f4e487b7100000000000000000000000000000000000000000000000000000000600052603260045260246000fd5b7f4e487b7100000000000000000000000000000000000000000000000000000000600052601160045260246000fd5b6000614abe82613cab565b9150614ac983613cab565b9250828201905080821115614ae157614ae0614a84565b5b92915050565b7f4e487b7100000000000000000000000000000000000000000000000000000000600052601260045260246000fd5b6000614b2182613cab565b9150614b2c83613cab565b925082614b3c57614b3b614ae7565b5b828204905092915050565b7f496e76616c696420757365722061646472657373000000000000000000000000600082015250565b6000614b7d601483613e30565b9150614b8882614b47565b602082019050919050565b60006020820190508181036000830152614bac81614b70565b9050919050565b7f53656c662d636f6e6e656374696f6e206e6f7420616c6c6f7765640000000000600082015250565b6000614be9601b83613e30565b9150614bf482614bb3565b602082019050919050565b60006020820190508181036000830152614c1881614bdc565b9050919050565b7f5573657220646f6573206e6f7420657869737400000000000000000000000000600082015250565b6000614c55601383613e30565b9150614c6082614c1f565b602082019050919050565b60006020820190508181036000830152614c8481614c48565b9050919050565b6000819050919050565b6000614ca082614c8b565b9150614cab83614c8b565b9250828203905081811260008412168282136000851215161715614cd257614cd1614a84565b5b92915050565b6000614ce382614c8b565b9150614cee83614c8b565b9250828202614cfc81614c8b565b91507f80000000000000000000000000000000000000000000000000000000000000008414600084121615614d3457614d33614a84565b5b8282058414831517614d4957614d48614a84565b5b5092915050565b6000614d5b82614c8b565b9150614d6683614c8b565b925082614d7657614d75614ae7565b5b600160000383147f800000000000000000000000000000000000000000000000000000000000000083141615614daf57614dae614a84565b5b828205905092915050565b7f43616c6c6572206973206e6f7420746865206f70657261746f72000000000000600082015250565b6000614df0601a83613e30565b9150614dfb82614dba565b602082019050919050565b60006020820190508181036000830152614e1f81614de3565b9050919050565b7f496e76616c6964206f70657261746f7220616464726573730000000000000000600082015250565b6000614e5c601883613e30565b9150614e6782614e26565b602082019050919050565b60006020820190508181036000830152614e8b81614e4f565b9050919050565b7f4f70657261746f7220616c726561647920736574000000000000000000000000600082015250565b6000614ec8601483613e30565b9150614ed382614e92565b602082019050919050565b60006020820190508181036000830152614ef781614ebb565b9050919050565b6000614f0a8285614a0d565b9150614f168284614a0d565b91508190509392505050565b6000614f2d82613cab565b91507fffffffffffffffffffffffffffffffffffffffffffffffffffffffffffffffff8203614f5f57614f5e614a84565b5b600182019050919050565b60008190508160005260206000209050919050565b60006020601f8301049050919050565b600082821b905092915050565b600060088302614fcc7fffffffffffffffffffffffffffffffffffffffffffffffffffffffffffffffff82614f8f565b614fd68683614f8f565b95508019841693508086168417925050509392505050565b6000819050919050565b600061501361500e61500984613cab565b614fee565b613cab565b9050919050565b6000819050919050565b61502d83614ff8565b6150416150398261501a565b848454614f9c565b825550505050565b600090565b615056615049565b615061818484615024565b505050565b5b818110156150855761507a60008261504e565b600181019050615067565b5050565b601f8211156150ca5761509b81614f6a565b6150a484614f7f565b810160208510156150b3578190505b6150c76150bf85614f7f565b830182615066565b50505b505050565b600082821c905092915050565b60006150ed600019846008026150cf565b1980831691505092915050565b600061510683836150dc565b9150826002028217905092915050565b61511f82613e25565b67ffffffffffffffff81111561513857615137614105565b5b61514282546148f9565b61514d828285615089565b600060209050601f831160018114615180576000841561516e578287015190505b61517885826150fa565b8655506151e0565b601f19841661518e86614f6a565b60005b828110156151b657848901518255600182019150602085019450602081019050615191565b868310156151d357848901516151cf601f8916826150dc565b8355505b6001600288020188555050505b505050505050565b7f526174656420616464726573732063616e6e6f74206265207a65726f00000000600082015250565b600061521e601c83613e30565b9150615229826151e8565b602082019050919050565b6000602082019050818103600083015261524d81615211565b9050919050565b7f526174696e67206d757374206265206265747765656e202d31323720616e642060008201527f3132370000000000000000000000000000000000000000000000000000000000602082015250565b60006152b0602383613e30565b91506152bb82615254565b604082019050919050565b600060208201905081810360008301526152df816152a3565b9050919050565b60006040820190506152fb6000830185613d40565b615308602083018461442c565b9392505050565b7f52656d6f76656420616464726573732063616e6e6f74206265207a65726f0000600082015250565b6000615345601e83613e30565b91506153508261530f565b602082019050919050565b6000602082019050818103600083015261537481615338565b9050919050565b60006060820190506153906000830186613d40565b61539d60208301856142cc565b6153aa6040830184613d40565b949350505050565b600081519050919050565b600082825260208201905092915050565b60006153d9826153b2565b6153e381856153bd565b93506153f3818560208601613e41565b6153fc81613e6b565b840191505092915050565b600060808201905061541c6000830187613d40565b6154296020830186613d40565b61543660408301856142cc565b818103606083015261544881846153ce565b905095945050505050565b60008151905061546281613d96565b92915050565b60006020828403121561547e5761547d613ca1565b5b600061548c84828501615453565b91505092915050565b7f4552433732314d657461646174613a2055524920736574206f66206e6f6e657860008201527f697374656e7420746f6b656e0000000000000000000000000000000000000000602082015250565b60006154f1602c83613e30565b91506154fc82615495565b604082019050919050565b60006020820190508181036000830152615520816154e4565b9050919050565b600060408201905061553c6000830185613d40565b6155496020830184614066565b9392505050565b60006040820190506155656000830185613d40565b61557260208301846142cc565b939250505056fea2646970667358221220a0eeb172410603aac628ec024509c019b3b214447988e59cfc232335606b031a64736f6c634300081c0033",
  "linkReferences": {},
  "deployedLinkReferences": {}
}