{
  "_format": "hh-sol-artifact-1",
  "contractName": "SsdlabToken",
  "sourceName": "contracts/SsdlabToken.sol",
  "abi": [
    {
      "inputs": [
        {
          "internalType": "address",
          "name": "teacher",
          "type": "address"
        },
        {
          "internalType": "address",
          "name": "student",
          "type": "address"
        }
      ],
      "stateMutability": "nonpayable",
      "type": "constructor"
    },
    {
      "inputs": [],
      "name": "AccessControlBadConfirmation",
      "type": "error"
    },
    {
      "inputs": [
        {
          "internalType": "address",
          "name": "account",
          "type": "address"
        },
        {
          "internalType": "bytes32",
          "name": "neededRole",
          "type": "bytes32"
        }
      ],
      "name": "AccessControlUnauthorizedAccount",
      "type": "error"
    },
    {
      "inputs": [
        {
          "internalType": "address",
          "name": "sender",
          "type": "address"
        },
        {
          "internalType": "uint256",
          "name": "tokenId",
          "type": "uint256"
        },
        {
          "internalType": "address",
          "name": "owner",
          "type": "address"
        }
      ],
      "name": "ERC721IncorrectOwner",
      "type": "error"
    },
    {
      "inputs": [
        {
          "internalType": "address",
          "name": "operator",
          "type": "address"
        },
        {
          "internalType": "uint256",
          "name": "tokenId",
          "type": "uint256"
        }
      ],
      "name": "ERC721InsufficientApproval",
      "type": "error"
    },
    {
      "inputs": [
        {
          "internalType": "address",
          "name": "approver",
          "type": "address"
        }
      ],
      "name": "ERC721InvalidApprover",
      "type": "error"
    },
    {
      "inputs": [
        {
          "internalType": "address",
          "name": "operator",
          "type": "address"
        }
      ],
      "name": "ERC721InvalidOperator",
      "type": "error"
    },
    {
      "inputs": [
        {
          "internalType": "address",
          "name": "owner",
          "type": "address"
        }
      ],
      "name": "ERC721InvalidOwner",
      "type": "error"
    },
    {
      "inputs": [
        {
          "internalType": "address",
          "name": "receiver",
          "type": "address"
        }
      ],
      "name": "ERC721InvalidReceiver",
      "type": "error"
    },
    {
      "inputs": [
        {
          "internalType": "address",
          "name": "sender",
          "type": "address"
        }
      ],
      "name": "ERC721InvalidSender",
      "type": "error"
    },
    {
      "inputs": [
        {
          "internalType": "uint256",
          "name": "tokenId",
          "type": "uint256"
        }
      ],
      "name": "ERC721NonexistentToken",
      "type": "error"
    },
    {
      "anonymous": false,
      "inputs": [
        {
          "indexed": true,
          "internalType": "address",
          "name": "owner",
          "type": "address"
        },
        {
          "indexed": true,
          "internalType": "address",
          "name": "approved",
          "type": "address"
        },
        {
          "indexed": true,
          "internalType": "uint256",
          "name": "tokenId",
          "type": "uint256"
        }
      ],
      "name": "Approval",
      "type": "event"
    },
    {
      "anonymous": false,
      "inputs": [
        {
          "indexed": true,
          "internalType": "address",
          "name": "owner",
          "type": "address"
        },
        {
          "indexed": true,
          "internalType": "address",
          "name": "operator",
          "type": "address"
        },
        {
          "indexed": false,
          "internalType": "bool",
          "name": "approved",
          "type": "bool"
        }
      ],
      "name": "ApprovalForAll",
      "type": "event"
    },
    {
      "anonymous": false,
      "inputs": [
        {
          "indexed": true,
          "internalType": "bytes32",
          "name": "role",
          "type": "bytes32"
        },
        {
          "indexed": true,
          "internalType": "bytes32",
          "name": "previousAdminRole",
          "type": "bytes32"
        },
        {
          "indexed": true,
          "internalType": "bytes32",
          "name": "newAdminRole",
          "type": "bytes32"
        }
      ],
      "name": "RoleAdminChanged",
      "type": "event"
    },
    {
      "anonymous": false,
      "inputs": [
        {
          "indexed": true,
          "internalType": "bytes32",
          "name": "role",
          "type": "bytes32"
        },
        {
          "indexed": true,
          "internalType": "address",
          "name": "account",
          "type": "address"
        },
        {
          "indexed": true,
          "internalType": "address",
          "name": "sender",
          "type": "address"
        }
      ],
      "name": "RoleGranted",
      "type": "event"
    },
    {
      "anonymous": false,
      "inputs": [
        {
          "indexed": true,
          "internalType": "bytes32",
          "name": "role",
          "type": "bytes32"
        },
        {
          "indexed": true,
          "internalType": "address",
          "name": "account",
          "type": "address"
        },
        {
          "indexed": true,
          "internalType": "address",
          "name": "sender",
          "type": "address"
        }
      ],
      "name": "RoleRevoked",
      "type": "event"
    },
    {
      "anonymous": false,
      "inputs": [
        {
          "indexed": true,
          "internalType": "address",
          "name": "from",
          "type": "address"
        },
        {
          "indexed": true,
          "internalType": "address",
          "name": "to",
          "type": "address"
        },
        {
          "indexed": true,
          "internalType": "uint256",
          "name": "tokenId",
          "type": "uint256"
        }
      ],
      "name": "Transfer",
      "type": "event"
    },
    {
      "inputs": [],
      "name": "DEFAULT_ADMIN_ROLE",
      "outputs": [
        {
          "internalType": "bytes32",
          "name": "",
          "type": "bytes32"
        }
      ],
      "stateMutability": "view",
      "type": "function"
    },
    {
      "inputs": [],
      "name": "STUDENTS_ROLE",
      "outputs": [
        {
          "internalType": "bytes32",
          "name": "",
          "type": "bytes32"
        }
      ],
      "stateMutability": "view",
      "type": "function"
    },
    {
      "inputs": [],
      "name": "TEACHER_ROLE",
      "outputs": [
        {
          "internalType": "bytes32",
          "name": "",
          "type": "bytes32"
        }
      ],
      "stateMutability": "view",
      "type": "function"
    },
    {
      "inputs": [
        {
          "internalType": "address",
          "name": "to",
          "type": "address"
        },
        {
          "internalType": "uint256",
          "name": "tokenId",
          "type": "uint256"
        }
      ],
      "name": "approve",
      "outputs": [],
      "stateMutability": "nonpayable",
      "type": "function"
    },
    {
      "inputs": [
        {
          "internalType": "address",
          "name": "owner",
          "type": "address"
        }
      ],
      "name": "balanceOf",
      "outputs": [
        {
          "internalType": "uint256",
          "name": "",
          "type": "uint256"
        }
      ],
      "stateMutability": "view",
      "type": "function"
    },
    {
      "inputs": [
        {
          "internalType": "uint256",
          "name": "tokenId",
          "type": "uint256"
        }
      ],
      "name": "getApproved",
      "outputs": [
        {
          "internalType": "address",
          "name": "",
          "type": "address"
        }
      ],
      "stateMutability": "view",
      "type": "function"
    },
    {
      "inputs": [
        {
          "internalType": "uint256",
          "name": "tokenId",
          "type": "uint256"
        }
      ],
      "name": "getExchangeTokenId",
      "outputs": [
        {
          "internalType": "uint256",
          "name": "",
          "type": "uint256"
        }
      ],
      "stateMutability": "view",
      "type": "function"
    },
    {
      "inputs": [
        {
          "internalType": "bytes32",
          "name": "role",
          "type": "bytes32"
        }
      ],
      "name": "getRoleAdmin",
      "outputs": [
        {
          "internalType": "bytes32",
          "name": "",
          "type": "bytes32"
        }
      ],
      "stateMutability": "view",
      "type": "function"
    },
    {
      "inputs": [
        {
          "internalType": "uint256",
          "name": "tokenId",
          "type": "uint256"
        }
      ],
      "name": "getTokenName",
      "outputs": [
        {
          "internalType": "string",
          "name": "",
          "type": "string"
        }
      ],
      "stateMutability": "view",
      "type": "function"
    },
    {
      "inputs": [
        {
          "internalType": "string",
          "name": "userName",
          "type": "string"
        }
      ],
      "name": "getUserAddress",
      "outputs": [
        {
          "internalType": "address",
          "name": "",
          "type": "address"
        }
      ],
      "stateMutability": "view",
      "type": "function"
    },
    {
      "inputs": [
        {
          "internalType": "bytes32",
          "name": "role",
          "type": "bytes32"
        },
        {
          "internalType": "address",
          "name": "account",
          "type": "address"
        }
      ],
      "name": "grantRole",
      "outputs": [],
      "stateMutability": "nonpayable",
      "type": "function"
    },
    {
      "inputs": [
        {
          "internalType": "bytes32",
          "name": "role",
          "type": "bytes32"
        },
        {
          "internalType": "address",
          "name": "account",
          "type": "address"
        }
      ],
      "name": "hasRole",
      "outputs": [
        {
          "internalType": "bool",
          "name": "",
          "type": "bool"
        }
      ],
      "stateMutability": "view",
      "type": "function"
    },
    {
      "inputs": [
        {
          "internalType": "address",
          "name": "owner",
          "type": "address"
        },
        {
          "internalType": "address",
          "name": "operator",
          "type": "address"
        }
      ],
      "name": "isApprovedForAll",
      "outputs": [
        {
          "internalType": "bool",
          "name": "",
          "type": "bool"
        }
      ],
      "stateMutability": "view",
      "type": "function"
    },
    {
      "inputs": [],
      "name": "name",
      "outputs": [
        {
          "internalType": "string",
          "name": "",
          "type": "string"
        }
      ],
      "stateMutability": "view",
      "type": "function"
    },
    {
      "inputs": [
        {
          "internalType": "uint256",
          "name": "tokenId",
          "type": "uint256"
        }
      ],
      "name": "ownerOf",
      "outputs": [
        {
          "internalType": "address",
          "name": "",
          "type": "address"
        }
      ],
      "stateMutability": "view",
      "type": "function"
    },
    {
      "inputs": [
        {
          "internalType": "bytes32",
          "name": "role",
          "type": "bytes32"
        },
        {
          "internalType": "address",
          "name": "callerConfirmation",
          "type": "address"
        }
      ],
      "name": "renounceRole",
      "outputs": [],
      "stateMutability": "nonpayable",
      "type": "function"
    },
    {
      "inputs": [
        {
          "internalType": "bytes32",
          "name": "role",
          "type": "bytes32"
        },
        {
          "internalType": "address",
          "name": "account",
          "type": "address"
        }
      ],
      "name": "revokeRole",
      "outputs": [],
      "stateMutability": "nonpayable",
      "type": "function"
    },
    {
      "inputs": [
        {
          "internalType": "address",
          "name": "to",
          "type": "address"
        },
        {
          "internalType": "string",
          "name": "_tokenName",
          "type": "string"
        }
      ],
      "name": "safeMint",
      "outputs": [
        {
          "internalType": "uint256",
          "name": "",
          "type": "uint256"
        }
      ],
      "stateMutability": "nonpayable",
      "type": "function"
    },
    {
      "inputs": [
        {
          "internalType": "address",
          "name": "from",
          "type": "address"
        },
        {
          "internalType": "address",
          "name": "to",
          "type": "address"
        },
        {
          "internalType": "uint256",
          "name": "tokenId",
          "type": "uint256"
        }
      ],
      "name": "safeTransferFrom",
      "outputs": [],
      "stateMutability": "nonpayable",
      "type": "function"
    },
    {
      "inputs": [
        {
          "internalType": "address",
          "name": "from",
          "type": "address"
        },
        {
          "internalType": "address",
          "name": "to",
          "type": "address"
        },
        {
          "internalType": "uint256",
          "name": "tokenId",
          "type": "uint256"
        },
        {
          "internalType": "bytes",
          "name": "data",
          "type": "bytes"
        }
      ],
      "name": "safeTransferFrom",
      "outputs": [],
      "stateMutability": "nonpayable",
      "type": "function"
    },
    {
      "inputs": [
        {
          "internalType": "address",
          "name": "operator",
          "type": "address"
        },
        {
          "internalType": "bool",
          "name": "approved",
          "type": "bool"
        }
      ],
      "name": "setApprovalForAll",
      "outputs": [],
      "stateMutability": "nonpayable",
      "type": "function"
    },
    {
      "inputs": [
        {
          "internalType": "uint256",
          "name": "tokenId",
          "type": "uint256"
        },
        {
          "internalType": "uint256",
          "name": "exchangeTokenId",
          "type": "uint256"
        }
      ],
      "name": "setExchangeTokenId",
      "outputs": [],
      "stateMutability": "nonpayable",
      "type": "function"
    },
    {
      "inputs": [
        {
          "internalType": "uint256",
          "name": "tokenId",
          "type": "uint256"
        },
        {
          "internalType": "string",
          "name": "tokenName",
          "type": "string"
        }
      ],
      "name": "setTokenName",
      "outputs": [],
      "stateMutability": "nonpayable",
      "type": "function"
    },
    {
      "inputs": [
        {
          "internalType": "string",
          "name": "userName",
          "type": "string"
        },
        {
          "internalType": "address",
          "name": "userAddress",
          "type": "address"
        }
      ],
      "name": "setUserAddress",
      "outputs": [],
      "stateMutability": "nonpayable",
      "type": "function"
    },
    {
      "inputs": [
        {
          "internalType": "bytes4",
          "name": "interfaceId",
          "type": "bytes4"
        }
      ],
      "name": "supportsInterface",
      "outputs": [
        {
          "internalType": "bool",
          "name": "",
          "type": "bool"
        }
      ],
      "stateMutability": "view",
      "type": "function"
    },
    {
      "inputs": [],
      "name": "symbol",
      "outputs": [
        {
          "internalType": "string",
          "name": "",
          "type": "string"
        }
      ],
      "stateMutability": "view",
      "type": "function"
    },
    {
      "inputs": [
        {
          "internalType": "uint256",
          "name": "tokenId",
          "type": "uint256"
        }
      ],
      "name": "tokenURI",
      "outputs": [
        {
          "internalType": "string",
          "name": "",
          "type": "string"
        }
      ],
      "stateMutability": "view",
      "type": "function"
    },
    {
      "inputs": [
        {
          "internalType": "address",
          "name": "from",
          "type": "address"
        },
        {
          "internalType": "address",
          "name": "to",
          "type": "address"
        },
        {
          "internalType": "uint256",
          "name": "tokenId",
          "type": "uint256"
        }
      ],
      "name": "transferFrom",
      "outputs": [],
      "stateMutability": "nonpayable",
      "type": "function"
    }
  ],
  "bytecode": "0x608060405234801561001057600080fd5b506040516133a73803806133a7833981810160405281019061003291906102ba565b6040518060400160405280600781526020017f4d79546f6b656e00000000000000000000000000000000000000000000000000815250604051806020016040528060008152508160009081610087919061054a565b508060019081610097919061054a565b5050506100ad6000801b836100e660201b60201c565b506100de7f5eeefbd1446176eeb282e93f50761c372c4e4e43ec23a79407cb9bf29660c4ce826100e660201b60201c565b50505061061c565b60006100f883836101e460201b60201c565b6101d95760016006600085815260200190815260200160002060000160008473ffffffffffffffffffffffffffffffffffffffff1673ffffffffffffffffffffffffffffffffffffffff16815260200190815260200160002060006101000a81548160ff02191690831515021790555061017661024f60201b60201c565b73ffffffffffffffffffffffffffffffffffffffff168273ffffffffffffffffffffffffffffffffffffffff16847f2f8788117e7eff1d82e926ec794901d17c78024a50270940304540a733656f0d60405160405180910390a4600190506101de565b600090505b92915050565b60006006600084815260200190815260200160002060000160008373ffffffffffffffffffffffffffffffffffffffff1673ffffffffffffffffffffffffffffffffffffffff16815260200190815260200160002060009054906101000a900460ff16905092915050565b600033905090565b600080fd5b600073ffffffffffffffffffffffffffffffffffffffff82169050919050565b60006102878261025c565b9050919050565b6102978161027c565b81146102a257600080fd5b50565b6000815190506102b48161028e565b92915050565b600080604083850312156102d1576102d0610257565b5b60006102df858286016102a5565b92505060206102f0858286016102a5565b9150509250929050565b600081519050919050565b7f4e487b7100000000000000000000000000000000000000000000000000000000600052604160045260246000fd5b7f4e487b7100000000000000000000000000000000000000000000000000000000600052602260045260246000fd5b6000600282049050600182168061037b57607f821691505b60208210810361038e5761038d610334565b5b50919050565b60008190508160005260206000209050919050565b60006020601f8301049050919050565b600082821b905092915050565b6000600883026103f67fffffffffffffffffffffffffffffffffffffffffffffffffffffffffffffffff826103b9565b61040086836103b9565b95508019841693508086168417925050509392505050565b6000819050919050565b6000819050919050565b600061044761044261043d84610418565b610422565b610418565b9050919050565b6000819050919050565b6104618361042c565b61047561046d8261044e565b8484546103c6565b825550505050565b600090565b61048a61047d565b610495818484610458565b505050565b5b818110156104b9576104ae600082610482565b60018101905061049b565b5050565b601f8211156104fe576104cf81610394565b6104d8846103a9565b810160208510156104e7578190505b6104fb6104f3856103a9565b83018261049a565b50505b505050565b600082821c905092915050565b600061052160001984600802610503565b1980831691505092915050565b600061053a8383610510565b9150826002028217905092915050565b610553826102fa565b67ffffffffffffffff81111561056c5761056b610305565b5b6105768254610363565b6105818282856104bd565b600060209050601f8311600181146105b457600084156105a2578287015190505b6105ac858261052e565b865550610614565b601f1984166105c286610394565b60005b828110156105ea578489015182556001820191506020850194506020810190506105c5565b868310156106075784890151610603601f891682610510565b8355505b6001600288020188555050505b505050505050565b612d7c8061062b6000396000f3fe608060405234801561001057600080fd5b50600436106101c45760003560e01c806386e5c15a116100f9578063c87b56dd11610097578063d547741f11610071578063d547741f14610539578063dbe16c0714610555578063e2133bef14610585578063e985e9c5146105a3576101c4565b8063c87b56dd146104bd578063cdb0e89e146104ed578063d204c45e14610509576101c4565b8063a217fddf116100d3578063a217fddf1461044b578063a22cb46514610469578063b88d4fde14610485578063c422c9bb146104a1576101c4565b806386e5c15a146103df57806391d14854146103fd57806395d89b411461042d576101c4565b80632f2ff15d116101665780634985e85c116101405780634985e85c1461031f5780636352211e1461034f57806370a082311461037f57806385ef3ded146103af576101c4565b80632f2ff15d146102cb57806336568abe146102e757806342842e0e14610303576101c4565b8063095ea7b3116101a2578063095ea7b31461024757806323b872dd14610263578063248a9ca31461027f5780632c588077146102af576101c4565b806301ffc9a7146101c957806306fdde03146101f9578063081812fc14610217575b600080fd5b6101e360048036038101906101de9190611f86565b6105d3565b6040516101f09190611fce565b60405180910390f35b6102016105e5565b60405161020e9190612079565b60405180910390f35b610231600480360381019061022c91906120d1565b610677565b60405161023e919061213f565b60405180910390f35b610261600480360381019061025c9190612186565b610693565b005b61027d600480360381019061027891906121c6565b6106a9565b005b6102996004803603810190610294919061224f565b6107ab565b6040516102a6919061228b565b60405180910390f35b6102c960048036038101906102c491906123db565b6107cb565b005b6102e560048036038101906102e09190612437565b61082c565b005b61030160048036038101906102fc9190612437565b61084e565b005b61031d600480360381019061031891906121c6565b6108c9565b005b61033960048036038101906103349190612477565b6108e9565b604051610346919061213f565b60405180910390f35b610369600480360381019061036491906120d1565b610931565b604051610376919061213f565b60405180910390f35b610399600480360381019061039491906124c0565b610943565b6040516103a691906124fc565b60405180910390f35b6103c960048036038101906103c491906120d1565b6109fd565b6040516103d691906124fc565b60405180910390f35b6103e7610a1a565b6040516103f4919061228b565b60405180910390f35b61041760048036038101906104129190612437565b610a3e565b6040516104249190611fce565b60405180910390f35b610435610aa9565b6040516104429190612079565b60405180910390f35b610453610b3b565b604051610460919061228b565b60405180910390f35b610483600480360381019061047e9190612543565b610b42565b005b61049f600480360381019061049a9190612624565b610b58565b005b6104bb60048036038101906104b691906126a7565b610b7d565b005b6104d760048036038101906104d291906120d1565b610b99565b6040516104e49190612079565b60405180910390f35b610507600480360381019061050291906126e7565b610c02565b005b610523600480360381019061051e9190612743565b610c27565b60405161053091906124fc565b60405180910390f35b610553600480360381019061054e9190612437565b610c78565b005b61056f600480360381019061056a91906120d1565b610c9a565b60405161057c9190612079565b60405180910390f35b61058d610d3f565b60405161059a919061228b565b60405180910390f35b6105bd60048036038101906105b8919061279f565b610d63565b6040516105ca9190611fce565b60405180910390f35b60006105de82610df7565b9050919050565b6060600080546105f49061280e565b80601f01602080910402602001604051908101604052809291908181526020018280546106209061280e565b801561066d5780601f106106425761010080835404028352916020019161066d565b820191906000526020600020905b81548152906001019060200180831161065057829003601f168201915b5050505050905090565b600061068282610e71565b5061068c82610ef9565b9050919050565b6106a582826106a0610f36565b610f3e565b5050565b600073ffffffffffffffffffffffffffffffffffffffff168273ffffffffffffffffffffffffffffffffffffffff160361071b5760006040517f64a0ae92000000000000000000000000000000000000000000000000000000008152600401610712919061213f565b60405180910390fd5b600061072f838361072a610f36565b610f50565b90508373ffffffffffffffffffffffffffffffffffffffff168173ffffffffffffffffffffffffffffffffffffffff16146107a5578382826040517f64283d7b00000000000000000000000000000000000000000000000000000000815260040161079c9392919061283f565b60405180910390fd5b50505050565b600060066000838152602001908152602001600020600101549050919050565b80600a836040516107dc91906128b2565b908152602001604051809103902060006101000a81548173ffffffffffffffffffffffffffffffffffffffff021916908373ffffffffffffffffffffffffffffffffffffffff1602179055505050565b610835826107ab565b61083e8161116a565b610848838361117e565b50505050565b610856610f36565b73ffffffffffffffffffffffffffffffffffffffff168173ffffffffffffffffffffffffffffffffffffffff16146108ba576040517f6697b23200000000000000000000000000000000000000000000000000000000815260040160405180910390fd5b6108c48282611270565b505050565b6108e483838360405180602001604052806000815250610b58565b505050565b6000600a826040516108fb91906128b2565b908152602001604051809103902060009054906101000a900473ffffffffffffffffffffffffffffffffffffffff169050919050565b600061093c82610e71565b9050919050565b60008073ffffffffffffffffffffffffffffffffffffffff168273ffffffffffffffffffffffffffffffffffffffff16036109b65760006040517f89c62b640000000000000000000000000000000000000000000000000000000081526004016109ad919061213f565b60405180910390fd5b600360008373ffffffffffffffffffffffffffffffffffffffff1673ffffffffffffffffffffffffffffffffffffffff168152602001908152602001600020549050919050565b600060096000838152602001908152602001600020549050919050565b7fd16e204b8a42a15ab0ea6bb8ec1ecdfbe69f38074fc865323af19efe7d9573d981565b60006006600084815260200190815260200160002060000160008373ffffffffffffffffffffffffffffffffffffffff1673ffffffffffffffffffffffffffffffffffffffff16815260200190815260200160002060009054906101000a900460ff16905092915050565b606060018054610ab89061280e565b80601f0160208091040260200160405190810160405280929190818152602001828054610ae49061280e565b8015610b315780601f10610b0657610100808354040283529160200191610b31565b820191906000526020600020905b815481529060010190602001808311610b1457829003601f168201915b5050505050905090565b6000801b81565b610b54610b4d610f36565b8383611363565b5050565b610b638484846106a9565b610b77610b6e610f36565b858585856114d2565b50505050565b8060096000848152602001908152602001600020819055505050565b6060610ba482610e71565b506000610baf611683565b90506000815111610bcf5760405180602001604052806000815250610bfa565b80610bd98461169a565b604051602001610bea9291906128c9565b6040516020818303038152906040525b915050919050565b80600860008481526020019081526020016000209081610c229190612a99565b505050565b60008060076000815480929190610c3d90612b9a565b919050559050610c4d8482611768565b82600860008381526020019081526020016000209081610c6d9190612a99565b508091505092915050565b610c81826107ab565b610c8a8161116a565b610c948383611270565b50505050565b6060600860008381526020019081526020016000208054610cba9061280e565b80601f0160208091040260200160405190810160405280929190818152602001828054610ce69061280e565b8015610d335780601f10610d0857610100808354040283529160200191610d33565b820191906000526020600020905b815481529060010190602001808311610d1657829003601f168201915b50505050509050919050565b7f5eeefbd1446176eeb282e93f50761c372c4e4e43ec23a79407cb9bf29660c4ce81565b6000600560008473ffffffffffffffffffffffffffffffffffffffff1673ffffffffffffffffffffffffffffffffffffffff16815260200190815260200160002060008373ffffffffffffffffffffffffffffffffffffffff1673ffffffffffffffffffffffffffffffffffffffff16815260200190815260200160002060009054906101000a900460ff16905092915050565b60007f7965db0b000000000000000000000000000000000000000000000000000000007bffffffffffffffffffffffffffffffffffffffffffffffffffffffff1916827bffffffffffffffffffffffffffffffffffffffffffffffffffffffff19161480610e6a5750610e6982611786565b5b9050919050565b600080610e7d83611868565b9050600073ffffffffffffffffffffffffffffffffffffffff168173ffffffffffffffffffffffffffffffffffffffff1603610ef057826040517f7e273289000000000000000000000000000000000000000000000000000000008152600401610ee791906124fc565b60405180910390fd5b80915050919050565b60006004600083815260200190815260200160002060009054906101000a900473ffffffffffffffffffffffffffffffffffffffff169050919050565b600033905090565b610f4b83838360016118a5565b505050565b600080610f5c84611868565b9050600073ffffffffffffffffffffffffffffffffffffffff168373ffffffffffffffffffffffffffffffffffffffff1614610f9e57610f9d818486611a6a565b5b600073ffffffffffffffffffffffffffffffffffffffff168173ffffffffffffffffffffffffffffffffffffffff161461102f57610fe06000856000806118a5565b6001600360008373ffffffffffffffffffffffffffffffffffffffff1673ffffffffffffffffffffffffffffffffffffffff168152602001908152602001600020600082825403925050819055505b600073ffffffffffffffffffffffffffffffffffffffff168573ffffffffffffffffffffffffffffffffffffffff16146110b2576001600360008773ffffffffffffffffffffffffffffffffffffffff1673ffffffffffffffffffffffffffffffffffffffff168152602001908152602001600020600082825401925050819055505b846002600086815260200190815260200160002060006101000a81548173ffffffffffffffffffffffffffffffffffffffff021916908373ffffffffffffffffffffffffffffffffffffffff160217905550838573ffffffffffffffffffffffffffffffffffffffff168273ffffffffffffffffffffffffffffffffffffffff167fddf252ad1be2c89b69c2b068fc378daa952ba7f163c4a11628f55a4df523b3ef60405160405180910390a4809150509392505050565b61117b81611176610f36565b611b2e565b50565b600061118a8383610a3e565b6112655760016006600085815260200190815260200160002060000160008473ffffffffffffffffffffffffffffffffffffffff1673ffffffffffffffffffffffffffffffffffffffff16815260200190815260200160002060006101000a81548160ff021916908315150217905550611202610f36565b73ffffffffffffffffffffffffffffffffffffffff168273ffffffffffffffffffffffffffffffffffffffff16847f2f8788117e7eff1d82e926ec794901d17c78024a50270940304540a733656f0d60405160405180910390a46001905061126a565b600090505b92915050565b600061127c8383610a3e565b156113585760006006600085815260200190815260200160002060000160008473ffffffffffffffffffffffffffffffffffffffff1673ffffffffffffffffffffffffffffffffffffffff16815260200190815260200160002060006101000a81548160ff0219169083151502179055506112f5610f36565b73ffffffffffffffffffffffffffffffffffffffff168273ffffffffffffffffffffffffffffffffffffffff16847ff6391f5c32d9c69d2a47ea670b442974b53935d1edc7fd64eb21e047a839171b60405160405180910390a46001905061135d565b600090505b92915050565b600073ffffffffffffffffffffffffffffffffffffffff168273ffffffffffffffffffffffffffffffffffffffff16036113d457816040517f5b08ba180000000000000000000000000000000000000000000000000000000081526004016113cb919061213f565b60405180910390fd5b80600560008573ffffffffffffffffffffffffffffffffffffffff1673ffffffffffffffffffffffffffffffffffffffff16815260200190815260200160002060008473ffffffffffffffffffffffffffffffffffffffff1673ffffffffffffffffffffffffffffffffffffffff16815260200190815260200160002060006101000a81548160ff0219169083151502179055508173ffffffffffffffffffffffffffffffffffffffff168373ffffffffffffffffffffffffffffffffffffffff167f17307eab39ab6107e8899845ad3d59bd9653f200f220920489ca2b5937696c31836040516114c59190611fce565b60405180910390a3505050565b60008373ffffffffffffffffffffffffffffffffffffffff163b111561167c578273ffffffffffffffffffffffffffffffffffffffff1663150b7a02868685856040518563ffffffff1660e01b81526004016115319493929190612c37565b6020604051808303816000875af192505050801561156d57506040513d601f19601f8201168201806040525081019061156a9190612c98565b60015b6115f1573d806000811461159d576040519150601f19603f3d011682016040523d82523d6000602084013e6115a2565b606091505b5060008151036115e957836040517f64a0ae920000000000000000000000000000000000000000000000000000000081526004016115e0919061213f565b60405180910390fd5b805181602001fd5b63150b7a0260e01b7bffffffffffffffffffffffffffffffffffffffffffffffffffffffff1916817bffffffffffffffffffffffffffffffffffffffffffffffffffffffff19161461167a57836040517f64a0ae92000000000000000000000000000000000000000000000000000000008152600401611671919061213f565b60405180910390fd5b505b5050505050565b606060405180602001604052806000815250905090565b6060600060016116a984611b7f565b01905060008167ffffffffffffffff8111156116c8576116c76122b0565b5b6040519080825280601f01601f1916602001820160405280156116fa5781602001600182028036833780820191505090505b509050600082602001820190505b60011561175d578080600190039150507f3031323334353637383961626364656600000000000000000000000000000000600a86061a8153600a858161175157611750612cc5565b5b04945060008503611708575b819350505050919050565b611782828260405180602001604052806000815250611cd2565b5050565b60007f80ac58cd000000000000000000000000000000000000000000000000000000007bffffffffffffffffffffffffffffffffffffffffffffffffffffffff1916827bffffffffffffffffffffffffffffffffffffffffffffffffffffffff1916148061185157507f5b5e139f000000000000000000000000000000000000000000000000000000007bffffffffffffffffffffffffffffffffffffffffffffffffffffffff1916827bffffffffffffffffffffffffffffffffffffffffffffffffffffffff1916145b80611861575061186082611cf6565b5b9050919050565b60006002600083815260200190815260200160002060009054906101000a900473ffffffffffffffffffffffffffffffffffffffff169050919050565b80806118de5750600073ffffffffffffffffffffffffffffffffffffffff168273ffffffffffffffffffffffffffffffffffffffff1614155b15611a125760006118ee84610e71565b9050600073ffffffffffffffffffffffffffffffffffffffff168373ffffffffffffffffffffffffffffffffffffffff161415801561195957508273ffffffffffffffffffffffffffffffffffffffff168173ffffffffffffffffffffffffffffffffffffffff1614155b801561196c575061196a8184610d63565b155b156119ae57826040517fa9fbf51f0000000000000000000000000000000000000000000000000000000081526004016119a5919061213f565b60405180910390fd5b8115611a1057838573ffffffffffffffffffffffffffffffffffffffff168273ffffffffffffffffffffffffffffffffffffffff167f8c5be1e5ebec7d5bd14f71427d1e84f3dd0314c0f7b2291e5b200ac8c7c3b92560405160405180910390a45b505b836004600085815260200190815260200160002060006101000a81548173ffffffffffffffffffffffffffffffffffffffff021916908373ffffffffffffffffffffffffffffffffffffffff16021790555050505050565b611a75838383611d60565b611b2957600073ffffffffffffffffffffffffffffffffffffffff168373ffffffffffffffffffffffffffffffffffffffff1603611aea57806040517f7e273289000000000000000000000000000000000000000000000000000000008152600401611ae191906124fc565b60405180910390fd5b81816040517f177e802f000000000000000000000000000000000000000000000000000000008152600401611b20929190612cf4565b60405180910390fd5b505050565b611b388282610a3e565b611b7b5780826040517fe2517d3f000000000000000000000000000000000000000000000000000000008152600401611b72929190612d1d565b60405180910390fd5b5050565b600080600090507a184f03e93ff9f4daa797ed6e38ed64bf6a1f0100000000000000008310611bdd577a184f03e93ff9f4daa797ed6e38ed64bf6a1f0100000000000000008381611bd357611bd2612cc5565b5b0492506040810190505b6d04ee2d6d415b85acef81000000008310611c1a576d04ee2d6d415b85acef81000000008381611c1057611c0f612cc5565b5b0492506020810190505b662386f26fc100008310611c4957662386f26fc100008381611c3f57611c3e612cc5565b5b0492506010810190505b6305f5e1008310611c72576305f5e1008381611c6857611c67612cc5565b5b0492506008810190505b6127108310611c97576127108381611c8d57611c8c612cc5565b5b0492506004810190505b60648310611cba5760648381611cb057611caf612cc5565b5b0492506002810190505b600a8310611cc9576001810190505b80915050919050565b611cdc8383611e21565b611cf1611ce7610f36565b60008585856114d2565b505050565b60007f01ffc9a7000000000000000000000000000000000000000000000000000000007bffffffffffffffffffffffffffffffffffffffffffffffffffffffff1916827bffffffffffffffffffffffffffffffffffffffffffffffffffffffff1916149050919050565b60008073ffffffffffffffffffffffffffffffffffffffff168373ffffffffffffffffffffffffffffffffffffffff1614158015611e1857508273ffffffffffffffffffffffffffffffffffffffff168473ffffffffffffffffffffffffffffffffffffffff161480611dd95750611dd88484610d63565b5b80611e1757508273ffffffffffffffffffffffffffffffffffffffff16611dff83610ef9565b73ffffffffffffffffffffffffffffffffffffffff16145b5b90509392505050565b600073ffffffffffffffffffffffffffffffffffffffff168273ffffffffffffffffffffffffffffffffffffffff1603611e935760006040517f64a0ae92000000000000000000000000000000000000000000000000000000008152600401611e8a919061213f565b60405180910390fd5b6000611ea183836000610f50565b9050600073ffffffffffffffffffffffffffffffffffffffff168173ffffffffffffffffffffffffffffffffffffffff1614611f155760006040517f73c6ac6e000000000000000000000000000000000000000000000000000000008152600401611f0c919061213f565b60405180910390fd5b505050565b6000604051905090565b600080fd5b600080fd5b60007fffffffff0000000000000000000000000000000000000000000000000000000082169050919050565b611f6381611f2e565b8114611f6e57600080fd5b50565b600081359050611f8081611f5a565b92915050565b600060208284031215611f9c57611f9b611f24565b5b6000611faa84828501611f71565b91505092915050565b60008115159050919050565b611fc881611fb3565b82525050565b6000602082019050611fe36000830184611fbf565b92915050565b600081519050919050565b600082825260208201905092915050565b60005b83811015612023578082015181840152602081019050612008565b60008484015250505050565b6000601f19601f8301169050919050565b600061204b82611fe9565b6120558185611ff4565b9350612065818560208601612005565b61206e8161202f565b840191505092915050565b600060208201905081810360008301526120938184612040565b905092915050565b6000819050919050565b6120ae8161209b565b81146120b957600080fd5b50565b6000813590506120cb816120a5565b92915050565b6000602082840312156120e7576120e6611f24565b5b60006120f5848285016120bc565b91505092915050565b600073ffffffffffffffffffffffffffffffffffffffff82169050919050565b6000612129826120fe565b9050919050565b6121398161211e565b82525050565b60006020820190506121546000830184612130565b92915050565b6121638161211e565b811461216e57600080fd5b50565b6000813590506121808161215a565b92915050565b6000806040838503121561219d5761219c611f24565b5b60006121ab85828601612171565b92505060206121bc858286016120bc565b9150509250929050565b6000806000606084860312156121df576121de611f24565b5b60006121ed86828701612171565b93505060206121fe86828701612171565b925050604061220f868287016120bc565b9150509250925092565b6000819050919050565b61222c81612219565b811461223757600080fd5b50565b60008135905061224981612223565b92915050565b60006020828403121561226557612264611f24565b5b60006122738482850161223a565b91505092915050565b61228581612219565b82525050565b60006020820190506122a0600083018461227c565b92915050565b600080fd5b600080fd5b7f4e487b7100000000000000000000000000000000000000000000000000000000600052604160045260246000fd5b6122e88261202f565b810181811067ffffffffffffffff82111715612307576123066122b0565b5b80604052505050565b600061231a611f1a565b905061232682826122df565b919050565b600067ffffffffffffffff821115612346576123456122b0565b5b61234f8261202f565b9050602081019050919050565b82818337600083830152505050565b600061237e6123798461232b565b612310565b90508281526020810184848401111561239a576123996122ab565b5b6123a584828561235c565b509392505050565b600082601f8301126123c2576123c16122a6565b5b81356123d284826020860161236b565b91505092915050565b600080604083850312156123f2576123f1611f24565b5b600083013567ffffffffffffffff8111156124105761240f611f29565b5b61241c858286016123ad565b925050602061242d85828601612171565b9150509250929050565b6000806040838503121561244e5761244d611f24565b5b600061245c8582860161223a565b925050602061246d85828601612171565b9150509250929050565b60006020828403121561248d5761248c611f24565b5b600082013567ffffffffffffffff8111156124ab576124aa611f29565b5b6124b7848285016123ad565b91505092915050565b6000602082840312156124d6576124d5611f24565b5b60006124e484828501612171565b91505092915050565b6124f68161209b565b82525050565b600060208201905061251160008301846124ed565b92915050565b61252081611fb3565b811461252b57600080fd5b50565b60008135905061253d81612517565b92915050565b6000806040838503121561255a57612559611f24565b5b600061256885828601612171565b92505060206125798582860161252e565b9150509250929050565b600067ffffffffffffffff82111561259e5761259d6122b0565b5b6125a78261202f565b9050602081019050919050565b60006125c76125c284612583565b612310565b9050828152602081018484840111156125e3576125e26122ab565b5b6125ee84828561235c565b509392505050565b600082601f83011261260b5761260a6122a6565b5b813561261b8482602086016125b4565b91505092915050565b6000806000806080858703121561263e5761263d611f24565b5b600061264c87828801612171565b945050602061265d87828801612171565b935050604061266e878288016120bc565b925050606085013567ffffffffffffffff81111561268f5761268e611f29565b5b61269b878288016125f6565b91505092959194509250565b600080604083850312156126be576126bd611f24565b5b60006126cc858286016120bc565b92505060206126dd858286016120bc565b9150509250929050565b600080604083850312156126fe576126fd611f24565b5b600061270c858286016120bc565b925050602083013567ffffffffffffffff81111561272d5761272c611f29565b5b612739858286016123ad565b9150509250929050565b6000806040838503121561275a57612759611f24565b5b600061276885828601612171565b925050602083013567ffffffffffffffff81111561278957612788611f29565b5b612795858286016123ad565b9150509250929050565b600080604083850312156127b6576127b5611f24565b5b60006127c485828601612171565b92505060206127d585828601612171565b9150509250929050565b7f4e487b7100000000000000000000000000000000000000000000000000000000600052602260045260246000fd5b6000600282049050600182168061282657607f821691505b602082108103612839576128386127df565b5b50919050565b60006060820190506128546000830186612130565b61286160208301856124ed565b61286e6040830184612130565b949350505050565b600081905092915050565b600061288c82611fe9565b6128968185612876565b93506128a6818560208601612005565b80840191505092915050565b60006128be8284612881565b915081905092915050565b60006128d58285612881565b91506128e18284612881565b91508190509392505050565b60008190508160005260206000209050919050565b60006020601f8301049050919050565b600082821b905092915050565b60006008830261294f7fffffffffffffffffffffffffffffffffffffffffffffffffffffffffffffffff82612912565b6129598683612912565b95508019841693508086168417925050509392505050565b6000819050919050565b600061299661299161298c8461209b565b612971565b61209b565b9050919050565b6000819050919050565b6129b08361297b565b6129c46129bc8261299d565b84845461291f565b825550505050565b600090565b6129d96129cc565b6129e48184846129a7565b505050565b5b81811015612a08576129fd6000826129d1565b6001810190506129ea565b5050565b601f821115612a4d57612a1e816128ed565b612a2784612902565b81016020851015612a36578190505b612a4a612a4285612902565b8301826129e9565b50505b505050565b600082821c905092915050565b6000612a7060001984600802612a52565b1980831691505092915050565b6000612a898383612a5f565b9150826002028217905092915050565b612aa282611fe9565b67ffffffffffffffff811115612abb57612aba6122b0565b5b612ac5825461280e565b612ad0828285612a0c565b600060209050601f831160018114612b035760008415612af1578287015190505b612afb8582612a7d565b865550612b63565b601f198416612b11866128ed565b60005b82811015612b3957848901518255600182019150602085019450602081019050612b14565b86831015612b565784890151612b52601f891682612a5f565b8355505b6001600288020188555050505b505050505050565b7f4e487b7100000000000000000000000000000000000000000000000000000000600052601160045260246000fd5b6000612ba58261209b565b91507fffffffffffffffffffffffffffffffffffffffffffffffffffffffffffffffff8203612bd757612bd6612b6b565b5b600182019050919050565b600081519050919050565b600082825260208201905092915050565b6000612c0982612be2565b612c138185612bed565b9350612c23818560208601612005565b612c2c8161202f565b840191505092915050565b6000608082019050612c4c6000830187612130565b612c596020830186612130565b612c6660408301856124ed565b8181036060830152612c788184612bfe565b905095945050505050565b600081519050612c9281611f5a565b92915050565b600060208284031215612cae57612cad611f24565b5b6000612cbc84828501612c83565b91505092915050565b7f4e487b7100000000000000000000000000000000000000000000000000000000600052601260045260246000fd5b6000604082019050612d096000830185612130565b612d1660208301846124ed565b9392505050565b6000604082019050612d326000830185612130565b612d3f602083018461227c565b939250505056fea26469706673582212205a4fb54d3ff92b352656e3b65e2168ab4cf13dabfde6a6cee92f4534737cd9c664736f6c634300081c0033",
  "linkReferences": {},
  "deployedLinkReferences": {}
}