{
  "_format": "hh-sol-artifact-1",
  "contractName": "SsdlabToken",
  "sourceName": "contracts/SsdlabToken.sol",
  "abi": [
    {
      "inputs": [
        {
          "internalType": "address",
          "name": "agent",
          "type": "address"
        }
      ],
      "stateMutability": "nonpayable",
      "type": "constructor"
    },
    {
      "inputs": [],
      "name": "AccessControlBadConfirmation",
      "type": "error"
    },
    {
      "inputs": [
        {
          "internalType": "address",
          "name": "account",
          "type": "address"
        },
        {
          "internalType": "bytes32",
          "name": "neededRole",
          "type": "bytes32"
        }
      ],
      "name": "AccessControlUnauthorizedAccount",
      "type": "error"
    },
    {
      "inputs": [
        {
          "internalType": "address",
          "name": "sender",
          "type": "address"
        },
        {
          "internalType": "uint256",
          "name": "tokenId",
          "type": "uint256"
        },
        {
          "internalType": "address",
          "name": "owner",
          "type": "address"
        }
      ],
      "name": "ERC721IncorrectOwner",
      "type": "error"
    },
    {
      "inputs": [
        {
          "internalType": "address",
          "name": "operator",
          "type": "address"
        },
        {
          "internalType": "uint256",
          "name": "tokenId",
          "type": "uint256"
        }
      ],
      "name": "ERC721InsufficientApproval",
      "type": "error"
    },
    {
      "inputs": [
        {
          "internalType": "address",
          "name": "approver",
          "type": "address"
        }
      ],
      "name": "ERC721InvalidApprover",
      "type": "error"
    },
    {
      "inputs": [
        {
          "internalType": "address",
          "name": "operator",
          "type": "address"
        }
      ],
      "name": "ERC721InvalidOperator",
      "type": "error"
    },
    {
      "inputs": [
        {
          "internalType": "address",
          "name": "owner",
          "type": "address"
        }
      ],
      "name": "ERC721InvalidOwner",
      "type": "error"
    },
    {
      "inputs": [
        {
          "internalType": "address",
          "name": "receiver",
          "type": "address"
        }
      ],
      "name": "ERC721InvalidReceiver",
      "type": "error"
    },
    {
      "inputs": [
        {
          "internalType": "address",
          "name": "sender",
          "type": "address"
        }
      ],
      "name": "ERC721InvalidSender",
      "type": "error"
    },
    {
      "inputs": [
        {
          "internalType": "uint256",
          "name": "tokenId",
          "type": "uint256"
        }
      ],
      "name": "ERC721NonexistentToken",
      "type": "error"
    },
    {
      "anonymous": false,
      "inputs": [
        {
          "indexed": true,
          "internalType": "address",
          "name": "owner",
          "type": "address"
        },
        {
          "indexed": true,
          "internalType": "address",
          "name": "approved",
          "type": "address"
        },
        {
          "indexed": true,
          "internalType": "uint256",
          "name": "tokenId",
          "type": "uint256"
        }
      ],
      "name": "Approval",
      "type": "event"
    },
    {
      "anonymous": false,
      "inputs": [
        {
          "indexed": true,
          "internalType": "address",
          "name": "owner",
          "type": "address"
        },
        {
          "indexed": true,
          "internalType": "address",
          "name": "operator",
          "type": "address"
        },
        {
          "indexed": false,
          "internalType": "bool",
          "name": "approved",
          "type": "bool"
        }
      ],
      "name": "ApprovalForAll",
      "type": "event"
    },
    {
      "anonymous": false,
      "inputs": [
        {
          "indexed": true,
          "internalType": "address",
          "name": "userA",
          "type": "address"
        },
        {
          "indexed": true,
          "internalType": "address",
          "name": "userB",
          "type": "address"
        },
        {
          "indexed": false,
          "internalType": "uint256",
          "name": "edgeNumber",
          "type": "uint256"
        }
      ],
      "name": "ConnectionAdded",
      "type": "event"
    },
    {
      "anonymous": false,
      "inputs": [
        {
          "indexed": false,
          "internalType": "string",
          "name": "",
          "type": "string"
        }
      ],
      "name": "Fallback",
      "type": "event"
    },
    {
      "anonymous": false,
      "inputs": [
        {
          "indexed": false,
          "internalType": "string",
          "name": "",
          "type": "string"
        }
      ],
      "name": "Receive",
      "type": "event"
    },
    {
      "anonymous": false,
      "inputs": [
        {
          "indexed": true,
          "internalType": "bytes32",
          "name": "role",
          "type": "bytes32"
        },
        {
          "indexed": true,
          "internalType": "bytes32",
          "name": "previousAdminRole",
          "type": "bytes32"
        },
        {
          "indexed": true,
          "internalType": "bytes32",
          "name": "newAdminRole",
          "type": "bytes32"
        }
      ],
      "name": "RoleAdminChanged",
      "type": "event"
    },
    {
      "anonymous": false,
      "inputs": [
        {
          "indexed": true,
          "internalType": "bytes32",
          "name": "role",
          "type": "bytes32"
        },
        {
          "indexed": true,
          "internalType": "address",
          "name": "account",
          "type": "address"
        },
        {
          "indexed": true,
          "internalType": "address",
          "name": "sender",
          "type": "address"
        }
      ],
      "name": "RoleGranted",
      "type": "event"
    },
    {
      "anonymous": false,
      "inputs": [
        {
          "indexed": true,
          "internalType": "bytes32",
          "name": "role",
          "type": "bytes32"
        },
        {
          "indexed": true,
          "internalType": "address",
          "name": "account",
          "type": "address"
        },
        {
          "indexed": true,
          "internalType": "address",
          "name": "sender",
          "type": "address"
        }
      ],
      "name": "RoleRevoked",
      "type": "event"
    },
    {
      "anonymous": false,
      "inputs": [
        {
          "indexed": true,
          "internalType": "address",
          "name": "from",
          "type": "address"
        },
        {
          "indexed": true,
          "internalType": "address",
          "name": "to",
          "type": "address"
        },
        {
          "indexed": true,
          "internalType": "uint256",
          "name": "tokenId",
          "type": "uint256"
        }
      ],
      "name": "Transfer",
      "type": "event"
    },
    {
      "anonymous": false,
      "inputs": [
        {
          "indexed": true,
          "internalType": "address",
          "name": "user",
          "type": "address"
        }
      ],
      "name": "UserAdded",
      "type": "event"
    },
    {
      "stateMutability": "payable",
      "type": "fallback"
    },
    {
      "inputs": [],
      "name": "DEFAULT_ADMIN_ROLE",
      "outputs": [
        {
          "internalType": "bytes32",
          "name": "",
          "type": "bytes32"
        }
      ],
      "stateMutability": "view",
      "type": "function"
    },
    {
      "inputs": [
        {
          "internalType": "address",
          "name": "myAddress",
          "type": "address"
        },
        {
          "internalType": "address",
          "name": "targetAddress",
          "type": "address"
        }
      ],
      "name": "accessControl",
      "outputs": [
        {
          "internalType": "bool",
          "name": "",
          "type": "bool"
        }
      ],
      "stateMutability": "view",
      "type": "function"
    },
    {
      "inputs": [
        {
          "internalType": "address",
          "name": "userA",
          "type": "address"
        },
        {
          "internalType": "address",
          "name": "userB",
          "type": "address"
        }
      ],
      "name": "addEdge",
      "outputs": [
        {
          "internalType": "uint256",
          "name": "edgeNumber",
          "type": "uint256"
        }
      ],
      "stateMutability": "nonpayable",
      "type": "function"
    },
    {
      "inputs": [
        {
          "internalType": "address",
          "name": "user",
          "type": "address"
        }
      ],
      "name": "addVertex",
      "outputs": [],
      "stateMutability": "nonpayable",
      "type": "function"
    },
    {
      "inputs": [
        {
          "internalType": "address",
          "name": "",
          "type": "address"
        },
        {
          "internalType": "uint256",
          "name": "",
          "type": "uint256"
        }
      ],
      "name": "adjacencyList",
      "outputs": [
        {
          "internalType": "address",
          "name": "",
          "type": "address"
        }
      ],
      "stateMutability": "view",
      "type": "function"
    },
    {
      "inputs": [
        {
          "internalType": "address",
          "name": "to",
          "type": "address"
        },
        {
          "internalType": "uint256",
          "name": "tokenId",
          "type": "uint256"
        }
      ],
      "name": "approve",
      "outputs": [],
      "stateMutability": "nonpayable",
      "type": "function"
    },
    {
      "inputs": [
        {
          "internalType": "address",
          "name": "owner",
          "type": "address"
        }
      ],
      "name": "balanceOf",
      "outputs": [
        {
          "internalType": "uint256",
          "name": "",
          "type": "uint256"
        }
      ],
      "stateMutability": "view",
      "type": "function"
    },
    {
      "inputs": [
        {
          "internalType": "address",
          "name": "user",
          "type": "address"
        }
      ],
      "name": "calculateDegreeCentrality",
      "outputs": [
        {
          "internalType": "int8",
          "name": "",
          "type": "int8"
        }
      ],
      "stateMutability": "view",
      "type": "function"
    },
    {
      "inputs": [
        {
          "internalType": "address",
          "name": "",
          "type": "address"
        },
        {
          "internalType": "address",
          "name": "",
          "type": "address"
        }
      ],
      "name": "edgeCount",
      "outputs": [
        {
          "internalType": "uint256",
          "name": "",
          "type": "uint256"
        }
      ],
      "stateMutability": "view",
      "type": "function"
    },
    {
      "inputs": [
        {
          "internalType": "address",
          "name": "_to",
          "type": "address"
        }
      ],
      "name": "faucet",
      "outputs": [],
      "stateMutability": "payable",
      "type": "function"
    },
    {
      "inputs": [],
      "name": "getAllDegreeCentralities",
      "outputs": [
        {
          "internalType": "address[]",
          "name": "users",
          "type": "address[]"
        },
        {
          "internalType": "int8[]",
          "name": "centralities",
          "type": "int8[]"
        }
      ],
      "stateMutability": "view",
      "type": "function"
    },
    {
      "inputs": [],
      "name": "getAllUsers",
      "outputs": [
        {
          "internalType": "address[]",
          "name": "",
          "type": "address[]"
        }
      ],
      "stateMutability": "view",
      "type": "function"
    },
    {
      "inputs": [
        {
          "internalType": "uint256",
          "name": "tokenId",
          "type": "uint256"
        }
      ],
      "name": "getApproved",
      "outputs": [
        {
          "internalType": "address",
          "name": "",
          "type": "address"
        }
      ],
      "stateMutability": "view",
      "type": "function"
    },
    {
      "inputs": [
        {
          "internalType": "address",
          "name": "user",
          "type": "address"
        }
      ],
      "name": "getConnections",
      "outputs": [
        {
          "internalType": "address[]",
          "name": "",
          "type": "address[]"
        }
      ],
      "stateMutability": "view",
      "type": "function"
    },
    {
      "inputs": [
        {
          "internalType": "address",
          "name": "user",
          "type": "address"
        }
      ],
      "name": "getDegree",
      "outputs": [
        {
          "internalType": "uint256",
          "name": "",
          "type": "uint256"
        }
      ],
      "stateMutability": "view",
      "type": "function"
    },
    {
      "inputs": [
        {
          "internalType": "address",
          "name": "userA",
          "type": "address"
        },
        {
          "internalType": "address",
          "name": "userB",
          "type": "address"
        }
      ],
      "name": "getEdgeCount",
      "outputs": [
        {
          "internalType": "uint256",
          "name": "",
          "type": "uint256"
        }
      ],
      "stateMutability": "view",
      "type": "function"
    },
    {
      "inputs": [
        {
          "internalType": "bytes32",
          "name": "role",
          "type": "bytes32"
        }
      ],
      "name": "getRoleAdmin",
      "outputs": [
        {
          "internalType": "bytes32",
          "name": "",
          "type": "bytes32"
        }
      ],
      "stateMutability": "view",
      "type": "function"
    },
    {
      "inputs": [
        {
          "internalType": "address",
          "name": "_user",
          "type": "address"
        }
      ],
      "name": "getScore",
      "outputs": [
        {
          "internalType": "int8",
          "name": "",
          "type": "int8"
        }
      ],
      "stateMutability": "view",
      "type": "function"
    },
    {
      "inputs": [
        {
          "internalType": "address[]",
          "name": "_users",
          "type": "address[]"
        }
      ],
      "name": "getScores",
      "outputs": [
        {
          "internalType": "int8[]",
          "name": "",
          "type": "int8[]"
        }
      ],
      "stateMutability": "view",
      "type": "function"
    },
    {
      "inputs": [
        {
          "internalType": "uint256",
          "name": "tokenId",
          "type": "uint256"
        }
      ],
      "name": "getTokenName",
      "outputs": [
        {
          "internalType": "string",
          "name": "",
          "type": "string"
        }
      ],
      "stateMutability": "view",
      "type": "function"
    },
    {
      "inputs": [
        {
          "internalType": "uint256",
          "name": "tokenId",
          "type": "uint256"
        }
      ],
      "name": "getTokenURI",
      "outputs": [
        {
          "internalType": "string",
          "name": "",
          "type": "string"
        }
      ],
      "stateMutability": "view",
      "type": "function"
    },
    {
      "inputs": [],
      "name": "getTotalConnections",
      "outputs": [
        {
          "internalType": "int256",
          "name": "",
          "type": "int256"
        }
      ],
      "stateMutability": "view",
      "type": "function"
    },
    {
      "inputs": [],
      "name": "getUserCount",
      "outputs": [
        {
          "internalType": "uint256",
          "name": "",
          "type": "uint256"
        }
      ],
      "stateMutability": "view",
      "type": "function"
    },
    {
      "inputs": [
        {
          "internalType": "address",
          "name": "_userAddress",
          "type": "address"
        }
      ],
      "name": "getUserLevel",
      "outputs": [
        {
          "internalType": "bool",
          "name": "",
          "type": "bool"
        }
      ],
      "stateMutability": "view",
      "type": "function"
    },
    {
      "inputs": [
        {
          "internalType": "bytes32",
          "name": "role",
          "type": "bytes32"
        },
        {
          "internalType": "address",
          "name": "account",
          "type": "address"
        }
      ],
      "name": "grantRole",
      "outputs": [],
      "stateMutability": "nonpayable",
      "type": "function"
    },
    {
      "inputs": [
        {
          "internalType": "bytes32",
          "name": "role",
          "type": "bytes32"
        },
        {
          "internalType": "address",
          "name": "account",
          "type": "address"
        }
      ],
      "name": "hasRole",
      "outputs": [
        {
          "internalType": "bool",
          "name": "",
          "type": "bool"
        }
      ],
      "stateMutability": "view",
      "type": "function"
    },
    {
      "inputs": [
        {
          "internalType": "address",
          "name": "owner",
          "type": "address"
        },
        {
          "internalType": "address",
          "name": "operator",
          "type": "address"
        }
      ],
      "name": "isApprovedForAll",
      "outputs": [
        {
          "internalType": "bool",
          "name": "",
          "type": "bool"
        }
      ],
      "stateMutability": "view",
      "type": "function"
    },
    {
      "inputs": [
        {
          "internalType": "address",
          "name": "userA",
          "type": "address"
        },
        {
          "internalType": "address",
          "name": "userB",
          "type": "address"
        }
      ],
      "name": "isConnected",
      "outputs": [
        {
          "internalType": "bool",
          "name": "",
          "type": "bool"
        }
      ],
      "stateMutability": "view",
      "type": "function"
    },
    {
      "inputs": [],
      "name": "name",
      "outputs": [
        {
          "internalType": "string",
          "name": "",
          "type": "string"
        }
      ],
      "stateMutability": "view",
      "type": "function"
    },
    {
      "inputs": [
        {
          "internalType": "uint256",
          "name": "tokenId",
          "type": "uint256"
        }
      ],
      "name": "ownerOf",
      "outputs": [
        {
          "internalType": "address",
          "name": "",
          "type": "address"
        }
      ],
      "stateMutability": "view",
      "type": "function"
    },
    {
      "inputs": [
        {
          "internalType": "bytes32",
          "name": "role",
          "type": "bytes32"
        },
        {
          "internalType": "address",
          "name": "callerConfirmation",
          "type": "address"
        }
      ],
      "name": "renounceRole",
      "outputs": [],
      "stateMutability": "nonpayable",
      "type": "function"
    },
    {
      "inputs": [
        {
          "internalType": "bytes32",
          "name": "role",
          "type": "bytes32"
        },
        {
          "internalType": "address",
          "name": "account",
          "type": "address"
        }
      ],
      "name": "revokeRole",
      "outputs": [],
      "stateMutability": "nonpayable",
      "type": "function"
    },
    {
      "inputs": [
        {
          "internalType": "address",
          "name": "to",
          "type": "address"
        },
        {
          "internalType": "string",
          "name": "_tokenName",
          "type": "string"
        }
      ],
      "name": "safeMint",
      "outputs": [
        {
          "internalType": "uint256",
          "name": "",
          "type": "uint256"
        }
      ],
      "stateMutability": "nonpayable",
      "type": "function"
    },
    {
      "inputs": [
        {
          "internalType": "address",
          "name": "to",
          "type": "address"
        },
        {
          "internalType": "string",
          "name": "_tokenName",
          "type": "string"
        },
        {
          "internalType": "string",
          "name": "_tokenURI",
          "type": "string"
        }
      ],
      "name": "safeMintIPFS",
      "outputs": [
        {
          "internalType": "uint256",
          "name": "",
          "type": "uint256"
        }
      ],
      "stateMutability": "nonpayable",
      "type": "function"
    },
    {
      "inputs": [
        {
          "internalType": "address",
          "name": "from",
          "type": "address"
        },
        {
          "internalType": "address",
          "name": "to",
          "type": "address"
        },
        {
          "internalType": "uint256",
          "name": "tokenId",
          "type": "uint256"
        }
      ],
      "name": "safeTransferFrom",
      "outputs": [],
      "stateMutability": "nonpayable",
      "type": "function"
    },
    {
      "inputs": [
        {
          "internalType": "address",
          "name": "from",
          "type": "address"
        },
        {
          "internalType": "address",
          "name": "to",
          "type": "address"
        },
        {
          "internalType": "uint256",
          "name": "tokenId",
          "type": "uint256"
        },
        {
          "internalType": "bytes",
          "name": "data",
          "type": "bytes"
        }
      ],
      "name": "safeTransferFrom",
      "outputs": [],
      "stateMutability": "nonpayable",
      "type": "function"
    },
    {
      "inputs": [
        {
          "internalType": "address",
          "name": "operator",
          "type": "address"
        },
        {
          "internalType": "bool",
          "name": "approved",
          "type": "bool"
        }
      ],
      "name": "setApprovalForAll",
      "outputs": [],
      "stateMutability": "nonpayable",
      "type": "function"
    },
    {
      "inputs": [
        {
          "internalType": "uint256",
          "name": "tokenId",
          "type": "uint256"
        },
        {
          "internalType": "string",
          "name": "tokenName",
          "type": "string"
        }
      ],
      "name": "setTokenName",
      "outputs": [],
      "stateMutability": "nonpayable",
      "type": "function"
    },
    {
      "inputs": [
        {
          "internalType": "uint256",
          "name": "tokenId",
          "type": "uint256"
        },
        {
          "internalType": "string",
          "name": "tokenUrl",
          "type": "string"
        }
      ],
      "name": "setTokenURI",
      "outputs": [],
      "stateMutability": "nonpayable",
      "type": "function"
    },
    {
      "inputs": [
        {
          "internalType": "address",
          "name": "_userAddress",
          "type": "address"
        }
      ],
      "name": "setUserLevel",
      "outputs": [],
      "stateMutability": "nonpayable",
      "type": "function"
    },
    {
      "inputs": [
        {
          "internalType": "bytes4",
          "name": "interfaceId",
          "type": "bytes4"
        }
      ],
      "name": "supportsInterface",
      "outputs": [
        {
          "internalType": "bool",
          "name": "",
          "type": "bool"
        }
      ],
      "stateMutability": "view",
      "type": "function"
    },
    {
      "inputs": [],
      "name": "symbol",
      "outputs": [
        {
          "internalType": "string",
          "name": "",
          "type": "string"
        }
      ],
      "stateMutability": "view",
      "type": "function"
    },
    {
      "inputs": [
        {
          "internalType": "uint256",
          "name": "tokenId",
          "type": "uint256"
        }
      ],
      "name": "tokenURI",
      "outputs": [
        {
          "internalType": "string",
          "name": "",
          "type": "string"
        }
      ],
      "stateMutability": "view",
      "type": "function"
    },
    {
      "inputs": [
        {
          "internalType": "address",
          "name": "from",
          "type": "address"
        },
        {
          "internalType": "address",
          "name": "to",
          "type": "address"
        },
        {
          "internalType": "uint256",
          "name": "tokenId",
          "type": "uint256"
        }
      ],
      "name": "transferFrom",
      "outputs": [],
      "stateMutability": "nonpayable",
      "type": "function"
    },
    {
      "inputs": [
        {
          "internalType": "address",
          "name": "myAddress",
          "type": "address"
        },
        {
          "internalType": "address",
          "name": "targetAddress",
          "type": "address"
        }
      ],
      "name": "verifyScore",
      "outputs": [
        {
          "internalType": "bool",
          "name": "",
          "type": "bool"
        }
      ],
      "stateMutability": "view",
      "type": "function"
    },
    {
      "inputs": [
        {
          "internalType": "address",
          "name": "",
          "type": "address"
        }
      ],
      "name": "vertexExists",
      "outputs": [
        {
          "internalType": "bool",
          "name": "",
          "type": "bool"
        }
      ],
      "stateMutability": "view",
      "type": "function"
    },
    {
      "inputs": [
        {
          "internalType": "uint256",
          "name": "",
          "type": "uint256"
        }
      ],
      "name": "vertices",
      "outputs": [
        {
          "internalType": "address",
          "name": "",
          "type": "address"
        }
      ],
      "stateMutability": "view",
      "type": "function"
    },
    {
      "stateMutability": "payable",
      "type": "receive"
    }
  ],
  "bytecode": "0x60806040526000600d5534801561001557600080fd5b50604051615f11380380615f11833981810160405281019061003791906102b3565b6040518060400160405280600b81526020017f5373646c6162546f6b656e0000000000000000000000000000000000000000008152506040518060400160405280600481526020017f5353444c0000000000000000000000000000000000000000000000000000000081525081600090816100b29190610530565b5080600190816100c29190610530565b5050506100d86000801b826100df60201b60201c565b5050610602565b60006100f183836101dd60201b60201c565b6101d25760016006600085815260200190815260200160002060000160008473ffffffffffffffffffffffffffffffffffffffff1673ffffffffffffffffffffffffffffffffffffffff16815260200190815260200160002060006101000a81548160ff02191690831515021790555061016f61024860201b60201c565b73ffffffffffffffffffffffffffffffffffffffff168273ffffffffffffffffffffffffffffffffffffffff16847f2f8788117e7eff1d82e926ec794901d17c78024a50270940304540a733656f0d60405160405180910390a4600190506101d7565b600090505b92915050565b60006006600084815260200190815260200160002060000160008373ffffffffffffffffffffffffffffffffffffffff1673ffffffffffffffffffffffffffffffffffffffff16815260200190815260200160002060009054906101000a900460ff16905092915050565b600033905090565b600080fd5b600073ffffffffffffffffffffffffffffffffffffffff82169050919050565b600061028082610255565b9050919050565b61029081610275565b811461029b57600080fd5b50565b6000815190506102ad81610287565b92915050565b6000602082840312156102c9576102c8610250565b5b60006102d78482850161029e565b91505092915050565b600081519050919050565b7f4e487b7100000000000000000000000000000000000000000000000000000000600052604160045260246000fd5b7f4e487b7100000000000000000000000000000000000000000000000000000000600052602260045260246000fd5b6000600282049050600182168061036157607f821691505b6020821081036103745761037361031a565b5b50919050565b60008190508160005260206000209050919050565b60006020601f8301049050919050565b600082821b905092915050565b6000600883026103dc7fffffffffffffffffffffffffffffffffffffffffffffffffffffffffffffffff8261039f565b6103e6868361039f565b95508019841693508086168417925050509392505050565b6000819050919050565b6000819050919050565b600061042d610428610423846103fe565b610408565b6103fe565b9050919050565b6000819050919050565b61044783610412565b61045b61045382610434565b8484546103ac565b825550505050565b600090565b610470610463565b61047b81848461043e565b505050565b5b8181101561049f57610494600082610468565b600181019050610481565b5050565b601f8211156104e4576104b58161037a565b6104be8461038f565b810160208510156104cd578190505b6104e16104d98561038f565b830182610480565b50505b505050565b600082821c905092915050565b6000610507600019846008026104e9565b1980831691505092915050565b600061052083836104f6565b9150826002028217905092915050565b610539826102e0565b67ffffffffffffffff811115610552576105516102eb565b5b61055c8254610349565b6105678282856104a3565b600060209050601f83116001811461059a5760008415610588578287015190505b6105928582610514565b8655506105fa565b601f1984166105a88661037a565b60005b828110156105d0578489015182556001820191506020850194506020810190506105ab565b868310156105ed57848901516105e9601f8916826104f6565b8355505b6001600288020188555050505b505050505050565b615900806106116000396000f3fe60806040526004361061028c5760003560e01c80636352211e1161015a578063c87b56dd116100c1578063d66827ad1161007a578063d66827ad14610b48578063d6d08dca14610b85578063dbe16c0714610bc2578063e2842d7914610bff578063e985e9c514610c2a578063f6c97ed114610c67576102c8565b8063c87b56dd14610a02578063c9e130ca14610a3f578063cdb0e89e14610a7c578063d204c45e14610aa5578063d47875d014610ae2578063d547741f14610b1f576102c8565b806395d89b411161011357806395d89b4114610913578063a217fddf1461093e578063a22cb46514610969578063b5cb15f714610992578063b86d1d63146109bd578063b88d4fde146109d9576102c8565b80636352211e146107b65780636ef40481146107f35780636fcb532f1461083057806370a082311461086d5780638dde5577146108aa57806391d14854146108d6576102c8565b8063248a9ca3116101fe57806336b56dfc116101b757806336b56dfc146106845780633bb3a24d146106ad5780633d960086146106ea57806342842e0e1461072757806346552e6114610750578063634892531461078d576102c8565b8063248a9ca3146105505780632f2ff15d1461058d5780632fa5e8cb146105b6578063328d1e60146105f357806336568abe1461061e57806336896d3814610647576102c8565b8063095ea7b311610250578063095ea7b31461041e578063109d3ee814610447578063162094c41461048457806321923bde146104ad57806322e6f1b3146104ea57806323b872dd14610527576102c8565b8063018ecb12146102ff57806301ffc9a71461033c57806303536d431461037957806306fdde03146103b6578063081812fc146103e1576102c8565b366102c8577ff10daf4b5448635d1933820fe4ff40b193cada2e0d6cd6117ecaf405d6bb08146040516102be9061400b565b60405180910390a1005b7ff7dfcc0de056dffda39c5baa035d9ce69d9df6db3c2e775c7f46e6e4bde932446040516102f590614077565b60405180910390a1005b34801561030b57600080fd5b50610326600480360381019061032191906140e1565b610ca4565b604051610333919061414f565b60405180910390f35b34801561034857600080fd5b50610363600480360381019061035e91906141c2565b610ce3565b604051610370919061420a565b60405180910390f35b34801561038557600080fd5b506103a0600480360381019061039b9190614251565b610cf5565b6040516103ad919061420a565b60405180910390f35b3480156103c257600080fd5b506103cb61101a565b6040516103d89190614310565b60405180910390f35b3480156103ed57600080fd5b50610408600480360381019061040391906140e1565b6110ac565b604051610415919061414f565b60405180910390f35b34801561042a57600080fd5b5061044560048036038101906104409190614332565b6110c8565b005b34801561045357600080fd5b5061046e60048036038101906104699190614372565b6110de565b60405161047b919061420a565b60405180910390f35b34801561049057600080fd5b506104ab60048036038101906104a691906144d4565b6110fe565b005b3480156104b957600080fd5b506104d460048036038101906104cf9190614372565b611123565b6040516104e1919061420a565b60405180910390f35b3480156104f657600080fd5b50610511600480360381019061050c9190614251565b611179565b60405161051e919061420a565b60405180910390f35b34801561053357600080fd5b5061054e60048036038101906105499190614530565b61128c565b005b34801561055c57600080fd5b50610577600480360381019061057291906145b9565b6112f6565b60405161058491906145f5565b60405180910390f35b34801561059957600080fd5b506105b460048036038101906105af9190614610565b611316565b005b3480156105c257600080fd5b506105dd60048036038101906105d89190614251565b611338565b6040516105ea919061465f565b60405180910390f35b3480156105ff57600080fd5b5061060861135d565b6040516106159190614693565b60405180910390f35b34801561062a57600080fd5b5061064560048036038101906106409190614610565b611423565b005b34801561065357600080fd5b5061066e60048036038101906106699190614251565b61149e565b60405161067b919061420a565b60405180910390f35b34801561069057600080fd5b506106ab60048036038101906106a69190614372565b611527565b005b3480156106b957600080fd5b506106d460048036038101906106cf91906140e1565b6116e9565b6040516106e19190614310565b60405180910390f35b3480156106f657600080fd5b50610711600480360381019061070c9190614251565b61178e565b60405161071e919061465f565b60405180910390f35b34801561073357600080fd5b5061074e60048036038101906107499190614530565b611caa565b005b34801561075c57600080fd5b5061077760048036038101906107729190614372565b611cca565b604051610784919061476c565b60405180910390f35b34801561079957600080fd5b506107b460048036038101906107af9190614372565b611e23565b005b3480156107c257600080fd5b506107dd60048036038101906107d891906140e1565b611f46565b6040516107ea919061414f565b60405180910390f35b3480156107ff57600080fd5b5061081a60048036038101906108159190614251565b611f58565b604051610827919061465f565b60405180910390f35b34801561083c57600080fd5b5061085760048036038101906108529190614372565b611fdf565b60405161086491906147aa565b60405180910390f35b34801561087957600080fd5b50610894600480360381019061088f9190614372565b6120f6565b6040516108a1919061465f565b60405180910390f35b3480156108b657600080fd5b506108bf6121b0565b6040516108cd929190614883565b60405180910390f35b3480156108e257600080fd5b506108fd60048036038101906108f89190614610565b61236b565b60405161090a919061420a565b60405180910390f35b34801561091f57600080fd5b506109286123d6565b6040516109359190614310565b60405180910390f35b34801561094a57600080fd5b50610953612468565b60405161096091906145f5565b60405180910390f35b34801561097557600080fd5b50610990600480360381019061098b91906148e6565b61246f565b005b34801561099e57600080fd5b506109a7612485565b6040516109b4919061465f565b60405180910390f35b6109d760048036038101906109d29190614372565b612492565b005b3480156109e557600080fd5b50610a0060048036038101906109fb91906149c7565b6126d8565b005b348015610a0e57600080fd5b50610a296004803603810190610a2491906140e1565b6126fd565b604051610a369190614310565b60405180910390f35b348015610a4b57600080fd5b50610a666004803603810190610a619190614a4a565b612766565b604051610a73919061465f565b60405180910390f35b348015610a8857600080fd5b50610aa36004803603810190610a9e91906144d4565b6127af565b005b348015610ab157600080fd5b50610acc6004803603810190610ac79190614ad5565b6127d4565b604051610ad9919061465f565b60405180910390f35b348015610aee57600080fd5b50610b096004803603810190610b049190614372565b612812565b604051610b1691906147aa565b60405180910390f35b348015610b2b57600080fd5b50610b466004803603810190610b419190614610565b612892565b005b348015610b5457600080fd5b50610b6f6004803603810190610b6a9190614332565b6128b4565b604051610b7c919061414f565b60405180910390f35b348015610b9157600080fd5b50610bac6004803603810190610ba79190614372565b612902565b604051610bb9919061465f565b60405180910390f35b348015610bce57600080fd5b50610be96004803603810190610be491906140e1565b6129da565b604051610bf69190614310565b60405180910390f35b348015610c0b57600080fd5b50610c14612a7f565b604051610c21919061476c565b60405180910390f35b348015610c3657600080fd5b50610c516004803603810190610c4c9190614251565b612b0d565b604051610c5e919061420a565b60405180910390f35b348015610c7357600080fd5b50610c8e6004803603810190610c899190614bf9565b612ba1565b604051610c9b9190614c42565b60405180910390f35b60098181548110610cb457600080fd5b906000526020600020016000915054906101000a900473ffffffffffffffffffffffffffffffffffffffff1681565b6000610cee82612c5e565b9050919050565b60008073ffffffffffffffffffffffffffffffffffffffff168373ffffffffffffffffffffffffffffffffffffffff1603610d65576040517f08c379a0000000000000000000000000000000000000000000000000000000008152600401610d5c90614cb0565b60405180910390fd5b600073ffffffffffffffffffffffffffffffffffffffff168273ffffffffffffffffffffffffffffffffffffffff1603610dd4576040517f08c379a0000000000000000000000000000000000000000000000000000000008152600401610dcb90614d1c565b60405180910390fd5b6000610ddf84612812565b90506000610dec84612812565b90506000610df8612a7f565b9050600081519050600a811015610e16576001945050505050611014565b60008167ffffffffffffffff811115610e3257610e316143a9565b5b604051908082528060200260200182016040528015610e605781602001602082028036833780820191505090505b50905060005b82811015610ec557610e91848281518110610e8457610e83614d3c565b5b6020026020010151612812565b828281518110610ea457610ea3614d3c565b5b602002602001019060000b908160000b815250508080600101915050610e66565b50610ecf81612cd8565b6000610eda88611123565b9050600081610eea57600a610eed565b601e5b9050600082610efd57600a610f00565b601e5b9050600060648360ff1687610f159190614d9a565b610f1f9190614e0b565b9050600060648360ff1688610f349190614d9a565b610f3e9190614e0b565b87610f499190614e3c565b905060008660008411610f5d576000610f6b565b600184610f6a9190614e3c565b5b81518110610f7c57610f7b614d3c565b5b60200260200101519050600087898410610fa25760018a610f9d9190614e3c565b610fa4565b835b81518110610fb557610fb4614d3c565b5b6020026020010151905060008260000b8c60000b1215905060008260000b8e60000b13159050818015610fe55750805b156110015760009e505050505050505050505050505050611014565b60019e5050505050505050505050505050505b92915050565b60606000805461102990614e9f565b80601f016020809104026020016040519081016040528092919081815260200182805461105590614e9f565b80156110a25780601f10611077576101008083540402835291602001916110a2565b820191906000526020600020905b81548152906001019060200180831161108557829003601f168201915b5050505050905090565b60006110b782612e03565b506110c182612e8b565b9050919050565b6110da82826110d5612ec8565b612ed0565b5050565b600a6020528060005260406000206000915054906101000a900460ff1681565b8060106000848152602001908152602001600020908161111e919061507c565b505050565b6000600c60008373ffffffffffffffffffffffffffffffffffffffff1673ffffffffffffffffffffffffffffffffffffffff16815260200190815260200160002060009054906101000a900460ff169050919050565b60008073ffffffffffffffffffffffffffffffffffffffff168373ffffffffffffffffffffffffffffffffffffffff16036111e9576040517f08c379a00000000000000000000000000000000000000000000000000000000081526004016111e090614cb0565b60405180910390fd5b600073ffffffffffffffffffffffffffffffffffffffff168273ffffffffffffffffffffffffffffffffffffffff1603611258576040517f08c379a000000000000000000000000000000000000000000000000000000000815260040161124f90614d1c565b60405180910390fd5b600061126384612812565b9050600061127084612812565b905060008160000b8360000b1215905080935050505092915050565b60006112988484610cf5565b9050806112da576040517f08c379a00000000000000000000000000000000000000000000000000000000081526004016112d1906151c0565b60405180910390fd5b6112e5848484612ee2565b6112ef848461178e565b5050505050565b600060066000838152602001908152602001600020600101549050919050565b61131f826112f6565b61132881612fe4565b6113328383612ff8565b50505050565b6008602052816000526040600020602052806000526040600020600091509150505481565b6000806000905060005b60098054905081101561140f57600760006009838154811061138c5761138b614d3c565b5b9060005260206000200160009054906101000a900473ffffffffffffffffffffffffffffffffffffffff1673ffffffffffffffffffffffffffffffffffffffff1673ffffffffffffffffffffffffffffffffffffffff168152602001908152602001600020805490508261140091906151e0565b91508080600101915050611367565b5060028161141d9190615224565b91505090565b61142b612ec8565b73ffffffffffffffffffffffffffffffffffffffff168173ffffffffffffffffffffffffffffffffffffffff161461148f576040517f6697b23200000000000000000000000000000000000000000000000000000000815260040160405180910390fd5b61149982826130ea565b505050565b600080600860008573ffffffffffffffffffffffffffffffffffffffff1673ffffffffffffffffffffffffffffffffffffffff16815260200190815260200160002060008473ffffffffffffffffffffffffffffffffffffffff1673ffffffffffffffffffffffffffffffffffffffff1681526020019081526020016000205411905092915050565b600073ffffffffffffffffffffffffffffffffffffffff168173ffffffffffffffffffffffffffffffffffffffff1603611596576040517f08c379a000000000000000000000000000000000000000000000000000000000815260040161158d906152da565b60405180910390fd5b600a60008273ffffffffffffffffffffffffffffffffffffffff1673ffffffffffffffffffffffffffffffffffffffff16815260200190815260200160002060009054906101000a900460ff166116e6576009819080600181540180825580915050600190039060005260206000200160009091909190916101000a81548173ffffffffffffffffffffffffffffffffffffffff021916908373ffffffffffffffffffffffffffffffffffffffff1602179055506001600a60008373ffffffffffffffffffffffffffffffffffffffff1673ffffffffffffffffffffffffffffffffffffffff16815260200190815260200160002060006101000a81548160ff0219169083151502179055508073ffffffffffffffffffffffffffffffffffffffff167f19ef9a4877199f89440a26acb26895ec02ed86f2df1aeaa90dc18041b892f71f60405160405180910390a25b50565b606060106000838152602001908152602001600020805461170990614e9f565b80601f016020809104026020016040519081016040528092919081815260200182805461173590614e9f565b80156117825780601f1061175757610100808354040283529160200191611782565b820191906000526020600020905b81548152906001019060200180831161176557829003601f168201915b50505050509050919050565b60008073ffffffffffffffffffffffffffffffffffffffff168373ffffffffffffffffffffffffffffffffffffffff16141580156117f95750600073ffffffffffffffffffffffffffffffffffffffff168273ffffffffffffffffffffffffffffffffffffffff1614155b611838576040517f08c379a000000000000000000000000000000000000000000000000000000000815260040161182f906152da565b60405180910390fd5b8173ffffffffffffffffffffffffffffffffffffffff168373ffffffffffffffffffffffffffffffffffffffff16036118a6576040517f08c379a000000000000000000000000000000000000000000000000000000000815260040161189d90615346565b60405180910390fd5b600a60008473ffffffffffffffffffffffffffffffffffffffff1673ffffffffffffffffffffffffffffffffffffffff16815260200190815260200160002060009054906101000a900460ff166119015761190083611527565b5b600a60008373ffffffffffffffffffffffffffffffffffffffff1673ffffffffffffffffffffffffffffffffffffffff16815260200190815260200160002060009054906101000a900460ff1661195c5761195b82611527565b5b600760008473ffffffffffffffffffffffffffffffffffffffff1673ffffffffffffffffffffffffffffffffffffffff168152602001908152602001600020829080600181540180825580915050600190039060005260206000200160009091909190916101000a81548173ffffffffffffffffffffffffffffffffffffffff021916908373ffffffffffffffffffffffffffffffffffffffff160217905550600760008373ffffffffffffffffffffffffffffffffffffffff1673ffffffffffffffffffffffffffffffffffffffff168152602001908152602001600020839080600181540180825580915050600190039060005260206000200160009091909190916101000a81548173ffffffffffffffffffffffffffffffffffffffff021916908373ffffffffffffffffffffffffffffffffffffffff160217905550600860008473ffffffffffffffffffffffffffffffffffffffff1673ffffffffffffffffffffffffffffffffffffffff16815260200190815260200160002060008373ffffffffffffffffffffffffffffffffffffffff1673ffffffffffffffffffffffffffffffffffffffff1681526020019081526020016000206000815480929190611b2990615366565b9190505550600860008373ffffffffffffffffffffffffffffffffffffffff1673ffffffffffffffffffffffffffffffffffffffff16815260200190815260200160002060008473ffffffffffffffffffffffffffffffffffffffff1673ffffffffffffffffffffffffffffffffffffffff1681526020019081526020016000206000815480929190611bbb90615366565b9190505550600860008473ffffffffffffffffffffffffffffffffffffffff1673ffffffffffffffffffffffffffffffffffffffff16815260200190815260200160002060008373ffffffffffffffffffffffffffffffffffffffff1673ffffffffffffffffffffffffffffffffffffffff1681526020019081526020016000205490508173ffffffffffffffffffffffffffffffffffffffff168373ffffffffffffffffffffffffffffffffffffffff167fa6fb03f71055ad50569b4946ff3760da3e39706d06cf828130be6ae18e65a19f83604051611c9c919061465f565b60405180910390a392915050565b611cc5838383604051806020016040528060008152506126d8565b505050565b6060600a60008373ffffffffffffffffffffffffffffffffffffffff1673ffffffffffffffffffffffffffffffffffffffff16815260200190815260200160002060009054906101000a900460ff16611d58576040517f08c379a0000000000000000000000000000000000000000000000000000000008152600401611d4f906153fa565b60405180910390fd5b600760008373ffffffffffffffffffffffffffffffffffffffff1673ffffffffffffffffffffffffffffffffffffffff168152602001908152602001600020805480602002602001604051908101604052809291908181526020018280548015611e1757602002820191906000526020600020905b8160009054906101000a900473ffffffffffffffffffffffffffffffffffffffff1673ffffffffffffffffffffffffffffffffffffffff1681526020019060010190808311611dcd575b50505050509050919050565b600073ffffffffffffffffffffffffffffffffffffffff168173ffffffffffffffffffffffffffffffffffffffff1603611e92576040517f08c379a0000000000000000000000000000000000000000000000000000000008152600401611e89906152da565b60405180910390fd5b600c60008273ffffffffffffffffffffffffffffffffffffffff1673ffffffffffffffffffffffffffffffffffffffff16815260200190815260200160002060009054906101000a900460ff16611eea576000611eed565b60015b600c60008373ffffffffffffffffffffffffffffffffffffffff1673ffffffffffffffffffffffffffffffffffffffff16815260200190815260200160002060006101000a81548160ff02191690831515021790555050565b6000611f5182612e03565b9050919050565b6000600860008473ffffffffffffffffffffffffffffffffffffffff1673ffffffffffffffffffffffffffffffffffffffff16815260200190815260200160002060008373ffffffffffffffffffffffffffffffffffffffff1673ffffffffffffffffffffffffffffffffffffffff16815260200190815260200160002054905092915050565b60008073ffffffffffffffffffffffffffffffffffffffff168273ffffffffffffffffffffffffffffffffffffffff160361204f576040517f08c379a0000000000000000000000000000000000000000000000000000000008152600401612046906152da565b60405180910390fd5b600a60008373ffffffffffffffffffffffffffffffffffffffff1673ffffffffffffffffffffffffffffffffffffffff16815260200190815260200160002060009054906101000a900460ff166120a957600090506120f1565b60006120b361135d565b9050600081036120c75760009150506120f1565b60006120d284612902565b9050816064826120e2919061541a565b6120ec9190615224565b925050505b919050565b60008073ffffffffffffffffffffffffffffffffffffffff168273ffffffffffffffffffffffffffffffffffffffff16036121695760006040517f89c62b64000000000000000000000000000000000000000000000000000000008152600401612160919061414f565b60405180910390fd5b600360008373ffffffffffffffffffffffffffffffffffffffff1673ffffffffffffffffffffffffffffffffffffffff168152602001908152602001600020549050919050565b606080600060098054905090508067ffffffffffffffff8111156121d7576121d66143a9565b5b6040519080825280602002602001820160405280156122055781602001602082028036833780820191505090505b5092508067ffffffffffffffff811115612222576122216143a9565b5b6040519080825280602002602001820160405280156122505781602001602082028036833780820191505090505b50915060005b81811015612365576009818154811061227257612271614d3c565b5b9060005260206000200160009054906101000a900473ffffffffffffffffffffffffffffffffffffffff168482815181106122b0576122af614d3c565b5b602002602001019073ffffffffffffffffffffffffffffffffffffffff16908173ffffffffffffffffffffffffffffffffffffffff16815250506123316009828154811061230157612300614d3c565b5b9060005260206000200160009054906101000a900473ffffffffffffffffffffffffffffffffffffffff16611fdf565b83828151811061234457612343614d3c565b5b602002602001019060000b908160000b815250508080600101915050612256565b50509091565b60006006600084815260200190815260200160002060000160008373ffffffffffffffffffffffffffffffffffffffff1673ffffffffffffffffffffffffffffffffffffffff16815260200190815260200160002060009054906101000a900460ff16905092915050565b6060600180546123e590614e9f565b80601f016020809104026020016040519081016040528092919081815260200182805461241190614e9f565b801561245e5780601f106124335761010080835404028352916020019161245e565b820191906000526020600020905b81548152906001019060200180831161244157829003601f168201915b5050505050905090565b6000801b81565b61248161247a612ec8565b83836131dd565b5050565b6000600980549050905090565b600073ffffffffffffffffffffffffffffffffffffffff168173ffffffffffffffffffffffffffffffffffffffff1603612501576040517f08c379a00000000000000000000000000000000000000000000000000000000081526004016124f8906154de565b60405180910390fd5b670429d069189e0000471161254b576040517f08c379a00000000000000000000000000000000000000000000000000000000081526004016125429061554a565b60405180910390fd5b67016345785d8a00008173ffffffffffffffffffffffffffffffffffffffff1631106125ac576040517f08c379a00000000000000000000000000000000000000000000000000000000081526004016125a3906155b6565b60405180910390fd5b6001600f60008373ffffffffffffffffffffffffffffffffffffffff1673ffffffffffffffffffffffffffffffffffffffff16815260200190815260200160002060008282829054906101000a900460ff1661260891906155e3565b92506101000a81548160ff021916908360ff16021790555060008173ffffffffffffffffffffffffffffffffffffffff1667016345785d8a000060405161264e90615649565b60006040518083038185875af1925050503d806000811461268b576040519150601f19603f3d011682016040523d82523d6000602084013e612690565b606091505b50509050806126d4576040517f08c379a00000000000000000000000000000000000000000000000000000000081526004016126cb906156aa565b60405180910390fd5b5050565b6126e384848461128c565b6126f76126ee612ec8565b8585858561334c565b50505050565b606061270882612e03565b5060006127136134fd565b90506000815111612733576040518060200160405280600081525061275e565b8061273d84613514565b60405160200161274e929190615706565b6040516020818303038152906040525b915050919050565b600080600d54905061277885826135e2565b61278281856127af565b61278c81846110fe565b600d600081548092919061279f90615366565b9190505550809150509392505050565b80600e600084815260200190815260200160002090816127cf919061507c565b505050565b600080600d5490506127e684826135e2565b6127f081846127af565b600d600081548092919061280390615366565b91905055508091505092915050565b60008073ffffffffffffffffffffffffffffffffffffffff168273ffffffffffffffffffffffffffffffffffffffff1603612882576040517f08c379a0000000000000000000000000000000000000000000000000000000008152600401612879906152da565b60405180910390fd5b61288b82611fdf565b9050919050565b61289b826112f6565b6128a481612fe4565b6128ae83836130ea565b50505050565b600760205281600052604060002081815481106128d057600080fd5b906000526020600020016000915091509054906101000a900473ffffffffffffffffffffffffffffffffffffffff1681565b6000600a60008373ffffffffffffffffffffffffffffffffffffffff1673ffffffffffffffffffffffffffffffffffffffff16815260200190815260200160002060009054906101000a900460ff16612990576040517f08c379a0000000000000000000000000000000000000000000000000000000008152600401612987906153fa565b60405180910390fd5b600760008373ffffffffffffffffffffffffffffffffffffffff1673ffffffffffffffffffffffffffffffffffffffff168152602001908152602001600020805490509050919050565b6060600e600083815260200190815260200160002080546129fa90614e9f565b80601f0160208091040260200160405190810160405280929190818152602001828054612a2690614e9f565b8015612a735780601f10612a4857610100808354040283529160200191612a73565b820191906000526020600020905b815481529060010190602001808311612a5657829003601f168201915b50505050509050919050565b60606009805480602002602001604051908101604052809291908181526020018280548015612b0357602002820191906000526020600020905b8160009054906101000a900473ffffffffffffffffffffffffffffffffffffffff1673ffffffffffffffffffffffffffffffffffffffff1681526020019060010190808311612ab9575b5050505050905090565b6000600560008473ffffffffffffffffffffffffffffffffffffffff1673ffffffffffffffffffffffffffffffffffffffff16815260200190815260200160002060008373ffffffffffffffffffffffffffffffffffffffff1673ffffffffffffffffffffffffffffffffffffffff16815260200190815260200160002060009054906101000a900460ff16905092915050565b60606000825167ffffffffffffffff811115612bc057612bbf6143a9565b5b604051908082528060200260200182016040528015612bee5781602001602082028036833780820191505090505b50905060005b8351811015612c5457612c20848281518110612c1357612c12614d3c565b5b6020026020010151612812565b828281518110612c3357612c32614d3c565b5b602002602001019060000b908160000b815250508080600101915050612bf4565b5080915050919050565b60007f7965db0b000000000000000000000000000000000000000000000000000000007bffffffffffffffffffffffffffffffffffffffffffffffffffffffff1916827bffffffffffffffffffffffffffffffffffffffffffffffffffffffff19161480612cd15750612cd082613600565b5b9050919050565b60008151905060005b600182612cee9190614e3c565b811015612dfe5760008190506000600183612d09919061572a565b90505b83811015612d6757848281518110612d2757612d26614d3c565b5b602002602001015160000b858281518110612d4557612d44614d3c565b5b602002602001015160000b1315612d5a578091505b8080600101915050612d0c565b50818114612df057838181518110612d8257612d81614d3c565b5b6020026020010151848381518110612d9d57612d9c614d3c565b5b6020026020010151858481518110612db857612db7614d3c565b5b60200260200101868481518110612dd257612dd1614d3c565b5b602002602001018260000b60000b8152508260000b60000b81525050505b508080600101915050612ce1565b505050565b600080612e0f836136e2565b9050600073ffffffffffffffffffffffffffffffffffffffff168173ffffffffffffffffffffffffffffffffffffffff1603612e8257826040517f7e273289000000000000000000000000000000000000000000000000000000008152600401612e79919061465f565b60405180910390fd5b80915050919050565b60006004600083815260200190815260200160002060009054906101000a900473ffffffffffffffffffffffffffffffffffffffff169050919050565b600033905090565b612edd838383600161371f565b505050565b600073ffffffffffffffffffffffffffffffffffffffff168273ffffffffffffffffffffffffffffffffffffffff1603612f545760006040517f64a0ae92000000000000000000000000000000000000000000000000000000008152600401612f4b919061414f565b60405180910390fd5b6000612f688383612f63612ec8565b6138e4565b90508373ffffffffffffffffffffffffffffffffffffffff168173ffffffffffffffffffffffffffffffffffffffff1614612fde578382826040517f64283d7b000000000000000000000000000000000000000000000000000000008152600401612fd59392919061575e565b60405180910390fd5b50505050565b612ff581612ff0612ec8565b613afe565b50565b6000613004838361236b565b6130df5760016006600085815260200190815260200160002060000160008473ffffffffffffffffffffffffffffffffffffffff1673ffffffffffffffffffffffffffffffffffffffff16815260200190815260200160002060006101000a81548160ff02191690831515021790555061307c612ec8565b73ffffffffffffffffffffffffffffffffffffffff168273ffffffffffffffffffffffffffffffffffffffff16847f2f8788117e7eff1d82e926ec794901d17c78024a50270940304540a733656f0d60405160405180910390a4600190506130e4565b600090505b92915050565b60006130f6838361236b565b156131d25760006006600085815260200190815260200160002060000160008473ffffffffffffffffffffffffffffffffffffffff1673ffffffffffffffffffffffffffffffffffffffff16815260200190815260200160002060006101000a81548160ff02191690831515021790555061316f612ec8565b73ffffffffffffffffffffffffffffffffffffffff168273ffffffffffffffffffffffffffffffffffffffff16847ff6391f5c32d9c69d2a47ea670b442974b53935d1edc7fd64eb21e047a839171b60405160405180910390a4600190506131d7565b600090505b92915050565b600073ffffffffffffffffffffffffffffffffffffffff168273ffffffffffffffffffffffffffffffffffffffff160361324e57816040517f5b08ba18000000000000000000000000000000000000000000000000000000008152600401613245919061414f565b60405180910390fd5b80600560008573ffffffffffffffffffffffffffffffffffffffff1673ffffffffffffffffffffffffffffffffffffffff16815260200190815260200160002060008473ffffffffffffffffffffffffffffffffffffffff1673ffffffffffffffffffffffffffffffffffffffff16815260200190815260200160002060006101000a81548160ff0219169083151502179055508173ffffffffffffffffffffffffffffffffffffffff168373ffffffffffffffffffffffffffffffffffffffff167f17307eab39ab6107e8899845ad3d59bd9653f200f220920489ca2b5937696c318360405161333f919061420a565b60405180910390a3505050565b60008373ffffffffffffffffffffffffffffffffffffffff163b11156134f6578273ffffffffffffffffffffffffffffffffffffffff1663150b7a02868685856040518563ffffffff1660e01b81526004016133ab94939291906157ea565b6020604051808303816000875af19250505080156133e757506040513d601f19601f820116820180604052508101906133e4919061584b565b60015b61346b573d8060008114613417576040519150601f19603f3d011682016040523d82523d6000602084013e61341c565b606091505b50600081510361346357836040517f64a0ae9200000000000000000000000000000000000000000000000000000000815260040161345a919061414f565b60405180910390fd5b805181602001fd5b63150b7a0260e01b7bffffffffffffffffffffffffffffffffffffffffffffffffffffffff1916817bffffffffffffffffffffffffffffffffffffffffffffffffffffffff1916146134f457836040517f64a0ae920000000000000000000000000000000000000000000000000000000081526004016134eb919061414f565b60405180910390fd5b505b5050505050565b606060405180602001604052806000815250905090565b60606000600161352384613b4f565b01905060008167ffffffffffffffff811115613542576135416143a9565b5b6040519080825280601f01601f1916602001820160405280156135745781602001600182028036833780820191505090505b509050600082602001820190505b6001156135d7578080600190039150507f3031323334353637383961626364656600000000000000000000000000000000600a86061a8153600a85816135cb576135ca614ddc565b5b04945060008503613582575b819350505050919050565b6135fc828260405180602001604052806000815250613ca2565b5050565b60007f80ac58cd000000000000000000000000000000000000000000000000000000007bffffffffffffffffffffffffffffffffffffffffffffffffffffffff1916827bffffffffffffffffffffffffffffffffffffffffffffffffffffffff191614806136cb57507f5b5e139f000000000000000000000000000000000000000000000000000000007bffffffffffffffffffffffffffffffffffffffffffffffffffffffff1916827bffffffffffffffffffffffffffffffffffffffffffffffffffffffff1916145b806136db57506136da82613cc6565b5b9050919050565b60006002600083815260200190815260200160002060009054906101000a900473ffffffffffffffffffffffffffffffffffffffff169050919050565b80806137585750600073ffffffffffffffffffffffffffffffffffffffff168273ffffffffffffffffffffffffffffffffffffffff1614155b1561388c57600061376884612e03565b9050600073ffffffffffffffffffffffffffffffffffffffff168373ffffffffffffffffffffffffffffffffffffffff16141580156137d357508273ffffffffffffffffffffffffffffffffffffffff168173ffffffffffffffffffffffffffffffffffffffff1614155b80156137e657506137e48184612b0d565b155b1561382857826040517fa9fbf51f00000000000000000000000000000000000000000000000000000000815260040161381f919061414f565b60405180910390fd5b811561388a57838573ffffffffffffffffffffffffffffffffffffffff168273ffffffffffffffffffffffffffffffffffffffff167f8c5be1e5ebec7d5bd14f71427d1e84f3dd0314c0f7b2291e5b200ac8c7c3b92560405160405180910390a45b505b836004600085815260200190815260200160002060006101000a81548173ffffffffffffffffffffffffffffffffffffffff021916908373ffffffffffffffffffffffffffffffffffffffff16021790555050505050565b6000806138f0846136e2565b9050600073ffffffffffffffffffffffffffffffffffffffff168373ffffffffffffffffffffffffffffffffffffffff161461393257613931818486613d30565b5b600073ffffffffffffffffffffffffffffffffffffffff168173ffffffffffffffffffffffffffffffffffffffff16146139c35761397460008560008061371f565b6001600360008373ffffffffffffffffffffffffffffffffffffffff1673ffffffffffffffffffffffffffffffffffffffff168152602001908152602001600020600082825403925050819055505b600073ffffffffffffffffffffffffffffffffffffffff168573ffffffffffffffffffffffffffffffffffffffff1614613a46576001600360008773ffffffffffffffffffffffffffffffffffffffff1673ffffffffffffffffffffffffffffffffffffffff168152602001908152602001600020600082825401925050819055505b846002600086815260200190815260200160002060006101000a81548173ffffffffffffffffffffffffffffffffffffffff021916908373ffffffffffffffffffffffffffffffffffffffff160217905550838573ffffffffffffffffffffffffffffffffffffffff168273ffffffffffffffffffffffffffffffffffffffff167fddf252ad1be2c89b69c2b068fc378daa952ba7f163c4a11628f55a4df523b3ef60405160405180910390a4809150509392505050565b613b08828261236b565b613b4b5780826040517fe2517d3f000000000000000000000000000000000000000000000000000000008152600401613b42929190615878565b60405180910390fd5b5050565b600080600090507a184f03e93ff9f4daa797ed6e38ed64bf6a1f0100000000000000008310613bad577a184f03e93ff9f4daa797ed6e38ed64bf6a1f0100000000000000008381613ba357613ba2614ddc565b5b0492506040810190505b6d04ee2d6d415b85acef81000000008310613bea576d04ee2d6d415b85acef81000000008381613be057613bdf614ddc565b5b0492506020810190505b662386f26fc100008310613c1957662386f26fc100008381613c0f57613c0e614ddc565b5b0492506010810190505b6305f5e1008310613c42576305f5e1008381613c3857613c37614ddc565b5b0492506008810190505b6127108310613c67576127108381613c5d57613c5c614ddc565b5b0492506004810190505b60648310613c8a5760648381613c8057613c7f614ddc565b5b0492506002810190505b600a8310613c99576001810190505b80915050919050565b613cac8383613df4565b613cc1613cb7612ec8565b600085858561334c565b505050565b60007f01ffc9a7000000000000000000000000000000000000000000000000000000007bffffffffffffffffffffffffffffffffffffffffffffffffffffffff1916827bffffffffffffffffffffffffffffffffffffffffffffffffffffffff1916149050919050565b613d3b838383613eed565b613def57600073ffffffffffffffffffffffffffffffffffffffff168373ffffffffffffffffffffffffffffffffffffffff1603613db057806040517f7e273289000000000000000000000000000000000000000000000000000000008152600401613da7919061465f565b60405180910390fd5b81816040517f177e802f000000000000000000000000000000000000000000000000000000008152600401613de69291906158a1565b60405180910390fd5b505050565b600073ffffffffffffffffffffffffffffffffffffffff168273ffffffffffffffffffffffffffffffffffffffff1603613e665760006040517f64a0ae92000000000000000000000000000000000000000000000000000000008152600401613e5d919061414f565b60405180910390fd5b6000613e74838360006138e4565b9050600073ffffffffffffffffffffffffffffffffffffffff168173ffffffffffffffffffffffffffffffffffffffff1614613ee85760006040517f73c6ac6e000000000000000000000000000000000000000000000000000000008152600401613edf919061414f565b60405180910390fd5b505050565b60008073ffffffffffffffffffffffffffffffffffffffff168373ffffffffffffffffffffffffffffffffffffffff1614158015613fa557508273ffffffffffffffffffffffffffffffffffffffff168473ffffffffffffffffffffffffffffffffffffffff161480613f665750613f658484612b0d565b5b80613fa457508273ffffffffffffffffffffffffffffffffffffffff16613f8c83612e8b565b73ffffffffffffffffffffffffffffffffffffffff16145b5b90509392505050565b600082825260208201905092915050565b7f52656365697665642063616c6c65640000000000000000000000000000000000600082015250565b6000613ff5600f83613fae565b915061400082613fbf565b602082019050919050565b6000602082019050818103600083015261402481613fe8565b9050919050565b7f46616c6c6261636b2063616c6c65640000000000000000000000000000000000600082015250565b6000614061600f83613fae565b915061406c8261402b565b602082019050919050565b6000602082019050818103600083015261409081614054565b9050919050565b6000604051905090565b600080fd5b600080fd5b6000819050919050565b6140be816140ab565b81146140c957600080fd5b50565b6000813590506140db816140b5565b92915050565b6000602082840312156140f7576140f66140a1565b5b6000614105848285016140cc565b91505092915050565b600073ffffffffffffffffffffffffffffffffffffffff82169050919050565b60006141398261410e565b9050919050565b6141498161412e565b82525050565b60006020820190506141646000830184614140565b92915050565b60007fffffffff0000000000000000000000000000000000000000000000000000000082169050919050565b61419f8161416a565b81146141aa57600080fd5b50565b6000813590506141bc81614196565b92915050565b6000602082840312156141d8576141d76140a1565b5b60006141e6848285016141ad565b91505092915050565b60008115159050919050565b614204816141ef565b82525050565b600060208201905061421f60008301846141fb565b92915050565b61422e8161412e565b811461423957600080fd5b50565b60008135905061424b81614225565b92915050565b60008060408385031215614268576142676140a1565b5b60006142768582860161423c565b92505060206142878582860161423c565b9150509250929050565b600081519050919050565b60005b838110156142ba57808201518184015260208101905061429f565b60008484015250505050565b6000601f19601f8301169050919050565b60006142e282614291565b6142ec8185613fae565b93506142fc81856020860161429c565b614305816142c6565b840191505092915050565b6000602082019050818103600083015261432a81846142d7565b905092915050565b60008060408385031215614349576143486140a1565b5b60006143578582860161423c565b9250506020614368858286016140cc565b9150509250929050565b600060208284031215614388576143876140a1565b5b60006143968482850161423c565b91505092915050565b600080fd5b600080fd5b7f4e487b7100000000000000000000000000000000000000000000000000000000600052604160045260246000fd5b6143e1826142c6565b810181811067ffffffffffffffff82111715614400576143ff6143a9565b5b80604052505050565b6000614413614097565b905061441f82826143d8565b919050565b600067ffffffffffffffff82111561443f5761443e6143a9565b5b614448826142c6565b9050602081019050919050565b82818337600083830152505050565b600061447761447284614424565b614409565b905082815260208101848484011115614493576144926143a4565b5b61449e848285614455565b509392505050565b600082601f8301126144bb576144ba61439f565b5b81356144cb848260208601614464565b91505092915050565b600080604083850312156144eb576144ea6140a1565b5b60006144f9858286016140cc565b925050602083013567ffffffffffffffff81111561451a576145196140a6565b5b614526858286016144a6565b9150509250929050565b600080600060608486031215614549576145486140a1565b5b60006145578682870161423c565b93505060206145688682870161423c565b9250506040614579868287016140cc565b9150509250925092565b6000819050919050565b61459681614583565b81146145a157600080fd5b50565b6000813590506145b38161458d565b92915050565b6000602082840312156145cf576145ce6140a1565b5b60006145dd848285016145a4565b91505092915050565b6145ef81614583565b82525050565b600060208201905061460a60008301846145e6565b92915050565b60008060408385031215614627576146266140a1565b5b6000614635858286016145a4565b92505060206146468582860161423c565b9150509250929050565b614659816140ab565b82525050565b60006020820190506146746000830184614650565b92915050565b6000819050919050565b61468d8161467a565b82525050565b60006020820190506146a86000830184614684565b92915050565b600081519050919050565b600082825260208201905092915050565b6000819050602082019050919050565b6146e38161412e565b82525050565b60006146f583836146da565b60208301905092915050565b6000602082019050919050565b6000614719826146ae565b61472381856146b9565b935061472e836146ca565b8060005b8381101561475f57815161474688826146e9565b975061475183614701565b925050600181019050614732565b5085935050505092915050565b60006020820190508181036000830152614786818461470e565b905092915050565b60008160000b9050919050565b6147a48161478e565b82525050565b60006020820190506147bf600083018461479b565b92915050565b600081519050919050565b600082825260208201905092915050565b6000819050602082019050919050565b6147fa8161478e565b82525050565b600061480c83836147f1565b60208301905092915050565b6000602082019050919050565b6000614830826147c5565b61483a81856147d0565b9350614845836147e1565b8060005b8381101561487657815161485d8882614800565b975061486883614818565b925050600181019050614849565b5085935050505092915050565b6000604082019050818103600083015261489d818561470e565b905081810360208301526148b18184614825565b90509392505050565b6148c3816141ef565b81146148ce57600080fd5b50565b6000813590506148e0816148ba565b92915050565b600080604083850312156148fd576148fc6140a1565b5b600061490b8582860161423c565b925050602061491c858286016148d1565b9150509250929050565b600067ffffffffffffffff821115614941576149406143a9565b5b61494a826142c6565b9050602081019050919050565b600061496a61496584614926565b614409565b905082815260208101848484011115614986576149856143a4565b5b614991848285614455565b509392505050565b600082601f8301126149ae576149ad61439f565b5b81356149be848260208601614957565b91505092915050565b600080600080608085870312156149e1576149e06140a1565b5b60006149ef8782880161423c565b9450506020614a008782880161423c565b9350506040614a11878288016140cc565b925050606085013567ffffffffffffffff811115614a3257614a316140a6565b5b614a3e87828801614999565b91505092959194509250565b600080600060608486031215614a6357614a626140a1565b5b6000614a718682870161423c565b935050602084013567ffffffffffffffff811115614a9257614a916140a6565b5b614a9e868287016144a6565b925050604084013567ffffffffffffffff811115614abf57614abe6140a6565b5b614acb868287016144a6565b9150509250925092565b60008060408385031215614aec57614aeb6140a1565b5b6000614afa8582860161423c565b925050602083013567ffffffffffffffff811115614b1b57614b1a6140a6565b5b614b27858286016144a6565b9150509250929050565b600067ffffffffffffffff821115614b4c57614b4b6143a9565b5b602082029050602081019050919050565b600080fd5b6000614b75614b7084614b31565b614409565b90508083825260208201905060208402830185811115614b9857614b97614b5d565b5b835b81811015614bc15780614bad888261423c565b845260208401935050602081019050614b9a565b5050509392505050565b600082601f830112614be057614bdf61439f565b5b8135614bf0848260208601614b62565b91505092915050565b600060208284031215614c0f57614c0e6140a1565b5b600082013567ffffffffffffffff811115614c2d57614c2c6140a6565b5b614c3984828501614bcb565b91505092915050565b60006020820190508181036000830152614c5c8184614825565b905092915050565b7f496e76616c6964206d7941646472657373000000000000000000000000000000600082015250565b6000614c9a601183613fae565b9150614ca582614c64565b602082019050919050565b60006020820190508181036000830152614cc981614c8d565b9050919050565b7f496e76616c696420746172676574416464726573730000000000000000000000600082015250565b6000614d06601583613fae565b9150614d1182614cd0565b602082019050919050565b60006020820190508181036000830152614d3581614cf9565b9050919050565b7f4e487b7100000000000000000000000000000000000000000000000000000000600052603260045260246000fd5b7f4e487b7100000000000000000000000000000000000000000000000000000000600052601160045260246000fd5b6000614da5826140ab565b9150614db0836140ab565b9250828202614dbe816140ab565b91508282048414831517614dd557614dd4614d6b565b5b5092915050565b7f4e487b7100000000000000000000000000000000000000000000000000000000600052601260045260246000fd5b6000614e16826140ab565b9150614e21836140ab565b925082614e3157614e30614ddc565b5b828204905092915050565b6000614e47826140ab565b9150614e52836140ab565b9250828203905081811115614e6a57614e69614d6b565b5b92915050565b7f4e487b7100000000000000000000000000000000000000000000000000000000600052602260045260246000fd5b60006002820490506001821680614eb757607f821691505b602082108103614eca57614ec9614e70565b5b50919050565b60008190508160005260206000209050919050565b60006020601f8301049050919050565b600082821b905092915050565b600060088302614f327fffffffffffffffffffffffffffffffffffffffffffffffffffffffffffffffff82614ef5565b614f3c8683614ef5565b95508019841693508086168417925050509392505050565b6000819050919050565b6000614f79614f74614f6f846140ab565b614f54565b6140ab565b9050919050565b6000819050919050565b614f9383614f5e565b614fa7614f9f82614f80565b848454614f02565b825550505050565b600090565b614fbc614faf565b614fc7818484614f8a565b505050565b5b81811015614feb57614fe0600082614fb4565b600181019050614fcd565b5050565b601f8211156150305761500181614ed0565b61500a84614ee5565b81016020851015615019578190505b61502d61502585614ee5565b830182614fcc565b50505b505050565b600082821c905092915050565b600061505360001984600802615035565b1980831691505092915050565b600061506c8383615042565b9150826002028217905092915050565b61508582614291565b67ffffffffffffffff81111561509e5761509d6143a9565b5b6150a88254614e9f565b6150b3828285614fef565b600060209050601f8311600181146150e657600084156150d4578287015190505b6150de8582615060565b865550615146565b601f1984166150f486614ed0565b60005b8281101561511c578489015182556001820191506020850194506020810190506150f7565b868310156151395784890151615135601f891682615042565b8355505b6001600288020188555050505b505050505050565b7f5472616e73666572206e6f7420616c6c6f7765642064756520746f2073636f7260008201527f696e672072756c65730000000000000000000000000000000000000000000000602082015250565b60006151aa602983613fae565b91506151b58261514e565b604082019050919050565b600060208201905081810360008301526151d98161519d565b9050919050565b60006151eb8261467a565b91506151f68361467a565b92508282019050828112156000831216838212600084121516171561521e5761521d614d6b565b5b92915050565b600061522f8261467a565b915061523a8361467a565b92508261524a57615249614ddc565b5b600160000383147f80000000000000000000000000000000000000000000000000000000000000008314161561528357615282614d6b565b5b828205905092915050565b7f496e76616c696420757365722061646472657373000000000000000000000000600082015250565b60006152c4601483613fae565b91506152cf8261528e565b602082019050919050565b600060208201905081810360008301526152f3816152b7565b9050919050565b7f53656c662d636f6e6e656374696f6e206e6f7420616c6c6f7765640000000000600082015250565b6000615330601b83613fae565b915061533b826152fa565b602082019050919050565b6000602082019050818103600083015261535f81615323565b9050919050565b6000615371826140ab565b91507fffffffffffffffffffffffffffffffffffffffffffffffffffffffffffffffff82036153a3576153a2614d6b565b5b600182019050919050565b7f5573657220646f6573206e6f7420657869737400000000000000000000000000600082015250565b60006153e4601383613fae565b91506153ef826153ae565b602082019050919050565b60006020820190508181036000830152615413816153d7565b9050919050565b60006154258261467a565b91506154308361467a565b925082820261543e8161467a565b91507f8000000000000000000000000000000000000000000000000000000000000000841460008412161561547657615475614d6b565b5b828205841483151761548b5761548a614d6b565b5b5092915050565b7f496e76616c696420616464726573730000000000000000000000000000000000600082015250565b60006154c8600f83613fae565b91506154d382615492565b602082019050919050565b600060208201905081810360008301526154f7816154bb565b9050919050565b7f496e73756666696369656e742062616c616e6365000000000000000000000000600082015250565b6000615534601483613fae565b915061553f826154fe565b602082019050919050565b6000602082019050818103600083015261556381615527565b9050919050565b7f526563697069656e74206861732073756666696369656e742062616c616e6365600082015250565b60006155a0602083613fae565b91506155ab8261556a565b602082019050919050565b600060208201905081810360008301526155cf81615593565b9050919050565b600060ff82169050919050565b60006155ee826155d6565b91506155f9836155d6565b9250828201905060ff81111561561257615611614d6b565b5b92915050565b600081905092915050565b50565b6000615633600083615618565b915061563e82615623565b600082019050919050565b600061565482615626565b9150819050919050565b7f5472616e73666572206661696c65640000000000000000000000000000000000600082015250565b6000615694600f83613fae565b915061569f8261565e565b602082019050919050565b600060208201905081810360008301526156c381615687565b9050919050565b600081905092915050565b60006156e082614291565b6156ea81856156ca565b93506156fa81856020860161429c565b80840191505092915050565b600061571282856156d5565b915061571e82846156d5565b91508190509392505050565b6000615735826140ab565b9150615740836140ab565b925082820190508082111561575857615757614d6b565b5b92915050565b60006060820190506157736000830186614140565b6157806020830185614650565b61578d6040830184614140565b949350505050565b600081519050919050565b600082825260208201905092915050565b60006157bc82615795565b6157c681856157a0565b93506157d681856020860161429c565b6157df816142c6565b840191505092915050565b60006080820190506157ff6000830187614140565b61580c6020830186614140565b6158196040830185614650565b818103606083015261582b81846157b1565b905095945050505050565b60008151905061584581614196565b92915050565b600060208284031215615861576158606140a1565b5b600061586f84828501615836565b91505092915050565b600060408201905061588d6000830185614140565b61589a60208301846145e6565b9392505050565b60006040820190506158b66000830185614140565b6158c36020830184614650565b939250505056fea2646970667358221220e31ca4ddf7b80a12866dfb18feb381543b05e6795b7f98f05c6c6fbd78ae793464736f6c634300081c0033",
  "linkReferences": {},
  "deployedLinkReferences": {}
}