{
  "_format": "hh-sol-artifact-1",
  "contractName": "SsdlabToken",
  "sourceName": "contracts/SsdlabToken.sol",
  "abi": [
    {
      "inputs": [
        {
          "internalType": "address",
          "name": "teacher",
          "type": "address"
        },
        {
          "internalType": "address",
          "name": "student",
          "type": "address"
        }
      ],
      "stateMutability": "nonpayable",
      "type": "constructor"
    },
    {
      "inputs": [],
      "name": "AccessControlBadConfirmation",
      "type": "error"
    },
    {
      "inputs": [
        {
          "internalType": "address",
          "name": "account",
          "type": "address"
        },
        {
          "internalType": "bytes32",
          "name": "neededRole",
          "type": "bytes32"
        }
      ],
      "name": "AccessControlUnauthorizedAccount",
      "type": "error"
    },
    {
      "inputs": [
        {
          "internalType": "address",
          "name": "sender",
          "type": "address"
        },
        {
          "internalType": "uint256",
          "name": "tokenId",
          "type": "uint256"
        },
        {
          "internalType": "address",
          "name": "owner",
          "type": "address"
        }
      ],
      "name": "ERC721IncorrectOwner",
      "type": "error"
    },
    {
      "inputs": [
        {
          "internalType": "address",
          "name": "operator",
          "type": "address"
        },
        {
          "internalType": "uint256",
          "name": "tokenId",
          "type": "uint256"
        }
      ],
      "name": "ERC721InsufficientApproval",
      "type": "error"
    },
    {
      "inputs": [
        {
          "internalType": "address",
          "name": "approver",
          "type": "address"
        }
      ],
      "name": "ERC721InvalidApprover",
      "type": "error"
    },
    {
      "inputs": [
        {
          "internalType": "address",
          "name": "operator",
          "type": "address"
        }
      ],
      "name": "ERC721InvalidOperator",
      "type": "error"
    },
    {
      "inputs": [
        {
          "internalType": "address",
          "name": "owner",
          "type": "address"
        }
      ],
      "name": "ERC721InvalidOwner",
      "type": "error"
    },
    {
      "inputs": [
        {
          "internalType": "address",
          "name": "receiver",
          "type": "address"
        }
      ],
      "name": "ERC721InvalidReceiver",
      "type": "error"
    },
    {
      "inputs": [
        {
          "internalType": "address",
          "name": "sender",
          "type": "address"
        }
      ],
      "name": "ERC721InvalidSender",
      "type": "error"
    },
    {
      "inputs": [
        {
          "internalType": "uint256",
          "name": "tokenId",
          "type": "uint256"
        }
      ],
      "name": "ERC721NonexistentToken",
      "type": "error"
    },
    {
      "anonymous": false,
      "inputs": [
        {
          "indexed": true,
          "internalType": "address",
          "name": "owner",
          "type": "address"
        },
        {
          "indexed": true,
          "internalType": "address",
          "name": "approved",
          "type": "address"
        },
        {
          "indexed": true,
          "internalType": "uint256",
          "name": "tokenId",
          "type": "uint256"
        }
      ],
      "name": "Approval",
      "type": "event"
    },
    {
      "anonymous": false,
      "inputs": [
        {
          "indexed": true,
          "internalType": "address",
          "name": "owner",
          "type": "address"
        },
        {
          "indexed": true,
          "internalType": "address",
          "name": "operator",
          "type": "address"
        },
        {
          "indexed": false,
          "internalType": "bool",
          "name": "approved",
          "type": "bool"
        }
      ],
      "name": "ApprovalForAll",
      "type": "event"
    },
    {
      "anonymous": false,
      "inputs": [
        {
          "indexed": true,
          "internalType": "bytes32",
          "name": "role",
          "type": "bytes32"
        },
        {
          "indexed": true,
          "internalType": "bytes32",
          "name": "previousAdminRole",
          "type": "bytes32"
        },
        {
          "indexed": true,
          "internalType": "bytes32",
          "name": "newAdminRole",
          "type": "bytes32"
        }
      ],
      "name": "RoleAdminChanged",
      "type": "event"
    },
    {
      "anonymous": false,
      "inputs": [
        {
          "indexed": true,
          "internalType": "bytes32",
          "name": "role",
          "type": "bytes32"
        },
        {
          "indexed": true,
          "internalType": "address",
          "name": "account",
          "type": "address"
        },
        {
          "indexed": true,
          "internalType": "address",
          "name": "sender",
          "type": "address"
        }
      ],
      "name": "RoleGranted",
      "type": "event"
    },
    {
      "anonymous": false,
      "inputs": [
        {
          "indexed": true,
          "internalType": "bytes32",
          "name": "role",
          "type": "bytes32"
        },
        {
          "indexed": true,
          "internalType": "address",
          "name": "account",
          "type": "address"
        },
        {
          "indexed": true,
          "internalType": "address",
          "name": "sender",
          "type": "address"
        }
      ],
      "name": "RoleRevoked",
      "type": "event"
    },
    {
      "anonymous": false,
      "inputs": [
        {
          "indexed": true,
          "internalType": "address",
          "name": "from",
          "type": "address"
        },
        {
          "indexed": true,
          "internalType": "address",
          "name": "to",
          "type": "address"
        },
        {
          "indexed": true,
          "internalType": "uint256",
          "name": "tokenId",
          "type": "uint256"
        }
      ],
      "name": "Transfer",
      "type": "event"
    },
    {
      "inputs": [],
      "name": "DEFAULT_ADMIN_ROLE",
      "outputs": [
        {
          "internalType": "bytes32",
          "name": "",
          "type": "bytes32"
        }
      ],
      "stateMutability": "view",
      "type": "function"
    },
    {
      "inputs": [],
      "name": "STUDENTS_ROLE",
      "outputs": [
        {
          "internalType": "bytes32",
          "name": "",
          "type": "bytes32"
        }
      ],
      "stateMutability": "view",
      "type": "function"
    },
    {
      "inputs": [],
      "name": "TEACHER_ROLE",
      "outputs": [
        {
          "internalType": "bytes32",
          "name": "",
          "type": "bytes32"
        }
      ],
      "stateMutability": "view",
      "type": "function"
    },
    {
      "inputs": [
        {
          "internalType": "address",
          "name": "to",
          "type": "address"
        },
        {
          "internalType": "uint256",
          "name": "tokenId",
          "type": "uint256"
        }
      ],
      "name": "approve",
      "outputs": [],
      "stateMutability": "nonpayable",
      "type": "function"
    },
    {
      "inputs": [
        {
          "internalType": "address",
          "name": "owner",
          "type": "address"
        }
      ],
      "name": "balanceOf",
      "outputs": [
        {
          "internalType": "uint256",
          "name": "",
          "type": "uint256"
        }
      ],
      "stateMutability": "view",
      "type": "function"
    },
    {
      "inputs": [
        {
          "internalType": "uint256",
          "name": "tokenId",
          "type": "uint256"
        }
      ],
      "name": "getApproved",
      "outputs": [
        {
          "internalType": "address",
          "name": "",
          "type": "address"
        }
      ],
      "stateMutability": "view",
      "type": "function"
    },
    {
      "inputs": [
        {
          "internalType": "uint256",
          "name": "tokenId",
          "type": "uint256"
        }
      ],
      "name": "getExchangeTokenId",
      "outputs": [
        {
          "internalType": "uint256",
          "name": "",
          "type": "uint256"
        }
      ],
      "stateMutability": "view",
      "type": "function"
    },
    {
      "inputs": [
        {
          "internalType": "bytes32",
          "name": "role",
          "type": "bytes32"
        }
      ],
      "name": "getRoleAdmin",
      "outputs": [
        {
          "internalType": "bytes32",
          "name": "",
          "type": "bytes32"
        }
      ],
      "stateMutability": "view",
      "type": "function"
    },
    {
      "inputs": [
        {
          "internalType": "uint256",
          "name": "tokenId",
          "type": "uint256"
        }
      ],
      "name": "getTokenName",
      "outputs": [
        {
          "internalType": "string",
          "name": "",
          "type": "string"
        }
      ],
      "stateMutability": "view",
      "type": "function"
    },
    {
      "inputs": [
        {
          "internalType": "string",
          "name": "userName",
          "type": "string"
        }
      ],
      "name": "getUserAddress",
      "outputs": [
        {
          "internalType": "address",
          "name": "",
          "type": "address"
        }
      ],
      "stateMutability": "view",
      "type": "function"
    },
    {
      "inputs": [
        {
          "internalType": "bytes32",
          "name": "role",
          "type": "bytes32"
        },
        {
          "internalType": "address",
          "name": "account",
          "type": "address"
        }
      ],
      "name": "grantRole",
      "outputs": [],
      "stateMutability": "nonpayable",
      "type": "function"
    },
    {
      "inputs": [
        {
          "internalType": "bytes32",
          "name": "role",
          "type": "bytes32"
        },
        {
          "internalType": "address",
          "name": "account",
          "type": "address"
        }
      ],
      "name": "hasRole",
      "outputs": [
        {
          "internalType": "bool",
          "name": "",
          "type": "bool"
        }
      ],
      "stateMutability": "view",
      "type": "function"
    },
    {
      "inputs": [
        {
          "internalType": "address",
          "name": "owner",
          "type": "address"
        },
        {
          "internalType": "address",
          "name": "operator",
          "type": "address"
        }
      ],
      "name": "isApprovedForAll",
      "outputs": [
        {
          "internalType": "bool",
          "name": "",
          "type": "bool"
        }
      ],
      "stateMutability": "view",
      "type": "function"
    },
    {
      "inputs": [],
      "name": "name",
      "outputs": [
        {
          "internalType": "string",
          "name": "",
          "type": "string"
        }
      ],
      "stateMutability": "view",
      "type": "function"
    },
    {
      "inputs": [
        {
          "internalType": "uint256",
          "name": "tokenId",
          "type": "uint256"
        }
      ],
      "name": "ownerOf",
      "outputs": [
        {
          "internalType": "address",
          "name": "",
          "type": "address"
        }
      ],
      "stateMutability": "view",
      "type": "function"
    },
    {
      "inputs": [
        {
          "internalType": "bytes32",
          "name": "role",
          "type": "bytes32"
        },
        {
          "internalType": "address",
          "name": "callerConfirmation",
          "type": "address"
        }
      ],
      "name": "renounceRole",
      "outputs": [],
      "stateMutability": "nonpayable",
      "type": "function"
    },
    {
      "inputs": [
        {
          "internalType": "bytes32",
          "name": "role",
          "type": "bytes32"
        },
        {
          "internalType": "address",
          "name": "account",
          "type": "address"
        }
      ],
      "name": "revokeRole",
      "outputs": [],
      "stateMutability": "nonpayable",
      "type": "function"
    },
    {
      "inputs": [
        {
          "internalType": "address",
          "name": "to",
          "type": "address"
        },
        {
          "internalType": "string",
          "name": "_tokenName",
          "type": "string"
        }
      ],
      "name": "safeMint",
      "outputs": [
        {
          "internalType": "uint256",
          "name": "",
          "type": "uint256"
        }
      ],
      "stateMutability": "nonpayable",
      "type": "function"
    },
    {
      "inputs": [
        {
          "internalType": "address",
          "name": "from",
          "type": "address"
        },
        {
          "internalType": "address",
          "name": "to",
          "type": "address"
        },
        {
          "internalType": "uint256",
          "name": "tokenId",
          "type": "uint256"
        }
      ],
      "name": "safeTransferFrom",
      "outputs": [],
      "stateMutability": "nonpayable",
      "type": "function"
    },
    {
      "inputs": [
        {
          "internalType": "address",
          "name": "from",
          "type": "address"
        },
        {
          "internalType": "address",
          "name": "to",
          "type": "address"
        },
        {
          "internalType": "uint256",
          "name": "tokenId",
          "type": "uint256"
        },
        {
          "internalType": "bytes",
          "name": "data",
          "type": "bytes"
        }
      ],
      "name": "safeTransferFrom",
      "outputs": [],
      "stateMutability": "nonpayable",
      "type": "function"
    },
    {
      "inputs": [
        {
          "internalType": "address",
          "name": "operator",
          "type": "address"
        },
        {
          "internalType": "bool",
          "name": "approved",
          "type": "bool"
        }
      ],
      "name": "setApprovalForAll",
      "outputs": [],
      "stateMutability": "nonpayable",
      "type": "function"
    },
    {
      "inputs": [
        {
          "internalType": "uint256",
          "name": "tokenId",
          "type": "uint256"
        },
        {
          "internalType": "uint256",
          "name": "exchangeTokenId",
          "type": "uint256"
        }
      ],
      "name": "setExchangeTokenId",
      "outputs": [],
      "stateMutability": "nonpayable",
      "type": "function"
    },
    {
      "inputs": [
        {
          "internalType": "uint256",
          "name": "tokenId",
          "type": "uint256"
        },
        {
          "internalType": "string",
          "name": "tokenName",
          "type": "string"
        }
      ],
      "name": "setTokenName",
      "outputs": [],
      "stateMutability": "nonpayable",
      "type": "function"
    },
    {
      "inputs": [
        {
          "internalType": "string",
          "name": "userName",
          "type": "string"
        },
        {
          "internalType": "address",
          "name": "userAddress",
          "type": "address"
        }
      ],
      "name": "setUserAddress",
      "outputs": [],
      "stateMutability": "nonpayable",
      "type": "function"
    },
    {
      "inputs": [
        {
          "internalType": "bytes4",
          "name": "interfaceId",
          "type": "bytes4"
        }
      ],
      "name": "supportsInterface",
      "outputs": [
        {
          "internalType": "bool",
          "name": "",
          "type": "bool"
        }
      ],
      "stateMutability": "view",
      "type": "function"
    },
    {
      "inputs": [],
      "name": "symbol",
      "outputs": [
        {
          "internalType": "string",
          "name": "",
          "type": "string"
        }
      ],
      "stateMutability": "view",
      "type": "function"
    },
    {
      "inputs": [
        {
          "internalType": "uint256",
          "name": "tokenId",
          "type": "uint256"
        }
      ],
      "name": "tokenURI",
      "outputs": [
        {
          "internalType": "string",
          "name": "",
          "type": "string"
        }
      ],
      "stateMutability": "view",
      "type": "function"
    },
    {
      "inputs": [
        {
          "internalType": "address",
          "name": "from",
          "type": "address"
        },
        {
          "internalType": "address",
          "name": "to",
          "type": "address"
        },
        {
          "internalType": "uint256",
          "name": "tokenId",
          "type": "uint256"
        }
      ],
      "name": "transferFrom",
      "outputs": [],
      "stateMutability": "nonpayable",
      "type": "function"
    }
  ],
  "bytecode": "0x6080604052600060075534801561001557600080fd5b50604051613399380380613399833981810160405281019061003791906102bf565b6040518060400160405280600781526020017f4d79546f6b656e0000000000000000000000000000000000000000000000000081525060405180602001604052806000815250816000908161008c919061054f565b50806001908161009c919061054f565b5050506100b26000801b836100eb60201b60201c565b506100e37f5eeefbd1446176eeb282e93f50761c372c4e4e43ec23a79407cb9bf29660c4ce826100eb60201b60201c565b505050610621565b60006100fd83836101e960201b60201c565b6101de5760016006600085815260200190815260200160002060000160008473ffffffffffffffffffffffffffffffffffffffff1673ffffffffffffffffffffffffffffffffffffffff16815260200190815260200160002060006101000a81548160ff02191690831515021790555061017b61025460201b60201c565b73ffffffffffffffffffffffffffffffffffffffff168273ffffffffffffffffffffffffffffffffffffffff16847f2f8788117e7eff1d82e926ec794901d17c78024a50270940304540a733656f0d60405160405180910390a4600190506101e3565b600090505b92915050565b60006006600084815260200190815260200160002060000160008373ffffffffffffffffffffffffffffffffffffffff1673ffffffffffffffffffffffffffffffffffffffff16815260200190815260200160002060009054906101000a900460ff16905092915050565b600033905090565b600080fd5b600073ffffffffffffffffffffffffffffffffffffffff82169050919050565b600061028c82610261565b9050919050565b61029c81610281565b81146102a757600080fd5b50565b6000815190506102b981610293565b92915050565b600080604083850312156102d6576102d561025c565b5b60006102e4858286016102aa565b92505060206102f5858286016102aa565b9150509250929050565b600081519050919050565b7f4e487b7100000000000000000000000000000000000000000000000000000000600052604160045260246000fd5b7f4e487b7100000000000000000000000000000000000000000000000000000000600052602260045260246000fd5b6000600282049050600182168061038057607f821691505b60208210810361039357610392610339565b5b50919050565b60008190508160005260206000209050919050565b60006020601f8301049050919050565b600082821b905092915050565b6000600883026103fb7fffffffffffffffffffffffffffffffffffffffffffffffffffffffffffffffff826103be565b61040586836103be565b95508019841693508086168417925050509392505050565b6000819050919050565b6000819050919050565b600061044c6104476104428461041d565b610427565b61041d565b9050919050565b6000819050919050565b61046683610431565b61047a61047282610453565b8484546103cb565b825550505050565b600090565b61048f610482565b61049a81848461045d565b505050565b5b818110156104be576104b3600082610487565b6001810190506104a0565b5050565b601f821115610503576104d481610399565b6104dd846103ae565b810160208510156104ec578190505b6105006104f8856103ae565b83018261049f565b50505b505050565b600082821c905092915050565b600061052660001984600802610508565b1980831691505092915050565b600061053f8383610515565b9150826002028217905092915050565b610558826102ff565b67ffffffffffffffff8111156105715761057061030a565b5b61057b8254610368565b6105868282856104c2565b600060209050601f8311600181146105b957600084156105a7578287015190505b6105b18582610533565b865550610619565b601f1984166105c786610399565b60005b828110156105ef578489015182556001820191506020850194506020810190506105ca565b8683101561060c5784890151610608601f891682610515565b8355505b6001600288020188555050505b505050505050565b612d69806106306000396000f3fe608060405234801561001057600080fd5b50600436106101c45760003560e01c806386e5c15a116100f9578063c87b56dd11610097578063d547741f11610071578063d547741f14610539578063dbe16c0714610555578063e2133bef14610585578063e985e9c5146105a3576101c4565b8063c87b56dd146104bd578063cdb0e89e146104ed578063d204c45e14610509576101c4565b8063a217fddf116100d3578063a217fddf1461044b578063a22cb46514610469578063b88d4fde14610485578063c422c9bb146104a1576101c4565b806386e5c15a146103df57806391d14854146103fd57806395d89b411461042d576101c4565b80632f2ff15d116101665780634985e85c116101405780634985e85c1461031f5780636352211e1461034f57806370a082311461037f57806385ef3ded146103af576101c4565b80632f2ff15d146102cb57806336568abe146102e757806342842e0e14610303576101c4565b8063095ea7b3116101a2578063095ea7b31461024757806323b872dd14610263578063248a9ca31461027f5780632c588077146102af576101c4565b806301ffc9a7146101c957806306fdde03146101f9578063081812fc14610217575b600080fd5b6101e360048036038101906101de9190611f73565b6105d3565b6040516101f09190611fbb565b60405180910390f35b6102016105e5565b60405161020e9190612066565b60405180910390f35b610231600480360381019061022c91906120be565b610677565b60405161023e919061212c565b60405180910390f35b610261600480360381019061025c9190612173565b610693565b005b61027d600480360381019061027891906121b3565b6106a9565b005b6102996004803603810190610294919061223c565b6107ab565b6040516102a69190612278565b60405180910390f35b6102c960048036038101906102c491906123c8565b6107cb565b005b6102e560048036038101906102e09190612424565b61082c565b005b61030160048036038101906102fc9190612424565b61084e565b005b61031d600480360381019061031891906121b3565b6108c9565b005b61033960048036038101906103349190612464565b6108e9565b604051610346919061212c565b60405180910390f35b610369600480360381019061036491906120be565b610931565b604051610376919061212c565b60405180910390f35b610399600480360381019061039491906124ad565b610943565b6040516103a691906124e9565b60405180910390f35b6103c960048036038101906103c491906120be565b6109fd565b6040516103d691906124e9565b60405180910390f35b6103e7610a1a565b6040516103f49190612278565b60405180910390f35b61041760048036038101906104129190612424565b610a3e565b6040516104249190611fbb565b60405180910390f35b610435610aa9565b6040516104429190612066565b60405180910390f35b610453610b3b565b6040516104609190612278565b60405180910390f35b610483600480360381019061047e9190612530565b610b42565b005b61049f600480360381019061049a9190612611565b610b58565b005b6104bb60048036038101906104b69190612694565b610b7d565b005b6104d760048036038101906104d291906120be565b610b99565b6040516104e49190612066565b60405180910390f35b610507600480360381019061050291906126d4565b610c02565b005b610523600480360381019061051e9190612730565b610c27565b60405161053091906124e9565b60405180910390f35b610553600480360381019061054e9190612424565b610c65565b005b61056f600480360381019061056a91906120be565b610c87565b60405161057c9190612066565b60405180910390f35b61058d610d2c565b60405161059a9190612278565b60405180910390f35b6105bd60048036038101906105b8919061278c565b610d50565b6040516105ca9190611fbb565b60405180910390f35b60006105de82610de4565b9050919050565b6060600080546105f4906127fb565b80601f0160208091040260200160405190810160405280929190818152602001828054610620906127fb565b801561066d5780601f106106425761010080835404028352916020019161066d565b820191906000526020600020905b81548152906001019060200180831161065057829003601f168201915b5050505050905090565b600061068282610e5e565b5061068c82610ee6565b9050919050565b6106a582826106a0610f23565b610f2b565b5050565b600073ffffffffffffffffffffffffffffffffffffffff168273ffffffffffffffffffffffffffffffffffffffff160361071b5760006040517f64a0ae92000000000000000000000000000000000000000000000000000000008152600401610712919061212c565b60405180910390fd5b600061072f838361072a610f23565b610f3d565b90508373ffffffffffffffffffffffffffffffffffffffff168173ffffffffffffffffffffffffffffffffffffffff16146107a5578382826040517f64283d7b00000000000000000000000000000000000000000000000000000000815260040161079c9392919061282c565b60405180910390fd5b50505050565b600060066000838152602001908152602001600020600101549050919050565b80600a836040516107dc919061289f565b908152602001604051809103902060006101000a81548173ffffffffffffffffffffffffffffffffffffffff021916908373ffffffffffffffffffffffffffffffffffffffff1602179055505050565b610835826107ab565b61083e81611157565b610848838361116b565b50505050565b610856610f23565b73ffffffffffffffffffffffffffffffffffffffff168173ffffffffffffffffffffffffffffffffffffffff16146108ba576040517f6697b23200000000000000000000000000000000000000000000000000000000815260040160405180910390fd5b6108c4828261125d565b505050565b6108e483838360405180602001604052806000815250610b58565b505050565b6000600a826040516108fb919061289f565b908152602001604051809103902060009054906101000a900473ffffffffffffffffffffffffffffffffffffffff169050919050565b600061093c82610e5e565b9050919050565b60008073ffffffffffffffffffffffffffffffffffffffff168273ffffffffffffffffffffffffffffffffffffffff16036109b65760006040517f89c62b640000000000000000000000000000000000000000000000000000000081526004016109ad919061212c565b60405180910390fd5b600360008373ffffffffffffffffffffffffffffffffffffffff1673ffffffffffffffffffffffffffffffffffffffff168152602001908152602001600020549050919050565b600060096000838152602001908152602001600020549050919050565b7fd16e204b8a42a15ab0ea6bb8ec1ecdfbe69f38074fc865323af19efe7d9573d981565b60006006600084815260200190815260200160002060000160008373ffffffffffffffffffffffffffffffffffffffff1673ffffffffffffffffffffffffffffffffffffffff16815260200190815260200160002060009054906101000a900460ff16905092915050565b606060018054610ab8906127fb565b80601f0160208091040260200160405190810160405280929190818152602001828054610ae4906127fb565b8015610b315780601f10610b0657610100808354040283529160200191610b31565b820191906000526020600020905b815481529060010190602001808311610b1457829003601f168201915b5050505050905090565b6000801b81565b610b54610b4d610f23565b8383611350565b5050565b610b638484846106a9565b610b77610b6e610f23565b858585856114bf565b50505050565b8060096000848152602001908152602001600020819055505050565b6060610ba482610e5e565b506000610baf611670565b90506000815111610bcf5760405180602001604052806000815250610bfa565b80610bd984611687565b604051602001610bea9291906128b6565b6040516020818303038152906040525b915050919050565b80600860008481526020019081526020016000209081610c229190612a86565b505050565b6000806007549050610c398482611755565b610c438184610c02565b60076000815480929190610c5690612b87565b91905055508091505092915050565b610c6e826107ab565b610c7781611157565b610c81838361125d565b50505050565b6060600860008381526020019081526020016000208054610ca7906127fb565b80601f0160208091040260200160405190810160405280929190818152602001828054610cd3906127fb565b8015610d205780601f10610cf557610100808354040283529160200191610d20565b820191906000526020600020905b815481529060010190602001808311610d0357829003601f168201915b50505050509050919050565b7f5eeefbd1446176eeb282e93f50761c372c4e4e43ec23a79407cb9bf29660c4ce81565b6000600560008473ffffffffffffffffffffffffffffffffffffffff1673ffffffffffffffffffffffffffffffffffffffff16815260200190815260200160002060008373ffffffffffffffffffffffffffffffffffffffff1673ffffffffffffffffffffffffffffffffffffffff16815260200190815260200160002060009054906101000a900460ff16905092915050565b60007f7965db0b000000000000000000000000000000000000000000000000000000007bffffffffffffffffffffffffffffffffffffffffffffffffffffffff1916827bffffffffffffffffffffffffffffffffffffffffffffffffffffffff19161480610e575750610e5682611773565b5b9050919050565b600080610e6a83611855565b9050600073ffffffffffffffffffffffffffffffffffffffff168173ffffffffffffffffffffffffffffffffffffffff1603610edd57826040517f7e273289000000000000000000000000000000000000000000000000000000008152600401610ed491906124e9565b60405180910390fd5b80915050919050565b60006004600083815260200190815260200160002060009054906101000a900473ffffffffffffffffffffffffffffffffffffffff169050919050565b600033905090565b610f388383836001611892565b505050565b600080610f4984611855565b9050600073ffffffffffffffffffffffffffffffffffffffff168373ffffffffffffffffffffffffffffffffffffffff1614610f8b57610f8a818486611a57565b5b600073ffffffffffffffffffffffffffffffffffffffff168173ffffffffffffffffffffffffffffffffffffffff161461101c57610fcd600085600080611892565b6001600360008373ffffffffffffffffffffffffffffffffffffffff1673ffffffffffffffffffffffffffffffffffffffff168152602001908152602001600020600082825403925050819055505b600073ffffffffffffffffffffffffffffffffffffffff168573ffffffffffffffffffffffffffffffffffffffff161461109f576001600360008773ffffffffffffffffffffffffffffffffffffffff1673ffffffffffffffffffffffffffffffffffffffff168152602001908152602001600020600082825401925050819055505b846002600086815260200190815260200160002060006101000a81548173ffffffffffffffffffffffffffffffffffffffff021916908373ffffffffffffffffffffffffffffffffffffffff160217905550838573ffffffffffffffffffffffffffffffffffffffff168273ffffffffffffffffffffffffffffffffffffffff167fddf252ad1be2c89b69c2b068fc378daa952ba7f163c4a11628f55a4df523b3ef60405160405180910390a4809150509392505050565b61116881611163610f23565b611b1b565b50565b60006111778383610a3e565b6112525760016006600085815260200190815260200160002060000160008473ffffffffffffffffffffffffffffffffffffffff1673ffffffffffffffffffffffffffffffffffffffff16815260200190815260200160002060006101000a81548160ff0219169083151502179055506111ef610f23565b73ffffffffffffffffffffffffffffffffffffffff168273ffffffffffffffffffffffffffffffffffffffff16847f2f8788117e7eff1d82e926ec794901d17c78024a50270940304540a733656f0d60405160405180910390a460019050611257565b600090505b92915050565b60006112698383610a3e565b156113455760006006600085815260200190815260200160002060000160008473ffffffffffffffffffffffffffffffffffffffff1673ffffffffffffffffffffffffffffffffffffffff16815260200190815260200160002060006101000a81548160ff0219169083151502179055506112e2610f23565b73ffffffffffffffffffffffffffffffffffffffff168273ffffffffffffffffffffffffffffffffffffffff16847ff6391f5c32d9c69d2a47ea670b442974b53935d1edc7fd64eb21e047a839171b60405160405180910390a46001905061134a565b600090505b92915050565b600073ffffffffffffffffffffffffffffffffffffffff168273ffffffffffffffffffffffffffffffffffffffff16036113c157816040517f5b08ba180000000000000000000000000000000000000000000000000000000081526004016113b8919061212c565b60405180910390fd5b80600560008573ffffffffffffffffffffffffffffffffffffffff1673ffffffffffffffffffffffffffffffffffffffff16815260200190815260200160002060008473ffffffffffffffffffffffffffffffffffffffff1673ffffffffffffffffffffffffffffffffffffffff16815260200190815260200160002060006101000a81548160ff0219169083151502179055508173ffffffffffffffffffffffffffffffffffffffff168373ffffffffffffffffffffffffffffffffffffffff167f17307eab39ab6107e8899845ad3d59bd9653f200f220920489ca2b5937696c31836040516114b29190611fbb565b60405180910390a3505050565b60008373ffffffffffffffffffffffffffffffffffffffff163b1115611669578273ffffffffffffffffffffffffffffffffffffffff1663150b7a02868685856040518563ffffffff1660e01b815260040161151e9493929190612c24565b6020604051808303816000875af192505050801561155a57506040513d601f19601f820116820180604052508101906115579190612c85565b60015b6115de573d806000811461158a576040519150601f19603f3d011682016040523d82523d6000602084013e61158f565b606091505b5060008151036115d657836040517f64a0ae920000000000000000000000000000000000000000000000000000000081526004016115cd919061212c565b60405180910390fd5b805181602001fd5b63150b7a0260e01b7bffffffffffffffffffffffffffffffffffffffffffffffffffffffff1916817bffffffffffffffffffffffffffffffffffffffffffffffffffffffff19161461166757836040517f64a0ae9200000000000000000000000000000000000000000000000000000000815260040161165e919061212c565b60405180910390fd5b505b5050505050565b606060405180602001604052806000815250905090565b60606000600161169684611b6c565b01905060008167ffffffffffffffff8111156116b5576116b461229d565b5b6040519080825280601f01601f1916602001820160405280156116e75781602001600182028036833780820191505090505b509050600082602001820190505b60011561174a578080600190039150507f3031323334353637383961626364656600000000000000000000000000000000600a86061a8153600a858161173e5761173d612cb2565b5b049450600085036116f5575b819350505050919050565b61176f828260405180602001604052806000815250611cbf565b5050565b60007f80ac58cd000000000000000000000000000000000000000000000000000000007bffffffffffffffffffffffffffffffffffffffffffffffffffffffff1916827bffffffffffffffffffffffffffffffffffffffffffffffffffffffff1916148061183e57507f5b5e139f000000000000000000000000000000000000000000000000000000007bffffffffffffffffffffffffffffffffffffffffffffffffffffffff1916827bffffffffffffffffffffffffffffffffffffffffffffffffffffffff1916145b8061184e575061184d82611ce3565b5b9050919050565b60006002600083815260200190815260200160002060009054906101000a900473ffffffffffffffffffffffffffffffffffffffff169050919050565b80806118cb5750600073ffffffffffffffffffffffffffffffffffffffff168273ffffffffffffffffffffffffffffffffffffffff1614155b156119ff5760006118db84610e5e565b9050600073ffffffffffffffffffffffffffffffffffffffff168373ffffffffffffffffffffffffffffffffffffffff161415801561194657508273ffffffffffffffffffffffffffffffffffffffff168173ffffffffffffffffffffffffffffffffffffffff1614155b801561195957506119578184610d50565b155b1561199b57826040517fa9fbf51f000000000000000000000000000000000000000000000000000000008152600401611992919061212c565b60405180910390fd5b81156119fd57838573ffffffffffffffffffffffffffffffffffffffff168273ffffffffffffffffffffffffffffffffffffffff167f8c5be1e5ebec7d5bd14f71427d1e84f3dd0314c0f7b2291e5b200ac8c7c3b92560405160405180910390a45b505b836004600085815260200190815260200160002060006101000a81548173ffffffffffffffffffffffffffffffffffffffff021916908373ffffffffffffffffffffffffffffffffffffffff16021790555050505050565b611a62838383611d4d565b611b1657600073ffffffffffffffffffffffffffffffffffffffff168373ffffffffffffffffffffffffffffffffffffffff1603611ad757806040517f7e273289000000000000000000000000000000000000000000000000000000008152600401611ace91906124e9565b60405180910390fd5b81816040517f177e802f000000000000000000000000000000000000000000000000000000008152600401611b0d929190612ce1565b60405180910390fd5b505050565b611b258282610a3e565b611b685780826040517fe2517d3f000000000000000000000000000000000000000000000000000000008152600401611b5f929190612d0a565b60405180910390fd5b5050565b600080600090507a184f03e93ff9f4daa797ed6e38ed64bf6a1f0100000000000000008310611bca577a184f03e93ff9f4daa797ed6e38ed64bf6a1f0100000000000000008381611bc057611bbf612cb2565b5b0492506040810190505b6d04ee2d6d415b85acef81000000008310611c07576d04ee2d6d415b85acef81000000008381611bfd57611bfc612cb2565b5b0492506020810190505b662386f26fc100008310611c3657662386f26fc100008381611c2c57611c2b612cb2565b5b0492506010810190505b6305f5e1008310611c5f576305f5e1008381611c5557611c54612cb2565b5b0492506008810190505b6127108310611c84576127108381611c7a57611c79612cb2565b5b0492506004810190505b60648310611ca75760648381611c9d57611c9c612cb2565b5b0492506002810190505b600a8310611cb6576001810190505b80915050919050565b611cc98383611e0e565b611cde611cd4610f23565b60008585856114bf565b505050565b60007f01ffc9a7000000000000000000000000000000000000000000000000000000007bffffffffffffffffffffffffffffffffffffffffffffffffffffffff1916827bffffffffffffffffffffffffffffffffffffffffffffffffffffffff1916149050919050565b60008073ffffffffffffffffffffffffffffffffffffffff168373ffffffffffffffffffffffffffffffffffffffff1614158015611e0557508273ffffffffffffffffffffffffffffffffffffffff168473ffffffffffffffffffffffffffffffffffffffff161480611dc65750611dc58484610d50565b5b80611e0457508273ffffffffffffffffffffffffffffffffffffffff16611dec83610ee6565b73ffffffffffffffffffffffffffffffffffffffff16145b5b90509392505050565b600073ffffffffffffffffffffffffffffffffffffffff168273ffffffffffffffffffffffffffffffffffffffff1603611e805760006040517f64a0ae92000000000000000000000000000000000000000000000000000000008152600401611e77919061212c565b60405180910390fd5b6000611e8e83836000610f3d565b9050600073ffffffffffffffffffffffffffffffffffffffff168173ffffffffffffffffffffffffffffffffffffffff1614611f025760006040517f73c6ac6e000000000000000000000000000000000000000000000000000000008152600401611ef9919061212c565b60405180910390fd5b505050565b6000604051905090565b600080fd5b600080fd5b60007fffffffff0000000000000000000000000000000000000000000000000000000082169050919050565b611f5081611f1b565b8114611f5b57600080fd5b50565b600081359050611f6d81611f47565b92915050565b600060208284031215611f8957611f88611f11565b5b6000611f9784828501611f5e565b91505092915050565b60008115159050919050565b611fb581611fa0565b82525050565b6000602082019050611fd06000830184611fac565b92915050565b600081519050919050565b600082825260208201905092915050565b60005b83811015612010578082015181840152602081019050611ff5565b60008484015250505050565b6000601f19601f8301169050919050565b600061203882611fd6565b6120428185611fe1565b9350612052818560208601611ff2565b61205b8161201c565b840191505092915050565b60006020820190508181036000830152612080818461202d565b905092915050565b6000819050919050565b61209b81612088565b81146120a657600080fd5b50565b6000813590506120b881612092565b92915050565b6000602082840312156120d4576120d3611f11565b5b60006120e2848285016120a9565b91505092915050565b600073ffffffffffffffffffffffffffffffffffffffff82169050919050565b6000612116826120eb565b9050919050565b6121268161210b565b82525050565b6000602082019050612141600083018461211d565b92915050565b6121508161210b565b811461215b57600080fd5b50565b60008135905061216d81612147565b92915050565b6000806040838503121561218a57612189611f11565b5b60006121988582860161215e565b92505060206121a9858286016120a9565b9150509250929050565b6000806000606084860312156121cc576121cb611f11565b5b60006121da8682870161215e565b93505060206121eb8682870161215e565b92505060406121fc868287016120a9565b9150509250925092565b6000819050919050565b61221981612206565b811461222457600080fd5b50565b60008135905061223681612210565b92915050565b60006020828403121561225257612251611f11565b5b600061226084828501612227565b91505092915050565b61227281612206565b82525050565b600060208201905061228d6000830184612269565b92915050565b600080fd5b600080fd5b7f4e487b7100000000000000000000000000000000000000000000000000000000600052604160045260246000fd5b6122d58261201c565b810181811067ffffffffffffffff821117156122f4576122f361229d565b5b80604052505050565b6000612307611f07565b905061231382826122cc565b919050565b600067ffffffffffffffff8211156123335761233261229d565b5b61233c8261201c565b9050602081019050919050565b82818337600083830152505050565b600061236b61236684612318565b6122fd565b90508281526020810184848401111561238757612386612298565b5b612392848285612349565b509392505050565b600082601f8301126123af576123ae612293565b5b81356123bf848260208601612358565b91505092915050565b600080604083850312156123df576123de611f11565b5b600083013567ffffffffffffffff8111156123fd576123fc611f16565b5b6124098582860161239a565b925050602061241a8582860161215e565b9150509250929050565b6000806040838503121561243b5761243a611f11565b5b600061244985828601612227565b925050602061245a8582860161215e565b9150509250929050565b60006020828403121561247a57612479611f11565b5b600082013567ffffffffffffffff81111561249857612497611f16565b5b6124a48482850161239a565b91505092915050565b6000602082840312156124c3576124c2611f11565b5b60006124d18482850161215e565b91505092915050565b6124e381612088565b82525050565b60006020820190506124fe60008301846124da565b92915050565b61250d81611fa0565b811461251857600080fd5b50565b60008135905061252a81612504565b92915050565b6000806040838503121561254757612546611f11565b5b60006125558582860161215e565b92505060206125668582860161251b565b9150509250929050565b600067ffffffffffffffff82111561258b5761258a61229d565b5b6125948261201c565b9050602081019050919050565b60006125b46125af84612570565b6122fd565b9050828152602081018484840111156125d0576125cf612298565b5b6125db848285612349565b509392505050565b600082601f8301126125f8576125f7612293565b5b81356126088482602086016125a1565b91505092915050565b6000806000806080858703121561262b5761262a611f11565b5b60006126398782880161215e565b945050602061264a8782880161215e565b935050604061265b878288016120a9565b925050606085013567ffffffffffffffff81111561267c5761267b611f16565b5b612688878288016125e3565b91505092959194509250565b600080604083850312156126ab576126aa611f11565b5b60006126b9858286016120a9565b92505060206126ca858286016120a9565b9150509250929050565b600080604083850312156126eb576126ea611f11565b5b60006126f9858286016120a9565b925050602083013567ffffffffffffffff81111561271a57612719611f16565b5b6127268582860161239a565b9150509250929050565b6000806040838503121561274757612746611f11565b5b60006127558582860161215e565b925050602083013567ffffffffffffffff81111561277657612775611f16565b5b6127828582860161239a565b9150509250929050565b600080604083850312156127a3576127a2611f11565b5b60006127b18582860161215e565b92505060206127c28582860161215e565b9150509250929050565b7f4e487b7100000000000000000000000000000000000000000000000000000000600052602260045260246000fd5b6000600282049050600182168061281357607f821691505b602082108103612826576128256127cc565b5b50919050565b6000606082019050612841600083018661211d565b61284e60208301856124da565b61285b604083018461211d565b949350505050565b600081905092915050565b600061287982611fd6565b6128838185612863565b9350612893818560208601611ff2565b80840191505092915050565b60006128ab828461286e565b915081905092915050565b60006128c2828561286e565b91506128ce828461286e565b91508190509392505050565b60008190508160005260206000209050919050565b60006020601f8301049050919050565b600082821b905092915050565b60006008830261293c7fffffffffffffffffffffffffffffffffffffffffffffffffffffffffffffffff826128ff565b61294686836128ff565b95508019841693508086168417925050509392505050565b6000819050919050565b600061298361297e61297984612088565b61295e565b612088565b9050919050565b6000819050919050565b61299d83612968565b6129b16129a98261298a565b84845461290c565b825550505050565b600090565b6129c66129b9565b6129d1818484612994565b505050565b5b818110156129f5576129ea6000826129be565b6001810190506129d7565b5050565b601f821115612a3a57612a0b816128da565b612a14846128ef565b81016020851015612a23578190505b612a37612a2f856128ef565b8301826129d6565b50505b505050565b600082821c905092915050565b6000612a5d60001984600802612a3f565b1980831691505092915050565b6000612a768383612a4c565b9150826002028217905092915050565b612a8f82611fd6565b67ffffffffffffffff811115612aa857612aa761229d565b5b612ab282546127fb565b612abd8282856129f9565b600060209050601f831160018114612af05760008415612ade578287015190505b612ae88582612a6a565b865550612b50565b601f198416612afe866128da565b60005b82811015612b2657848901518255600182019150602085019450602081019050612b01565b86831015612b435784890151612b3f601f891682612a4c565b8355505b6001600288020188555050505b505050505050565b7f4e487b7100000000000000000000000000000000000000000000000000000000600052601160045260246000fd5b6000612b9282612088565b91507fffffffffffffffffffffffffffffffffffffffffffffffffffffffffffffffff8203612bc457612bc3612b58565b5b600182019050919050565b600081519050919050565b600082825260208201905092915050565b6000612bf682612bcf565b612c008185612bda565b9350612c10818560208601611ff2565b612c198161201c565b840191505092915050565b6000608082019050612c39600083018761211d565b612c46602083018661211d565b612c5360408301856124da565b8181036060830152612c658184612beb565b905095945050505050565b600081519050612c7f81611f47565b92915050565b600060208284031215612c9b57612c9a611f11565b5b6000612ca984828501612c70565b91505092915050565b7f4e487b7100000000000000000000000000000000000000000000000000000000600052601260045260246000fd5b6000604082019050612cf6600083018561211d565b612d0360208301846124da565b9392505050565b6000604082019050612d1f600083018561211d565b612d2c6020830184612269565b939250505056fea2646970667358221220c149d7478c0f90a9fb9c4178ada619369a97d087be36ae8cb8bf0177ab4457f664736f6c634300081c0033",
  "linkReferences": {},
  "deployedLinkReferences": {}
}