{
  "_format": "hh-sol-artifact-1",
  "contractName": "SsdlabToken",
  "sourceName": "contracts/SsdlabToken.sol",
  "abi": [
    {
      "inputs": [
        {
          "internalType": "address",
          "name": "teacher",
          "type": "address"
        },
        {
          "internalType": "address",
          "name": "student",
          "type": "address"
        }
      ],
      "stateMutability": "nonpayable",
      "type": "constructor"
    },
    {
      "inputs": [],
      "name": "AccessControlBadConfirmation",
      "type": "error"
    },
    {
      "inputs": [
        {
          "internalType": "address",
          "name": "account",
          "type": "address"
        },
        {
          "internalType": "bytes32",
          "name": "neededRole",
          "type": "bytes32"
        }
      ],
      "name": "AccessControlUnauthorizedAccount",
      "type": "error"
    },
    {
      "inputs": [
        {
          "internalType": "address",
          "name": "sender",
          "type": "address"
        },
        {
          "internalType": "uint256",
          "name": "tokenId",
          "type": "uint256"
        },
        {
          "internalType": "address",
          "name": "owner",
          "type": "address"
        }
      ],
      "name": "ERC721IncorrectOwner",
      "type": "error"
    },
    {
      "inputs": [
        {
          "internalType": "address",
          "name": "operator",
          "type": "address"
        },
        {
          "internalType": "uint256",
          "name": "tokenId",
          "type": "uint256"
        }
      ],
      "name": "ERC721InsufficientApproval",
      "type": "error"
    },
    {
      "inputs": [
        {
          "internalType": "address",
          "name": "approver",
          "type": "address"
        }
      ],
      "name": "ERC721InvalidApprover",
      "type": "error"
    },
    {
      "inputs": [
        {
          "internalType": "address",
          "name": "operator",
          "type": "address"
        }
      ],
      "name": "ERC721InvalidOperator",
      "type": "error"
    },
    {
      "inputs": [
        {
          "internalType": "address",
          "name": "owner",
          "type": "address"
        }
      ],
      "name": "ERC721InvalidOwner",
      "type": "error"
    },
    {
      "inputs": [
        {
          "internalType": "address",
          "name": "receiver",
          "type": "address"
        }
      ],
      "name": "ERC721InvalidReceiver",
      "type": "error"
    },
    {
      "inputs": [
        {
          "internalType": "address",
          "name": "sender",
          "type": "address"
        }
      ],
      "name": "ERC721InvalidSender",
      "type": "error"
    },
    {
      "inputs": [
        {
          "internalType": "uint256",
          "name": "tokenId",
          "type": "uint256"
        }
      ],
      "name": "ERC721NonexistentToken",
      "type": "error"
    },
    {
      "anonymous": false,
      "inputs": [
        {
          "indexed": true,
          "internalType": "address",
          "name": "owner",
          "type": "address"
        },
        {
          "indexed": true,
          "internalType": "address",
          "name": "approved",
          "type": "address"
        },
        {
          "indexed": true,
          "internalType": "uint256",
          "name": "tokenId",
          "type": "uint256"
        }
      ],
      "name": "Approval",
      "type": "event"
    },
    {
      "anonymous": false,
      "inputs": [
        {
          "indexed": true,
          "internalType": "address",
          "name": "owner",
          "type": "address"
        },
        {
          "indexed": true,
          "internalType": "address",
          "name": "operator",
          "type": "address"
        },
        {
          "indexed": false,
          "internalType": "bool",
          "name": "approved",
          "type": "bool"
        }
      ],
      "name": "ApprovalForAll",
      "type": "event"
    },
    {
      "anonymous": false,
      "inputs": [
        {
          "indexed": true,
          "internalType": "address",
          "name": "userA",
          "type": "address"
        },
        {
          "indexed": true,
          "internalType": "address",
          "name": "userB",
          "type": "address"
        }
      ],
      "name": "ConnectionAdded",
      "type": "event"
    },
    {
      "anonymous": false,
      "inputs": [
        {
          "indexed": true,
          "internalType": "address",
          "name": "userA",
          "type": "address"
        },
        {
          "indexed": true,
          "internalType": "address",
          "name": "userB",
          "type": "address"
        }
      ],
      "name": "ConnectionRemoved",
      "type": "event"
    },
    {
      "anonymous": false,
      "inputs": [
        {
          "indexed": true,
          "internalType": "address",
          "name": "_operator",
          "type": "address"
        }
      ],
      "name": "NewOperator",
      "type": "event"
    },
    {
      "anonymous": false,
      "inputs": [
        {
          "indexed": false,
          "internalType": "address",
          "name": "_rated",
          "type": "address"
        },
        {
          "indexed": false,
          "internalType": "int8",
          "name": "_rating",
          "type": "int8"
        }
      ],
      "name": "Rating",
      "type": "event"
    },
    {
      "anonymous": false,
      "inputs": [
        {
          "indexed": false,
          "internalType": "address",
          "name": "_removed",
          "type": "address"
        }
      ],
      "name": "Removal",
      "type": "event"
    },
    {
      "anonymous": false,
      "inputs": [
        {
          "indexed": true,
          "internalType": "bytes32",
          "name": "role",
          "type": "bytes32"
        },
        {
          "indexed": true,
          "internalType": "bytes32",
          "name": "previousAdminRole",
          "type": "bytes32"
        },
        {
          "indexed": true,
          "internalType": "bytes32",
          "name": "newAdminRole",
          "type": "bytes32"
        }
      ],
      "name": "RoleAdminChanged",
      "type": "event"
    },
    {
      "anonymous": false,
      "inputs": [
        {
          "indexed": true,
          "internalType": "bytes32",
          "name": "role",
          "type": "bytes32"
        },
        {
          "indexed": true,
          "internalType": "address",
          "name": "account",
          "type": "address"
        },
        {
          "indexed": true,
          "internalType": "address",
          "name": "sender",
          "type": "address"
        }
      ],
      "name": "RoleGranted",
      "type": "event"
    },
    {
      "anonymous": false,
      "inputs": [
        {
          "indexed": true,
          "internalType": "bytes32",
          "name": "role",
          "type": "bytes32"
        },
        {
          "indexed": true,
          "internalType": "address",
          "name": "account",
          "type": "address"
        },
        {
          "indexed": true,
          "internalType": "address",
          "name": "sender",
          "type": "address"
        }
      ],
      "name": "RoleRevoked",
      "type": "event"
    },
    {
      "anonymous": false,
      "inputs": [
        {
          "indexed": true,
          "internalType": "address",
          "name": "from",
          "type": "address"
        },
        {
          "indexed": true,
          "internalType": "address",
          "name": "to",
          "type": "address"
        },
        {
          "indexed": true,
          "internalType": "uint256",
          "name": "tokenId",
          "type": "uint256"
        }
      ],
      "name": "Transfer",
      "type": "event"
    },
    {
      "anonymous": false,
      "inputs": [
        {
          "indexed": true,
          "internalType": "address",
          "name": "user",
          "type": "address"
        }
      ],
      "name": "UserAdded",
      "type": "event"
    },
    {
      "inputs": [],
      "name": "DEFAULT_ADMIN_ROLE",
      "outputs": [
        {
          "internalType": "bytes32",
          "name": "",
          "type": "bytes32"
        }
      ],
      "stateMutability": "view",
      "type": "function"
    },
    {
      "inputs": [],
      "name": "STUDENTS_ROLE",
      "outputs": [
        {
          "internalType": "bytes32",
          "name": "",
          "type": "bytes32"
        }
      ],
      "stateMutability": "view",
      "type": "function"
    },
    {
      "inputs": [],
      "name": "TEACHER_ROLE",
      "outputs": [
        {
          "internalType": "bytes32",
          "name": "",
          "type": "bytes32"
        }
      ],
      "stateMutability": "view",
      "type": "function"
    },
    {
      "inputs": [
        {
          "internalType": "address",
          "name": "userA",
          "type": "address"
        },
        {
          "internalType": "address",
          "name": "userB",
          "type": "address"
        }
      ],
      "name": "addEdge",
      "outputs": [],
      "stateMutability": "nonpayable",
      "type": "function"
    },
    {
      "inputs": [
        {
          "internalType": "address",
          "name": "user",
          "type": "address"
        }
      ],
      "name": "addVertex",
      "outputs": [],
      "stateMutability": "nonpayable",
      "type": "function"
    },
    {
      "inputs": [
        {
          "internalType": "address",
          "name": "",
          "type": "address"
        },
        {
          "internalType": "uint256",
          "name": "",
          "type": "uint256"
        }
      ],
      "name": "adjacencyList",
      "outputs": [
        {
          "internalType": "address",
          "name": "",
          "type": "address"
        }
      ],
      "stateMutability": "view",
      "type": "function"
    },
    {
      "inputs": [
        {
          "internalType": "address",
          "name": "to",
          "type": "address"
        },
        {
          "internalType": "uint256",
          "name": "tokenId",
          "type": "uint256"
        }
      ],
      "name": "approve",
      "outputs": [],
      "stateMutability": "nonpayable",
      "type": "function"
    },
    {
      "inputs": [
        {
          "internalType": "address",
          "name": "owner",
          "type": "address"
        }
      ],
      "name": "balanceOf",
      "outputs": [
        {
          "internalType": "uint256",
          "name": "",
          "type": "uint256"
        }
      ],
      "stateMutability": "view",
      "type": "function"
    },
    {
      "inputs": [
        {
          "internalType": "address",
          "name": "user",
          "type": "address"
        }
      ],
      "name": "calculateDegreeCentrality",
      "outputs": [
        {
          "internalType": "int8",
          "name": "",
          "type": "int8"
        }
      ],
      "stateMutability": "view",
      "type": "function"
    },
    {
      "inputs": [],
      "name": "getAllDegreeCentralities",
      "outputs": [
        {
          "internalType": "address[]",
          "name": "users",
          "type": "address[]"
        },
        {
          "internalType": "int8[]",
          "name": "centralities",
          "type": "int8[]"
        }
      ],
      "stateMutability": "view",
      "type": "function"
    },
    {
      "inputs": [],
      "name": "getAllUsers",
      "outputs": [
        {
          "internalType": "address[]",
          "name": "",
          "type": "address[]"
        }
      ],
      "stateMutability": "view",
      "type": "function"
    },
    {
      "inputs": [
        {
          "internalType": "uint256",
          "name": "tokenId",
          "type": "uint256"
        }
      ],
      "name": "getApproved",
      "outputs": [
        {
          "internalType": "address",
          "name": "",
          "type": "address"
        }
      ],
      "stateMutability": "view",
      "type": "function"
    },
    {
      "inputs": [
        {
          "internalType": "address",
          "name": "user",
          "type": "address"
        }
      ],
      "name": "getConnections",
      "outputs": [
        {
          "internalType": "address[]",
          "name": "",
          "type": "address[]"
        }
      ],
      "stateMutability": "view",
      "type": "function"
    },
    {
      "inputs": [
        {
          "internalType": "address",
          "name": "user",
          "type": "address"
        }
      ],
      "name": "getDegree",
      "outputs": [
        {
          "internalType": "uint256",
          "name": "",
          "type": "uint256"
        }
      ],
      "stateMutability": "view",
      "type": "function"
    },
    {
      "inputs": [
        {
          "internalType": "uint256",
          "name": "tokenId",
          "type": "uint256"
        }
      ],
      "name": "getExchangeTokenId",
      "outputs": [
        {
          "internalType": "uint256",
          "name": "",
          "type": "uint256"
        }
      ],
      "stateMutability": "view",
      "type": "function"
    },
    {
      "inputs": [
        {
          "internalType": "bytes32",
          "name": "role",
          "type": "bytes32"
        }
      ],
      "name": "getRoleAdmin",
      "outputs": [
        {
          "internalType": "bytes32",
          "name": "",
          "type": "bytes32"
        }
      ],
      "stateMutability": "view",
      "type": "function"
    },
    {
      "inputs": [
        {
          "internalType": "address",
          "name": "_user",
          "type": "address"
        }
      ],
      "name": "getScore",
      "outputs": [
        {
          "internalType": "int8",
          "name": "",
          "type": "int8"
        }
      ],
      "stateMutability": "view",
      "type": "function"
    },
    {
      "inputs": [
        {
          "internalType": "uint256",
          "name": "tokenId",
          "type": "uint256"
        }
      ],
      "name": "getTokenName",
      "outputs": [
        {
          "internalType": "string",
          "name": "",
          "type": "string"
        }
      ],
      "stateMutability": "view",
      "type": "function"
    },
    {
      "inputs": [],
      "name": "getTotalConnections",
      "outputs": [
        {
          "internalType": "uint256",
          "name": "",
          "type": "uint256"
        }
      ],
      "stateMutability": "view",
      "type": "function"
    },
    {
      "inputs": [
        {
          "internalType": "string",
          "name": "userName",
          "type": "string"
        }
      ],
      "name": "getUserAddress",
      "outputs": [
        {
          "internalType": "address",
          "name": "",
          "type": "address"
        }
      ],
      "stateMutability": "view",
      "type": "function"
    },
    {
      "inputs": [],
      "name": "getUserCount",
      "outputs": [
        {
          "internalType": "uint256",
          "name": "",
          "type": "uint256"
        }
      ],
      "stateMutability": "view",
      "type": "function"
    },
    {
      "inputs": [
        {
          "internalType": "bytes32",
          "name": "role",
          "type": "bytes32"
        },
        {
          "internalType": "address",
          "name": "account",
          "type": "address"
        }
      ],
      "name": "grantRole",
      "outputs": [],
      "stateMutability": "nonpayable",
      "type": "function"
    },
    {
      "inputs": [
        {
          "internalType": "bytes32",
          "name": "role",
          "type": "bytes32"
        },
        {
          "internalType": "address",
          "name": "account",
          "type": "address"
        }
      ],
      "name": "hasRole",
      "outputs": [
        {
          "internalType": "bool",
          "name": "",
          "type": "bool"
        }
      ],
      "stateMutability": "view",
      "type": "function"
    },
    {
      "inputs": [
        {
          "internalType": "address",
          "name": "owner",
          "type": "address"
        },
        {
          "internalType": "address",
          "name": "operator",
          "type": "address"
        }
      ],
      "name": "isApprovedForAll",
      "outputs": [
        {
          "internalType": "bool",
          "name": "",
          "type": "bool"
        }
      ],
      "stateMutability": "view",
      "type": "function"
    },
    {
      "inputs": [
        {
          "internalType": "address",
          "name": "userA",
          "type": "address"
        },
        {
          "internalType": "address",
          "name": "userB",
          "type": "address"
        }
      ],
      "name": "isConnected",
      "outputs": [
        {
          "internalType": "bool",
          "name": "",
          "type": "bool"
        }
      ],
      "stateMutability": "view",
      "type": "function"
    },
    {
      "inputs": [],
      "name": "name",
      "outputs": [
        {
          "internalType": "string",
          "name": "",
          "type": "string"
        }
      ],
      "stateMutability": "view",
      "type": "function"
    },
    {
      "inputs": [
        {
          "internalType": "uint256",
          "name": "tokenId",
          "type": "uint256"
        }
      ],
      "name": "ownerOf",
      "outputs": [
        {
          "internalType": "address",
          "name": "",
          "type": "address"
        }
      ],
      "stateMutability": "view",
      "type": "function"
    },
    {
      "inputs": [
        {
          "internalType": "address",
          "name": "_rated",
          "type": "address"
        },
        {
          "internalType": "int8",
          "name": "_rating",
          "type": "int8"
        }
      ],
      "name": "rate",
      "outputs": [],
      "stateMutability": "nonpayable",
      "type": "function"
    },
    {
      "inputs": [
        {
          "internalType": "address",
          "name": "_rated",
          "type": "address"
        }
      ],
      "name": "ratingOf",
      "outputs": [
        {
          "internalType": "int8",
          "name": "",
          "type": "int8"
        }
      ],
      "stateMutability": "view",
      "type": "function"
    },
    {
      "inputs": [
        {
          "internalType": "address",
          "name": "_removed",
          "type": "address"
        }
      ],
      "name": "removeRating",
      "outputs": [],
      "stateMutability": "nonpayable",
      "type": "function"
    },
    {
      "inputs": [
        {
          "internalType": "bytes32",
          "name": "role",
          "type": "bytes32"
        },
        {
          "internalType": "address",
          "name": "callerConfirmation",
          "type": "address"
        }
      ],
      "name": "renounceRole",
      "outputs": [],
      "stateMutability": "nonpayable",
      "type": "function"
    },
    {
      "inputs": [
        {
          "internalType": "bytes32",
          "name": "role",
          "type": "bytes32"
        },
        {
          "internalType": "address",
          "name": "account",
          "type": "address"
        }
      ],
      "name": "revokeRole",
      "outputs": [],
      "stateMutability": "nonpayable",
      "type": "function"
    },
    {
      "inputs": [
        {
          "internalType": "address",
          "name": "to",
          "type": "address"
        },
        {
          "internalType": "string",
          "name": "_tokenName",
          "type": "string"
        }
      ],
      "name": "safeMint",
      "outputs": [
        {
          "internalType": "uint256",
          "name": "",
          "type": "uint256"
        }
      ],
      "stateMutability": "nonpayable",
      "type": "function"
    },
    {
      "inputs": [
        {
          "internalType": "address",
          "name": "from",
          "type": "address"
        },
        {
          "internalType": "address",
          "name": "to",
          "type": "address"
        },
        {
          "internalType": "uint256",
          "name": "tokenId",
          "type": "uint256"
        }
      ],
      "name": "safeTransferFrom",
      "outputs": [],
      "stateMutability": "nonpayable",
      "type": "function"
    },
    {
      "inputs": [
        {
          "internalType": "address",
          "name": "from",
          "type": "address"
        },
        {
          "internalType": "address",
          "name": "to",
          "type": "address"
        },
        {
          "internalType": "uint256",
          "name": "tokenId",
          "type": "uint256"
        },
        {
          "internalType": "bytes",
          "name": "data",
          "type": "bytes"
        }
      ],
      "name": "safeTransferFrom",
      "outputs": [],
      "stateMutability": "nonpayable",
      "type": "function"
    },
    {
      "inputs": [
        {
          "internalType": "address payable",
          "name": "_to",
          "type": "address"
        }
      ],
      "name": "sendTransaction",
      "outputs": [],
      "stateMutability": "payable",
      "type": "function"
    },
    {
      "inputs": [
        {
          "internalType": "address",
          "name": "operator",
          "type": "address"
        },
        {
          "internalType": "bool",
          "name": "approved",
          "type": "bool"
        }
      ],
      "name": "setApprovalForAll",
      "outputs": [],
      "stateMutability": "nonpayable",
      "type": "function"
    },
    {
      "inputs": [
        {
          "internalType": "uint256",
          "name": "tokenId",
          "type": "uint256"
        },
        {
          "internalType": "uint256",
          "name": "exchangeTokenId",
          "type": "uint256"
        }
      ],
      "name": "setExchangeTokenId",
      "outputs": [],
      "stateMutability": "nonpayable",
      "type": "function"
    },
    {
      "inputs": [
        {
          "internalType": "address",
          "name": "_operator",
          "type": "address"
        }
      ],
      "name": "setOperator",
      "outputs": [],
      "stateMutability": "nonpayable",
      "type": "function"
    },
    {
      "inputs": [
        {
          "internalType": "uint256",
          "name": "tokenId",
          "type": "uint256"
        },
        {
          "internalType": "string",
          "name": "tokenName",
          "type": "string"
        }
      ],
      "name": "setTokenName",
      "outputs": [],
      "stateMutability": "nonpayable",
      "type": "function"
    },
    {
      "inputs": [
        {
          "internalType": "string",
          "name": "userName",
          "type": "string"
        },
        {
          "internalType": "address",
          "name": "userAddress",
          "type": "address"
        }
      ],
      "name": "setUserAddress",
      "outputs": [],
      "stateMutability": "nonpayable",
      "type": "function"
    },
    {
      "inputs": [
        {
          "internalType": "bytes4",
          "name": "interfaceId",
          "type": "bytes4"
        }
      ],
      "name": "supportsInterface",
      "outputs": [
        {
          "internalType": "bool",
          "name": "",
          "type": "bool"
        }
      ],
      "stateMutability": "view",
      "type": "function"
    },
    {
      "inputs": [],
      "name": "symbol",
      "outputs": [
        {
          "internalType": "string",
          "name": "",
          "type": "string"
        }
      ],
      "stateMutability": "view",
      "type": "function"
    },
    {
      "inputs": [
        {
          "internalType": "uint256",
          "name": "tokenId",
          "type": "uint256"
        }
      ],
      "name": "tokenURI",
      "outputs": [
        {
          "internalType": "string",
          "name": "",
          "type": "string"
        }
      ],
      "stateMutability": "view",
      "type": "function"
    },
    {
      "inputs": [
        {
          "internalType": "address",
          "name": "from",
          "type": "address"
        },
        {
          "internalType": "address",
          "name": "to",
          "type": "address"
        },
        {
          "internalType": "uint256",
          "name": "tokenId",
          "type": "uint256"
        }
      ],
      "name": "transferFrom",
      "outputs": [],
      "stateMutability": "nonpayable",
      "type": "function"
    },
    {
      "inputs": [
        {
          "internalType": "address",
          "name": "",
          "type": "address"
        }
      ],
      "name": "vertexExists",
      "outputs": [
        {
          "internalType": "bool",
          "name": "",
          "type": "bool"
        }
      ],
      "stateMutability": "view",
      "type": "function"
    },
    {
      "inputs": [
        {
          "internalType": "uint256",
          "name": "",
          "type": "uint256"
        }
      ],
      "name": "vertices",
      "outputs": [
        {
          "internalType": "address",
          "name": "",
          "type": "address"
        }
      ],
      "stateMutability": "view",
      "type": "function"
    }
  ],
  "bytecode": "0x60806040526000600d5534801561001557600080fd5b506040516158ac3803806158ac8339818101604052810190610037919061035c565b816040518060400160405280600781526020017f4d79546f6b656e0000000000000000000000000000000000000000000000000081525060405180602001604052806000815250816000908161008d91906105ec565b50806001908161009d91906105ec565b5050506001600a60008373ffffffffffffffffffffffffffffffffffffffff1673ffffffffffffffffffffffffffffffffffffffff16815260200190815260200160002060006101000a81548160ff0219169083151502179055508073ffffffffffffffffffffffffffffffffffffffff167fda12ee837e6978172aaf54b16145ffe08414fd8710092ef033c71b8eb6ec189a60405160405180910390a25061014f6000801b8361018860201b60201c565b506101807f5eeefbd1446176eeb282e93f50761c372c4e4e43ec23a79407cb9bf29660c4ce8261018860201b60201c565b5050506106be565b600061019a838361028660201b60201c565b61027b5760016006600085815260200190815260200160002060000160008473ffffffffffffffffffffffffffffffffffffffff1673ffffffffffffffffffffffffffffffffffffffff16815260200190815260200160002060006101000a81548160ff0219169083151502179055506102186102f160201b60201c565b73ffffffffffffffffffffffffffffffffffffffff168273ffffffffffffffffffffffffffffffffffffffff16847f2f8788117e7eff1d82e926ec794901d17c78024a50270940304540a733656f0d60405160405180910390a460019050610280565b600090505b92915050565b60006006600084815260200190815260200160002060000160008373ffffffffffffffffffffffffffffffffffffffff1673ffffffffffffffffffffffffffffffffffffffff16815260200190815260200160002060009054906101000a900460ff16905092915050565b600033905090565b600080fd5b600073ffffffffffffffffffffffffffffffffffffffff82169050919050565b6000610329826102fe565b9050919050565b6103398161031e565b811461034457600080fd5b50565b60008151905061035681610330565b92915050565b60008060408385031215610373576103726102f9565b5b600061038185828601610347565b925050602061039285828601610347565b9150509250929050565b600081519050919050565b7f4e487b7100000000000000000000000000000000000000000000000000000000600052604160045260246000fd5b7f4e487b7100000000000000000000000000000000000000000000000000000000600052602260045260246000fd5b6000600282049050600182168061041d57607f821691505b6020821081036104305761042f6103d6565b5b50919050565b60008190508160005260206000209050919050565b60006020601f8301049050919050565b600082821b905092915050565b6000600883026104987fffffffffffffffffffffffffffffffffffffffffffffffffffffffffffffffff8261045b565b6104a2868361045b565b95508019841693508086168417925050509392505050565b6000819050919050565b6000819050919050565b60006104e96104e46104df846104ba565b6104c4565b6104ba565b9050919050565b6000819050919050565b610503836104ce565b61051761050f826104f0565b848454610468565b825550505050565b600090565b61052c61051f565b6105378184846104fa565b505050565b5b8181101561055b57610550600082610524565b60018101905061053d565b5050565b601f8211156105a05761057181610436565b61057a8461044b565b81016020851015610589578190505b61059d6105958561044b565b83018261053c565b50505b505050565b600082821c905092915050565b60006105c3600019846008026105a5565b1980831691505092915050565b60006105dc83836105b2565b9150826002028217905092915050565b6105f58261039c565b67ffffffffffffffff81111561060e5761060d6103a7565b5b6106188254610405565b61062382828561055f565b600060209050601f8311600181146106565760008415610644578287015190505b61064e85826105d0565b8655506106b6565b601f19841661066486610436565b60005b8281101561068c57848901518255600182019150602085019450602081019050610667565b868310156106a957848901516106a5601f8916826105b2565b8355505b6001600288020188555050505b505050505050565b6151df806106cd6000396000f3fe6080604052600436106102885760003560e01c806385ef3ded1161015a578063cdb0e89e116100c1578063dbe16c071161007a578063dbe16c0714610a9c578063e2133bef14610ad9578063e2842d7914610b04578063e4e2f55614610b2f578063e985e9c514610b58578063fb9c5fe714610b9557610288565b8063cdb0e89e14610956578063d204c45e1461097f578063d47875d0146109bc578063d547741f146109f9578063d66827ad14610a22578063d6d08dca14610a5f57610288565b8063a22cb46511610113578063a22cb4651461084a578063b3ab15fb14610873578063b5cb15f71461089c578063b88d4fde146108c7578063c422c9bb146108f0578063c87b56dd1461091957610288565b806385ef3ded1461072357806386e5c15a146107605780638dde55771461078b57806391d14854146107b757806395d89b41146107f4578063a217fddf1461081f57610288565b8063328d1e60116101fe57806346552e61116101b757806346552e61146105b55780634985e85c146105f25780636205f4c51461062f5780636352211e1461066c5780636fcb532f146106a957806370a08231146106e657610288565b8063328d1e60146104a957806336568abe146104d457806336896d38146104fd57806336b56dfc1461053a5780633d9600861461056357806342842e0e1461058c57610288565b8063109d3ee811610250578063109d3ee81461039857806323b872dd146103d5578063248a9ca3146103fe5780632bd123fe1461043b5780632c588077146104575780632f2ff15d1461048057610288565b8063018ecb121461028d57806301ffc9a7146102ca57806306fdde0314610307578063081812fc14610332578063095ea7b31461036f575b600080fd5b34801561029957600080fd5b506102b460048036038101906102af9190613a2e565b610bbe565b6040516102c19190613a9c565b60405180910390f35b3480156102d657600080fd5b506102f160048036038101906102ec9190613b0f565b610bfd565b6040516102fe9190613b57565b60405180910390f35b34801561031357600080fd5b5061031c610c0f565b6040516103299190613c02565b60405180910390f35b34801561033e57600080fd5b5061035960048036038101906103549190613a2e565b610ca1565b6040516103669190613a9c565b60405180910390f35b34801561037b57600080fd5b5061039660048036038101906103919190613c50565b610cbd565b005b3480156103a457600080fd5b506103bf60048036038101906103ba9190613c90565b610cd3565b6040516103cc9190613b57565b60405180910390f35b3480156103e157600080fd5b506103fc60048036038101906103f79190613cbd565b610cf3565b005b34801561040a57600080fd5b5061042560048036038101906104209190613d46565b610d0d565b6040516104329190613d82565b60405180910390f35b61045560048036038101906104509190613ddb565b610d2d565b005b34801561046357600080fd5b5061047e60048036038101906104799190613f3d565b610d77565b005b34801561048c57600080fd5b506104a760048036038101906104a29190613f99565b610dd8565b005b3480156104b557600080fd5b506104be610dfa565b6040516104cb9190613fe8565b60405180910390f35b3480156104e057600080fd5b506104fb60048036038101906104f69190613f99565b610ec0565b005b34801561050957600080fd5b50610524600480360381019061051f9190614003565b610f3b565b6040516105319190613b57565b60405180910390f35b34801561054657600080fd5b50610561600480360381019061055c9190613c90565b611134565b005b34801561056f57600080fd5b5061058a60048036038101906105859190614003565b611331565b005b34801561059857600080fd5b506105b360048036038101906105ae9190613cbd565b6116e6565b005b3480156105c157600080fd5b506105dc60048036038101906105d79190613c90565b611706565b6040516105e99190614101565b60405180910390f35b3480156105fe57600080fd5b5061061960048036038101906106149190614123565b61185f565b6040516106269190613a9c565b60405180910390f35b34801561063b57600080fd5b5061065660048036038101906106519190613c90565b6118a7565b6040516106639190614188565b60405180910390f35b34801561067857600080fd5b50610693600480360381019061068e9190613a2e565b6118fd565b6040516106a09190613a9c565b60405180910390f35b3480156106b557600080fd5b506106d060048036038101906106cb9190613c90565b61190f565b6040516106dd9190614188565b60405180910390f35b3480156106f257600080fd5b5061070d60048036038101906107089190613c90565b611a63565b60405161071a9190613fe8565b60405180910390f35b34801561072f57600080fd5b5061074a60048036038101906107459190613a2e565b611b1d565b6040516107579190613fe8565b60405180910390f35b34801561076c57600080fd5b50610775611b3a565b6040516107829190613d82565b60405180910390f35b34801561079757600080fd5b506107a0611b5e565b6040516107ae929190614261565b60405180910390f35b3480156107c357600080fd5b506107de60048036038101906107d99190613f99565b611d19565b6040516107eb9190613b57565b60405180910390f35b34801561080057600080fd5b50610809611d84565b6040516108169190613c02565b60405180910390f35b34801561082b57600080fd5b50610834611e16565b6040516108419190613d82565b60405180910390f35b34801561085657600080fd5b50610871600480360381019061086c91906142c4565b611e1d565b005b34801561087f57600080fd5b5061089a60048036038101906108959190613c90565b611e33565b005b3480156108a857600080fd5b506108b1612059565b6040516108be9190613fe8565b60405180910390f35b3480156108d357600080fd5b506108ee60048036038101906108e991906143a5565b612066565b005b3480156108fc57600080fd5b5061091760048036038101906109129190614428565b61208b565b005b34801561092557600080fd5b50610940600480360381019061093b9190613a2e565b6120a7565b60405161094d9190613c02565b60405180910390f35b34801561096257600080fd5b5061097d60048036038101906109789190614468565b612110565b005b34801561098b57600080fd5b506109a660048036038101906109a191906144c4565b612135565b6040516109b39190613fe8565b60405180910390f35b3480156109c857600080fd5b506109e360048036038101906109de9190613c90565b612173565b6040516109f09190614188565b60405180910390f35b348015610a0557600080fd5b50610a206004803603810190610a1b9190613f99565b6121f3565b005b348015610a2e57600080fd5b50610a496004803603810190610a449190613c50565b612215565b604051610a569190613a9c565b60405180910390f35b348015610a6b57600080fd5b50610a866004803603810190610a819190613c90565b612263565b604051610a939190613fe8565b60405180910390f35b348015610aa857600080fd5b50610ac36004803603810190610abe9190613a2e565b61233b565b604051610ad09190613c02565b60405180910390f35b348015610ae557600080fd5b50610aee6123e0565b604051610afb9190613d82565b60405180910390f35b348015610b1057600080fd5b50610b19612404565b604051610b269190614101565b60405180910390f35b348015610b3b57600080fd5b50610b566004803603810190610b51919061454c565b612492565b005b348015610b6457600080fd5b50610b7f6004803603810190610b7a9190614003565b61269b565b604051610b8c9190613b57565b60405180910390f35b348015610ba157600080fd5b50610bbc6004803603810190610bb79190613c90565b61272f565b005b60088181548110610bce57600080fd5b906000526020600020016000915054906101000a900473ffffffffffffffffffffffffffffffffffffffff1681565b6000610c08826128b3565b9050919050565b606060008054610c1e906145bb565b80601f0160208091040260200160405190810160405280929190818152602001828054610c4a906145bb565b8015610c975780601f10610c6c57610100808354040283529160200191610c97565b820191906000526020600020905b815481529060010190602001808311610c7a57829003601f168201915b5050505050905090565b6000610cac82612985565b50610cb682612a0d565b9050919050565b610ccf8282610cca612a4a565b612a52565b5050565b60096020528060005260406000206000915054906101000a900460ff1681565b610cfe838383612a64565b610d088383611331565b505050565b600060066000838152602001908152602001600020600101549050919050565b8073ffffffffffffffffffffffffffffffffffffffff166108fc349081150290604051600060405180830381858888f19350505050158015610d73573d6000803e3d6000fd5b5050565b80601083604051610d889190614628565b908152602001604051809103902060006101000a81548173ffffffffffffffffffffffffffffffffffffffff021916908373ffffffffffffffffffffffffffffffffffffffff1602179055505050565b610de182610d0d565b610dea81612b66565b610df48383612b7a565b50505050565b6000806000905060005b600880549050811015610eac576007600060088381548110610e2957610e2861463f565b5b9060005260206000200160009054906101000a900473ffffffffffffffffffffffffffffffffffffffff1673ffffffffffffffffffffffffffffffffffffffff1673ffffffffffffffffffffffffffffffffffffffff1681526020019081526020016000208054905082610e9d919061469d565b91508080600101915050610e04565b50600281610eba9190614700565b91505090565b610ec8612a4a565b73ffffffffffffffffffffffffffffffffffffffff168173ffffffffffffffffffffffffffffffffffffffff1614610f2c576040517f6697b23200000000000000000000000000000000000000000000000000000000815260040160405180910390fd5b610f368282612c6c565b505050565b6000600960008473ffffffffffffffffffffffffffffffffffffffff1673ffffffffffffffffffffffffffffffffffffffff16815260200190815260200160002060009054906101000a900460ff161580610fe05750600960008373ffffffffffffffffffffffffffffffffffffffff1673ffffffffffffffffffffffffffffffffffffffff16815260200190815260200160002060009054906101000a900460ff16155b15610fee576000905061112e565b6000600760008573ffffffffffffffffffffffffffffffffffffffff1673ffffffffffffffffffffffffffffffffffffffff1681526020019081526020016000208054806020026020016040519081016040528092919081815260200182805480156110af57602002820191906000526020600020905b8160009054906101000a900473ffffffffffffffffffffffffffffffffffffffff1673ffffffffffffffffffffffffffffffffffffffff1681526020019060010190808311611065575b5050505050905060005b8151811015611127578373ffffffffffffffffffffffffffffffffffffffff168282815181106110ec576110eb61463f565b5b602002602001015173ffffffffffffffffffffffffffffffffffffffff160361111a5760019250505061112e565b80806001019150506110b9565b5060009150505b92915050565b600073ffffffffffffffffffffffffffffffffffffffff168173ffffffffffffffffffffffffffffffffffffffff16036111a3576040517f08c379a000000000000000000000000000000000000000000000000000000000815260040161119a9061477d565b60405180910390fd5b600960008273ffffffffffffffffffffffffffffffffffffffff1673ffffffffffffffffffffffffffffffffffffffff16815260200190815260200160002060009054906101000a900460ff1615611230576040517f08c379a0000000000000000000000000000000000000000000000000000000008152600401611227906147e9565b60405180910390fd5b6008819080600181540180825580915050600190039060005260206000200160009091909190916101000a81548173ffffffffffffffffffffffffffffffffffffffff021916908373ffffffffffffffffffffffffffffffffffffffff1602179055506001600960008373ffffffffffffffffffffffffffffffffffffffff1673ffffffffffffffffffffffffffffffffffffffff16815260200190815260200160002060006101000a81548160ff0219169083151502179055508073ffffffffffffffffffffffffffffffffffffffff167f19ef9a4877199f89440a26acb26895ec02ed86f2df1aeaa90dc18041b892f71f60405160405180910390a250565b600073ffffffffffffffffffffffffffffffffffffffff168273ffffffffffffffffffffffffffffffffffffffff161415801561139b5750600073ffffffffffffffffffffffffffffffffffffffff168173ffffffffffffffffffffffffffffffffffffffff1614155b6113da576040517f08c379a00000000000000000000000000000000000000000000000000000000081526004016113d19061477d565b60405180910390fd5b8073ffffffffffffffffffffffffffffffffffffffff168273ffffffffffffffffffffffffffffffffffffffff1603611448576040517f08c379a000000000000000000000000000000000000000000000000000000000815260040161143f90614855565b60405180910390fd5b600960008373ffffffffffffffffffffffffffffffffffffffff1673ffffffffffffffffffffffffffffffffffffffff16815260200190815260200160002060009054906101000a900460ff166114a3576114a282611134565b5b600960008273ffffffffffffffffffffffffffffffffffffffff1673ffffffffffffffffffffffffffffffffffffffff16815260200190815260200160002060009054906101000a900460ff166114fe576114fd81611134565b5b6115088282610f3b565b15611548576040517f08c379a000000000000000000000000000000000000000000000000000000000815260040161153f906148c1565b60405180910390fd5b600760008373ffffffffffffffffffffffffffffffffffffffff1673ffffffffffffffffffffffffffffffffffffffff168152602001908152602001600020819080600181540180825580915050600190039060005260206000200160009091909190916101000a81548173ffffffffffffffffffffffffffffffffffffffff021916908373ffffffffffffffffffffffffffffffffffffffff160217905550600760008273ffffffffffffffffffffffffffffffffffffffff1673ffffffffffffffffffffffffffffffffffffffff168152602001908152602001600020829080600181540180825580915050600190039060005260206000200160009091909190916101000a81548173ffffffffffffffffffffffffffffffffffffffff021916908373ffffffffffffffffffffffffffffffffffffffff1602179055508073ffffffffffffffffffffffffffffffffffffffff168273ffffffffffffffffffffffffffffffffffffffff167fb5592a9532ccbdc9d02f659e19cca35ddd0c274b937362cee3a1973a6b5ebe9160405160405180910390a35050565b61170183838360405180602001604052806000815250612066565b505050565b6060600960008373ffffffffffffffffffffffffffffffffffffffff1673ffffffffffffffffffffffffffffffffffffffff16815260200190815260200160002060009054906101000a900460ff16611794576040517f08c379a000000000000000000000000000000000000000000000000000000000815260040161178b9061492d565b60405180910390fd5b600760008373ffffffffffffffffffffffffffffffffffffffff1673ffffffffffffffffffffffffffffffffffffffff16815260200190815260200160002080548060200260200160405190810160405280929190818152602001828054801561185357602002820191906000526020600020905b8160009054906101000a900473ffffffffffffffffffffffffffffffffffffffff1673ffffffffffffffffffffffffffffffffffffffff1681526020019060010190808311611809575b50505050509050919050565b60006010826040516118719190614628565b908152602001604051809103902060009054906101000a900473ffffffffffffffffffffffffffffffffffffffff169050919050565b6000600b60008373ffffffffffffffffffffffffffffffffffffffff1673ffffffffffffffffffffffffffffffffffffffff16815260200190815260200160002060009054906101000a900460000b9050919050565b600061190882612985565b9050919050565b6000600960008373ffffffffffffffffffffffffffffffffffffffff1673ffffffffffffffffffffffffffffffffffffffff16815260200190815260200160002060009054906101000a900460ff1661199d576040517f08c379a00000000000000000000000000000000000000000000000000000000081526004016119949061492d565b60405180910390fd5b600073ffffffffffffffffffffffffffffffffffffffff168273ffffffffffffffffffffffffffffffffffffffff1603611a0c576040517f08c379a0000000000000000000000000000000000000000000000000000000008152600401611a039061477d565b60405180910390fd5b6000600880549050905060018113611a28576000915050611a5e565b6000611a3384612263565b9050600182611a429190614957565b606482611a4f919061499a565b611a599190614a12565b925050505b919050565b60008073ffffffffffffffffffffffffffffffffffffffff168273ffffffffffffffffffffffffffffffffffffffff1603611ad65760006040517f89c62b64000000000000000000000000000000000000000000000000000000008152600401611acd9190613a9c565b60405180910390fd5b600360008373ffffffffffffffffffffffffffffffffffffffff1673ffffffffffffffffffffffffffffffffffffffff168152602001908152602001600020549050919050565b6000600f6000838152602001908152602001600020549050919050565b7fd16e204b8a42a15ab0ea6bb8ec1ecdfbe69f38074fc865323af19efe7d9573d981565b606080600060088054905090508067ffffffffffffffff811115611b8557611b84613e12565b5b604051908082528060200260200182016040528015611bb35781602001602082028036833780820191505090505b5092508067ffffffffffffffff811115611bd057611bcf613e12565b5b604051908082528060200260200182016040528015611bfe5781602001602082028036833780820191505090505b50915060005b81811015611d135760088181548110611c2057611c1f61463f565b5b9060005260206000200160009054906101000a900473ffffffffffffffffffffffffffffffffffffffff16848281518110611c5e57611c5d61463f565b5b602002602001019073ffffffffffffffffffffffffffffffffffffffff16908173ffffffffffffffffffffffffffffffffffffffff1681525050611cdf60088281548110611caf57611cae61463f565b5b9060005260206000200160009054906101000a900473ffffffffffffffffffffffffffffffffffffffff1661190f565b838281518110611cf257611cf161463f565b5b602002602001019060000b908160000b815250508080600101915050611c04565b50509091565b60006006600084815260200190815260200160002060000160008373ffffffffffffffffffffffffffffffffffffffff1673ffffffffffffffffffffffffffffffffffffffff16815260200190815260200160002060009054906101000a900460ff16905092915050565b606060018054611d93906145bb565b80601f0160208091040260200160405190810160405280929190818152602001828054611dbf906145bb565b8015611e0c5780601f10611de157610100808354040283529160200191611e0c565b820191906000526020600020905b815481529060010190602001808311611def57829003601f168201915b5050505050905090565b6000801b81565b611e2f611e28612a4a565b8383612d5f565b5050565b600a60003373ffffffffffffffffffffffffffffffffffffffff1673ffffffffffffffffffffffffffffffffffffffff16815260200190815260200160002060009054906101000a900460ff16611ebf576040517f08c379a0000000000000000000000000000000000000000000000000000000008152600401611eb690614ac8565b60405180910390fd5b600073ffffffffffffffffffffffffffffffffffffffff168173ffffffffffffffffffffffffffffffffffffffff1603611f2e576040517f08c379a0000000000000000000000000000000000000000000000000000000008152600401611f2590614b34565b60405180910390fd5b600a60008273ffffffffffffffffffffffffffffffffffffffff1673ffffffffffffffffffffffffffffffffffffffff16815260200190815260200160002060009054906101000a900460ff1615611fbb576040517f08c379a0000000000000000000000000000000000000000000000000000000008152600401611fb290614ba0565b60405180910390fd5b6001600a60008373ffffffffffffffffffffffffffffffffffffffff1673ffffffffffffffffffffffffffffffffffffffff16815260200190815260200160002060006101000a81548160ff0219169083151502179055508073ffffffffffffffffffffffffffffffffffffffff167fda12ee837e6978172aaf54b16145ffe08414fd8710092ef033c71b8eb6ec189a60405160405180910390a250565b6000600880549050905090565b612071848484610cf3565b61208561207c612a4a565b85858585612ece565b50505050565b80600f6000848152602001908152602001600020819055505050565b60606120b282612985565b5060006120bd61307f565b905060008151116120dd5760405180602001604052806000815250612108565b806120e784613096565b6040516020016120f8929190614bc0565b6040516020818303038152906040525b915050919050565b80600e600084815260200190815260200160002090816121309190614d90565b505050565b600080600d5490506121478482613164565b6121518184612110565b600d600081548092919061216490614e62565b91905055508091505092915050565b60008073ffffffffffffffffffffffffffffffffffffffff168273ffffffffffffffffffffffffffffffffffffffff16036121e3576040517f08c379a00000000000000000000000000000000000000000000000000000000081526004016121da9061477d565b60405180910390fd5b6121ec8261190f565b9050919050565b6121fc82610d0d565b61220581612b66565b61220f8383612c6c565b50505050565b6007602052816000526040600020818154811061223157600080fd5b906000526020600020016000915091509054906101000a900473ffffffffffffffffffffffffffffffffffffffff1681565b6000600960008373ffffffffffffffffffffffffffffffffffffffff1673ffffffffffffffffffffffffffffffffffffffff16815260200190815260200160002060009054906101000a900460ff166122f1576040517f08c379a00000000000000000000000000000000000000000000000000000000081526004016122e89061492d565b60405180910390fd5b600760008373ffffffffffffffffffffffffffffffffffffffff1673ffffffffffffffffffffffffffffffffffffffff168152602001908152602001600020805490509050919050565b6060600e6000838152602001908152602001600020805461235b906145bb565b80601f0160208091040260200160405190810160405280929190818152602001828054612387906145bb565b80156123d45780601f106123a9576101008083540402835291602001916123d4565b820191906000526020600020905b8154815290600101906020018083116123b757829003601f168201915b50505050509050919050565b7f5eeefbd1446176eeb282e93f50761c372c4e4e43ec23a79407cb9bf29660c4ce81565b6060600880548060200260200160405190810160405280929190818152602001828054801561248857602002820191906000526020600020905b8160009054906101000a900473ffffffffffffffffffffffffffffffffffffffff1673ffffffffffffffffffffffffffffffffffffffff168152602001906001019080831161243e575b5050505050905090565b600a60003373ffffffffffffffffffffffffffffffffffffffff1673ffffffffffffffffffffffffffffffffffffffff16815260200190815260200160002060009054906101000a900460ff1661251e576040517f08c379a000000000000000000000000000000000000000000000000000000000815260040161251590614ac8565b60405180910390fd5b600073ffffffffffffffffffffffffffffffffffffffff168273ffffffffffffffffffffffffffffffffffffffff160361258d576040517f08c379a000000000000000000000000000000000000000000000000000000000815260040161258490614ef6565b60405180910390fd5b7fffffffffffffffffffffffffffffffffffffffffffffffffffffffffffffff818160000b121580156125c45750607f8160000b13155b612603576040517f08c379a00000000000000000000000000000000000000000000000000000000081526004016125fa90614f88565b60405180910390fd5b80600b60008473ffffffffffffffffffffffffffffffffffffffff1673ffffffffffffffffffffffffffffffffffffffff16815260200190815260200160002060006101000a81548160ff021916908360000b60ff1602179055507f5f1944295bdaf381959cb2811e6e622d6a1a7d1e0ff555f1e28fc54ddc5c4652828260405161268f929190614fa8565b60405180910390a15050565b6000600560008473ffffffffffffffffffffffffffffffffffffffff1673ffffffffffffffffffffffffffffffffffffffff16815260200190815260200160002060008373ffffffffffffffffffffffffffffffffffffffff1673ffffffffffffffffffffffffffffffffffffffff16815260200190815260200160002060009054906101000a900460ff16905092915050565b600a60003373ffffffffffffffffffffffffffffffffffffffff1673ffffffffffffffffffffffffffffffffffffffff16815260200190815260200160002060009054906101000a900460ff166127bb576040517f08c379a00000000000000000000000000000000000000000000000000000000081526004016127b290614ac8565b60405180910390fd5b600073ffffffffffffffffffffffffffffffffffffffff168173ffffffffffffffffffffffffffffffffffffffff160361282a576040517f08c379a00000000000000000000000000000000000000000000000000000000081526004016128219061501d565b60405180910390fd5b600b60008273ffffffffffffffffffffffffffffffffffffffff1673ffffffffffffffffffffffffffffffffffffffff16815260200190815260200160002060006101000a81549060ff02191690557f44a5b7afbb86623b8774fc11ab50ba2d84f43f00274a13506ce93a3066bc0d0f816040516128a89190613a9c565b60405180910390a150565b60007f01ffc9a7000000000000000000000000000000000000000000000000000000007bffffffffffffffffffffffffffffffffffffffffffffffffffffffff1916827bffffffffffffffffffffffffffffffffffffffffffffffffffffffff1916148061297e57507fced04b8f000000000000000000000000000000000000000000000000000000007bffffffffffffffffffffffffffffffffffffffffffffffffffffffff1916827bffffffffffffffffffffffffffffffffffffffffffffffffffffffff1916145b9050919050565b60008061299183613182565b9050600073ffffffffffffffffffffffffffffffffffffffff168173ffffffffffffffffffffffffffffffffffffffff1603612a0457826040517f7e2732890000000000000000000000000000000000000000000000000000000081526004016129fb9190613fe8565b60405180910390fd5b80915050919050565b60006004600083815260200190815260200160002060009054906101000a900473ffffffffffffffffffffffffffffffffffffffff169050919050565b600033905090565b612a5f83838360016131bf565b505050565b600073ffffffffffffffffffffffffffffffffffffffff168273ffffffffffffffffffffffffffffffffffffffff1603612ad65760006040517f64a0ae92000000000000000000000000000000000000000000000000000000008152600401612acd9190613a9c565b60405180910390fd5b6000612aea8383612ae5612a4a565b613384565b90508373ffffffffffffffffffffffffffffffffffffffff168173ffffffffffffffffffffffffffffffffffffffff1614612b60578382826040517f64283d7b000000000000000000000000000000000000000000000000000000008152600401612b579392919061503d565b60405180910390fd5b50505050565b612b7781612b72612a4a565b61359e565b50565b6000612b868383611d19565b612c615760016006600085815260200190815260200160002060000160008473ffffffffffffffffffffffffffffffffffffffff1673ffffffffffffffffffffffffffffffffffffffff16815260200190815260200160002060006101000a81548160ff021916908315150217905550612bfe612a4a565b73ffffffffffffffffffffffffffffffffffffffff168273ffffffffffffffffffffffffffffffffffffffff16847f2f8788117e7eff1d82e926ec794901d17c78024a50270940304540a733656f0d60405160405180910390a460019050612c66565b600090505b92915050565b6000612c788383611d19565b15612d545760006006600085815260200190815260200160002060000160008473ffffffffffffffffffffffffffffffffffffffff1673ffffffffffffffffffffffffffffffffffffffff16815260200190815260200160002060006101000a81548160ff021916908315150217905550612cf1612a4a565b73ffffffffffffffffffffffffffffffffffffffff168273ffffffffffffffffffffffffffffffffffffffff16847ff6391f5c32d9c69d2a47ea670b442974b53935d1edc7fd64eb21e047a839171b60405160405180910390a460019050612d59565b600090505b92915050565b600073ffffffffffffffffffffffffffffffffffffffff168273ffffffffffffffffffffffffffffffffffffffff1603612dd057816040517f5b08ba18000000000000000000000000000000000000000000000000000000008152600401612dc79190613a9c565b60405180910390fd5b80600560008573ffffffffffffffffffffffffffffffffffffffff1673ffffffffffffffffffffffffffffffffffffffff16815260200190815260200160002060008473ffffffffffffffffffffffffffffffffffffffff1673ffffffffffffffffffffffffffffffffffffffff16815260200190815260200160002060006101000a81548160ff0219169083151502179055508173ffffffffffffffffffffffffffffffffffffffff168373ffffffffffffffffffffffffffffffffffffffff167f17307eab39ab6107e8899845ad3d59bd9653f200f220920489ca2b5937696c3183604051612ec19190613b57565b60405180910390a3505050565b60008373ffffffffffffffffffffffffffffffffffffffff163b1115613078578273ffffffffffffffffffffffffffffffffffffffff1663150b7a02868685856040518563ffffffff1660e01b8152600401612f2d94939291906150c9565b6020604051808303816000875af1925050508015612f6957506040513d601f19601f82011682018060405250810190612f66919061512a565b60015b612fed573d8060008114612f99576040519150601f19603f3d011682016040523d82523d6000602084013e612f9e565b606091505b506000815103612fe557836040517f64a0ae92000000000000000000000000000000000000000000000000000000008152600401612fdc9190613a9c565b60405180910390fd5b805181602001fd5b63150b7a0260e01b7bffffffffffffffffffffffffffffffffffffffffffffffffffffffff1916817bffffffffffffffffffffffffffffffffffffffffffffffffffffffff19161461307657836040517f64a0ae9200000000000000000000000000000000000000000000000000000000815260040161306d9190613a9c565b60405180910390fd5b505b5050505050565b606060405180602001604052806000815250905090565b6060600060016130a5846135ef565b01905060008167ffffffffffffffff8111156130c4576130c3613e12565b5b6040519080825280601f01601f1916602001820160405280156130f65781602001600182028036833780820191505090505b509050600082602001820190505b600115613159578080600190039150507f3031323334353637383961626364656600000000000000000000000000000000600a86061a8153600a858161314d5761314c6146d1565b5b04945060008503613104575b819350505050919050565b61317e828260405180602001604052806000815250613742565b5050565b60006002600083815260200190815260200160002060009054906101000a900473ffffffffffffffffffffffffffffffffffffffff169050919050565b80806131f85750600073ffffffffffffffffffffffffffffffffffffffff168273ffffffffffffffffffffffffffffffffffffffff1614155b1561332c57600061320884612985565b9050600073ffffffffffffffffffffffffffffffffffffffff168373ffffffffffffffffffffffffffffffffffffffff161415801561327357508273ffffffffffffffffffffffffffffffffffffffff168173ffffffffffffffffffffffffffffffffffffffff1614155b80156132865750613284818461269b565b155b156132c857826040517fa9fbf51f0000000000000000000000000000000000000000000000000000000081526004016132bf9190613a9c565b60405180910390fd5b811561332a57838573ffffffffffffffffffffffffffffffffffffffff168273ffffffffffffffffffffffffffffffffffffffff167f8c5be1e5ebec7d5bd14f71427d1e84f3dd0314c0f7b2291e5b200ac8c7c3b92560405160405180910390a45b505b836004600085815260200190815260200160002060006101000a81548173ffffffffffffffffffffffffffffffffffffffff021916908373ffffffffffffffffffffffffffffffffffffffff16021790555050505050565b60008061339084613182565b9050600073ffffffffffffffffffffffffffffffffffffffff168373ffffffffffffffffffffffffffffffffffffffff16146133d2576133d1818486613766565b5b600073ffffffffffffffffffffffffffffffffffffffff168173ffffffffffffffffffffffffffffffffffffffff1614613463576134146000856000806131bf565b6001600360008373ffffffffffffffffffffffffffffffffffffffff1673ffffffffffffffffffffffffffffffffffffffff168152602001908152602001600020600082825403925050819055505b600073ffffffffffffffffffffffffffffffffffffffff168573ffffffffffffffffffffffffffffffffffffffff16146134e6576001600360008773ffffffffffffffffffffffffffffffffffffffff1673ffffffffffffffffffffffffffffffffffffffff168152602001908152602001600020600082825401925050819055505b846002600086815260200190815260200160002060006101000a81548173ffffffffffffffffffffffffffffffffffffffff021916908373ffffffffffffffffffffffffffffffffffffffff160217905550838573ffffffffffffffffffffffffffffffffffffffff168273ffffffffffffffffffffffffffffffffffffffff167fddf252ad1be2c89b69c2b068fc378daa952ba7f163c4a11628f55a4df523b3ef60405160405180910390a4809150509392505050565b6135a88282611d19565b6135eb5780826040517fe2517d3f0000000000000000000000000000000000000000000000000000000081526004016135e2929190615157565b60405180910390fd5b5050565b600080600090507a184f03e93ff9f4daa797ed6e38ed64bf6a1f010000000000000000831061364d577a184f03e93ff9f4daa797ed6e38ed64bf6a1f0100000000000000008381613643576136426146d1565b5b0492506040810190505b6d04ee2d6d415b85acef8100000000831061368a576d04ee2d6d415b85acef810000000083816136805761367f6146d1565b5b0492506020810190505b662386f26fc1000083106136b957662386f26fc1000083816136af576136ae6146d1565b5b0492506010810190505b6305f5e10083106136e2576305f5e10083816136d8576136d76146d1565b5b0492506008810190505b61271083106137075761271083816136fd576136fc6146d1565b5b0492506004810190505b6064831061372a57606483816137205761371f6146d1565b5b0492506002810190505b600a8310613739576001810190505b80915050919050565b61374c838361382a565b613761613757612a4a565b6000858585612ece565b505050565b613771838383613923565b61382557600073ffffffffffffffffffffffffffffffffffffffff168373ffffffffffffffffffffffffffffffffffffffff16036137e657806040517f7e2732890000000000000000000000000000000000000000000000000000000081526004016137dd9190613fe8565b60405180910390fd5b81816040517f177e802f00000000000000000000000000000000000000000000000000000000815260040161381c929190615180565b60405180910390fd5b505050565b600073ffffffffffffffffffffffffffffffffffffffff168273ffffffffffffffffffffffffffffffffffffffff160361389c5760006040517f64a0ae920000000000000000000000000000000000000000000000000000000081526004016138939190613a9c565b60405180910390fd5b60006138aa83836000613384565b9050600073ffffffffffffffffffffffffffffffffffffffff168173ffffffffffffffffffffffffffffffffffffffff161461391e5760006040517f73c6ac6e0000000000000000000000000000000000000000000000000000000081526004016139159190613a9c565b60405180910390fd5b505050565b60008073ffffffffffffffffffffffffffffffffffffffff168373ffffffffffffffffffffffffffffffffffffffff16141580156139db57508273ffffffffffffffffffffffffffffffffffffffff168473ffffffffffffffffffffffffffffffffffffffff16148061399c575061399b848461269b565b5b806139da57508273ffffffffffffffffffffffffffffffffffffffff166139c283612a0d565b73ffffffffffffffffffffffffffffffffffffffff16145b5b90509392505050565b6000604051905090565b600080fd5b600080fd5b6000819050919050565b613a0b816139f8565b8114613a1657600080fd5b50565b600081359050613a2881613a02565b92915050565b600060208284031215613a4457613a436139ee565b5b6000613a5284828501613a19565b91505092915050565b600073ffffffffffffffffffffffffffffffffffffffff82169050919050565b6000613a8682613a5b565b9050919050565b613a9681613a7b565b82525050565b6000602082019050613ab16000830184613a8d565b92915050565b60007fffffffff0000000000000000000000000000000000000000000000000000000082169050919050565b613aec81613ab7565b8114613af757600080fd5b50565b600081359050613b0981613ae3565b92915050565b600060208284031215613b2557613b246139ee565b5b6000613b3384828501613afa565b91505092915050565b60008115159050919050565b613b5181613b3c565b82525050565b6000602082019050613b6c6000830184613b48565b92915050565b600081519050919050565b600082825260208201905092915050565b60005b83811015613bac578082015181840152602081019050613b91565b60008484015250505050565b6000601f19601f8301169050919050565b6000613bd482613b72565b613bde8185613b7d565b9350613bee818560208601613b8e565b613bf781613bb8565b840191505092915050565b60006020820190508181036000830152613c1c8184613bc9565b905092915050565b613c2d81613a7b565b8114613c3857600080fd5b50565b600081359050613c4a81613c24565b92915050565b60008060408385031215613c6757613c666139ee565b5b6000613c7585828601613c3b565b9250506020613c8685828601613a19565b9150509250929050565b600060208284031215613ca657613ca56139ee565b5b6000613cb484828501613c3b565b91505092915050565b600080600060608486031215613cd657613cd56139ee565b5b6000613ce486828701613c3b565b9350506020613cf586828701613c3b565b9250506040613d0686828701613a19565b9150509250925092565b6000819050919050565b613d2381613d10565b8114613d2e57600080fd5b50565b600081359050613d4081613d1a565b92915050565b600060208284031215613d5c57613d5b6139ee565b5b6000613d6a84828501613d31565b91505092915050565b613d7c81613d10565b82525050565b6000602082019050613d976000830184613d73565b92915050565b6000613da882613a5b565b9050919050565b613db881613d9d565b8114613dc357600080fd5b50565b600081359050613dd581613daf565b92915050565b600060208284031215613df157613df06139ee565b5b6000613dff84828501613dc6565b91505092915050565b600080fd5b600080fd5b7f4e487b7100000000000000000000000000000000000000000000000000000000600052604160045260246000fd5b613e4a82613bb8565b810181811067ffffffffffffffff82111715613e6957613e68613e12565b5b80604052505050565b6000613e7c6139e4565b9050613e888282613e41565b919050565b600067ffffffffffffffff821115613ea857613ea7613e12565b5b613eb182613bb8565b9050602081019050919050565b82818337600083830152505050565b6000613ee0613edb84613e8d565b613e72565b905082815260208101848484011115613efc57613efb613e0d565b5b613f07848285613ebe565b509392505050565b600082601f830112613f2457613f23613e08565b5b8135613f34848260208601613ecd565b91505092915050565b60008060408385031215613f5457613f536139ee565b5b600083013567ffffffffffffffff811115613f7257613f716139f3565b5b613f7e85828601613f0f565b9250506020613f8f85828601613c3b565b9150509250929050565b60008060408385031215613fb057613faf6139ee565b5b6000613fbe85828601613d31565b9250506020613fcf85828601613c3b565b9150509250929050565b613fe2816139f8565b82525050565b6000602082019050613ffd6000830184613fd9565b92915050565b6000806040838503121561401a576140196139ee565b5b600061402885828601613c3b565b925050602061403985828601613c3b565b9150509250929050565b600081519050919050565b600082825260208201905092915050565b6000819050602082019050919050565b61407881613a7b565b82525050565b600061408a838361406f565b60208301905092915050565b6000602082019050919050565b60006140ae82614043565b6140b8818561404e565b93506140c38361405f565b8060005b838110156140f45781516140db888261407e565b97506140e683614096565b9250506001810190506140c7565b5085935050505092915050565b6000602082019050818103600083015261411b81846140a3565b905092915050565b600060208284031215614139576141386139ee565b5b600082013567ffffffffffffffff811115614157576141566139f3565b5b61416384828501613f0f565b91505092915050565b60008160000b9050919050565b6141828161416c565b82525050565b600060208201905061419d6000830184614179565b92915050565b600081519050919050565b600082825260208201905092915050565b6000819050602082019050919050565b6141d88161416c565b82525050565b60006141ea83836141cf565b60208301905092915050565b6000602082019050919050565b600061420e826141a3565b61421881856141ae565b9350614223836141bf565b8060005b8381101561425457815161423b88826141de565b9750614246836141f6565b925050600181019050614227565b5085935050505092915050565b6000604082019050818103600083015261427b81856140a3565b9050818103602083015261428f8184614203565b90509392505050565b6142a181613b3c565b81146142ac57600080fd5b50565b6000813590506142be81614298565b92915050565b600080604083850312156142db576142da6139ee565b5b60006142e985828601613c3b565b92505060206142fa858286016142af565b9150509250929050565b600067ffffffffffffffff82111561431f5761431e613e12565b5b61432882613bb8565b9050602081019050919050565b600061434861434384614304565b613e72565b90508281526020810184848401111561436457614363613e0d565b5b61436f848285613ebe565b509392505050565b600082601f83011261438c5761438b613e08565b5b813561439c848260208601614335565b91505092915050565b600080600080608085870312156143bf576143be6139ee565b5b60006143cd87828801613c3b565b94505060206143de87828801613c3b565b93505060406143ef87828801613a19565b925050606085013567ffffffffffffffff8111156144105761440f6139f3565b5b61441c87828801614377565b91505092959194509250565b6000806040838503121561443f5761443e6139ee565b5b600061444d85828601613a19565b925050602061445e85828601613a19565b9150509250929050565b6000806040838503121561447f5761447e6139ee565b5b600061448d85828601613a19565b925050602083013567ffffffffffffffff8111156144ae576144ad6139f3565b5b6144ba85828601613f0f565b9150509250929050565b600080604083850312156144db576144da6139ee565b5b60006144e985828601613c3b565b925050602083013567ffffffffffffffff81111561450a576145096139f3565b5b61451685828601613f0f565b9150509250929050565b6145298161416c565b811461453457600080fd5b50565b60008135905061454681614520565b92915050565b60008060408385031215614563576145626139ee565b5b600061457185828601613c3b565b925050602061458285828601614537565b9150509250929050565b7f4e487b7100000000000000000000000000000000000000000000000000000000600052602260045260246000fd5b600060028204905060018216806145d357607f821691505b6020821081036145e6576145e561458c565b5b50919050565b600081905092915050565b600061460282613b72565b61460c81856145ec565b935061461c818560208601613b8e565b80840191505092915050565b600061463482846145f7565b915081905092915050565b7f4e487b7100000000000000000000000000000000000000000000000000000000600052603260045260246000fd5b7f4e487b7100000000000000000000000000000000000000000000000000000000600052601160045260246000fd5b60006146a8826139f8565b91506146b3836139f8565b92508282019050808211156146cb576146ca61466e565b5b92915050565b7f4e487b7100000000000000000000000000000000000000000000000000000000600052601260045260246000fd5b600061470b826139f8565b9150614716836139f8565b925082614726576147256146d1565b5b828204905092915050565b7f496e76616c696420757365722061646472657373000000000000000000000000600082015250565b6000614767601483613b7d565b915061477282614731565b602082019050919050565b600060208201905081810360008301526147968161475a565b9050919050565b7f5573657220616c72656164792065786973747300000000000000000000000000600082015250565b60006147d3601383613b7d565b91506147de8261479d565b602082019050919050565b60006020820190508181036000830152614802816147c6565b9050919050565b7f53656c662d636f6e6e656374696f6e206e6f7420616c6c6f7765640000000000600082015250565b600061483f601b83613b7d565b915061484a82614809565b602082019050919050565b6000602082019050818103600083015261486e81614832565b9050919050565b7f436f6e6e656374696f6e20616c72656164792065786973747300000000000000600082015250565b60006148ab601983613b7d565b91506148b682614875565b602082019050919050565b600060208201905081810360008301526148da8161489e565b9050919050565b7f5573657220646f6573206e6f7420657869737400000000000000000000000000600082015250565b6000614917601383613b7d565b9150614922826148e1565b602082019050919050565b600060208201905081810360008301526149468161490a565b9050919050565b6000819050919050565b60006149628261494d565b915061496d8361494d565b92508282039050818112600084121682821360008512151617156149945761499361466e565b5b92915050565b60006149a58261494d565b91506149b08361494d565b92508282026149be8161494d565b91507f800000000000000000000000000000000000000000000000000000000000000084146000841216156149f6576149f561466e565b5b8282058414831517614a0b57614a0a61466e565b5b5092915050565b6000614a1d8261494d565b9150614a288361494d565b925082614a3857614a376146d1565b5b600160000383147f800000000000000000000000000000000000000000000000000000000000000083141615614a7157614a7061466e565b5b828205905092915050565b7f43616c6c6572206973206e6f7420746865206f70657261746f72000000000000600082015250565b6000614ab2601a83613b7d565b9150614abd82614a7c565b602082019050919050565b60006020820190508181036000830152614ae181614aa5565b9050919050565b7f496e76616c6964206f70657261746f7220616464726573730000000000000000600082015250565b6000614b1e601883613b7d565b9150614b2982614ae8565b602082019050919050565b60006020820190508181036000830152614b4d81614b11565b9050919050565b7f4f70657261746f7220616c726561647920736574000000000000000000000000600082015250565b6000614b8a601483613b7d565b9150614b9582614b54565b602082019050919050565b60006020820190508181036000830152614bb981614b7d565b9050919050565b6000614bcc82856145f7565b9150614bd882846145f7565b91508190509392505050565b60008190508160005260206000209050919050565b60006020601f8301049050919050565b600082821b905092915050565b600060088302614c467fffffffffffffffffffffffffffffffffffffffffffffffffffffffffffffffff82614c09565b614c508683614c09565b95508019841693508086168417925050509392505050565b6000819050919050565b6000614c8d614c88614c83846139f8565b614c68565b6139f8565b9050919050565b6000819050919050565b614ca783614c72565b614cbb614cb382614c94565b848454614c16565b825550505050565b600090565b614cd0614cc3565b614cdb818484614c9e565b505050565b5b81811015614cff57614cf4600082614cc8565b600181019050614ce1565b5050565b601f821115614d4457614d1581614be4565b614d1e84614bf9565b81016020851015614d2d578190505b614d41614d3985614bf9565b830182614ce0565b50505b505050565b600082821c905092915050565b6000614d6760001984600802614d49565b1980831691505092915050565b6000614d808383614d56565b9150826002028217905092915050565b614d9982613b72565b67ffffffffffffffff811115614db257614db1613e12565b5b614dbc82546145bb565b614dc7828285614d03565b600060209050601f831160018114614dfa5760008415614de8578287015190505b614df28582614d74565b865550614e5a565b601f198416614e0886614be4565b60005b82811015614e3057848901518255600182019150602085019450602081019050614e0b565b86831015614e4d5784890151614e49601f891682614d56565b8355505b6001600288020188555050505b505050505050565b6000614e6d826139f8565b91507fffffffffffffffffffffffffffffffffffffffffffffffffffffffffffffffff8203614e9f57614e9e61466e565b5b600182019050919050565b7f526174656420616464726573732063616e6e6f74206265207a65726f00000000600082015250565b6000614ee0601c83613b7d565b9150614eeb82614eaa565b602082019050919050565b60006020820190508181036000830152614f0f81614ed3565b9050919050565b7f526174696e67206d757374206265206265747765656e202d31323720616e642060008201527f3132370000000000000000000000000000000000000000000000000000000000602082015250565b6000614f72602383613b7d565b9150614f7d82614f16565b604082019050919050565b60006020820190508181036000830152614fa181614f65565b9050919050565b6000604082019050614fbd6000830185613a8d565b614fca6020830184614179565b9392505050565b7f52656d6f76656420616464726573732063616e6e6f74206265207a65726f0000600082015250565b6000615007601e83613b7d565b915061501282614fd1565b602082019050919050565b6000602082019050818103600083015261503681614ffa565b9050919050565b60006060820190506150526000830186613a8d565b61505f6020830185613fd9565b61506c6040830184613a8d565b949350505050565b600081519050919050565b600082825260208201905092915050565b600061509b82615074565b6150a5818561507f565b93506150b5818560208601613b8e565b6150be81613bb8565b840191505092915050565b60006080820190506150de6000830187613a8d565b6150eb6020830186613a8d565b6150f86040830185613fd9565b818103606083015261510a8184615090565b905095945050505050565b60008151905061512481613ae3565b92915050565b6000602082840312156151405761513f6139ee565b5b600061514e84828501615115565b91505092915050565b600060408201905061516c6000830185613a8d565b6151796020830184613d73565b9392505050565b60006040820190506151956000830185613a8d565b6151a26020830184613fd9565b939250505056fea26469706673582212204dab89be4afe0503a13a13d1ef12c068488b9f781058e133bb5e5fe2ed036f3364736f6c634300081c0033",
  "linkReferences": {},
  "deployedLinkReferences": {}
}