{
  "_format": "hh-sol-artifact-1",
  "contractName": "SsdlabToken",
  "sourceName": "contracts/SsdlabToken.sol",
  "abi": [
    {
      "inputs": [
        {
          "internalType": "address",
          "name": "teacher",
          "type": "address"
        },
        {
          "internalType": "address",
          "name": "student",
          "type": "address"
        }
      ],
      "stateMutability": "nonpayable",
      "type": "constructor"
    },
    {
      "inputs": [],
      "name": "AccessControlBadConfirmation",
      "type": "error"
    },
    {
      "inputs": [
        {
          "internalType": "address",
          "name": "account",
          "type": "address"
        },
        {
          "internalType": "bytes32",
          "name": "neededRole",
          "type": "bytes32"
        }
      ],
      "name": "AccessControlUnauthorizedAccount",
      "type": "error"
    },
    {
      "inputs": [
        {
          "internalType": "address",
          "name": "sender",
          "type": "address"
        },
        {
          "internalType": "uint256",
          "name": "tokenId",
          "type": "uint256"
        },
        {
          "internalType": "address",
          "name": "owner",
          "type": "address"
        }
      ],
      "name": "ERC721IncorrectOwner",
      "type": "error"
    },
    {
      "inputs": [
        {
          "internalType": "address",
          "name": "operator",
          "type": "address"
        },
        {
          "internalType": "uint256",
          "name": "tokenId",
          "type": "uint256"
        }
      ],
      "name": "ERC721InsufficientApproval",
      "type": "error"
    },
    {
      "inputs": [
        {
          "internalType": "address",
          "name": "approver",
          "type": "address"
        }
      ],
      "name": "ERC721InvalidApprover",
      "type": "error"
    },
    {
      "inputs": [
        {
          "internalType": "address",
          "name": "operator",
          "type": "address"
        }
      ],
      "name": "ERC721InvalidOperator",
      "type": "error"
    },
    {
      "inputs": [
        {
          "internalType": "address",
          "name": "owner",
          "type": "address"
        }
      ],
      "name": "ERC721InvalidOwner",
      "type": "error"
    },
    {
      "inputs": [
        {
          "internalType": "address",
          "name": "receiver",
          "type": "address"
        }
      ],
      "name": "ERC721InvalidReceiver",
      "type": "error"
    },
    {
      "inputs": [
        {
          "internalType": "address",
          "name": "sender",
          "type": "address"
        }
      ],
      "name": "ERC721InvalidSender",
      "type": "error"
    },
    {
      "inputs": [
        {
          "internalType": "uint256",
          "name": "tokenId",
          "type": "uint256"
        }
      ],
      "name": "ERC721NonexistentToken",
      "type": "error"
    },
    {
      "anonymous": false,
      "inputs": [
        {
          "indexed": true,
          "internalType": "address",
          "name": "owner",
          "type": "address"
        },
        {
          "indexed": true,
          "internalType": "address",
          "name": "approved",
          "type": "address"
        },
        {
          "indexed": true,
          "internalType": "uint256",
          "name": "tokenId",
          "type": "uint256"
        }
      ],
      "name": "Approval",
      "type": "event"
    },
    {
      "anonymous": false,
      "inputs": [
        {
          "indexed": true,
          "internalType": "address",
          "name": "owner",
          "type": "address"
        },
        {
          "indexed": true,
          "internalType": "address",
          "name": "operator",
          "type": "address"
        },
        {
          "indexed": false,
          "internalType": "bool",
          "name": "approved",
          "type": "bool"
        }
      ],
      "name": "ApprovalForAll",
      "type": "event"
    },
    {
      "anonymous": false,
      "inputs": [
        {
          "indexed": true,
          "internalType": "address",
          "name": "userA",
          "type": "address"
        },
        {
          "indexed": true,
          "internalType": "address",
          "name": "userB",
          "type": "address"
        }
      ],
      "name": "ConnectionAdded",
      "type": "event"
    },
    {
      "anonymous": false,
      "inputs": [
        {
          "indexed": true,
          "internalType": "address",
          "name": "userA",
          "type": "address"
        },
        {
          "indexed": true,
          "internalType": "address",
          "name": "userB",
          "type": "address"
        }
      ],
      "name": "ConnectionRemoved",
      "type": "event"
    },
    {
      "anonymous": false,
      "inputs": [
        {
          "indexed": true,
          "internalType": "address",
          "name": "_operator",
          "type": "address"
        }
      ],
      "name": "NewOperator",
      "type": "event"
    },
    {
      "anonymous": false,
      "inputs": [
        {
          "indexed": false,
          "internalType": "address",
          "name": "_rated",
          "type": "address"
        },
        {
          "indexed": false,
          "internalType": "int8",
          "name": "_rating",
          "type": "int8"
        }
      ],
      "name": "Rating",
      "type": "event"
    },
    {
      "anonymous": false,
      "inputs": [
        {
          "indexed": false,
          "internalType": "address",
          "name": "_removed",
          "type": "address"
        }
      ],
      "name": "Removal",
      "type": "event"
    },
    {
      "anonymous": false,
      "inputs": [
        {
          "indexed": true,
          "internalType": "bytes32",
          "name": "role",
          "type": "bytes32"
        },
        {
          "indexed": true,
          "internalType": "bytes32",
          "name": "previousAdminRole",
          "type": "bytes32"
        },
        {
          "indexed": true,
          "internalType": "bytes32",
          "name": "newAdminRole",
          "type": "bytes32"
        }
      ],
      "name": "RoleAdminChanged",
      "type": "event"
    },
    {
      "anonymous": false,
      "inputs": [
        {
          "indexed": true,
          "internalType": "bytes32",
          "name": "role",
          "type": "bytes32"
        },
        {
          "indexed": true,
          "internalType": "address",
          "name": "account",
          "type": "address"
        },
        {
          "indexed": true,
          "internalType": "address",
          "name": "sender",
          "type": "address"
        }
      ],
      "name": "RoleGranted",
      "type": "event"
    },
    {
      "anonymous": false,
      "inputs": [
        {
          "indexed": true,
          "internalType": "bytes32",
          "name": "role",
          "type": "bytes32"
        },
        {
          "indexed": true,
          "internalType": "address",
          "name": "account",
          "type": "address"
        },
        {
          "indexed": true,
          "internalType": "address",
          "name": "sender",
          "type": "address"
        }
      ],
      "name": "RoleRevoked",
      "type": "event"
    },
    {
      "anonymous": false,
      "inputs": [
        {
          "indexed": true,
          "internalType": "address",
          "name": "from",
          "type": "address"
        },
        {
          "indexed": true,
          "internalType": "address",
          "name": "to",
          "type": "address"
        },
        {
          "indexed": true,
          "internalType": "uint256",
          "name": "tokenId",
          "type": "uint256"
        }
      ],
      "name": "Transfer",
      "type": "event"
    },
    {
      "anonymous": false,
      "inputs": [
        {
          "indexed": true,
          "internalType": "address",
          "name": "user",
          "type": "address"
        }
      ],
      "name": "UserAdded",
      "type": "event"
    },
    {
      "inputs": [],
      "name": "DEFAULT_ADMIN_ROLE",
      "outputs": [
        {
          "internalType": "bytes32",
          "name": "",
          "type": "bytes32"
        }
      ],
      "stateMutability": "view",
      "type": "function"
    },
    {
      "inputs": [],
      "name": "STUDENTS_ROLE",
      "outputs": [
        {
          "internalType": "bytes32",
          "name": "",
          "type": "bytes32"
        }
      ],
      "stateMutability": "view",
      "type": "function"
    },
    {
      "inputs": [],
      "name": "TEACHER_ROLE",
      "outputs": [
        {
          "internalType": "bytes32",
          "name": "",
          "type": "bytes32"
        }
      ],
      "stateMutability": "view",
      "type": "function"
    },
    {
      "inputs": [
        {
          "internalType": "address",
          "name": "userA",
          "type": "address"
        },
        {
          "internalType": "address",
          "name": "userB",
          "type": "address"
        }
      ],
      "name": "addEdge",
      "outputs": [],
      "stateMutability": "nonpayable",
      "type": "function"
    },
    {
      "inputs": [
        {
          "internalType": "address",
          "name": "user",
          "type": "address"
        }
      ],
      "name": "addVertex",
      "outputs": [],
      "stateMutability": "nonpayable",
      "type": "function"
    },
    {
      "inputs": [
        {
          "internalType": "address",
          "name": "",
          "type": "address"
        },
        {
          "internalType": "uint256",
          "name": "",
          "type": "uint256"
        }
      ],
      "name": "adjacencyList",
      "outputs": [
        {
          "internalType": "address",
          "name": "",
          "type": "address"
        }
      ],
      "stateMutability": "view",
      "type": "function"
    },
    {
      "inputs": [
        {
          "internalType": "address",
          "name": "to",
          "type": "address"
        },
        {
          "internalType": "uint256",
          "name": "tokenId",
          "type": "uint256"
        }
      ],
      "name": "approve",
      "outputs": [],
      "stateMutability": "nonpayable",
      "type": "function"
    },
    {
      "inputs": [
        {
          "internalType": "address",
          "name": "owner",
          "type": "address"
        }
      ],
      "name": "balanceOf",
      "outputs": [
        {
          "internalType": "uint256",
          "name": "",
          "type": "uint256"
        }
      ],
      "stateMutability": "view",
      "type": "function"
    },
    {
      "inputs": [
        {
          "internalType": "address",
          "name": "user",
          "type": "address"
        }
      ],
      "name": "calculateDegreeCentrality",
      "outputs": [
        {
          "internalType": "int8",
          "name": "",
          "type": "int8"
        }
      ],
      "stateMutability": "view",
      "type": "function"
    },
    {
      "inputs": [],
      "name": "getAllDegreeCentralities",
      "outputs": [
        {
          "internalType": "address[]",
          "name": "users",
          "type": "address[]"
        },
        {
          "internalType": "int8[]",
          "name": "centralities",
          "type": "int8[]"
        }
      ],
      "stateMutability": "view",
      "type": "function"
    },
    {
      "inputs": [],
      "name": "getAllUsers",
      "outputs": [
        {
          "internalType": "address[]",
          "name": "",
          "type": "address[]"
        }
      ],
      "stateMutability": "view",
      "type": "function"
    },
    {
      "inputs": [
        {
          "internalType": "uint256",
          "name": "tokenId",
          "type": "uint256"
        }
      ],
      "name": "getApproved",
      "outputs": [
        {
          "internalType": "address",
          "name": "",
          "type": "address"
        }
      ],
      "stateMutability": "view",
      "type": "function"
    },
    {
      "inputs": [
        {
          "internalType": "address",
          "name": "user",
          "type": "address"
        }
      ],
      "name": "getConnections",
      "outputs": [
        {
          "internalType": "address[]",
          "name": "",
          "type": "address[]"
        }
      ],
      "stateMutability": "view",
      "type": "function"
    },
    {
      "inputs": [
        {
          "internalType": "address",
          "name": "user",
          "type": "address"
        }
      ],
      "name": "getDegree",
      "outputs": [
        {
          "internalType": "uint256",
          "name": "",
          "type": "uint256"
        }
      ],
      "stateMutability": "view",
      "type": "function"
    },
    {
      "inputs": [
        {
          "internalType": "uint256",
          "name": "tokenId",
          "type": "uint256"
        }
      ],
      "name": "getExchangeTokenId",
      "outputs": [
        {
          "internalType": "uint256",
          "name": "",
          "type": "uint256"
        }
      ],
      "stateMutability": "view",
      "type": "function"
    },
    {
      "inputs": [
        {
          "internalType": "bytes32",
          "name": "role",
          "type": "bytes32"
        }
      ],
      "name": "getRoleAdmin",
      "outputs": [
        {
          "internalType": "bytes32",
          "name": "",
          "type": "bytes32"
        }
      ],
      "stateMutability": "view",
      "type": "function"
    },
    {
      "inputs": [
        {
          "internalType": "address",
          "name": "_user",
          "type": "address"
        }
      ],
      "name": "getScore",
      "outputs": [
        {
          "internalType": "int8",
          "name": "",
          "type": "int8"
        }
      ],
      "stateMutability": "view",
      "type": "function"
    },
    {
      "inputs": [
        {
          "internalType": "uint256",
          "name": "tokenId",
          "type": "uint256"
        }
      ],
      "name": "getTokenName",
      "outputs": [
        {
          "internalType": "string",
          "name": "",
          "type": "string"
        }
      ],
      "stateMutability": "view",
      "type": "function"
    },
    {
      "inputs": [],
      "name": "getTotalConnections",
      "outputs": [
        {
          "internalType": "uint256",
          "name": "",
          "type": "uint256"
        }
      ],
      "stateMutability": "view",
      "type": "function"
    },
    {
      "inputs": [
        {
          "internalType": "string",
          "name": "userName",
          "type": "string"
        }
      ],
      "name": "getUserAddress",
      "outputs": [
        {
          "internalType": "address",
          "name": "",
          "type": "address"
        }
      ],
      "stateMutability": "view",
      "type": "function"
    },
    {
      "inputs": [],
      "name": "getUserCount",
      "outputs": [
        {
          "internalType": "uint256",
          "name": "",
          "type": "uint256"
        }
      ],
      "stateMutability": "view",
      "type": "function"
    },
    {
      "inputs": [
        {
          "internalType": "bytes32",
          "name": "role",
          "type": "bytes32"
        },
        {
          "internalType": "address",
          "name": "account",
          "type": "address"
        }
      ],
      "name": "grantRole",
      "outputs": [],
      "stateMutability": "nonpayable",
      "type": "function"
    },
    {
      "inputs": [
        {
          "internalType": "bytes32",
          "name": "role",
          "type": "bytes32"
        },
        {
          "internalType": "address",
          "name": "account",
          "type": "address"
        }
      ],
      "name": "hasRole",
      "outputs": [
        {
          "internalType": "bool",
          "name": "",
          "type": "bool"
        }
      ],
      "stateMutability": "view",
      "type": "function"
    },
    {
      "inputs": [
        {
          "internalType": "address",
          "name": "owner",
          "type": "address"
        },
        {
          "internalType": "address",
          "name": "operator",
          "type": "address"
        }
      ],
      "name": "isApprovedForAll",
      "outputs": [
        {
          "internalType": "bool",
          "name": "",
          "type": "bool"
        }
      ],
      "stateMutability": "view",
      "type": "function"
    },
    {
      "inputs": [
        {
          "internalType": "address",
          "name": "userA",
          "type": "address"
        },
        {
          "internalType": "address",
          "name": "userB",
          "type": "address"
        }
      ],
      "name": "isConnected",
      "outputs": [
        {
          "internalType": "bool",
          "name": "",
          "type": "bool"
        }
      ],
      "stateMutability": "view",
      "type": "function"
    },
    {
      "inputs": [],
      "name": "name",
      "outputs": [
        {
          "internalType": "string",
          "name": "",
          "type": "string"
        }
      ],
      "stateMutability": "view",
      "type": "function"
    },
    {
      "inputs": [
        {
          "internalType": "uint256",
          "name": "tokenId",
          "type": "uint256"
        }
      ],
      "name": "ownerOf",
      "outputs": [
        {
          "internalType": "address",
          "name": "",
          "type": "address"
        }
      ],
      "stateMutability": "view",
      "type": "function"
    },
    {
      "inputs": [
        {
          "internalType": "address",
          "name": "_rated",
          "type": "address"
        },
        {
          "internalType": "int8",
          "name": "_rating",
          "type": "int8"
        }
      ],
      "name": "rate",
      "outputs": [],
      "stateMutability": "nonpayable",
      "type": "function"
    },
    {
      "inputs": [
        {
          "internalType": "address",
          "name": "_rated",
          "type": "address"
        }
      ],
      "name": "ratingOf",
      "outputs": [
        {
          "internalType": "int8",
          "name": "",
          "type": "int8"
        }
      ],
      "stateMutability": "view",
      "type": "function"
    },
    {
      "inputs": [
        {
          "internalType": "address",
          "name": "_removed",
          "type": "address"
        }
      ],
      "name": "removeRating",
      "outputs": [],
      "stateMutability": "nonpayable",
      "type": "function"
    },
    {
      "inputs": [
        {
          "internalType": "bytes32",
          "name": "role",
          "type": "bytes32"
        },
        {
          "internalType": "address",
          "name": "callerConfirmation",
          "type": "address"
        }
      ],
      "name": "renounceRole",
      "outputs": [],
      "stateMutability": "nonpayable",
      "type": "function"
    },
    {
      "inputs": [
        {
          "internalType": "bytes32",
          "name": "role",
          "type": "bytes32"
        },
        {
          "internalType": "address",
          "name": "account",
          "type": "address"
        }
      ],
      "name": "revokeRole",
      "outputs": [],
      "stateMutability": "nonpayable",
      "type": "function"
    },
    {
      "inputs": [
        {
          "internalType": "address",
          "name": "to",
          "type": "address"
        },
        {
          "internalType": "string",
          "name": "_tokenName",
          "type": "string"
        }
      ],
      "name": "safeMint",
      "outputs": [
        {
          "internalType": "uint256",
          "name": "",
          "type": "uint256"
        }
      ],
      "stateMutability": "nonpayable",
      "type": "function"
    },
    {
      "inputs": [
        {
          "internalType": "address",
          "name": "from",
          "type": "address"
        },
        {
          "internalType": "address",
          "name": "to",
          "type": "address"
        },
        {
          "internalType": "uint256",
          "name": "tokenId",
          "type": "uint256"
        }
      ],
      "name": "safeTransferFrom",
      "outputs": [],
      "stateMutability": "nonpayable",
      "type": "function"
    },
    {
      "inputs": [
        {
          "internalType": "address",
          "name": "from",
          "type": "address"
        },
        {
          "internalType": "address",
          "name": "to",
          "type": "address"
        },
        {
          "internalType": "uint256",
          "name": "tokenId",
          "type": "uint256"
        },
        {
          "internalType": "bytes",
          "name": "data",
          "type": "bytes"
        }
      ],
      "name": "safeTransferFrom",
      "outputs": [],
      "stateMutability": "nonpayable",
      "type": "function"
    },
    {
      "inputs": [
        {
          "internalType": "address payable",
          "name": "_to",
          "type": "address"
        }
      ],
      "name": "sendTransaction",
      "outputs": [],
      "stateMutability": "payable",
      "type": "function"
    },
    {
      "inputs": [
        {
          "internalType": "address",
          "name": "operator",
          "type": "address"
        },
        {
          "internalType": "bool",
          "name": "approved",
          "type": "bool"
        }
      ],
      "name": "setApprovalForAll",
      "outputs": [],
      "stateMutability": "nonpayable",
      "type": "function"
    },
    {
      "inputs": [
        {
          "internalType": "uint256",
          "name": "tokenId",
          "type": "uint256"
        },
        {
          "internalType": "uint256",
          "name": "exchangeTokenId",
          "type": "uint256"
        }
      ],
      "name": "setExchangeTokenId",
      "outputs": [],
      "stateMutability": "nonpayable",
      "type": "function"
    },
    {
      "inputs": [
        {
          "internalType": "address",
          "name": "_operator",
          "type": "address"
        }
      ],
      "name": "setOperator",
      "outputs": [],
      "stateMutability": "nonpayable",
      "type": "function"
    },
    {
      "inputs": [
        {
          "internalType": "uint256",
          "name": "tokenId",
          "type": "uint256"
        },
        {
          "internalType": "string",
          "name": "tokenName",
          "type": "string"
        }
      ],
      "name": "setTokenName",
      "outputs": [],
      "stateMutability": "nonpayable",
      "type": "function"
    },
    {
      "inputs": [
        {
          "internalType": "string",
          "name": "userName",
          "type": "string"
        },
        {
          "internalType": "address",
          "name": "userAddress",
          "type": "address"
        }
      ],
      "name": "setUserAddress",
      "outputs": [],
      "stateMutability": "nonpayable",
      "type": "function"
    },
    {
      "inputs": [
        {
          "internalType": "bytes4",
          "name": "interfaceId",
          "type": "bytes4"
        }
      ],
      "name": "supportsInterface",
      "outputs": [
        {
          "internalType": "bool",
          "name": "",
          "type": "bool"
        }
      ],
      "stateMutability": "view",
      "type": "function"
    },
    {
      "inputs": [],
      "name": "symbol",
      "outputs": [
        {
          "internalType": "string",
          "name": "",
          "type": "string"
        }
      ],
      "stateMutability": "view",
      "type": "function"
    },
    {
      "inputs": [
        {
          "internalType": "uint256",
          "name": "tokenId",
          "type": "uint256"
        }
      ],
      "name": "tokenURI",
      "outputs": [
        {
          "internalType": "string",
          "name": "",
          "type": "string"
        }
      ],
      "stateMutability": "view",
      "type": "function"
    },
    {
      "inputs": [
        {
          "internalType": "address",
          "name": "from",
          "type": "address"
        },
        {
          "internalType": "address",
          "name": "to",
          "type": "address"
        },
        {
          "internalType": "uint256",
          "name": "tokenId",
          "type": "uint256"
        }
      ],
      "name": "transferFrom",
      "outputs": [],
      "stateMutability": "nonpayable",
      "type": "function"
    },
    {
      "inputs": [
        {
          "internalType": "address",
          "name": "myAddress",
          "type": "address"
        },
        {
          "internalType": "address",
          "name": "targetAddress",
          "type": "address"
        }
      ],
      "name": "verifyScore",
      "outputs": [
        {
          "internalType": "bool",
          "name": "",
          "type": "bool"
        }
      ],
      "stateMutability": "view",
      "type": "function"
    },
    {
      "inputs": [
        {
          "internalType": "address",
          "name": "",
          "type": "address"
        }
      ],
      "name": "vertexExists",
      "outputs": [
        {
          "internalType": "bool",
          "name": "",
          "type": "bool"
        }
      ],
      "stateMutability": "view",
      "type": "function"
    },
    {
      "inputs": [
        {
          "internalType": "uint256",
          "name": "",
          "type": "uint256"
        }
      ],
      "name": "vertices",
      "outputs": [
        {
          "internalType": "address",
          "name": "",
          "type": "address"
        }
      ],
      "stateMutability": "view",
      "type": "function"
    }
  ],
  "bytecode": "0x60806040526000600d5534801561001557600080fd5b506040516159583803806159588339818101604052810190610037919061035c565b816040518060400160405280600781526020017f4d79546f6b656e0000000000000000000000000000000000000000000000000081525060405180602001604052806000815250816000908161008d91906105ec565b50806001908161009d91906105ec565b5050506001600a60008373ffffffffffffffffffffffffffffffffffffffff1673ffffffffffffffffffffffffffffffffffffffff16815260200190815260200160002060006101000a81548160ff0219169083151502179055508073ffffffffffffffffffffffffffffffffffffffff167fda12ee837e6978172aaf54b16145ffe08414fd8710092ef033c71b8eb6ec189a60405160405180910390a25061014f6000801b8361018860201b60201c565b506101807f5eeefbd1446176eeb282e93f50761c372c4e4e43ec23a79407cb9bf29660c4ce8261018860201b60201c565b5050506106be565b600061019a838361028660201b60201c565b61027b5760016006600085815260200190815260200160002060000160008473ffffffffffffffffffffffffffffffffffffffff1673ffffffffffffffffffffffffffffffffffffffff16815260200190815260200160002060006101000a81548160ff0219169083151502179055506102186102f160201b60201c565b73ffffffffffffffffffffffffffffffffffffffff168273ffffffffffffffffffffffffffffffffffffffff16847f2f8788117e7eff1d82e926ec794901d17c78024a50270940304540a733656f0d60405160405180910390a460019050610280565b600090505b92915050565b60006006600084815260200190815260200160002060000160008373ffffffffffffffffffffffffffffffffffffffff1673ffffffffffffffffffffffffffffffffffffffff16815260200190815260200160002060009054906101000a900460ff16905092915050565b600033905090565b600080fd5b600073ffffffffffffffffffffffffffffffffffffffff82169050919050565b6000610329826102fe565b9050919050565b6103398161031e565b811461034457600080fd5b50565b60008151905061035681610330565b92915050565b60008060408385031215610373576103726102f9565b5b600061038185828601610347565b925050602061039285828601610347565b9150509250929050565b600081519050919050565b7f4e487b7100000000000000000000000000000000000000000000000000000000600052604160045260246000fd5b7f4e487b7100000000000000000000000000000000000000000000000000000000600052602260045260246000fd5b6000600282049050600182168061041d57607f821691505b6020821081036104305761042f6103d6565b5b50919050565b60008190508160005260206000209050919050565b60006020601f8301049050919050565b600082821b905092915050565b6000600883026104987fffffffffffffffffffffffffffffffffffffffffffffffffffffffffffffffff8261045b565b6104a2868361045b565b95508019841693508086168417925050509392505050565b6000819050919050565b6000819050919050565b60006104e96104e46104df846104ba565b6104c4565b6104ba565b9050919050565b6000819050919050565b610503836104ce565b61051761050f826104f0565b848454610468565b825550505050565b600090565b61052c61051f565b6105378184846104fa565b505050565b5b8181101561055b57610550600082610524565b60018101905061053d565b5050565b601f8211156105a05761057181610436565b61057a8461044b565b81016020851015610589578190505b61059d6105958561044b565b83018261053c565b50505b505050565b600082821c905092915050565b60006105c3600019846008026105a5565b1980831691505092915050565b60006105dc83836105b2565b9150826002028217905092915050565b6105f58261039c565b67ffffffffffffffff81111561060e5761060d6103a7565b5b6106188254610405565b61062382828561055f565b600060209050601f8311600181146106565760008415610644578287015190505b61064e85826105d0565b8655506106b6565b601f19841661066486610436565b60005b8281101561068c57848901518255600182019150602085019450602081019050610667565b868310156106a957848901516106a5601f8916826105b2565b8355505b6001600288020188555050505b505050505050565b61528b806106cd6000396000f3fe6080604052600436106102935760003560e01c806385ef3ded1161015a578063cdb0e89e116100c1578063dbe16c071161007a578063dbe16c0714610ae4578063e2133bef14610b21578063e2842d7914610b4c578063e4e2f55614610b77578063e985e9c514610ba0578063fb9c5fe714610bdd57610293565b8063cdb0e89e1461099e578063d204c45e146109c7578063d47875d014610a04578063d547741f14610a41578063d66827ad14610a6a578063d6d08dca14610aa757610293565b8063a22cb46511610113578063a22cb46514610892578063b3ab15fb146108bb578063b5cb15f7146108e4578063b88d4fde1461090f578063c422c9bb14610938578063c87b56dd1461096157610293565b806385ef3ded1461076b57806386e5c15a146107a85780638dde5577146107d357806391d14854146107ff57806395d89b411461083c578063a217fddf1461086757610293565b8063328d1e60116101fe57806346552e61116101b757806346552e61146105fd5780634985e85c1461063a5780636205f4c5146106775780636352211e146106b45780636fcb532f146106f157806370a082311461072e57610293565b8063328d1e60146104f157806336568abe1461051c57806336896d381461054557806336b56dfc146105825780633d960086146105ab57806342842e0e146105d457610293565b806322e6f1b31161025057806322e6f1b3146103e057806323b872dd1461041d578063248a9ca3146104465780632bd123fe146104835780632c5880771461049f5780632f2ff15d146104c857610293565b8063018ecb121461029857806301ffc9a7146102d557806306fdde0314610312578063081812fc1461033d578063095ea7b31461037a578063109d3ee8146103a3575b600080fd5b3480156102a457600080fd5b506102bf60048036038101906102ba9190613ada565b610c06565b6040516102cc9190613b48565b60405180910390f35b3480156102e157600080fd5b506102fc60048036038101906102f79190613bbb565b610c45565b6040516103099190613c03565b60405180910390f35b34801561031e57600080fd5b50610327610c57565b6040516103349190613cae565b60405180910390f35b34801561034957600080fd5b50610364600480360381019061035f9190613ada565b610ce9565b6040516103719190613b48565b60405180910390f35b34801561038657600080fd5b506103a1600480360381019061039c9190613cfc565b610d05565b005b3480156103af57600080fd5b506103ca60048036038101906103c59190613d3c565b610d1b565b6040516103d79190613c03565b60405180910390f35b3480156103ec57600080fd5b5061040760048036038101906104029190613d69565b610d3b565b6040516104149190613c03565b60405180910390f35b34801561042957600080fd5b50610444600480360381019061043f9190613da9565b610e48565b005b34801561045257600080fd5b5061046d60048036038101906104689190613e32565b610e62565b60405161047a9190613e6e565b60405180910390f35b61049d60048036038101906104989190613ec7565b610e82565b005b3480156104ab57600080fd5b506104c660048036038101906104c19190614029565b610ecc565b005b3480156104d457600080fd5b506104ef60048036038101906104ea9190614085565b610f2d565b005b3480156104fd57600080fd5b50610506610f4f565b60405161051391906140d4565b60405180910390f35b34801561052857600080fd5b50610543600480360381019061053e9190614085565b611015565b005b34801561055157600080fd5b5061056c60048036038101906105679190613d69565b611090565b6040516105799190613c03565b60405180910390f35b34801561058e57600080fd5b506105a960048036038101906105a49190613d3c565b611289565b005b3480156105b757600080fd5b506105d260048036038101906105cd9190613d69565b61144b565b005b3480156105e057600080fd5b506105fb60048036038101906105f69190613da9565b6117c5565b005b34801561060957600080fd5b50610624600480360381019061061f9190613d3c565b6117e5565b60405161063191906141ad565b60405180910390f35b34801561064657600080fd5b50610661600480360381019061065c91906141cf565b61193e565b60405161066e9190613b48565b60405180910390f35b34801561068357600080fd5b5061069e60048036038101906106999190613d3c565b611986565b6040516106ab9190614234565b60405180910390f35b3480156106c057600080fd5b506106db60048036038101906106d69190613ada565b6119dc565b6040516106e89190613b48565b60405180910390f35b3480156106fd57600080fd5b5061071860048036038101906107139190613d3c565b6119ee565b6040516107259190614234565b60405180910390f35b34801561073a57600080fd5b5061075560048036038101906107509190613d3c565b611b0f565b60405161076291906140d4565b60405180910390f35b34801561077757600080fd5b50610792600480360381019061078d9190613ada565b611bc9565b60405161079f91906140d4565b60405180910390f35b3480156107b457600080fd5b506107bd611be6565b6040516107ca9190613e6e565b60405180910390f35b3480156107df57600080fd5b506107e8611c0a565b6040516107f692919061430d565b60405180910390f35b34801561080b57600080fd5b5061082660048036038101906108219190614085565b611dc5565b6040516108339190613c03565b60405180910390f35b34801561084857600080fd5b50610851611e30565b60405161085e9190613cae565b60405180910390f35b34801561087357600080fd5b5061087c611ec2565b6040516108899190613e6e565b60405180910390f35b34801561089e57600080fd5b506108b960048036038101906108b49190614370565b611ec9565b005b3480156108c757600080fd5b506108e260048036038101906108dd9190613d3c565b611edf565b005b3480156108f057600080fd5b506108f9612105565b60405161090691906140d4565b60405180910390f35b34801561091b57600080fd5b5061093660048036038101906109319190614451565b612112565b005b34801561094457600080fd5b5061095f600480360381019061095a91906144d4565b612137565b005b34801561096d57600080fd5b5061098860048036038101906109839190613ada565b612153565b6040516109959190613cae565b60405180910390f35b3480156109aa57600080fd5b506109c560048036038101906109c09190614514565b6121bc565b005b3480156109d357600080fd5b506109ee60048036038101906109e99190614570565b6121e1565b6040516109fb91906140d4565b60405180910390f35b348015610a1057600080fd5b50610a2b6004803603810190610a269190613d3c565b61221f565b604051610a389190614234565b60405180910390f35b348015610a4d57600080fd5b50610a686004803603810190610a639190614085565b61229f565b005b348015610a7657600080fd5b50610a916004803603810190610a8c9190613cfc565b6122c1565b604051610a9e9190613b48565b60405180910390f35b348015610ab357600080fd5b50610ace6004803603810190610ac99190613d3c565b61230f565b604051610adb91906140d4565b60405180910390f35b348015610af057600080fd5b50610b0b6004803603810190610b069190613ada565b6123e7565b604051610b189190613cae565b60405180910390f35b348015610b2d57600080fd5b50610b3661248c565b604051610b439190613e6e565b60405180910390f35b348015610b5857600080fd5b50610b616124b0565b604051610b6e91906141ad565b60405180910390f35b348015610b8357600080fd5b50610b9e6004803603810190610b9991906145f8565b61253e565b005b348015610bac57600080fd5b50610bc76004803603810190610bc29190613d69565b612747565b604051610bd49190613c03565b60405180910390f35b348015610be957600080fd5b50610c046004803603810190610bff9190613d3c565b6127db565b005b60088181548110610c1657600080fd5b906000526020600020016000915054906101000a900473ffffffffffffffffffffffffffffffffffffffff1681565b6000610c508261295f565b9050919050565b606060008054610c6690614667565b80601f0160208091040260200160405190810160405280929190818152602001828054610c9290614667565b8015610cdf5780601f10610cb457610100808354040283529160200191610cdf565b820191906000526020600020905b815481529060010190602001808311610cc257829003601f168201915b5050505050905090565b6000610cf482612a31565b50610cfe82612ab9565b9050919050565b610d178282610d12612af6565b612afe565b5050565b60096020528060005260406000206000915054906101000a900460ff1681565b60008073ffffffffffffffffffffffffffffffffffffffff168373ffffffffffffffffffffffffffffffffffffffff1603610dab576040517f08c379a0000000000000000000000000000000000000000000000000000000008152600401610da2906146e4565b60405180910390fd5b600073ffffffffffffffffffffffffffffffffffffffff168273ffffffffffffffffffffffffffffffffffffffff1603610e1a576040517f08c379a0000000000000000000000000000000000000000000000000000000008152600401610e1190614750565b60405180910390fd5b6000610e258461221f565b90506000610e328461221f565b90508060000b8260000b12159250505092915050565b610e53838383612b10565b610e5d838361144b565b505050565b600060066000838152602001908152602001600020600101549050919050565b8073ffffffffffffffffffffffffffffffffffffffff166108fc349081150290604051600060405180830381858888f19350505050158015610ec8573d6000803e3d6000fd5b5050565b80601083604051610edd91906147ac565b908152602001604051809103902060006101000a81548173ffffffffffffffffffffffffffffffffffffffff021916908373ffffffffffffffffffffffffffffffffffffffff1602179055505050565b610f3682610e62565b610f3f81612c12565b610f498383612c26565b50505050565b6000806000905060005b600880549050811015611001576007600060088381548110610f7e57610f7d6147c3565b5b9060005260206000200160009054906101000a900473ffffffffffffffffffffffffffffffffffffffff1673ffffffffffffffffffffffffffffffffffffffff1673ffffffffffffffffffffffffffffffffffffffff1681526020019081526020016000208054905082610ff29190614821565b91508080600101915050610f59565b5060028161100f9190614884565b91505090565b61101d612af6565b73ffffffffffffffffffffffffffffffffffffffff168173ffffffffffffffffffffffffffffffffffffffff1614611081576040517f6697b23200000000000000000000000000000000000000000000000000000000815260040160405180910390fd5b61108b8282612d18565b505050565b6000600960008473ffffffffffffffffffffffffffffffffffffffff1673ffffffffffffffffffffffffffffffffffffffff16815260200190815260200160002060009054906101000a900460ff1615806111355750600960008373ffffffffffffffffffffffffffffffffffffffff1673ffffffffffffffffffffffffffffffffffffffff16815260200190815260200160002060009054906101000a900460ff16155b156111435760009050611283565b6000600760008573ffffffffffffffffffffffffffffffffffffffff1673ffffffffffffffffffffffffffffffffffffffff16815260200190815260200160002080548060200260200160405190810160405280929190818152602001828054801561120457602002820191906000526020600020905b8160009054906101000a900473ffffffffffffffffffffffffffffffffffffffff1673ffffffffffffffffffffffffffffffffffffffff16815260200190600101908083116111ba575b5050505050905060005b815181101561127c578373ffffffffffffffffffffffffffffffffffffffff16828281518110611241576112406147c3565b5b602002602001015173ffffffffffffffffffffffffffffffffffffffff160361126f57600192505050611283565b808060010191505061120e565b5060009150505b92915050565b600073ffffffffffffffffffffffffffffffffffffffff168173ffffffffffffffffffffffffffffffffffffffff16036112f8576040517f08c379a00000000000000000000000000000000000000000000000000000000081526004016112ef90614901565b60405180910390fd5b600960008273ffffffffffffffffffffffffffffffffffffffff1673ffffffffffffffffffffffffffffffffffffffff16815260200190815260200160002060009054906101000a900460ff16611448576008819080600181540180825580915050600190039060005260206000200160009091909190916101000a81548173ffffffffffffffffffffffffffffffffffffffff021916908373ffffffffffffffffffffffffffffffffffffffff1602179055506001600960008373ffffffffffffffffffffffffffffffffffffffff1673ffffffffffffffffffffffffffffffffffffffff16815260200190815260200160002060006101000a81548160ff0219169083151502179055508073ffffffffffffffffffffffffffffffffffffffff167f19ef9a4877199f89440a26acb26895ec02ed86f2df1aeaa90dc18041b892f71f60405160405180910390a25b50565b600073ffffffffffffffffffffffffffffffffffffffff168273ffffffffffffffffffffffffffffffffffffffff16141580156114b55750600073ffffffffffffffffffffffffffffffffffffffff168173ffffffffffffffffffffffffffffffffffffffff1614155b6114f4576040517f08c379a00000000000000000000000000000000000000000000000000000000081526004016114eb90614901565b60405180910390fd5b8073ffffffffffffffffffffffffffffffffffffffff168273ffffffffffffffffffffffffffffffffffffffff1603611562576040517f08c379a00000000000000000000000000000000000000000000000000000000081526004016115599061496d565b60405180910390fd5b600960008373ffffffffffffffffffffffffffffffffffffffff1673ffffffffffffffffffffffffffffffffffffffff16815260200190815260200160002060009054906101000a900460ff166115bd576115bc82611289565b5b600960008273ffffffffffffffffffffffffffffffffffffffff1673ffffffffffffffffffffffffffffffffffffffff16815260200190815260200160002060009054906101000a900460ff166116185761161781611289565b5b6116228282611090565b6117c157600760008373ffffffffffffffffffffffffffffffffffffffff1673ffffffffffffffffffffffffffffffffffffffff168152602001908152602001600020819080600181540180825580915050600190039060005260206000200160009091909190916101000a81548173ffffffffffffffffffffffffffffffffffffffff021916908373ffffffffffffffffffffffffffffffffffffffff160217905550600760008273ffffffffffffffffffffffffffffffffffffffff1673ffffffffffffffffffffffffffffffffffffffff168152602001908152602001600020829080600181540180825580915050600190039060005260206000200160009091909190916101000a81548173ffffffffffffffffffffffffffffffffffffffff021916908373ffffffffffffffffffffffffffffffffffffffff1602179055508073ffffffffffffffffffffffffffffffffffffffff168273ffffffffffffffffffffffffffffffffffffffff167fb5592a9532ccbdc9d02f659e19cca35ddd0c274b937362cee3a1973a6b5ebe9160405160405180910390a35b5050565b6117e083838360405180602001604052806000815250612112565b505050565b6060600960008373ffffffffffffffffffffffffffffffffffffffff1673ffffffffffffffffffffffffffffffffffffffff16815260200190815260200160002060009054906101000a900460ff16611873576040517f08c379a000000000000000000000000000000000000000000000000000000000815260040161186a906149d9565b60405180910390fd5b600760008373ffffffffffffffffffffffffffffffffffffffff1673ffffffffffffffffffffffffffffffffffffffff16815260200190815260200160002080548060200260200160405190810160405280929190818152602001828054801561193257602002820191906000526020600020905b8160009054906101000a900473ffffffffffffffffffffffffffffffffffffffff1673ffffffffffffffffffffffffffffffffffffffff16815260200190600101908083116118e8575b50505050509050919050565b600060108260405161195091906147ac565b908152602001604051809103902060009054906101000a900473ffffffffffffffffffffffffffffffffffffffff169050919050565b6000600b60008373ffffffffffffffffffffffffffffffffffffffff1673ffffffffffffffffffffffffffffffffffffffff16815260200190815260200160002060009054906101000a900460000b9050919050565b60006119e782612a31565b9050919050565b60008073ffffffffffffffffffffffffffffffffffffffff168273ffffffffffffffffffffffffffffffffffffffff1603611a5e576040517f08c379a0000000000000000000000000000000000000000000000000000000008152600401611a5590614901565b60405180910390fd5b600960008373ffffffffffffffffffffffffffffffffffffffff1673ffffffffffffffffffffffffffffffffffffffff16815260200190815260200160002060009054906101000a900460ff16611ab85760009050611b0a565b6000600880549050905060018113611ad4576000915050611b0a565b6000611adf8461230f565b9050600182611aee9190614a03565b606482611afb9190614a46565b611b059190614abe565b925050505b919050565b60008073ffffffffffffffffffffffffffffffffffffffff168273ffffffffffffffffffffffffffffffffffffffff1603611b825760006040517f89c62b64000000000000000000000000000000000000000000000000000000008152600401611b799190613b48565b60405180910390fd5b600360008373ffffffffffffffffffffffffffffffffffffffff1673ffffffffffffffffffffffffffffffffffffffff168152602001908152602001600020549050919050565b6000600f6000838152602001908152602001600020549050919050565b7fd16e204b8a42a15ab0ea6bb8ec1ecdfbe69f38074fc865323af19efe7d9573d981565b606080600060088054905090508067ffffffffffffffff811115611c3157611c30613efe565b5b604051908082528060200260200182016040528015611c5f5781602001602082028036833780820191505090505b5092508067ffffffffffffffff811115611c7c57611c7b613efe565b5b604051908082528060200260200182016040528015611caa5781602001602082028036833780820191505090505b50915060005b81811015611dbf5760088181548110611ccc57611ccb6147c3565b5b9060005260206000200160009054906101000a900473ffffffffffffffffffffffffffffffffffffffff16848281518110611d0a57611d096147c3565b5b602002602001019073ffffffffffffffffffffffffffffffffffffffff16908173ffffffffffffffffffffffffffffffffffffffff1681525050611d8b60088281548110611d5b57611d5a6147c3565b5b9060005260206000200160009054906101000a900473ffffffffffffffffffffffffffffffffffffffff166119ee565b838281518110611d9e57611d9d6147c3565b5b602002602001019060000b908160000b815250508080600101915050611cb0565b50509091565b60006006600084815260200190815260200160002060000160008373ffffffffffffffffffffffffffffffffffffffff1673ffffffffffffffffffffffffffffffffffffffff16815260200190815260200160002060009054906101000a900460ff16905092915050565b606060018054611e3f90614667565b80601f0160208091040260200160405190810160405280929190818152602001828054611e6b90614667565b8015611eb85780601f10611e8d57610100808354040283529160200191611eb8565b820191906000526020600020905b815481529060010190602001808311611e9b57829003601f168201915b5050505050905090565b6000801b81565b611edb611ed4612af6565b8383612e0b565b5050565b600a60003373ffffffffffffffffffffffffffffffffffffffff1673ffffffffffffffffffffffffffffffffffffffff16815260200190815260200160002060009054906101000a900460ff16611f6b576040517f08c379a0000000000000000000000000000000000000000000000000000000008152600401611f6290614b74565b60405180910390fd5b600073ffffffffffffffffffffffffffffffffffffffff168173ffffffffffffffffffffffffffffffffffffffff1603611fda576040517f08c379a0000000000000000000000000000000000000000000000000000000008152600401611fd190614be0565b60405180910390fd5b600a60008273ffffffffffffffffffffffffffffffffffffffff1673ffffffffffffffffffffffffffffffffffffffff16815260200190815260200160002060009054906101000a900460ff1615612067576040517f08c379a000000000000000000000000000000000000000000000000000000000815260040161205e90614c4c565b60405180910390fd5b6001600a60008373ffffffffffffffffffffffffffffffffffffffff1673ffffffffffffffffffffffffffffffffffffffff16815260200190815260200160002060006101000a81548160ff0219169083151502179055508073ffffffffffffffffffffffffffffffffffffffff167fda12ee837e6978172aaf54b16145ffe08414fd8710092ef033c71b8eb6ec189a60405160405180910390a250565b6000600880549050905090565b61211d848484610e48565b612131612128612af6565b85858585612f7a565b50505050565b80600f6000848152602001908152602001600020819055505050565b606061215e82612a31565b50600061216961312b565b9050600081511161218957604051806020016040528060008152506121b4565b8061219384613142565b6040516020016121a4929190614c6c565b6040516020818303038152906040525b915050919050565b80600e600084815260200190815260200160002090816121dc9190614e3c565b505050565b600080600d5490506121f38482613210565b6121fd81846121bc565b600d600081548092919061221090614f0e565b91905055508091505092915050565b60008073ffffffffffffffffffffffffffffffffffffffff168273ffffffffffffffffffffffffffffffffffffffff160361228f576040517f08c379a000000000000000000000000000000000000000000000000000000000815260040161228690614901565b60405180910390fd5b612298826119ee565b9050919050565b6122a882610e62565b6122b181612c12565b6122bb8383612d18565b50505050565b600760205281600052604060002081815481106122dd57600080fd5b906000526020600020016000915091509054906101000a900473ffffffffffffffffffffffffffffffffffffffff1681565b6000600960008373ffffffffffffffffffffffffffffffffffffffff1673ffffffffffffffffffffffffffffffffffffffff16815260200190815260200160002060009054906101000a900460ff1661239d576040517f08c379a0000000000000000000000000000000000000000000000000000000008152600401612394906149d9565b60405180910390fd5b600760008373ffffffffffffffffffffffffffffffffffffffff1673ffffffffffffffffffffffffffffffffffffffff168152602001908152602001600020805490509050919050565b6060600e6000838152602001908152602001600020805461240790614667565b80601f016020809104026020016040519081016040528092919081815260200182805461243390614667565b80156124805780601f1061245557610100808354040283529160200191612480565b820191906000526020600020905b81548152906001019060200180831161246357829003601f168201915b50505050509050919050565b7f5eeefbd1446176eeb282e93f50761c372c4e4e43ec23a79407cb9bf29660c4ce81565b6060600880548060200260200160405190810160405280929190818152602001828054801561253457602002820191906000526020600020905b8160009054906101000a900473ffffffffffffffffffffffffffffffffffffffff1673ffffffffffffffffffffffffffffffffffffffff16815260200190600101908083116124ea575b5050505050905090565b600a60003373ffffffffffffffffffffffffffffffffffffffff1673ffffffffffffffffffffffffffffffffffffffff16815260200190815260200160002060009054906101000a900460ff166125ca576040517f08c379a00000000000000000000000000000000000000000000000000000000081526004016125c190614b74565b60405180910390fd5b600073ffffffffffffffffffffffffffffffffffffffff168273ffffffffffffffffffffffffffffffffffffffff1603612639576040517f08c379a000000000000000000000000000000000000000000000000000000000815260040161263090614fa2565b60405180910390fd5b7fffffffffffffffffffffffffffffffffffffffffffffffffffffffffffffff818160000b121580156126705750607f8160000b13155b6126af576040517f08c379a00000000000000000000000000000000000000000000000000000000081526004016126a690615034565b60405180910390fd5b80600b60008473ffffffffffffffffffffffffffffffffffffffff1673ffffffffffffffffffffffffffffffffffffffff16815260200190815260200160002060006101000a81548160ff021916908360000b60ff1602179055507f5f1944295bdaf381959cb2811e6e622d6a1a7d1e0ff555f1e28fc54ddc5c4652828260405161273b929190615054565b60405180910390a15050565b6000600560008473ffffffffffffffffffffffffffffffffffffffff1673ffffffffffffffffffffffffffffffffffffffff16815260200190815260200160002060008373ffffffffffffffffffffffffffffffffffffffff1673ffffffffffffffffffffffffffffffffffffffff16815260200190815260200160002060009054906101000a900460ff16905092915050565b600a60003373ffffffffffffffffffffffffffffffffffffffff1673ffffffffffffffffffffffffffffffffffffffff16815260200190815260200160002060009054906101000a900460ff16612867576040517f08c379a000000000000000000000000000000000000000000000000000000000815260040161285e90614b74565b60405180910390fd5b600073ffffffffffffffffffffffffffffffffffffffff168173ffffffffffffffffffffffffffffffffffffffff16036128d6576040517f08c379a00000000000000000000000000000000000000000000000000000000081526004016128cd906150c9565b60405180910390fd5b600b60008273ffffffffffffffffffffffffffffffffffffffff1673ffffffffffffffffffffffffffffffffffffffff16815260200190815260200160002060006101000a81549060ff02191690557f44a5b7afbb86623b8774fc11ab50ba2d84f43f00274a13506ce93a3066bc0d0f816040516129549190613b48565b60405180910390a150565b60007f01ffc9a7000000000000000000000000000000000000000000000000000000007bffffffffffffffffffffffffffffffffffffffffffffffffffffffff1916827bffffffffffffffffffffffffffffffffffffffffffffffffffffffff19161480612a2a57507fced04b8f000000000000000000000000000000000000000000000000000000007bffffffffffffffffffffffffffffffffffffffffffffffffffffffff1916827bffffffffffffffffffffffffffffffffffffffffffffffffffffffff1916145b9050919050565b600080612a3d8361322e565b9050600073ffffffffffffffffffffffffffffffffffffffff168173ffffffffffffffffffffffffffffffffffffffff1603612ab057826040517f7e273289000000000000000000000000000000000000000000000000000000008152600401612aa791906140d4565b60405180910390fd5b80915050919050565b60006004600083815260200190815260200160002060009054906101000a900473ffffffffffffffffffffffffffffffffffffffff169050919050565b600033905090565b612b0b838383600161326b565b505050565b600073ffffffffffffffffffffffffffffffffffffffff168273ffffffffffffffffffffffffffffffffffffffff1603612b825760006040517f64a0ae92000000000000000000000000000000000000000000000000000000008152600401612b799190613b48565b60405180910390fd5b6000612b968383612b91612af6565b613430565b90508373ffffffffffffffffffffffffffffffffffffffff168173ffffffffffffffffffffffffffffffffffffffff1614612c0c578382826040517f64283d7b000000000000000000000000000000000000000000000000000000008152600401612c03939291906150e9565b60405180910390fd5b50505050565b612c2381612c1e612af6565b61364a565b50565b6000612c328383611dc5565b612d0d5760016006600085815260200190815260200160002060000160008473ffffffffffffffffffffffffffffffffffffffff1673ffffffffffffffffffffffffffffffffffffffff16815260200190815260200160002060006101000a81548160ff021916908315150217905550612caa612af6565b73ffffffffffffffffffffffffffffffffffffffff168273ffffffffffffffffffffffffffffffffffffffff16847f2f8788117e7eff1d82e926ec794901d17c78024a50270940304540a733656f0d60405160405180910390a460019050612d12565b600090505b92915050565b6000612d248383611dc5565b15612e005760006006600085815260200190815260200160002060000160008473ffffffffffffffffffffffffffffffffffffffff1673ffffffffffffffffffffffffffffffffffffffff16815260200190815260200160002060006101000a81548160ff021916908315150217905550612d9d612af6565b73ffffffffffffffffffffffffffffffffffffffff168273ffffffffffffffffffffffffffffffffffffffff16847ff6391f5c32d9c69d2a47ea670b442974b53935d1edc7fd64eb21e047a839171b60405160405180910390a460019050612e05565b600090505b92915050565b600073ffffffffffffffffffffffffffffffffffffffff168273ffffffffffffffffffffffffffffffffffffffff1603612e7c57816040517f5b08ba18000000000000000000000000000000000000000000000000000000008152600401612e739190613b48565b60405180910390fd5b80600560008573ffffffffffffffffffffffffffffffffffffffff1673ffffffffffffffffffffffffffffffffffffffff16815260200190815260200160002060008473ffffffffffffffffffffffffffffffffffffffff1673ffffffffffffffffffffffffffffffffffffffff16815260200190815260200160002060006101000a81548160ff0219169083151502179055508173ffffffffffffffffffffffffffffffffffffffff168373ffffffffffffffffffffffffffffffffffffffff167f17307eab39ab6107e8899845ad3d59bd9653f200f220920489ca2b5937696c3183604051612f6d9190613c03565b60405180910390a3505050565b60008373ffffffffffffffffffffffffffffffffffffffff163b1115613124578273ffffffffffffffffffffffffffffffffffffffff1663150b7a02868685856040518563ffffffff1660e01b8152600401612fd99493929190615175565b6020604051808303816000875af192505050801561301557506040513d601f19601f8201168201806040525081019061301291906151d6565b60015b613099573d8060008114613045576040519150601f19603f3d011682016040523d82523d6000602084013e61304a565b606091505b50600081510361309157836040517f64a0ae920000000000000000000000000000000000000000000000000000000081526004016130889190613b48565b60405180910390fd5b805181602001fd5b63150b7a0260e01b7bffffffffffffffffffffffffffffffffffffffffffffffffffffffff1916817bffffffffffffffffffffffffffffffffffffffffffffffffffffffff19161461312257836040517f64a0ae920000000000000000000000000000000000000000000000000000000081526004016131199190613b48565b60405180910390fd5b505b5050505050565b606060405180602001604052806000815250905090565b6060600060016131518461369b565b01905060008167ffffffffffffffff8111156131705761316f613efe565b5b6040519080825280601f01601f1916602001820160405280156131a25781602001600182028036833780820191505090505b509050600082602001820190505b600115613205578080600190039150507f3031323334353637383961626364656600000000000000000000000000000000600a86061a8153600a85816131f9576131f8614855565b5b049450600085036131b0575b819350505050919050565b61322a8282604051806020016040528060008152506137ee565b5050565b60006002600083815260200190815260200160002060009054906101000a900473ffffffffffffffffffffffffffffffffffffffff169050919050565b80806132a45750600073ffffffffffffffffffffffffffffffffffffffff168273ffffffffffffffffffffffffffffffffffffffff1614155b156133d85760006132b484612a31565b9050600073ffffffffffffffffffffffffffffffffffffffff168373ffffffffffffffffffffffffffffffffffffffff161415801561331f57508273ffffffffffffffffffffffffffffffffffffffff168173ffffffffffffffffffffffffffffffffffffffff1614155b801561333257506133308184612747565b155b1561337457826040517fa9fbf51f00000000000000000000000000000000000000000000000000000000815260040161336b9190613b48565b60405180910390fd5b81156133d657838573ffffffffffffffffffffffffffffffffffffffff168273ffffffffffffffffffffffffffffffffffffffff167f8c5be1e5ebec7d5bd14f71427d1e84f3dd0314c0f7b2291e5b200ac8c7c3b92560405160405180910390a45b505b836004600085815260200190815260200160002060006101000a81548173ffffffffffffffffffffffffffffffffffffffff021916908373ffffffffffffffffffffffffffffffffffffffff16021790555050505050565b60008061343c8461322e565b9050600073ffffffffffffffffffffffffffffffffffffffff168373ffffffffffffffffffffffffffffffffffffffff161461347e5761347d818486613812565b5b600073ffffffffffffffffffffffffffffffffffffffff168173ffffffffffffffffffffffffffffffffffffffff161461350f576134c060008560008061326b565b6001600360008373ffffffffffffffffffffffffffffffffffffffff1673ffffffffffffffffffffffffffffffffffffffff168152602001908152602001600020600082825403925050819055505b600073ffffffffffffffffffffffffffffffffffffffff168573ffffffffffffffffffffffffffffffffffffffff1614613592576001600360008773ffffffffffffffffffffffffffffffffffffffff1673ffffffffffffffffffffffffffffffffffffffff168152602001908152602001600020600082825401925050819055505b846002600086815260200190815260200160002060006101000a81548173ffffffffffffffffffffffffffffffffffffffff021916908373ffffffffffffffffffffffffffffffffffffffff160217905550838573ffffffffffffffffffffffffffffffffffffffff168273ffffffffffffffffffffffffffffffffffffffff167fddf252ad1be2c89b69c2b068fc378daa952ba7f163c4a11628f55a4df523b3ef60405160405180910390a4809150509392505050565b6136548282611dc5565b6136975780826040517fe2517d3f00000000000000000000000000000000000000000000000000000000815260040161368e929190615203565b60405180910390fd5b5050565b600080600090507a184f03e93ff9f4daa797ed6e38ed64bf6a1f01000000000000000083106136f9577a184f03e93ff9f4daa797ed6e38ed64bf6a1f01000000000000000083816136ef576136ee614855565b5b0492506040810190505b6d04ee2d6d415b85acef81000000008310613736576d04ee2d6d415b85acef8100000000838161372c5761372b614855565b5b0492506020810190505b662386f26fc10000831061376557662386f26fc10000838161375b5761375a614855565b5b0492506010810190505b6305f5e100831061378e576305f5e100838161378457613783614855565b5b0492506008810190505b61271083106137b35761271083816137a9576137a8614855565b5b0492506004810190505b606483106137d657606483816137cc576137cb614855565b5b0492506002810190505b600a83106137e5576001810190505b80915050919050565b6137f883836138d6565b61380d613803612af6565b6000858585612f7a565b505050565b61381d8383836139cf565b6138d157600073ffffffffffffffffffffffffffffffffffffffff168373ffffffffffffffffffffffffffffffffffffffff160361389257806040517f7e27328900000000000000000000000000000000000000000000000000000000815260040161388991906140d4565b60405180910390fd5b81816040517f177e802f0000000000000000000000000000000000000000000000000000000081526004016138c892919061522c565b60405180910390fd5b505050565b600073ffffffffffffffffffffffffffffffffffffffff168273ffffffffffffffffffffffffffffffffffffffff16036139485760006040517f64a0ae9200000000000000000000000000000000000000000000000000000000815260040161393f9190613b48565b60405180910390fd5b600061395683836000613430565b9050600073ffffffffffffffffffffffffffffffffffffffff168173ffffffffffffffffffffffffffffffffffffffff16146139ca5760006040517f73c6ac6e0000000000000000000000000000000000000000000000000000000081526004016139c19190613b48565b60405180910390fd5b505050565b60008073ffffffffffffffffffffffffffffffffffffffff168373ffffffffffffffffffffffffffffffffffffffff1614158015613a8757508273ffffffffffffffffffffffffffffffffffffffff168473ffffffffffffffffffffffffffffffffffffffff161480613a485750613a478484612747565b5b80613a8657508273ffffffffffffffffffffffffffffffffffffffff16613a6e83612ab9565b73ffffffffffffffffffffffffffffffffffffffff16145b5b90509392505050565b6000604051905090565b600080fd5b600080fd5b6000819050919050565b613ab781613aa4565b8114613ac257600080fd5b50565b600081359050613ad481613aae565b92915050565b600060208284031215613af057613aef613a9a565b5b6000613afe84828501613ac5565b91505092915050565b600073ffffffffffffffffffffffffffffffffffffffff82169050919050565b6000613b3282613b07565b9050919050565b613b4281613b27565b82525050565b6000602082019050613b5d6000830184613b39565b92915050565b60007fffffffff0000000000000000000000000000000000000000000000000000000082169050919050565b613b9881613b63565b8114613ba357600080fd5b50565b600081359050613bb581613b8f565b92915050565b600060208284031215613bd157613bd0613a9a565b5b6000613bdf84828501613ba6565b91505092915050565b60008115159050919050565b613bfd81613be8565b82525050565b6000602082019050613c186000830184613bf4565b92915050565b600081519050919050565b600082825260208201905092915050565b60005b83811015613c58578082015181840152602081019050613c3d565b60008484015250505050565b6000601f19601f8301169050919050565b6000613c8082613c1e565b613c8a8185613c29565b9350613c9a818560208601613c3a565b613ca381613c64565b840191505092915050565b60006020820190508181036000830152613cc88184613c75565b905092915050565b613cd981613b27565b8114613ce457600080fd5b50565b600081359050613cf681613cd0565b92915050565b60008060408385031215613d1357613d12613a9a565b5b6000613d2185828601613ce7565b9250506020613d3285828601613ac5565b9150509250929050565b600060208284031215613d5257613d51613a9a565b5b6000613d6084828501613ce7565b91505092915050565b60008060408385031215613d8057613d7f613a9a565b5b6000613d8e85828601613ce7565b9250506020613d9f85828601613ce7565b9150509250929050565b600080600060608486031215613dc257613dc1613a9a565b5b6000613dd086828701613ce7565b9350506020613de186828701613ce7565b9250506040613df286828701613ac5565b9150509250925092565b6000819050919050565b613e0f81613dfc565b8114613e1a57600080fd5b50565b600081359050613e2c81613e06565b92915050565b600060208284031215613e4857613e47613a9a565b5b6000613e5684828501613e1d565b91505092915050565b613e6881613dfc565b82525050565b6000602082019050613e836000830184613e5f565b92915050565b6000613e9482613b07565b9050919050565b613ea481613e89565b8114613eaf57600080fd5b50565b600081359050613ec181613e9b565b92915050565b600060208284031215613edd57613edc613a9a565b5b6000613eeb84828501613eb2565b91505092915050565b600080fd5b600080fd5b7f4e487b7100000000000000000000000000000000000000000000000000000000600052604160045260246000fd5b613f3682613c64565b810181811067ffffffffffffffff82111715613f5557613f54613efe565b5b80604052505050565b6000613f68613a90565b9050613f748282613f2d565b919050565b600067ffffffffffffffff821115613f9457613f93613efe565b5b613f9d82613c64565b9050602081019050919050565b82818337600083830152505050565b6000613fcc613fc784613f79565b613f5e565b905082815260208101848484011115613fe857613fe7613ef9565b5b613ff3848285613faa565b509392505050565b600082601f8301126140105761400f613ef4565b5b8135614020848260208601613fb9565b91505092915050565b600080604083850312156140405761403f613a9a565b5b600083013567ffffffffffffffff81111561405e5761405d613a9f565b5b61406a85828601613ffb565b925050602061407b85828601613ce7565b9150509250929050565b6000806040838503121561409c5761409b613a9a565b5b60006140aa85828601613e1d565b92505060206140bb85828601613ce7565b9150509250929050565b6140ce81613aa4565b82525050565b60006020820190506140e960008301846140c5565b92915050565b600081519050919050565b600082825260208201905092915050565b6000819050602082019050919050565b61412481613b27565b82525050565b6000614136838361411b565b60208301905092915050565b6000602082019050919050565b600061415a826140ef565b61416481856140fa565b935061416f8361410b565b8060005b838110156141a0578151614187888261412a565b975061419283614142565b925050600181019050614173565b5085935050505092915050565b600060208201905081810360008301526141c7818461414f565b905092915050565b6000602082840312156141e5576141e4613a9a565b5b600082013567ffffffffffffffff81111561420357614202613a9f565b5b61420f84828501613ffb565b91505092915050565b60008160000b9050919050565b61422e81614218565b82525050565b60006020820190506142496000830184614225565b92915050565b600081519050919050565b600082825260208201905092915050565b6000819050602082019050919050565b61428481614218565b82525050565b6000614296838361427b565b60208301905092915050565b6000602082019050919050565b60006142ba8261424f565b6142c4818561425a565b93506142cf8361426b565b8060005b838110156143005781516142e7888261428a565b97506142f2836142a2565b9250506001810190506142d3565b5085935050505092915050565b60006040820190508181036000830152614327818561414f565b9050818103602083015261433b81846142af565b90509392505050565b61434d81613be8565b811461435857600080fd5b50565b60008135905061436a81614344565b92915050565b6000806040838503121561438757614386613a9a565b5b600061439585828601613ce7565b92505060206143a68582860161435b565b9150509250929050565b600067ffffffffffffffff8211156143cb576143ca613efe565b5b6143d482613c64565b9050602081019050919050565b60006143f46143ef846143b0565b613f5e565b9050828152602081018484840111156144105761440f613ef9565b5b61441b848285613faa565b509392505050565b600082601f83011261443857614437613ef4565b5b81356144488482602086016143e1565b91505092915050565b6000806000806080858703121561446b5761446a613a9a565b5b600061447987828801613ce7565b945050602061448a87828801613ce7565b935050604061449b87828801613ac5565b925050606085013567ffffffffffffffff8111156144bc576144bb613a9f565b5b6144c887828801614423565b91505092959194509250565b600080604083850312156144eb576144ea613a9a565b5b60006144f985828601613ac5565b925050602061450a85828601613ac5565b9150509250929050565b6000806040838503121561452b5761452a613a9a565b5b600061453985828601613ac5565b925050602083013567ffffffffffffffff81111561455a57614559613a9f565b5b61456685828601613ffb565b9150509250929050565b6000806040838503121561458757614586613a9a565b5b600061459585828601613ce7565b925050602083013567ffffffffffffffff8111156145b6576145b5613a9f565b5b6145c285828601613ffb565b9150509250929050565b6145d581614218565b81146145e057600080fd5b50565b6000813590506145f2816145cc565b92915050565b6000806040838503121561460f5761460e613a9a565b5b600061461d85828601613ce7565b925050602061462e858286016145e3565b9150509250929050565b7f4e487b7100000000000000000000000000000000000000000000000000000000600052602260045260246000fd5b6000600282049050600182168061467f57607f821691505b60208210810361469257614691614638565b5b50919050565b7f496e76616c6964206d7941646472657373000000000000000000000000000000600082015250565b60006146ce601183613c29565b91506146d982614698565b602082019050919050565b600060208201905081810360008301526146fd816146c1565b9050919050565b7f496e76616c696420746172676574416464726573730000000000000000000000600082015250565b600061473a601583613c29565b915061474582614704565b602082019050919050565b600060208201905081810360008301526147698161472d565b9050919050565b600081905092915050565b600061478682613c1e565b6147908185614770565b93506147a0818560208601613c3a565b80840191505092915050565b60006147b8828461477b565b915081905092915050565b7f4e487b7100000000000000000000000000000000000000000000000000000000600052603260045260246000fd5b7f4e487b7100000000000000000000000000000000000000000000000000000000600052601160045260246000fd5b600061482c82613aa4565b915061483783613aa4565b925082820190508082111561484f5761484e6147f2565b5b92915050565b7f4e487b7100000000000000000000000000000000000000000000000000000000600052601260045260246000fd5b600061488f82613aa4565b915061489a83613aa4565b9250826148aa576148a9614855565b5b828204905092915050565b7f496e76616c696420757365722061646472657373000000000000000000000000600082015250565b60006148eb601483613c29565b91506148f6826148b5565b602082019050919050565b6000602082019050818103600083015261491a816148de565b9050919050565b7f53656c662d636f6e6e656374696f6e206e6f7420616c6c6f7765640000000000600082015250565b6000614957601b83613c29565b915061496282614921565b602082019050919050565b600060208201905081810360008301526149868161494a565b9050919050565b7f5573657220646f6573206e6f7420657869737400000000000000000000000000600082015250565b60006149c3601383613c29565b91506149ce8261498d565b602082019050919050565b600060208201905081810360008301526149f2816149b6565b9050919050565b6000819050919050565b6000614a0e826149f9565b9150614a19836149f9565b9250828203905081811260008412168282136000851215161715614a4057614a3f6147f2565b5b92915050565b6000614a51826149f9565b9150614a5c836149f9565b9250828202614a6a816149f9565b91507f80000000000000000000000000000000000000000000000000000000000000008414600084121615614aa257614aa16147f2565b5b8282058414831517614ab757614ab66147f2565b5b5092915050565b6000614ac9826149f9565b9150614ad4836149f9565b925082614ae457614ae3614855565b5b600160000383147f800000000000000000000000000000000000000000000000000000000000000083141615614b1d57614b1c6147f2565b5b828205905092915050565b7f43616c6c6572206973206e6f7420746865206f70657261746f72000000000000600082015250565b6000614b5e601a83613c29565b9150614b6982614b28565b602082019050919050565b60006020820190508181036000830152614b8d81614b51565b9050919050565b7f496e76616c6964206f70657261746f7220616464726573730000000000000000600082015250565b6000614bca601883613c29565b9150614bd582614b94565b602082019050919050565b60006020820190508181036000830152614bf981614bbd565b9050919050565b7f4f70657261746f7220616c726561647920736574000000000000000000000000600082015250565b6000614c36601483613c29565b9150614c4182614c00565b602082019050919050565b60006020820190508181036000830152614c6581614c29565b9050919050565b6000614c78828561477b565b9150614c84828461477b565b91508190509392505050565b60008190508160005260206000209050919050565b60006020601f8301049050919050565b600082821b905092915050565b600060088302614cf27fffffffffffffffffffffffffffffffffffffffffffffffffffffffffffffffff82614cb5565b614cfc8683614cb5565b95508019841693508086168417925050509392505050565b6000819050919050565b6000614d39614d34614d2f84613aa4565b614d14565b613aa4565b9050919050565b6000819050919050565b614d5383614d1e565b614d67614d5f82614d40565b848454614cc2565b825550505050565b600090565b614d7c614d6f565b614d87818484614d4a565b505050565b5b81811015614dab57614da0600082614d74565b600181019050614d8d565b5050565b601f821115614df057614dc181614c90565b614dca84614ca5565b81016020851015614dd9578190505b614ded614de585614ca5565b830182614d8c565b50505b505050565b600082821c905092915050565b6000614e1360001984600802614df5565b1980831691505092915050565b6000614e2c8383614e02565b9150826002028217905092915050565b614e4582613c1e565b67ffffffffffffffff811115614e5e57614e5d613efe565b5b614e688254614667565b614e73828285614daf565b600060209050601f831160018114614ea65760008415614e94578287015190505b614e9e8582614e20565b865550614f06565b601f198416614eb486614c90565b60005b82811015614edc57848901518255600182019150602085019450602081019050614eb7565b86831015614ef95784890151614ef5601f891682614e02565b8355505b6001600288020188555050505b505050505050565b6000614f1982613aa4565b91507fffffffffffffffffffffffffffffffffffffffffffffffffffffffffffffffff8203614f4b57614f4a6147f2565b5b600182019050919050565b7f526174656420616464726573732063616e6e6f74206265207a65726f00000000600082015250565b6000614f8c601c83613c29565b9150614f9782614f56565b602082019050919050565b60006020820190508181036000830152614fbb81614f7f565b9050919050565b7f526174696e67206d757374206265206265747765656e202d31323720616e642060008201527f3132370000000000000000000000000000000000000000000000000000000000602082015250565b600061501e602383613c29565b915061502982614fc2565b604082019050919050565b6000602082019050818103600083015261504d81615011565b9050919050565b60006040820190506150696000830185613b39565b6150766020830184614225565b9392505050565b7f52656d6f76656420616464726573732063616e6e6f74206265207a65726f0000600082015250565b60006150b3601e83613c29565b91506150be8261507d565b602082019050919050565b600060208201905081810360008301526150e2816150a6565b9050919050565b60006060820190506150fe6000830186613b39565b61510b60208301856140c5565b6151186040830184613b39565b949350505050565b600081519050919050565b600082825260208201905092915050565b600061514782615120565b615151818561512b565b9350615161818560208601613c3a565b61516a81613c64565b840191505092915050565b600060808201905061518a6000830187613b39565b6151976020830186613b39565b6151a460408301856140c5565b81810360608301526151b6818461513c565b905095945050505050565b6000815190506151d081613b8f565b92915050565b6000602082840312156151ec576151eb613a9a565b5b60006151fa848285016151c1565b91505092915050565b60006040820190506152186000830185613b39565b6152256020830184613e5f565b9392505050565b60006040820190506152416000830185613b39565b61524e60208301846140c5565b939250505056fea2646970667358221220d58a7abac6d72402aade5606fe630927d034b286bc333ffa66ee2b25d6f7a4e864736f6c634300081c0033",
  "linkReferences": {},
  "deployedLinkReferences": {}
}