{
  "_format": "hh-sol-artifact-1",
  "contractName": "SsdlabToken",
  "sourceName": "contracts/SsdlabToken.sol",
  "abi": [
    {
      "inputs": [
        {
          "internalType": "address",
          "name": "teacher",
          "type": "address"
        },
        {
          "internalType": "address",
          "name": "student",
          "type": "address"
        }
      ],
      "stateMutability": "nonpayable",
      "type": "constructor"
    },
    {
      "inputs": [],
      "name": "AccessControlBadConfirmation",
      "type": "error"
    },
    {
      "inputs": [
        {
          "internalType": "address",
          "name": "account",
          "type": "address"
        },
        {
          "internalType": "bytes32",
          "name": "neededRole",
          "type": "bytes32"
        }
      ],
      "name": "AccessControlUnauthorizedAccount",
      "type": "error"
    },
    {
      "inputs": [
        {
          "internalType": "address",
          "name": "sender",
          "type": "address"
        },
        {
          "internalType": "uint256",
          "name": "tokenId",
          "type": "uint256"
        },
        {
          "internalType": "address",
          "name": "owner",
          "type": "address"
        }
      ],
      "name": "ERC721IncorrectOwner",
      "type": "error"
    },
    {
      "inputs": [
        {
          "internalType": "address",
          "name": "operator",
          "type": "address"
        },
        {
          "internalType": "uint256",
          "name": "tokenId",
          "type": "uint256"
        }
      ],
      "name": "ERC721InsufficientApproval",
      "type": "error"
    },
    {
      "inputs": [
        {
          "internalType": "address",
          "name": "approver",
          "type": "address"
        }
      ],
      "name": "ERC721InvalidApprover",
      "type": "error"
    },
    {
      "inputs": [
        {
          "internalType": "address",
          "name": "operator",
          "type": "address"
        }
      ],
      "name": "ERC721InvalidOperator",
      "type": "error"
    },
    {
      "inputs": [
        {
          "internalType": "address",
          "name": "owner",
          "type": "address"
        }
      ],
      "name": "ERC721InvalidOwner",
      "type": "error"
    },
    {
      "inputs": [
        {
          "internalType": "address",
          "name": "receiver",
          "type": "address"
        }
      ],
      "name": "ERC721InvalidReceiver",
      "type": "error"
    },
    {
      "inputs": [
        {
          "internalType": "address",
          "name": "sender",
          "type": "address"
        }
      ],
      "name": "ERC721InvalidSender",
      "type": "error"
    },
    {
      "inputs": [
        {
          "internalType": "uint256",
          "name": "tokenId",
          "type": "uint256"
        }
      ],
      "name": "ERC721NonexistentToken",
      "type": "error"
    },
    {
      "anonymous": false,
      "inputs": [
        {
          "indexed": true,
          "internalType": "address",
          "name": "owner",
          "type": "address"
        },
        {
          "indexed": true,
          "internalType": "address",
          "name": "approved",
          "type": "address"
        },
        {
          "indexed": true,
          "internalType": "uint256",
          "name": "tokenId",
          "type": "uint256"
        }
      ],
      "name": "Approval",
      "type": "event"
    },
    {
      "anonymous": false,
      "inputs": [
        {
          "indexed": true,
          "internalType": "address",
          "name": "owner",
          "type": "address"
        },
        {
          "indexed": true,
          "internalType": "address",
          "name": "operator",
          "type": "address"
        },
        {
          "indexed": false,
          "internalType": "bool",
          "name": "approved",
          "type": "bool"
        }
      ],
      "name": "ApprovalForAll",
      "type": "event"
    },
    {
      "anonymous": false,
      "inputs": [
        {
          "indexed": true,
          "internalType": "bytes32",
          "name": "role",
          "type": "bytes32"
        },
        {
          "indexed": true,
          "internalType": "bytes32",
          "name": "previousAdminRole",
          "type": "bytes32"
        },
        {
          "indexed": true,
          "internalType": "bytes32",
          "name": "newAdminRole",
          "type": "bytes32"
        }
      ],
      "name": "RoleAdminChanged",
      "type": "event"
    },
    {
      "anonymous": false,
      "inputs": [
        {
          "indexed": true,
          "internalType": "bytes32",
          "name": "role",
          "type": "bytes32"
        },
        {
          "indexed": true,
          "internalType": "address",
          "name": "account",
          "type": "address"
        },
        {
          "indexed": true,
          "internalType": "address",
          "name": "sender",
          "type": "address"
        }
      ],
      "name": "RoleGranted",
      "type": "event"
    },
    {
      "anonymous": false,
      "inputs": [
        {
          "indexed": true,
          "internalType": "bytes32",
          "name": "role",
          "type": "bytes32"
        },
        {
          "indexed": true,
          "internalType": "address",
          "name": "account",
          "type": "address"
        },
        {
          "indexed": true,
          "internalType": "address",
          "name": "sender",
          "type": "address"
        }
      ],
      "name": "RoleRevoked",
      "type": "event"
    },
    {
      "anonymous": false,
      "inputs": [
        {
          "indexed": true,
          "internalType": "address",
          "name": "from",
          "type": "address"
        },
        {
          "indexed": true,
          "internalType": "address",
          "name": "to",
          "type": "address"
        },
        {
          "indexed": true,
          "internalType": "uint256",
          "name": "tokenId",
          "type": "uint256"
        }
      ],
      "name": "Transfer",
      "type": "event"
    },
    {
      "inputs": [],
      "name": "DEFAULT_ADMIN_ROLE",
      "outputs": [
        {
          "internalType": "bytes32",
          "name": "",
          "type": "bytes32"
        }
      ],
      "stateMutability": "view",
      "type": "function"
    },
    {
      "inputs": [],
      "name": "STUDENTS_ROLE",
      "outputs": [
        {
          "internalType": "bytes32",
          "name": "",
          "type": "bytes32"
        }
      ],
      "stateMutability": "view",
      "type": "function"
    },
    {
      "inputs": [],
      "name": "TEACHER_ROLE",
      "outputs": [
        {
          "internalType": "bytes32",
          "name": "",
          "type": "bytes32"
        }
      ],
      "stateMutability": "view",
      "type": "function"
    },
    {
      "inputs": [
        {
          "internalType": "address",
          "name": "to",
          "type": "address"
        },
        {
          "internalType": "uint256",
          "name": "tokenId",
          "type": "uint256"
        }
      ],
      "name": "approve",
      "outputs": [],
      "stateMutability": "nonpayable",
      "type": "function"
    },
    {
      "inputs": [
        {
          "internalType": "address",
          "name": "owner",
          "type": "address"
        }
      ],
      "name": "balanceOf",
      "outputs": [
        {
          "internalType": "uint256",
          "name": "",
          "type": "uint256"
        }
      ],
      "stateMutability": "view",
      "type": "function"
    },
    {
      "inputs": [
        {
          "internalType": "uint256",
          "name": "tokenId",
          "type": "uint256"
        }
      ],
      "name": "getApproved",
      "outputs": [
        {
          "internalType": "address",
          "name": "",
          "type": "address"
        }
      ],
      "stateMutability": "view",
      "type": "function"
    },
    {
      "inputs": [
        {
          "internalType": "uint256",
          "name": "tokenId",
          "type": "uint256"
        }
      ],
      "name": "getExchangeTokenId",
      "outputs": [
        {
          "internalType": "uint256",
          "name": "",
          "type": "uint256"
        }
      ],
      "stateMutability": "view",
      "type": "function"
    },
    {
      "inputs": [
        {
          "internalType": "bytes32",
          "name": "role",
          "type": "bytes32"
        }
      ],
      "name": "getRoleAdmin",
      "outputs": [
        {
          "internalType": "bytes32",
          "name": "",
          "type": "bytes32"
        }
      ],
      "stateMutability": "view",
      "type": "function"
    },
    {
      "inputs": [
        {
          "internalType": "uint256",
          "name": "tokenId",
          "type": "uint256"
        }
      ],
      "name": "getTokenName",
      "outputs": [
        {
          "internalType": "string",
          "name": "",
          "type": "string"
        }
      ],
      "stateMutability": "view",
      "type": "function"
    },
    {
      "inputs": [
        {
          "internalType": "uint256",
          "name": "tokenId",
          "type": "uint256"
        }
      ],
      "name": "getTokenURI",
      "outputs": [
        {
          "internalType": "string",
          "name": "",
          "type": "string"
        }
      ],
      "stateMutability": "view",
      "type": "function"
    },
    {
      "inputs": [
        {
          "internalType": "string",
          "name": "userName",
          "type": "string"
        }
      ],
      "name": "getUserAddress",
      "outputs": [
        {
          "internalType": "address",
          "name": "",
          "type": "address"
        }
      ],
      "stateMutability": "view",
      "type": "function"
    },
    {
      "inputs": [
        {
          "internalType": "bytes32",
          "name": "role",
          "type": "bytes32"
        },
        {
          "internalType": "address",
          "name": "account",
          "type": "address"
        }
      ],
      "name": "grantRole",
      "outputs": [],
      "stateMutability": "nonpayable",
      "type": "function"
    },
    {
      "inputs": [
        {
          "internalType": "bytes32",
          "name": "role",
          "type": "bytes32"
        },
        {
          "internalType": "address",
          "name": "account",
          "type": "address"
        }
      ],
      "name": "hasRole",
      "outputs": [
        {
          "internalType": "bool",
          "name": "",
          "type": "bool"
        }
      ],
      "stateMutability": "view",
      "type": "function"
    },
    {
      "inputs": [
        {
          "internalType": "address",
          "name": "owner",
          "type": "address"
        },
        {
          "internalType": "address",
          "name": "operator",
          "type": "address"
        }
      ],
      "name": "isApprovedForAll",
      "outputs": [
        {
          "internalType": "bool",
          "name": "",
          "type": "bool"
        }
      ],
      "stateMutability": "view",
      "type": "function"
    },
    {
      "inputs": [],
      "name": "name",
      "outputs": [
        {
          "internalType": "string",
          "name": "",
          "type": "string"
        }
      ],
      "stateMutability": "view",
      "type": "function"
    },
    {
      "inputs": [
        {
          "internalType": "uint256",
          "name": "tokenId",
          "type": "uint256"
        }
      ],
      "name": "ownerOf",
      "outputs": [
        {
          "internalType": "address",
          "name": "",
          "type": "address"
        }
      ],
      "stateMutability": "view",
      "type": "function"
    },
    {
      "inputs": [
        {
          "internalType": "bytes32",
          "name": "role",
          "type": "bytes32"
        },
        {
          "internalType": "address",
          "name": "callerConfirmation",
          "type": "address"
        }
      ],
      "name": "renounceRole",
      "outputs": [],
      "stateMutability": "nonpayable",
      "type": "function"
    },
    {
      "inputs": [
        {
          "internalType": "bytes32",
          "name": "role",
          "type": "bytes32"
        },
        {
          "internalType": "address",
          "name": "account",
          "type": "address"
        }
      ],
      "name": "revokeRole",
      "outputs": [],
      "stateMutability": "nonpayable",
      "type": "function"
    },
    {
      "inputs": [
        {
          "internalType": "address",
          "name": "to",
          "type": "address"
        },
        {
          "internalType": "string",
          "name": "_tokenName",
          "type": "string"
        }
      ],
      "name": "safeMint",
      "outputs": [
        {
          "internalType": "uint256",
          "name": "",
          "type": "uint256"
        }
      ],
      "stateMutability": "nonpayable",
      "type": "function"
    },
    {
      "inputs": [
        {
          "internalType": "address",
          "name": "to",
          "type": "address"
        },
        {
          "internalType": "string",
          "name": "_tokenName",
          "type": "string"
        },
        {
          "internalType": "string",
          "name": "_tokenURI",
          "type": "string"
        }
      ],
      "name": "safeMintIPFS",
      "outputs": [
        {
          "internalType": "uint256",
          "name": "",
          "type": "uint256"
        }
      ],
      "stateMutability": "nonpayable",
      "type": "function"
    },
    {
      "inputs": [
        {
          "internalType": "address",
          "name": "from",
          "type": "address"
        },
        {
          "internalType": "address",
          "name": "to",
          "type": "address"
        },
        {
          "internalType": "uint256",
          "name": "tokenId",
          "type": "uint256"
        }
      ],
      "name": "safeTransferFrom",
      "outputs": [],
      "stateMutability": "nonpayable",
      "type": "function"
    },
    {
      "inputs": [
        {
          "internalType": "address",
          "name": "from",
          "type": "address"
        },
        {
          "internalType": "address",
          "name": "to",
          "type": "address"
        },
        {
          "internalType": "uint256",
          "name": "tokenId",
          "type": "uint256"
        },
        {
          "internalType": "bytes",
          "name": "data",
          "type": "bytes"
        }
      ],
      "name": "safeTransferFrom",
      "outputs": [],
      "stateMutability": "nonpayable",
      "type": "function"
    },
    {
      "inputs": [
        {
          "internalType": "address payable",
          "name": "_to",
          "type": "address"
        }
      ],
      "name": "sendTransaction",
      "outputs": [],
      "stateMutability": "payable",
      "type": "function"
    },
    {
      "inputs": [
        {
          "internalType": "address",
          "name": "operator",
          "type": "address"
        },
        {
          "internalType": "bool",
          "name": "approved",
          "type": "bool"
        }
      ],
      "name": "setApprovalForAll",
      "outputs": [],
      "stateMutability": "nonpayable",
      "type": "function"
    },
    {
      "inputs": [
        {
          "internalType": "uint256",
          "name": "tokenId",
          "type": "uint256"
        },
        {
          "internalType": "uint256",
          "name": "exchangeTokenId",
          "type": "uint256"
        }
      ],
      "name": "setExchangeTokenId",
      "outputs": [],
      "stateMutability": "nonpayable",
      "type": "function"
    },
    {
      "inputs": [
        {
          "internalType": "uint256",
          "name": "tokenId",
          "type": "uint256"
        },
        {
          "internalType": "string",
          "name": "tokenName",
          "type": "string"
        }
      ],
      "name": "setTokenName",
      "outputs": [],
      "stateMutability": "nonpayable",
      "type": "function"
    },
    {
      "inputs": [
        {
          "internalType": "string",
          "name": "userName",
          "type": "string"
        },
        {
          "internalType": "address",
          "name": "userAddress",
          "type": "address"
        }
      ],
      "name": "setUserAddress",
      "outputs": [],
      "stateMutability": "nonpayable",
      "type": "function"
    },
    {
      "inputs": [
        {
          "internalType": "bytes4",
          "name": "interfaceId",
          "type": "bytes4"
        }
      ],
      "name": "supportsInterface",
      "outputs": [
        {
          "internalType": "bool",
          "name": "",
          "type": "bool"
        }
      ],
      "stateMutability": "view",
      "type": "function"
    },
    {
      "inputs": [],
      "name": "symbol",
      "outputs": [
        {
          "internalType": "string",
          "name": "",
          "type": "string"
        }
      ],
      "stateMutability": "view",
      "type": "function"
    },
    {
      "inputs": [
        {
          "internalType": "uint256",
          "name": "tokenId",
          "type": "uint256"
        }
      ],
      "name": "tokenURI",
      "outputs": [
        {
          "internalType": "string",
          "name": "",
          "type": "string"
        }
      ],
      "stateMutability": "view",
      "type": "function"
    },
    {
      "inputs": [
        {
          "internalType": "address",
          "name": "from",
          "type": "address"
        },
        {
          "internalType": "address",
          "name": "to",
          "type": "address"
        },
        {
          "internalType": "uint256",
          "name": "tokenId",
          "type": "uint256"
        }
      ],
      "name": "transferFrom",
      "outputs": [],
      "stateMutability": "nonpayable",
      "type": "function"
    }
  ],
  "bytecode": "0x6080604052600060075534801561001557600080fd5b5060405161374e38038061374e833981810160405281019061003791906102bf565b6040518060400160405280600781526020017f4d79546f6b656e0000000000000000000000000000000000000000000000000081525060405180602001604052806000815250816000908161008c919061054f565b50806001908161009c919061054f565b5050506100b26000801b836100eb60201b60201c565b506100e37f5eeefbd1446176eeb282e93f50761c372c4e4e43ec23a79407cb9bf29660c4ce826100eb60201b60201c565b505050610621565b60006100fd83836101e960201b60201c565b6101de5760016006600085815260200190815260200160002060000160008473ffffffffffffffffffffffffffffffffffffffff1673ffffffffffffffffffffffffffffffffffffffff16815260200190815260200160002060006101000a81548160ff02191690831515021790555061017b61025460201b60201c565b73ffffffffffffffffffffffffffffffffffffffff168273ffffffffffffffffffffffffffffffffffffffff16847f2f8788117e7eff1d82e926ec794901d17c78024a50270940304540a733656f0d60405160405180910390a4600190506101e3565b600090505b92915050565b60006006600084815260200190815260200160002060000160008373ffffffffffffffffffffffffffffffffffffffff1673ffffffffffffffffffffffffffffffffffffffff16815260200190815260200160002060009054906101000a900460ff16905092915050565b600033905090565b600080fd5b600073ffffffffffffffffffffffffffffffffffffffff82169050919050565b600061028c82610261565b9050919050565b61029c81610281565b81146102a757600080fd5b50565b6000815190506102b981610293565b92915050565b600080604083850312156102d6576102d561025c565b5b60006102e4858286016102aa565b92505060206102f5858286016102aa565b9150509250929050565b600081519050919050565b7f4e487b7100000000000000000000000000000000000000000000000000000000600052604160045260246000fd5b7f4e487b7100000000000000000000000000000000000000000000000000000000600052602260045260246000fd5b6000600282049050600182168061038057607f821691505b60208210810361039357610392610339565b5b50919050565b60008190508160005260206000209050919050565b60006020601f8301049050919050565b600082821b905092915050565b6000600883026103fb7fffffffffffffffffffffffffffffffffffffffffffffffffffffffffffffffff826103be565b61040586836103be565b95508019841693508086168417925050509392505050565b6000819050919050565b6000819050919050565b600061044c6104476104428461041d565b610427565b61041d565b9050919050565b6000819050919050565b61046683610431565b61047a61047282610453565b8484546103cb565b825550505050565b600090565b61048f610482565b61049a81848461045d565b505050565b5b818110156104be576104b3600082610487565b6001810190506104a0565b5050565b601f821115610503576104d481610399565b6104dd846103ae565b810160208510156104ec578190505b6105006104f8856103ae565b83018261049f565b50505b505050565b600082821c905092915050565b600061052660001984600802610508565b1980831691505092915050565b600061053f8383610515565b9150826002028217905092915050565b610558826102ff565b67ffffffffffffffff8111156105715761057061030a565b5b61057b8254610368565b6105868282856104c2565b600060209050601f8311600181146105b957600084156105a7578287015190505b6105b18582610533565b865550610619565b601f1984166105c786610399565b60005b828110156105ef578489015182556001820191506020850194506020810190506105ca565b8683101561060c5784890151610608601f891682610515565b8355505b6001600288020188555050505b505050505050565b61311e806106306000396000f3fe6080604052600436106101d85760003560e01c806385ef3ded11610102578063c87b56dd11610095578063d547741f11610064578063d547741f1461071b578063dbe16c0714610744578063e2133bef14610781578063e985e9c5146107ac576101d8565b8063c87b56dd1461063b578063c9e130ca14610678578063cdb0e89e146106b5578063d204c45e146106de576101d8565b8063a217fddf116100d1578063a217fddf14610595578063a22cb465146105c0578063b88d4fde146105e9578063c422c9bb14610612576101d8565b806385ef3ded146104c557806386e5c15a1461050257806391d148541461052d57806395d89b411461056a576101d8565b80632c5880771161017a57806342842e0e1161014957806342842e0e146103e55780634985e85c1461040e5780636352211e1461044b57806370a0823114610488576101d8565b80632c5880771461032d5780632f2ff15d1461035657806336568abe1461037f5780633bb3a24d146103a8576101d8565b8063095ea7b3116101b6578063095ea7b31461028257806323b872dd146102ab578063248a9ca3146102d45780632bd123fe14610311576101d8565b806301ffc9a7146101dd57806306fdde031461021a578063081812fc14610245575b600080fd5b3480156101e957600080fd5b5061020460048036038101906101ff9190612232565b6107e9565b604051610211919061227a565b60405180910390f35b34801561022657600080fd5b5061022f6107fb565b60405161023c9190612325565b60405180910390f35b34801561025157600080fd5b5061026c6004803603810190610267919061237d565b61088d565b60405161027991906123eb565b60405180910390f35b34801561028e57600080fd5b506102a960048036038101906102a49190612432565b6108a9565b005b3480156102b757600080fd5b506102d260048036038101906102cd9190612472565b6108bf565b005b3480156102e057600080fd5b506102fb60048036038101906102f691906124fb565b6109c1565b6040516103089190612537565b60405180910390f35b61032b60048036038101906103269190612590565b6109e1565b005b34801561033957600080fd5b50610354600480360381019061034f91906126f2565b610a2b565b005b34801561036257600080fd5b5061037d6004803603810190610378919061274e565b610a8c565b005b34801561038b57600080fd5b506103a660048036038101906103a1919061274e565b610aae565b005b3480156103b457600080fd5b506103cf60048036038101906103ca919061237d565b610b29565b6040516103dc9190612325565b60405180910390f35b3480156103f157600080fd5b5061040c60048036038101906104079190612472565b610b3b565b005b34801561041a57600080fd5b506104356004803603810190610430919061278e565b610b5b565b60405161044291906123eb565b60405180910390f35b34801561045757600080fd5b50610472600480360381019061046d919061237d565b610ba3565b60405161047f91906123eb565b60405180910390f35b34801561049457600080fd5b506104af60048036038101906104aa91906127d7565b610bb5565b6040516104bc9190612813565b60405180910390f35b3480156104d157600080fd5b506104ec60048036038101906104e7919061237d565b610c6f565b6040516104f99190612813565b60405180910390f35b34801561050e57600080fd5b50610517610c8c565b6040516105249190612537565b60405180910390f35b34801561053957600080fd5b50610554600480360381019061054f919061274e565b610cb0565b604051610561919061227a565b60405180910390f35b34801561057657600080fd5b5061057f610d1b565b60405161058c9190612325565b60405180910390f35b3480156105a157600080fd5b506105aa610dad565b6040516105b79190612537565b60405180910390f35b3480156105cc57600080fd5b506105e760048036038101906105e2919061285a565b610db4565b005b3480156105f557600080fd5b50610610600480360381019061060b919061293b565b610dca565b005b34801561061e57600080fd5b50610639600480360381019061063491906129be565b610def565b005b34801561064757600080fd5b50610662600480360381019061065d919061237d565b610e0b565b60405161066f9190612325565b60405180910390f35b34801561068457600080fd5b5061069f600480360381019061069a91906129fe565b610e74565b6040516106ac9190612813565b60405180910390f35b3480156106c157600080fd5b506106dc60048036038101906106d79190612a89565b610ebd565b005b3480156106ea57600080fd5b5061070560048036038101906107009190612ae5565b610ee2565b6040516107129190612813565b60405180910390f35b34801561072757600080fd5b50610742600480360381019061073d919061274e565b610f20565b005b34801561075057600080fd5b5061076b6004803603810190610766919061237d565b610f42565b6040516107789190612325565b60405180910390f35b34801561078d57600080fd5b50610796610fe7565b6040516107a39190612537565b60405180910390f35b3480156107b857600080fd5b506107d360048036038101906107ce9190612b41565b61100b565b6040516107e0919061227a565b60405180910390f35b60006107f48261109f565b9050919050565b60606000805461080a90612bb0565b80601f016020809104026020016040519081016040528092919081815260200182805461083690612bb0565b80156108835780601f1061085857610100808354040283529160200191610883565b820191906000526020600020905b81548152906001019060200180831161086657829003601f168201915b5050505050905090565b600061089882611119565b506108a2826111a1565b9050919050565b6108bb82826108b66111de565b6111e6565b5050565b600073ffffffffffffffffffffffffffffffffffffffff168273ffffffffffffffffffffffffffffffffffffffff16036109315760006040517f64a0ae9200000000000000000000000000000000000000000000000000000000815260040161092891906123eb565b60405180910390fd5b600061094583836109406111de565b6111f8565b90508373ffffffffffffffffffffffffffffffffffffffff168173ffffffffffffffffffffffffffffffffffffffff16146109bb578382826040517f64283d7b0000000000000000000000000000000000000000000000000000000081526004016109b293929190612be1565b60405180910390fd5b50505050565b600060066000838152602001908152602001600020600101549050919050565b8073ffffffffffffffffffffffffffffffffffffffff166108fc349081150290604051600060405180830381858888f19350505050158015610a27573d6000803e3d6000fd5b5050565b80600a83604051610a3c9190612c54565b908152602001604051809103902060006101000a81548173ffffffffffffffffffffffffffffffffffffffff021916908373ffffffffffffffffffffffffffffffffffffffff1602179055505050565b610a95826109c1565b610a9e81611412565b610aa88383611426565b50505050565b610ab66111de565b73ffffffffffffffffffffffffffffffffffffffff168173ffffffffffffffffffffffffffffffffffffffff1614610b1a576040517f6697b23200000000000000000000000000000000000000000000000000000000815260040160405180910390fd5b610b248282611518565b505050565b6060610b3482610e0b565b9050919050565b610b5683838360405180602001604052806000815250610dca565b505050565b6000600a82604051610b6d9190612c54565b908152602001604051809103902060009054906101000a900473ffffffffffffffffffffffffffffffffffffffff169050919050565b6000610bae82611119565b9050919050565b60008073ffffffffffffffffffffffffffffffffffffffff168273ffffffffffffffffffffffffffffffffffffffff1603610c285760006040517f89c62b64000000000000000000000000000000000000000000000000000000008152600401610c1f91906123eb565b60405180910390fd5b600360008373ffffffffffffffffffffffffffffffffffffffff1673ffffffffffffffffffffffffffffffffffffffff168152602001908152602001600020549050919050565b600060096000838152602001908152602001600020549050919050565b7fd16e204b8a42a15ab0ea6bb8ec1ecdfbe69f38074fc865323af19efe7d9573d981565b60006006600084815260200190815260200160002060000160008373ffffffffffffffffffffffffffffffffffffffff1673ffffffffffffffffffffffffffffffffffffffff16815260200190815260200160002060009054906101000a900460ff16905092915050565b606060018054610d2a90612bb0565b80601f0160208091040260200160405190810160405280929190818152602001828054610d5690612bb0565b8015610da35780601f10610d7857610100808354040283529160200191610da3565b820191906000526020600020905b815481529060010190602001808311610d8657829003601f168201915b5050505050905090565b6000801b81565b610dc6610dbf6111de565b838361160b565b5050565b610dd58484846108bf565b610de9610de06111de565b8585858561177a565b50505050565b8060096000848152602001908152602001600020819055505050565b6060610e1682611119565b506000610e2161192b565b90506000815111610e415760405180602001604052806000815250610e6c565b80610e4b84611942565b604051602001610e5c929190612c6b565b6040516020818303038152906040525b915050919050565b6000806007549050610e868582611a10565b610e908185610ebd565b610e9a8184611a2e565b60076000815480929190610ead90612cbe565b9190505550809150509392505050565b80600860008481526020019081526020016000209081610edd9190612eb2565b505050565b6000806007549050610ef48482611a10565b610efe8184610ebd565b60076000815480929190610f1190612cbe565b91905055508091505092915050565b610f29826109c1565b610f3281611412565b610f3c8383611518565b50505050565b6060600860008381526020019081526020016000208054610f6290612bb0565b80601f0160208091040260200160405190810160405280929190818152602001828054610f8e90612bb0565b8015610fdb5780601f10610fb057610100808354040283529160200191610fdb565b820191906000526020600020905b815481529060010190602001808311610fbe57829003601f168201915b50505050509050919050565b7f5eeefbd1446176eeb282e93f50761c372c4e4e43ec23a79407cb9bf29660c4ce81565b6000600560008473ffffffffffffffffffffffffffffffffffffffff1673ffffffffffffffffffffffffffffffffffffffff16815260200190815260200160002060008373ffffffffffffffffffffffffffffffffffffffff1673ffffffffffffffffffffffffffffffffffffffff16815260200190815260200160002060009054906101000a900460ff16905092915050565b60007f7965db0b000000000000000000000000000000000000000000000000000000007bffffffffffffffffffffffffffffffffffffffffffffffffffffffff1916827bffffffffffffffffffffffffffffffffffffffffffffffffffffffff19161480611112575061111182611a32565b5b9050919050565b60008061112583611b14565b9050600073ffffffffffffffffffffffffffffffffffffffff168173ffffffffffffffffffffffffffffffffffffffff160361119857826040517f7e27328900000000000000000000000000000000000000000000000000000000815260040161118f9190612813565b60405180910390fd5b80915050919050565b60006004600083815260200190815260200160002060009054906101000a900473ffffffffffffffffffffffffffffffffffffffff169050919050565b600033905090565b6111f38383836001611b51565b505050565b60008061120484611b14565b9050600073ffffffffffffffffffffffffffffffffffffffff168373ffffffffffffffffffffffffffffffffffffffff161461124657611245818486611d16565b5b600073ffffffffffffffffffffffffffffffffffffffff168173ffffffffffffffffffffffffffffffffffffffff16146112d757611288600085600080611b51565b6001600360008373ffffffffffffffffffffffffffffffffffffffff1673ffffffffffffffffffffffffffffffffffffffff168152602001908152602001600020600082825403925050819055505b600073ffffffffffffffffffffffffffffffffffffffff168573ffffffffffffffffffffffffffffffffffffffff161461135a576001600360008773ffffffffffffffffffffffffffffffffffffffff1673ffffffffffffffffffffffffffffffffffffffff168152602001908152602001600020600082825401925050819055505b846002600086815260200190815260200160002060006101000a81548173ffffffffffffffffffffffffffffffffffffffff021916908373ffffffffffffffffffffffffffffffffffffffff160217905550838573ffffffffffffffffffffffffffffffffffffffff168273ffffffffffffffffffffffffffffffffffffffff167fddf252ad1be2c89b69c2b068fc378daa952ba7f163c4a11628f55a4df523b3ef60405160405180910390a4809150509392505050565b6114238161141e6111de565b611dda565b50565b60006114328383610cb0565b61150d5760016006600085815260200190815260200160002060000160008473ffffffffffffffffffffffffffffffffffffffff1673ffffffffffffffffffffffffffffffffffffffff16815260200190815260200160002060006101000a81548160ff0219169083151502179055506114aa6111de565b73ffffffffffffffffffffffffffffffffffffffff168273ffffffffffffffffffffffffffffffffffffffff16847f2f8788117e7eff1d82e926ec794901d17c78024a50270940304540a733656f0d60405160405180910390a460019050611512565b600090505b92915050565b60006115248383610cb0565b156116005760006006600085815260200190815260200160002060000160008473ffffffffffffffffffffffffffffffffffffffff1673ffffffffffffffffffffffffffffffffffffffff16815260200190815260200160002060006101000a81548160ff02191690831515021790555061159d6111de565b73ffffffffffffffffffffffffffffffffffffffff168273ffffffffffffffffffffffffffffffffffffffff16847ff6391f5c32d9c69d2a47ea670b442974b53935d1edc7fd64eb21e047a839171b60405160405180910390a460019050611605565b600090505b92915050565b600073ffffffffffffffffffffffffffffffffffffffff168273ffffffffffffffffffffffffffffffffffffffff160361167c57816040517f5b08ba1800000000000000000000000000000000000000000000000000000000815260040161167391906123eb565b60405180910390fd5b80600560008573ffffffffffffffffffffffffffffffffffffffff1673ffffffffffffffffffffffffffffffffffffffff16815260200190815260200160002060008473ffffffffffffffffffffffffffffffffffffffff1673ffffffffffffffffffffffffffffffffffffffff16815260200190815260200160002060006101000a81548160ff0219169083151502179055508173ffffffffffffffffffffffffffffffffffffffff168373ffffffffffffffffffffffffffffffffffffffff167f17307eab39ab6107e8899845ad3d59bd9653f200f220920489ca2b5937696c318360405161176d919061227a565b60405180910390a3505050565b60008373ffffffffffffffffffffffffffffffffffffffff163b1115611924578273ffffffffffffffffffffffffffffffffffffffff1663150b7a02868685856040518563ffffffff1660e01b81526004016117d99493929190612fd9565b6020604051808303816000875af192505050801561181557506040513d601f19601f82011682018060405250810190611812919061303a565b60015b611899573d8060008114611845576040519150601f19603f3d011682016040523d82523d6000602084013e61184a565b606091505b50600081510361189157836040517f64a0ae9200000000000000000000000000000000000000000000000000000000815260040161188891906123eb565b60405180910390fd5b805160208201fd5b63150b7a0260e01b7bffffffffffffffffffffffffffffffffffffffffffffffffffffffff1916817bffffffffffffffffffffffffffffffffffffffffffffffffffffffff19161461192257836040517f64a0ae9200000000000000000000000000000000000000000000000000000000815260040161191991906123eb565b60405180910390fd5b505b5050505050565b606060405180602001604052806000815250905090565b60606000600161195184611e2b565b01905060008167ffffffffffffffff8111156119705761196f6125c7565b5b6040519080825280601f01601f1916602001820160405280156119a25781602001600182028036833780820191505090505b509050600082602083010190505b600115611a05578080600190039150507f3031323334353637383961626364656600000000000000000000000000000000600a86061a8153600a85816119f9576119f8613067565b5b049450600085036119b0575b819350505050919050565b611a2a828260405180602001604052806000815250611f7e565b5050565b5050565b60007f80ac58cd000000000000000000000000000000000000000000000000000000007bffffffffffffffffffffffffffffffffffffffffffffffffffffffff1916827bffffffffffffffffffffffffffffffffffffffffffffffffffffffff19161480611afd57507f5b5e139f000000000000000000000000000000000000000000000000000000007bffffffffffffffffffffffffffffffffffffffffffffffffffffffff1916827bffffffffffffffffffffffffffffffffffffffffffffffffffffffff1916145b80611b0d5750611b0c82611fa2565b5b9050919050565b60006002600083815260200190815260200160002060009054906101000a900473ffffffffffffffffffffffffffffffffffffffff169050919050565b8080611b8a5750600073ffffffffffffffffffffffffffffffffffffffff168273ffffffffffffffffffffffffffffffffffffffff1614155b15611cbe576000611b9a84611119565b9050600073ffffffffffffffffffffffffffffffffffffffff168373ffffffffffffffffffffffffffffffffffffffff1614158015611c0557508273ffffffffffffffffffffffffffffffffffffffff168173ffffffffffffffffffffffffffffffffffffffff1614155b8015611c185750611c16818461100b565b155b15611c5a57826040517fa9fbf51f000000000000000000000000000000000000000000000000000000008152600401611c5191906123eb565b60405180910390fd5b8115611cbc57838573ffffffffffffffffffffffffffffffffffffffff168273ffffffffffffffffffffffffffffffffffffffff167f8c5be1e5ebec7d5bd14f71427d1e84f3dd0314c0f7b2291e5b200ac8c7c3b92560405160405180910390a45b505b836004600085815260200190815260200160002060006101000a81548173ffffffffffffffffffffffffffffffffffffffff021916908373ffffffffffffffffffffffffffffffffffffffff16021790555050505050565b611d2183838361200c565b611dd557600073ffffffffffffffffffffffffffffffffffffffff168373ffffffffffffffffffffffffffffffffffffffff1603611d9657806040517f7e273289000000000000000000000000000000000000000000000000000000008152600401611d8d9190612813565b60405180910390fd5b81816040517f177e802f000000000000000000000000000000000000000000000000000000008152600401611dcc929190613096565b60405180910390fd5b505050565b611de48282610cb0565b611e275780826040517fe2517d3f000000000000000000000000000000000000000000000000000000008152600401611e1e9291906130bf565b60405180910390fd5b5050565b600080600090507a184f03e93ff9f4daa797ed6e38ed64bf6a1f0100000000000000008310611e89577a184f03e93ff9f4daa797ed6e38ed64bf6a1f0100000000000000008381611e7f57611e7e613067565b5b0492506040810190505b6d04ee2d6d415b85acef81000000008310611ec6576d04ee2d6d415b85acef81000000008381611ebc57611ebb613067565b5b0492506020810190505b662386f26fc100008310611ef557662386f26fc100008381611eeb57611eea613067565b5b0492506010810190505b6305f5e1008310611f1e576305f5e1008381611f1457611f13613067565b5b0492506008810190505b6127108310611f43576127108381611f3957611f38613067565b5b0492506004810190505b60648310611f665760648381611f5c57611f5b613067565b5b0492506002810190505b600a8310611f75576001810190505b80915050919050565b611f8883836120cd565b611f9d611f936111de565b600085858561177a565b505050565b60007f01ffc9a7000000000000000000000000000000000000000000000000000000007bffffffffffffffffffffffffffffffffffffffffffffffffffffffff1916827bffffffffffffffffffffffffffffffffffffffffffffffffffffffff1916149050919050565b60008073ffffffffffffffffffffffffffffffffffffffff168373ffffffffffffffffffffffffffffffffffffffff16141580156120c457508273ffffffffffffffffffffffffffffffffffffffff168473ffffffffffffffffffffffffffffffffffffffff1614806120855750612084848461100b565b5b806120c357508273ffffffffffffffffffffffffffffffffffffffff166120ab836111a1565b73ffffffffffffffffffffffffffffffffffffffff16145b5b90509392505050565b600073ffffffffffffffffffffffffffffffffffffffff168273ffffffffffffffffffffffffffffffffffffffff160361213f5760006040517f64a0ae9200000000000000000000000000000000000000000000000000000000815260040161213691906123eb565b60405180910390fd5b600061214d838360006111f8565b9050600073ffffffffffffffffffffffffffffffffffffffff168173ffffffffffffffffffffffffffffffffffffffff16146121c15760006040517f73c6ac6e0000000000000000000000000000000000000000000000000000000081526004016121b891906123eb565b60405180910390fd5b505050565b6000604051905090565b600080fd5b600080fd5b60007fffffffff0000000000000000000000000000000000000000000000000000000082169050919050565b61220f816121da565b811461221a57600080fd5b50565b60008135905061222c81612206565b92915050565b600060208284031215612248576122476121d0565b5b60006122568482850161221d565b91505092915050565b60008115159050919050565b6122748161225f565b82525050565b600060208201905061228f600083018461226b565b92915050565b600081519050919050565b600082825260208201905092915050565b60005b838110156122cf5780820151818401526020810190506122b4565b60008484015250505050565b6000601f19601f8301169050919050565b60006122f782612295565b61230181856122a0565b93506123118185602086016122b1565b61231a816122db565b840191505092915050565b6000602082019050818103600083015261233f81846122ec565b905092915050565b6000819050919050565b61235a81612347565b811461236557600080fd5b50565b60008135905061237781612351565b92915050565b600060208284031215612393576123926121d0565b5b60006123a184828501612368565b91505092915050565b600073ffffffffffffffffffffffffffffffffffffffff82169050919050565b60006123d5826123aa565b9050919050565b6123e5816123ca565b82525050565b600060208201905061240060008301846123dc565b92915050565b61240f816123ca565b811461241a57600080fd5b50565b60008135905061242c81612406565b92915050565b60008060408385031215612449576124486121d0565b5b60006124578582860161241d565b925050602061246885828601612368565b9150509250929050565b60008060006060848603121561248b5761248a6121d0565b5b60006124998682870161241d565b93505060206124aa8682870161241d565b92505060406124bb86828701612368565b9150509250925092565b6000819050919050565b6124d8816124c5565b81146124e357600080fd5b50565b6000813590506124f5816124cf565b92915050565b600060208284031215612511576125106121d0565b5b600061251f848285016124e6565b91505092915050565b612531816124c5565b82525050565b600060208201905061254c6000830184612528565b92915050565b600061255d826123aa565b9050919050565b61256d81612552565b811461257857600080fd5b50565b60008135905061258a81612564565b92915050565b6000602082840312156125a6576125a56121d0565b5b60006125b48482850161257b565b91505092915050565b600080fd5b600080fd5b7f4e487b7100000000000000000000000000000000000000000000000000000000600052604160045260246000fd5b6125ff826122db565b810181811067ffffffffffffffff8211171561261e5761261d6125c7565b5b80604052505050565b60006126316121c6565b905061263d82826125f6565b919050565b600067ffffffffffffffff82111561265d5761265c6125c7565b5b612666826122db565b9050602081019050919050565b82818337600083830152505050565b600061269561269084612642565b612627565b9050828152602081018484840111156126b1576126b06125c2565b5b6126bc848285612673565b509392505050565b600082601f8301126126d9576126d86125bd565b5b81356126e9848260208601612682565b91505092915050565b60008060408385031215612709576127086121d0565b5b600083013567ffffffffffffffff811115612727576127266121d5565b5b612733858286016126c4565b92505060206127448582860161241d565b9150509250929050565b60008060408385031215612765576127646121d0565b5b6000612773858286016124e6565b92505060206127848582860161241d565b9150509250929050565b6000602082840312156127a4576127a36121d0565b5b600082013567ffffffffffffffff8111156127c2576127c16121d5565b5b6127ce848285016126c4565b91505092915050565b6000602082840312156127ed576127ec6121d0565b5b60006127fb8482850161241d565b91505092915050565b61280d81612347565b82525050565b60006020820190506128286000830184612804565b92915050565b6128378161225f565b811461284257600080fd5b50565b6000813590506128548161282e565b92915050565b60008060408385031215612871576128706121d0565b5b600061287f8582860161241d565b925050602061289085828601612845565b9150509250929050565b600067ffffffffffffffff8211156128b5576128b46125c7565b5b6128be826122db565b9050602081019050919050565b60006128de6128d98461289a565b612627565b9050828152602081018484840111156128fa576128f96125c2565b5b612905848285612673565b509392505050565b600082601f830112612922576129216125bd565b5b81356129328482602086016128cb565b91505092915050565b60008060008060808587031215612955576129546121d0565b5b60006129638782880161241d565b94505060206129748782880161241d565b935050604061298587828801612368565b925050606085013567ffffffffffffffff8111156129a6576129a56121d5565b5b6129b28782880161290d565b91505092959194509250565b600080604083850312156129d5576129d46121d0565b5b60006129e385828601612368565b92505060206129f485828601612368565b9150509250929050565b600080600060608486031215612a1757612a166121d0565b5b6000612a258682870161241d565b935050602084013567ffffffffffffffff811115612a4657612a456121d5565b5b612a52868287016126c4565b925050604084013567ffffffffffffffff811115612a7357612a726121d5565b5b612a7f868287016126c4565b9150509250925092565b60008060408385031215612aa057612a9f6121d0565b5b6000612aae85828601612368565b925050602083013567ffffffffffffffff811115612acf57612ace6121d5565b5b612adb858286016126c4565b9150509250929050565b60008060408385031215612afc57612afb6121d0565b5b6000612b0a8582860161241d565b925050602083013567ffffffffffffffff811115612b2b57612b2a6121d5565b5b612b37858286016126c4565b9150509250929050565b60008060408385031215612b5857612b576121d0565b5b6000612b668582860161241d565b9250506020612b778582860161241d565b9150509250929050565b7f4e487b7100000000000000000000000000000000000000000000000000000000600052602260045260246000fd5b60006002820490506001821680612bc857607f821691505b602082108103612bdb57612bda612b81565b5b50919050565b6000606082019050612bf660008301866123dc565b612c036020830185612804565b612c1060408301846123dc565b949350505050565b600081905092915050565b6000612c2e82612295565b612c388185612c18565b9350612c488185602086016122b1565b80840191505092915050565b6000612c608284612c23565b915081905092915050565b6000612c778285612c23565b9150612c838284612c23565b91508190509392505050565b7f4e487b7100000000000000000000000000000000000000000000000000000000600052601160045260246000fd5b6000612cc982612347565b91507fffffffffffffffffffffffffffffffffffffffffffffffffffffffffffffffff8203612cfb57612cfa612c8f565b5b600182019050919050565b60008190508160005260206000209050919050565b60006020601f8301049050919050565b600082821b905092915050565b600060088302612d687fffffffffffffffffffffffffffffffffffffffffffffffffffffffffffffffff82612d2b565b612d728683612d2b565b95508019841693508086168417925050509392505050565b6000819050919050565b6000612daf612daa612da584612347565b612d8a565b612347565b9050919050565b6000819050919050565b612dc983612d94565b612ddd612dd582612db6565b848454612d38565b825550505050565b600090565b612df2612de5565b612dfd818484612dc0565b505050565b5b81811015612e2157612e16600082612dea565b600181019050612e03565b5050565b601f821115612e6657612e3781612d06565b612e4084612d1b565b81016020851015612e4f578190505b612e63612e5b85612d1b565b830182612e02565b50505b505050565b600082821c905092915050565b6000612e8960001984600802612e6b565b1980831691505092915050565b6000612ea28383612e78565b9150826002028217905092915050565b612ebb82612295565b67ffffffffffffffff811115612ed457612ed36125c7565b5b612ede8254612bb0565b612ee9828285612e25565b600060209050601f831160018114612f1c5760008415612f0a578287015190505b612f148582612e96565b865550612f7c565b601f198416612f2a86612d06565b60005b82811015612f5257848901518255600182019150602085019450602081019050612f2d565b86831015612f6f5784890151612f6b601f891682612e78565b8355505b6001600288020188555050505b505050505050565b600081519050919050565b600082825260208201905092915050565b6000612fab82612f84565b612fb58185612f8f565b9350612fc58185602086016122b1565b612fce816122db565b840191505092915050565b6000608082019050612fee60008301876123dc565b612ffb60208301866123dc565b6130086040830185612804565b818103606083015261301a8184612fa0565b905095945050505050565b60008151905061303481612206565b92915050565b6000602082840312156130505761304f6121d0565b5b600061305e84828501613025565b91505092915050565b7f4e487b7100000000000000000000000000000000000000000000000000000000600052601260045260246000fd5b60006040820190506130ab60008301856123dc565b6130b86020830184612804565b9392505050565b60006040820190506130d460008301856123dc565b6130e16020830184612528565b939250505056fea26469706673582212203fd84120d1243548106107e9a1a5b72793ec5177c7b05e5458d14e4b4676338964736f6c634300081c0033",
  "linkReferences": {},
  "deployedLinkReferences": {}
}