{
  "_format": "hh-sol-artifact-1",
  "contractName": "SsdlabToken",
  "sourceName": "contracts/SsdlabToken.sol",
  "abi": [
    {
      "inputs": [
        {
          "internalType": "address",
          "name": "teacher",
          "type": "address"
        },
        {
          "internalType": "address",
          "name": "student",
          "type": "address"
        }
      ],
      "stateMutability": "nonpayable",
      "type": "constructor"
    },
    {
      "inputs": [],
      "name": "AccessControlBadConfirmation",
      "type": "error"
    },
    {
      "inputs": [
        {
          "internalType": "address",
          "name": "account",
          "type": "address"
        },
        {
          "internalType": "bytes32",
          "name": "neededRole",
          "type": "bytes32"
        }
      ],
      "name": "AccessControlUnauthorizedAccount",
      "type": "error"
    },
    {
      "inputs": [
        {
          "internalType": "address",
          "name": "sender",
          "type": "address"
        },
        {
          "internalType": "uint256",
          "name": "tokenId",
          "type": "uint256"
        },
        {
          "internalType": "address",
          "name": "owner",
          "type": "address"
        }
      ],
      "name": "ERC721IncorrectOwner",
      "type": "error"
    },
    {
      "inputs": [
        {
          "internalType": "address",
          "name": "operator",
          "type": "address"
        },
        {
          "internalType": "uint256",
          "name": "tokenId",
          "type": "uint256"
        }
      ],
      "name": "ERC721InsufficientApproval",
      "type": "error"
    },
    {
      "inputs": [
        {
          "internalType": "address",
          "name": "approver",
          "type": "address"
        }
      ],
      "name": "ERC721InvalidApprover",
      "type": "error"
    },
    {
      "inputs": [
        {
          "internalType": "address",
          "name": "operator",
          "type": "address"
        }
      ],
      "name": "ERC721InvalidOperator",
      "type": "error"
    },
    {
      "inputs": [
        {
          "internalType": "address",
          "name": "owner",
          "type": "address"
        }
      ],
      "name": "ERC721InvalidOwner",
      "type": "error"
    },
    {
      "inputs": [
        {
          "internalType": "address",
          "name": "receiver",
          "type": "address"
        }
      ],
      "name": "ERC721InvalidReceiver",
      "type": "error"
    },
    {
      "inputs": [
        {
          "internalType": "address",
          "name": "sender",
          "type": "address"
        }
      ],
      "name": "ERC721InvalidSender",
      "type": "error"
    },
    {
      "inputs": [
        {
          "internalType": "uint256",
          "name": "tokenId",
          "type": "uint256"
        }
      ],
      "name": "ERC721NonexistentToken",
      "type": "error"
    },
    {
      "anonymous": false,
      "inputs": [
        {
          "indexed": true,
          "internalType": "address",
          "name": "owner",
          "type": "address"
        },
        {
          "indexed": true,
          "internalType": "address",
          "name": "approved",
          "type": "address"
        },
        {
          "indexed": true,
          "internalType": "uint256",
          "name": "tokenId",
          "type": "uint256"
        }
      ],
      "name": "Approval",
      "type": "event"
    },
    {
      "anonymous": false,
      "inputs": [
        {
          "indexed": true,
          "internalType": "address",
          "name": "owner",
          "type": "address"
        },
        {
          "indexed": true,
          "internalType": "address",
          "name": "operator",
          "type": "address"
        },
        {
          "indexed": false,
          "internalType": "bool",
          "name": "approved",
          "type": "bool"
        }
      ],
      "name": "ApprovalForAll",
      "type": "event"
    },
    {
      "anonymous": false,
      "inputs": [
        {
          "indexed": true,
          "internalType": "bytes32",
          "name": "role",
          "type": "bytes32"
        },
        {
          "indexed": true,
          "internalType": "bytes32",
          "name": "previousAdminRole",
          "type": "bytes32"
        },
        {
          "indexed": true,
          "internalType": "bytes32",
          "name": "newAdminRole",
          "type": "bytes32"
        }
      ],
      "name": "RoleAdminChanged",
      "type": "event"
    },
    {
      "anonymous": false,
      "inputs": [
        {
          "indexed": true,
          "internalType": "bytes32",
          "name": "role",
          "type": "bytes32"
        },
        {
          "indexed": true,
          "internalType": "address",
          "name": "account",
          "type": "address"
        },
        {
          "indexed": true,
          "internalType": "address",
          "name": "sender",
          "type": "address"
        }
      ],
      "name": "RoleGranted",
      "type": "event"
    },
    {
      "anonymous": false,
      "inputs": [
        {
          "indexed": true,
          "internalType": "bytes32",
          "name": "role",
          "type": "bytes32"
        },
        {
          "indexed": true,
          "internalType": "address",
          "name": "account",
          "type": "address"
        },
        {
          "indexed": true,
          "internalType": "address",
          "name": "sender",
          "type": "address"
        }
      ],
      "name": "RoleRevoked",
      "type": "event"
    },
    {
      "anonymous": false,
      "inputs": [
        {
          "indexed": true,
          "internalType": "address",
          "name": "from",
          "type": "address"
        },
        {
          "indexed": true,
          "internalType": "address",
          "name": "to",
          "type": "address"
        },
        {
          "indexed": true,
          "internalType": "uint256",
          "name": "tokenId",
          "type": "uint256"
        }
      ],
      "name": "Transfer",
      "type": "event"
    },
    {
      "inputs": [],
      "name": "DEFAULT_ADMIN_ROLE",
      "outputs": [
        {
          "internalType": "bytes32",
          "name": "",
          "type": "bytes32"
        }
      ],
      "stateMutability": "view",
      "type": "function"
    },
    {
      "inputs": [],
      "name": "STUDENTS_ROLE",
      "outputs": [
        {
          "internalType": "bytes32",
          "name": "",
          "type": "bytes32"
        }
      ],
      "stateMutability": "view",
      "type": "function"
    },
    {
      "inputs": [],
      "name": "TEACHER_ROLE",
      "outputs": [
        {
          "internalType": "bytes32",
          "name": "",
          "type": "bytes32"
        }
      ],
      "stateMutability": "view",
      "type": "function"
    },
    {
      "inputs": [
        {
          "internalType": "address",
          "name": "to",
          "type": "address"
        },
        {
          "internalType": "uint256",
          "name": "tokenId",
          "type": "uint256"
        }
      ],
      "name": "approve",
      "outputs": [],
      "stateMutability": "nonpayable",
      "type": "function"
    },
    {
      "inputs": [
        {
          "internalType": "address",
          "name": "owner",
          "type": "address"
        }
      ],
      "name": "balanceOf",
      "outputs": [
        {
          "internalType": "uint256",
          "name": "",
          "type": "uint256"
        }
      ],
      "stateMutability": "view",
      "type": "function"
    },
    {
      "inputs": [
        {
          "internalType": "uint256",
          "name": "tokenId",
          "type": "uint256"
        }
      ],
      "name": "getApproved",
      "outputs": [
        {
          "internalType": "address",
          "name": "",
          "type": "address"
        }
      ],
      "stateMutability": "view",
      "type": "function"
    },
    {
      "inputs": [
        {
          "internalType": "uint256",
          "name": "tokenId",
          "type": "uint256"
        }
      ],
      "name": "getExchangeTokenId",
      "outputs": [
        {
          "internalType": "uint256",
          "name": "",
          "type": "uint256"
        }
      ],
      "stateMutability": "view",
      "type": "function"
    },
    {
      "inputs": [
        {
          "internalType": "bytes32",
          "name": "role",
          "type": "bytes32"
        }
      ],
      "name": "getRoleAdmin",
      "outputs": [
        {
          "internalType": "bytes32",
          "name": "",
          "type": "bytes32"
        }
      ],
      "stateMutability": "view",
      "type": "function"
    },
    {
      "inputs": [
        {
          "internalType": "uint256",
          "name": "tokenId",
          "type": "uint256"
        }
      ],
      "name": "getTokenName",
      "outputs": [
        {
          "internalType": "string",
          "name": "",
          "type": "string"
        }
      ],
      "stateMutability": "view",
      "type": "function"
    },
    {
      "inputs": [
        {
          "internalType": "string",
          "name": "userName",
          "type": "string"
        }
      ],
      "name": "getUserAddress",
      "outputs": [
        {
          "internalType": "address",
          "name": "",
          "type": "address"
        }
      ],
      "stateMutability": "view",
      "type": "function"
    },
    {
      "inputs": [
        {
          "internalType": "bytes32",
          "name": "role",
          "type": "bytes32"
        },
        {
          "internalType": "address",
          "name": "account",
          "type": "address"
        }
      ],
      "name": "grantRole",
      "outputs": [],
      "stateMutability": "nonpayable",
      "type": "function"
    },
    {
      "inputs": [
        {
          "internalType": "bytes32",
          "name": "role",
          "type": "bytes32"
        },
        {
          "internalType": "address",
          "name": "account",
          "type": "address"
        }
      ],
      "name": "hasRole",
      "outputs": [
        {
          "internalType": "bool",
          "name": "",
          "type": "bool"
        }
      ],
      "stateMutability": "view",
      "type": "function"
    },
    {
      "inputs": [
        {
          "internalType": "address",
          "name": "owner",
          "type": "address"
        },
        {
          "internalType": "address",
          "name": "operator",
          "type": "address"
        }
      ],
      "name": "isApprovedForAll",
      "outputs": [
        {
          "internalType": "bool",
          "name": "",
          "type": "bool"
        }
      ],
      "stateMutability": "view",
      "type": "function"
    },
    {
      "inputs": [],
      "name": "name",
      "outputs": [
        {
          "internalType": "string",
          "name": "",
          "type": "string"
        }
      ],
      "stateMutability": "view",
      "type": "function"
    },
    {
      "inputs": [
        {
          "internalType": "uint256",
          "name": "tokenId",
          "type": "uint256"
        }
      ],
      "name": "ownerOf",
      "outputs": [
        {
          "internalType": "address",
          "name": "",
          "type": "address"
        }
      ],
      "stateMutability": "view",
      "type": "function"
    },
    {
      "inputs": [
        {
          "internalType": "bytes32",
          "name": "role",
          "type": "bytes32"
        },
        {
          "internalType": "address",
          "name": "callerConfirmation",
          "type": "address"
        }
      ],
      "name": "renounceRole",
      "outputs": [],
      "stateMutability": "nonpayable",
      "type": "function"
    },
    {
      "inputs": [
        {
          "internalType": "bytes32",
          "name": "role",
          "type": "bytes32"
        },
        {
          "internalType": "address",
          "name": "account",
          "type": "address"
        }
      ],
      "name": "revokeRole",
      "outputs": [],
      "stateMutability": "nonpayable",
      "type": "function"
    },
    {
      "inputs": [
        {
          "internalType": "address",
          "name": "to",
          "type": "address"
        },
        {
          "internalType": "string",
          "name": "_tokenName",
          "type": "string"
        }
      ],
      "name": "safeMint",
      "outputs": [
        {
          "internalType": "uint256",
          "name": "",
          "type": "uint256"
        }
      ],
      "stateMutability": "nonpayable",
      "type": "function"
    },
    {
      "inputs": [
        {
          "internalType": "address",
          "name": "from",
          "type": "address"
        },
        {
          "internalType": "address",
          "name": "to",
          "type": "address"
        },
        {
          "internalType": "uint256",
          "name": "tokenId",
          "type": "uint256"
        }
      ],
      "name": "safeTransferFrom",
      "outputs": [],
      "stateMutability": "nonpayable",
      "type": "function"
    },
    {
      "inputs": [
        {
          "internalType": "address",
          "name": "from",
          "type": "address"
        },
        {
          "internalType": "address",
          "name": "to",
          "type": "address"
        },
        {
          "internalType": "uint256",
          "name": "tokenId",
          "type": "uint256"
        },
        {
          "internalType": "bytes",
          "name": "data",
          "type": "bytes"
        }
      ],
      "name": "safeTransferFrom",
      "outputs": [],
      "stateMutability": "nonpayable",
      "type": "function"
    },
    {
      "inputs": [
        {
          "internalType": "address payable",
          "name": "_to",
          "type": "address"
        }
      ],
      "name": "sendTransaction",
      "outputs": [],
      "stateMutability": "payable",
      "type": "function"
    },
    {
      "inputs": [
        {
          "internalType": "address",
          "name": "operator",
          "type": "address"
        },
        {
          "internalType": "bool",
          "name": "approved",
          "type": "bool"
        }
      ],
      "name": "setApprovalForAll",
      "outputs": [],
      "stateMutability": "nonpayable",
      "type": "function"
    },
    {
      "inputs": [
        {
          "internalType": "uint256",
          "name": "tokenId",
          "type": "uint256"
        },
        {
          "internalType": "uint256",
          "name": "exchangeTokenId",
          "type": "uint256"
        }
      ],
      "name": "setExchangeTokenId",
      "outputs": [],
      "stateMutability": "nonpayable",
      "type": "function"
    },
    {
      "inputs": [
        {
          "internalType": "uint256",
          "name": "tokenId",
          "type": "uint256"
        },
        {
          "internalType": "string",
          "name": "tokenName",
          "type": "string"
        }
      ],
      "name": "setTokenName",
      "outputs": [],
      "stateMutability": "nonpayable",
      "type": "function"
    },
    {
      "inputs": [
        {
          "internalType": "string",
          "name": "userName",
          "type": "string"
        },
        {
          "internalType": "address",
          "name": "userAddress",
          "type": "address"
        }
      ],
      "name": "setUserAddress",
      "outputs": [],
      "stateMutability": "nonpayable",
      "type": "function"
    },
    {
      "inputs": [
        {
          "internalType": "bytes4",
          "name": "interfaceId",
          "type": "bytes4"
        }
      ],
      "name": "supportsInterface",
      "outputs": [
        {
          "internalType": "bool",
          "name": "",
          "type": "bool"
        }
      ],
      "stateMutability": "view",
      "type": "function"
    },
    {
      "inputs": [],
      "name": "symbol",
      "outputs": [
        {
          "internalType": "string",
          "name": "",
          "type": "string"
        }
      ],
      "stateMutability": "view",
      "type": "function"
    },
    {
      "inputs": [
        {
          "internalType": "uint256",
          "name": "tokenId",
          "type": "uint256"
        }
      ],
      "name": "tokenURI",
      "outputs": [
        {
          "internalType": "string",
          "name": "",
          "type": "string"
        }
      ],
      "stateMutability": "view",
      "type": "function"
    },
    {
      "inputs": [
        {
          "internalType": "address",
          "name": "from",
          "type": "address"
        },
        {
          "internalType": "address",
          "name": "to",
          "type": "address"
        },
        {
          "internalType": "uint256",
          "name": "tokenId",
          "type": "uint256"
        }
      ],
      "name": "transferFrom",
      "outputs": [],
      "stateMutability": "nonpayable",
      "type": "function"
    }
  ],
  "bytecode": "0x6080604052600060075534801561001557600080fd5b506040516135d43803806135d4833981810160405281019061003791906102bf565b6040518060400160405280600781526020017f4d79546f6b656e0000000000000000000000000000000000000000000000000081525060405180602001604052806000815250816000908161008c919061054f565b50806001908161009c919061054f565b5050506100b26000801b836100eb60201b60201c565b506100e37f5eeefbd1446176eeb282e93f50761c372c4e4e43ec23a79407cb9bf29660c4ce826100eb60201b60201c565b505050610621565b60006100fd83836101e960201b60201c565b6101de5760016006600085815260200190815260200160002060000160008473ffffffffffffffffffffffffffffffffffffffff1673ffffffffffffffffffffffffffffffffffffffff16815260200190815260200160002060006101000a81548160ff02191690831515021790555061017b61025460201b60201c565b73ffffffffffffffffffffffffffffffffffffffff168273ffffffffffffffffffffffffffffffffffffffff16847f2f8788117e7eff1d82e926ec794901d17c78024a50270940304540a733656f0d60405160405180910390a4600190506101e3565b600090505b92915050565b60006006600084815260200190815260200160002060000160008373ffffffffffffffffffffffffffffffffffffffff1673ffffffffffffffffffffffffffffffffffffffff16815260200190815260200160002060009054906101000a900460ff16905092915050565b600033905090565b600080fd5b600073ffffffffffffffffffffffffffffffffffffffff82169050919050565b600061028c82610261565b9050919050565b61029c81610281565b81146102a757600080fd5b50565b6000815190506102b981610293565b92915050565b600080604083850312156102d6576102d561025c565b5b60006102e4858286016102aa565b92505060206102f5858286016102aa565b9150509250929050565b600081519050919050565b7f4e487b7100000000000000000000000000000000000000000000000000000000600052604160045260246000fd5b7f4e487b7100000000000000000000000000000000000000000000000000000000600052602260045260246000fd5b6000600282049050600182168061038057607f821691505b60208210810361039357610392610339565b5b50919050565b60008190508160005260206000209050919050565b60006020601f8301049050919050565b600082821b905092915050565b6000600883026103fb7fffffffffffffffffffffffffffffffffffffffffffffffffffffffffffffffff826103be565b61040586836103be565b95508019841693508086168417925050509392505050565b6000819050919050565b6000819050919050565b600061044c6104476104428461041d565b610427565b61041d565b9050919050565b6000819050919050565b61046683610431565b61047a61047282610453565b8484546103cb565b825550505050565b600090565b61048f610482565b61049a81848461045d565b505050565b5b818110156104be576104b3600082610487565b6001810190506104a0565b5050565b601f821115610503576104d481610399565b6104dd846103ae565b810160208510156104ec578190505b6105006104f8856103ae565b83018261049f565b50505b505050565b600082821c905092915050565b600061052660001984600802610508565b1980831691505092915050565b600061053f8383610515565b9150826002028217905092915050565b610558826102ff565b67ffffffffffffffff8111156105715761057061030a565b5b61057b8254610368565b6105868282856104c2565b600060209050601f8311600181146105b957600084156105a7578287015190505b6105b18582610533565b865550610619565b601f1984166105c786610399565b60005b828110156105ef578489015182556001820191506020850194506020810190506105ca565b8683101561060c5784890151610608601f891682610515565b8355505b6001600288020188555050505b505050505050565b612fa4806106306000396000f3fe6080604052600436106101c25760003560e01c806385ef3ded116100f7578063c422c9bb11610095578063d547741f11610064578063d547741f1461068b578063dbe16c07146106b4578063e2133bef146106f1578063e985e9c51461071c576101c2565b8063c422c9bb146105bf578063c87b56dd146105e8578063cdb0e89e14610625578063d204c45e1461064e576101c2565b806395d89b41116100d157806395d89b4114610517578063a217fddf14610542578063a22cb4651461056d578063b88d4fde14610596576101c2565b806385ef3ded1461047257806386e5c15a146104af57806391d14854146104da576101c2565b80632c5880771161016457806342842e0e1161013e57806342842e0e146103925780634985e85c146103bb5780636352211e146103f857806370a0823114610435576101c2565b80632c588077146103175780632f2ff15d1461034057806336568abe14610369576101c2565b8063095ea7b3116101a0578063095ea7b31461026c57806323b872dd14610295578063248a9ca3146102be5780632bd123fe146102fb576101c2565b806301ffc9a7146101c757806306fdde0314610204578063081812fc1461022f575b600080fd5b3480156101d357600080fd5b506101ee60048036038101906101e99190612143565b610759565b6040516101fb919061218b565b60405180910390f35b34801561021057600080fd5b5061021961076b565b6040516102269190612236565b60405180910390f35b34801561023b57600080fd5b506102566004803603810190610251919061228e565b6107fd565b60405161026391906122fc565b60405180910390f35b34801561027857600080fd5b50610293600480360381019061028e9190612343565b610819565b005b3480156102a157600080fd5b506102bc60048036038101906102b79190612383565b61082f565b005b3480156102ca57600080fd5b506102e560048036038101906102e0919061240c565b610931565b6040516102f29190612448565b60405180910390f35b610315600480360381019061031091906124a1565b610951565b005b34801561032357600080fd5b5061033e60048036038101906103399190612603565b61099b565b005b34801561034c57600080fd5b506103676004803603810190610362919061265f565b6109fc565b005b34801561037557600080fd5b50610390600480360381019061038b919061265f565b610a1e565b005b34801561039e57600080fd5b506103b960048036038101906103b49190612383565b610a99565b005b3480156103c757600080fd5b506103e260048036038101906103dd919061269f565b610ab9565b6040516103ef91906122fc565b60405180910390f35b34801561040457600080fd5b5061041f600480360381019061041a919061228e565b610b01565b60405161042c91906122fc565b60405180910390f35b34801561044157600080fd5b5061045c600480360381019061045791906126e8565b610b13565b6040516104699190612724565b60405180910390f35b34801561047e57600080fd5b506104996004803603810190610494919061228e565b610bcd565b6040516104a69190612724565b60405180910390f35b3480156104bb57600080fd5b506104c4610bea565b6040516104d19190612448565b60405180910390f35b3480156104e657600080fd5b5061050160048036038101906104fc919061265f565b610c0e565b60405161050e919061218b565b60405180910390f35b34801561052357600080fd5b5061052c610c79565b6040516105399190612236565b60405180910390f35b34801561054e57600080fd5b50610557610d0b565b6040516105649190612448565b60405180910390f35b34801561057957600080fd5b50610594600480360381019061058f919061276b565b610d12565b005b3480156105a257600080fd5b506105bd60048036038101906105b8919061284c565b610d28565b005b3480156105cb57600080fd5b506105e660048036038101906105e191906128cf565b610d4d565b005b3480156105f457600080fd5b5061060f600480360381019061060a919061228e565b610d69565b60405161061c9190612236565b60405180910390f35b34801561063157600080fd5b5061064c6004803603810190610647919061290f565b610dd2565b005b34801561065a57600080fd5b506106756004803603810190610670919061296b565b610df7565b6040516106829190612724565b60405180910390f35b34801561069757600080fd5b506106b260048036038101906106ad919061265f565b610e35565b005b3480156106c057600080fd5b506106db60048036038101906106d6919061228e565b610e57565b6040516106e89190612236565b60405180910390f35b3480156106fd57600080fd5b50610706610efc565b6040516107139190612448565b60405180910390f35b34801561072857600080fd5b50610743600480360381019061073e91906129c7565b610f20565b604051610750919061218b565b60405180910390f35b600061076482610fb4565b9050919050565b60606000805461077a90612a36565b80601f01602080910402602001604051908101604052809291908181526020018280546107a690612a36565b80156107f35780601f106107c8576101008083540402835291602001916107f3565b820191906000526020600020905b8154815290600101906020018083116107d657829003601f168201915b5050505050905090565b60006108088261102e565b50610812826110b6565b9050919050565b61082b82826108266110f3565b6110fb565b5050565b600073ffffffffffffffffffffffffffffffffffffffff168273ffffffffffffffffffffffffffffffffffffffff16036108a15760006040517f64a0ae9200000000000000000000000000000000000000000000000000000000815260040161089891906122fc565b60405180910390fd5b60006108b583836108b06110f3565b61110d565b90508373ffffffffffffffffffffffffffffffffffffffff168173ffffffffffffffffffffffffffffffffffffffff161461092b578382826040517f64283d7b00000000000000000000000000000000000000000000000000000000815260040161092293929190612a67565b60405180910390fd5b50505050565b600060066000838152602001908152602001600020600101549050919050565b8073ffffffffffffffffffffffffffffffffffffffff166108fc349081150290604051600060405180830381858888f19350505050158015610997573d6000803e3d6000fd5b5050565b80600a836040516109ac9190612ada565b908152602001604051809103902060006101000a81548173ffffffffffffffffffffffffffffffffffffffff021916908373ffffffffffffffffffffffffffffffffffffffff1602179055505050565b610a0582610931565b610a0e81611327565b610a18838361133b565b50505050565b610a266110f3565b73ffffffffffffffffffffffffffffffffffffffff168173ffffffffffffffffffffffffffffffffffffffff1614610a8a576040517f6697b23200000000000000000000000000000000000000000000000000000000815260040160405180910390fd5b610a94828261142d565b505050565b610ab483838360405180602001604052806000815250610d28565b505050565b6000600a82604051610acb9190612ada565b908152602001604051809103902060009054906101000a900473ffffffffffffffffffffffffffffffffffffffff169050919050565b6000610b0c8261102e565b9050919050565b60008073ffffffffffffffffffffffffffffffffffffffff168273ffffffffffffffffffffffffffffffffffffffff1603610b865760006040517f89c62b64000000000000000000000000000000000000000000000000000000008152600401610b7d91906122fc565b60405180910390fd5b600360008373ffffffffffffffffffffffffffffffffffffffff1673ffffffffffffffffffffffffffffffffffffffff168152602001908152602001600020549050919050565b600060096000838152602001908152602001600020549050919050565b7fd16e204b8a42a15ab0ea6bb8ec1ecdfbe69f38074fc865323af19efe7d9573d981565b60006006600084815260200190815260200160002060000160008373ffffffffffffffffffffffffffffffffffffffff1673ffffffffffffffffffffffffffffffffffffffff16815260200190815260200160002060009054906101000a900460ff16905092915050565b606060018054610c8890612a36565b80601f0160208091040260200160405190810160405280929190818152602001828054610cb490612a36565b8015610d015780601f10610cd657610100808354040283529160200191610d01565b820191906000526020600020905b815481529060010190602001808311610ce457829003601f168201915b5050505050905090565b6000801b81565b610d24610d1d6110f3565b8383611520565b5050565b610d3384848461082f565b610d47610d3e6110f3565b8585858561168f565b50505050565b8060096000848152602001908152602001600020819055505050565b6060610d748261102e565b506000610d7f611840565b90506000815111610d9f5760405180602001604052806000815250610dca565b80610da984611857565b604051602001610dba929190612af1565b6040516020818303038152906040525b915050919050565b80600860008481526020019081526020016000209081610df29190612cc1565b505050565b6000806007549050610e098482611925565b610e138184610dd2565b60076000815480929190610e2690612dc2565b91905055508091505092915050565b610e3e82610931565b610e4781611327565b610e51838361142d565b50505050565b6060600860008381526020019081526020016000208054610e7790612a36565b80601f0160208091040260200160405190810160405280929190818152602001828054610ea390612a36565b8015610ef05780601f10610ec557610100808354040283529160200191610ef0565b820191906000526020600020905b815481529060010190602001808311610ed357829003601f168201915b50505050509050919050565b7f5eeefbd1446176eeb282e93f50761c372c4e4e43ec23a79407cb9bf29660c4ce81565b6000600560008473ffffffffffffffffffffffffffffffffffffffff1673ffffffffffffffffffffffffffffffffffffffff16815260200190815260200160002060008373ffffffffffffffffffffffffffffffffffffffff1673ffffffffffffffffffffffffffffffffffffffff16815260200190815260200160002060009054906101000a900460ff16905092915050565b60007f7965db0b000000000000000000000000000000000000000000000000000000007bffffffffffffffffffffffffffffffffffffffffffffffffffffffff1916827bffffffffffffffffffffffffffffffffffffffffffffffffffffffff19161480611027575061102682611943565b5b9050919050565b60008061103a83611a25565b9050600073ffffffffffffffffffffffffffffffffffffffff168173ffffffffffffffffffffffffffffffffffffffff16036110ad57826040517f7e2732890000000000000000000000000000000000000000000000000000000081526004016110a49190612724565b60405180910390fd5b80915050919050565b60006004600083815260200190815260200160002060009054906101000a900473ffffffffffffffffffffffffffffffffffffffff169050919050565b600033905090565b6111088383836001611a62565b505050565b60008061111984611a25565b9050600073ffffffffffffffffffffffffffffffffffffffff168373ffffffffffffffffffffffffffffffffffffffff161461115b5761115a818486611c27565b5b600073ffffffffffffffffffffffffffffffffffffffff168173ffffffffffffffffffffffffffffffffffffffff16146111ec5761119d600085600080611a62565b6001600360008373ffffffffffffffffffffffffffffffffffffffff1673ffffffffffffffffffffffffffffffffffffffff168152602001908152602001600020600082825403925050819055505b600073ffffffffffffffffffffffffffffffffffffffff168573ffffffffffffffffffffffffffffffffffffffff161461126f576001600360008773ffffffffffffffffffffffffffffffffffffffff1673ffffffffffffffffffffffffffffffffffffffff168152602001908152602001600020600082825401925050819055505b846002600086815260200190815260200160002060006101000a81548173ffffffffffffffffffffffffffffffffffffffff021916908373ffffffffffffffffffffffffffffffffffffffff160217905550838573ffffffffffffffffffffffffffffffffffffffff168273ffffffffffffffffffffffffffffffffffffffff167fddf252ad1be2c89b69c2b068fc378daa952ba7f163c4a11628f55a4df523b3ef60405160405180910390a4809150509392505050565b611338816113336110f3565b611ceb565b50565b60006113478383610c0e565b6114225760016006600085815260200190815260200160002060000160008473ffffffffffffffffffffffffffffffffffffffff1673ffffffffffffffffffffffffffffffffffffffff16815260200190815260200160002060006101000a81548160ff0219169083151502179055506113bf6110f3565b73ffffffffffffffffffffffffffffffffffffffff168273ffffffffffffffffffffffffffffffffffffffff16847f2f8788117e7eff1d82e926ec794901d17c78024a50270940304540a733656f0d60405160405180910390a460019050611427565b600090505b92915050565b60006114398383610c0e565b156115155760006006600085815260200190815260200160002060000160008473ffffffffffffffffffffffffffffffffffffffff1673ffffffffffffffffffffffffffffffffffffffff16815260200190815260200160002060006101000a81548160ff0219169083151502179055506114b26110f3565b73ffffffffffffffffffffffffffffffffffffffff168273ffffffffffffffffffffffffffffffffffffffff16847ff6391f5c32d9c69d2a47ea670b442974b53935d1edc7fd64eb21e047a839171b60405160405180910390a46001905061151a565b600090505b92915050565b600073ffffffffffffffffffffffffffffffffffffffff168273ffffffffffffffffffffffffffffffffffffffff160361159157816040517f5b08ba1800000000000000000000000000000000000000000000000000000000815260040161158891906122fc565b60405180910390fd5b80600560008573ffffffffffffffffffffffffffffffffffffffff1673ffffffffffffffffffffffffffffffffffffffff16815260200190815260200160002060008473ffffffffffffffffffffffffffffffffffffffff1673ffffffffffffffffffffffffffffffffffffffff16815260200190815260200160002060006101000a81548160ff0219169083151502179055508173ffffffffffffffffffffffffffffffffffffffff168373ffffffffffffffffffffffffffffffffffffffff167f17307eab39ab6107e8899845ad3d59bd9653f200f220920489ca2b5937696c3183604051611682919061218b565b60405180910390a3505050565b60008373ffffffffffffffffffffffffffffffffffffffff163b1115611839578273ffffffffffffffffffffffffffffffffffffffff1663150b7a02868685856040518563ffffffff1660e01b81526004016116ee9493929190612e5f565b6020604051808303816000875af192505050801561172a57506040513d601f19601f820116820180604052508101906117279190612ec0565b60015b6117ae573d806000811461175a576040519150601f19603f3d011682016040523d82523d6000602084013e61175f565b606091505b5060008151036117a657836040517f64a0ae9200000000000000000000000000000000000000000000000000000000815260040161179d91906122fc565b60405180910390fd5b805181602001fd5b63150b7a0260e01b7bffffffffffffffffffffffffffffffffffffffffffffffffffffffff1916817bffffffffffffffffffffffffffffffffffffffffffffffffffffffff19161461183757836040517f64a0ae9200000000000000000000000000000000000000000000000000000000815260040161182e91906122fc565b60405180910390fd5b505b5050505050565b606060405180602001604052806000815250905090565b60606000600161186684611d3c565b01905060008167ffffffffffffffff811115611885576118846124d8565b5b6040519080825280601f01601f1916602001820160405280156118b75781602001600182028036833780820191505090505b509050600082602001820190505b60011561191a578080600190039150507f3031323334353637383961626364656600000000000000000000000000000000600a86061a8153600a858161190e5761190d612eed565b5b049450600085036118c5575b819350505050919050565b61193f828260405180602001604052806000815250611e8f565b5050565b60007f80ac58cd000000000000000000000000000000000000000000000000000000007bffffffffffffffffffffffffffffffffffffffffffffffffffffffff1916827bffffffffffffffffffffffffffffffffffffffffffffffffffffffff19161480611a0e57507f5b5e139f000000000000000000000000000000000000000000000000000000007bffffffffffffffffffffffffffffffffffffffffffffffffffffffff1916827bffffffffffffffffffffffffffffffffffffffffffffffffffffffff1916145b80611a1e5750611a1d82611eb3565b5b9050919050565b60006002600083815260200190815260200160002060009054906101000a900473ffffffffffffffffffffffffffffffffffffffff169050919050565b8080611a9b5750600073ffffffffffffffffffffffffffffffffffffffff168273ffffffffffffffffffffffffffffffffffffffff1614155b15611bcf576000611aab8461102e565b9050600073ffffffffffffffffffffffffffffffffffffffff168373ffffffffffffffffffffffffffffffffffffffff1614158015611b1657508273ffffffffffffffffffffffffffffffffffffffff168173ffffffffffffffffffffffffffffffffffffffff1614155b8015611b295750611b278184610f20565b155b15611b6b57826040517fa9fbf51f000000000000000000000000000000000000000000000000000000008152600401611b6291906122fc565b60405180910390fd5b8115611bcd57838573ffffffffffffffffffffffffffffffffffffffff168273ffffffffffffffffffffffffffffffffffffffff167f8c5be1e5ebec7d5bd14f71427d1e84f3dd0314c0f7b2291e5b200ac8c7c3b92560405160405180910390a45b505b836004600085815260200190815260200160002060006101000a81548173ffffffffffffffffffffffffffffffffffffffff021916908373ffffffffffffffffffffffffffffffffffffffff16021790555050505050565b611c32838383611f1d565b611ce657600073ffffffffffffffffffffffffffffffffffffffff168373ffffffffffffffffffffffffffffffffffffffff1603611ca757806040517f7e273289000000000000000000000000000000000000000000000000000000008152600401611c9e9190612724565b60405180910390fd5b81816040517f177e802f000000000000000000000000000000000000000000000000000000008152600401611cdd929190612f1c565b60405180910390fd5b505050565b611cf58282610c0e565b611d385780826040517fe2517d3f000000000000000000000000000000000000000000000000000000008152600401611d2f929190612f45565b60405180910390fd5b5050565b600080600090507a184f03e93ff9f4daa797ed6e38ed64bf6a1f0100000000000000008310611d9a577a184f03e93ff9f4daa797ed6e38ed64bf6a1f0100000000000000008381611d9057611d8f612eed565b5b0492506040810190505b6d04ee2d6d415b85acef81000000008310611dd7576d04ee2d6d415b85acef81000000008381611dcd57611dcc612eed565b5b0492506020810190505b662386f26fc100008310611e0657662386f26fc100008381611dfc57611dfb612eed565b5b0492506010810190505b6305f5e1008310611e2f576305f5e1008381611e2557611e24612eed565b5b0492506008810190505b6127108310611e54576127108381611e4a57611e49612eed565b5b0492506004810190505b60648310611e775760648381611e6d57611e6c612eed565b5b0492506002810190505b600a8310611e86576001810190505b80915050919050565b611e998383611fde565b611eae611ea46110f3565b600085858561168f565b505050565b60007f01ffc9a7000000000000000000000000000000000000000000000000000000007bffffffffffffffffffffffffffffffffffffffffffffffffffffffff1916827bffffffffffffffffffffffffffffffffffffffffffffffffffffffff1916149050919050565b60008073ffffffffffffffffffffffffffffffffffffffff168373ffffffffffffffffffffffffffffffffffffffff1614158015611fd557508273ffffffffffffffffffffffffffffffffffffffff168473ffffffffffffffffffffffffffffffffffffffff161480611f965750611f958484610f20565b5b80611fd457508273ffffffffffffffffffffffffffffffffffffffff16611fbc836110b6565b73ffffffffffffffffffffffffffffffffffffffff16145b5b90509392505050565b600073ffffffffffffffffffffffffffffffffffffffff168273ffffffffffffffffffffffffffffffffffffffff16036120505760006040517f64a0ae9200000000000000000000000000000000000000000000000000000000815260040161204791906122fc565b60405180910390fd5b600061205e8383600061110d565b9050600073ffffffffffffffffffffffffffffffffffffffff168173ffffffffffffffffffffffffffffffffffffffff16146120d25760006040517f73c6ac6e0000000000000000000000000000000000000000000000000000000081526004016120c991906122fc565b60405180910390fd5b505050565b6000604051905090565b600080fd5b600080fd5b60007fffffffff0000000000000000000000000000000000000000000000000000000082169050919050565b612120816120eb565b811461212b57600080fd5b50565b60008135905061213d81612117565b92915050565b600060208284031215612159576121586120e1565b5b60006121678482850161212e565b91505092915050565b60008115159050919050565b61218581612170565b82525050565b60006020820190506121a0600083018461217c565b92915050565b600081519050919050565b600082825260208201905092915050565b60005b838110156121e05780820151818401526020810190506121c5565b60008484015250505050565b6000601f19601f8301169050919050565b6000612208826121a6565b61221281856121b1565b93506122228185602086016121c2565b61222b816121ec565b840191505092915050565b6000602082019050818103600083015261225081846121fd565b905092915050565b6000819050919050565b61226b81612258565b811461227657600080fd5b50565b60008135905061228881612262565b92915050565b6000602082840312156122a4576122a36120e1565b5b60006122b284828501612279565b91505092915050565b600073ffffffffffffffffffffffffffffffffffffffff82169050919050565b60006122e6826122bb565b9050919050565b6122f6816122db565b82525050565b600060208201905061231160008301846122ed565b92915050565b612320816122db565b811461232b57600080fd5b50565b60008135905061233d81612317565b92915050565b6000806040838503121561235a576123596120e1565b5b60006123688582860161232e565b925050602061237985828601612279565b9150509250929050565b60008060006060848603121561239c5761239b6120e1565b5b60006123aa8682870161232e565b93505060206123bb8682870161232e565b92505060406123cc86828701612279565b9150509250925092565b6000819050919050565b6123e9816123d6565b81146123f457600080fd5b50565b600081359050612406816123e0565b92915050565b600060208284031215612422576124216120e1565b5b6000612430848285016123f7565b91505092915050565b612442816123d6565b82525050565b600060208201905061245d6000830184612439565b92915050565b600061246e826122bb565b9050919050565b61247e81612463565b811461248957600080fd5b50565b60008135905061249b81612475565b92915050565b6000602082840312156124b7576124b66120e1565b5b60006124c58482850161248c565b91505092915050565b600080fd5b600080fd5b7f4e487b7100000000000000000000000000000000000000000000000000000000600052604160045260246000fd5b612510826121ec565b810181811067ffffffffffffffff8211171561252f5761252e6124d8565b5b80604052505050565b60006125426120d7565b905061254e8282612507565b919050565b600067ffffffffffffffff82111561256e5761256d6124d8565b5b612577826121ec565b9050602081019050919050565b82818337600083830152505050565b60006125a66125a184612553565b612538565b9050828152602081018484840111156125c2576125c16124d3565b5b6125cd848285612584565b509392505050565b600082601f8301126125ea576125e96124ce565b5b81356125fa848260208601612593565b91505092915050565b6000806040838503121561261a576126196120e1565b5b600083013567ffffffffffffffff811115612638576126376120e6565b5b612644858286016125d5565b92505060206126558582860161232e565b9150509250929050565b60008060408385031215612676576126756120e1565b5b6000612684858286016123f7565b92505060206126958582860161232e565b9150509250929050565b6000602082840312156126b5576126b46120e1565b5b600082013567ffffffffffffffff8111156126d3576126d26120e6565b5b6126df848285016125d5565b91505092915050565b6000602082840312156126fe576126fd6120e1565b5b600061270c8482850161232e565b91505092915050565b61271e81612258565b82525050565b60006020820190506127396000830184612715565b92915050565b61274881612170565b811461275357600080fd5b50565b6000813590506127658161273f565b92915050565b60008060408385031215612782576127816120e1565b5b60006127908582860161232e565b92505060206127a185828601612756565b9150509250929050565b600067ffffffffffffffff8211156127c6576127c56124d8565b5b6127cf826121ec565b9050602081019050919050565b60006127ef6127ea846127ab565b612538565b90508281526020810184848401111561280b5761280a6124d3565b5b612816848285612584565b509392505050565b600082601f830112612833576128326124ce565b5b81356128438482602086016127dc565b91505092915050565b60008060008060808587031215612866576128656120e1565b5b60006128748782880161232e565b94505060206128858782880161232e565b935050604061289687828801612279565b925050606085013567ffffffffffffffff8111156128b7576128b66120e6565b5b6128c38782880161281e565b91505092959194509250565b600080604083850312156128e6576128e56120e1565b5b60006128f485828601612279565b925050602061290585828601612279565b9150509250929050565b60008060408385031215612926576129256120e1565b5b600061293485828601612279565b925050602083013567ffffffffffffffff811115612955576129546120e6565b5b612961858286016125d5565b9150509250929050565b60008060408385031215612982576129816120e1565b5b60006129908582860161232e565b925050602083013567ffffffffffffffff8111156129b1576129b06120e6565b5b6129bd858286016125d5565b9150509250929050565b600080604083850312156129de576129dd6120e1565b5b60006129ec8582860161232e565b92505060206129fd8582860161232e565b9150509250929050565b7f4e487b7100000000000000000000000000000000000000000000000000000000600052602260045260246000fd5b60006002820490506001821680612a4e57607f821691505b602082108103612a6157612a60612a07565b5b50919050565b6000606082019050612a7c60008301866122ed565b612a896020830185612715565b612a9660408301846122ed565b949350505050565b600081905092915050565b6000612ab4826121a6565b612abe8185612a9e565b9350612ace8185602086016121c2565b80840191505092915050565b6000612ae68284612aa9565b915081905092915050565b6000612afd8285612aa9565b9150612b098284612aa9565b91508190509392505050565b60008190508160005260206000209050919050565b60006020601f8301049050919050565b600082821b905092915050565b600060088302612b777fffffffffffffffffffffffffffffffffffffffffffffffffffffffffffffffff82612b3a565b612b818683612b3a565b95508019841693508086168417925050509392505050565b6000819050919050565b6000612bbe612bb9612bb484612258565b612b99565b612258565b9050919050565b6000819050919050565b612bd883612ba3565b612bec612be482612bc5565b848454612b47565b825550505050565b600090565b612c01612bf4565b612c0c818484612bcf565b505050565b5b81811015612c3057612c25600082612bf9565b600181019050612c12565b5050565b601f821115612c7557612c4681612b15565b612c4f84612b2a565b81016020851015612c5e578190505b612c72612c6a85612b2a565b830182612c11565b50505b505050565b600082821c905092915050565b6000612c9860001984600802612c7a565b1980831691505092915050565b6000612cb18383612c87565b9150826002028217905092915050565b612cca826121a6565b67ffffffffffffffff811115612ce357612ce26124d8565b5b612ced8254612a36565b612cf8828285612c34565b600060209050601f831160018114612d2b5760008415612d19578287015190505b612d238582612ca5565b865550612d8b565b601f198416612d3986612b15565b60005b82811015612d6157848901518255600182019150602085019450602081019050612d3c565b86831015612d7e5784890151612d7a601f891682612c87565b8355505b6001600288020188555050505b505050505050565b7f4e487b7100000000000000000000000000000000000000000000000000000000600052601160045260246000fd5b6000612dcd82612258565b91507fffffffffffffffffffffffffffffffffffffffffffffffffffffffffffffffff8203612dff57612dfe612d93565b5b600182019050919050565b600081519050919050565b600082825260208201905092915050565b6000612e3182612e0a565b612e3b8185612e15565b9350612e4b8185602086016121c2565b612e54816121ec565b840191505092915050565b6000608082019050612e7460008301876122ed565b612e8160208301866122ed565b612e8e6040830185612715565b8181036060830152612ea08184612e26565b905095945050505050565b600081519050612eba81612117565b92915050565b600060208284031215612ed657612ed56120e1565b5b6000612ee484828501612eab565b91505092915050565b7f4e487b7100000000000000000000000000000000000000000000000000000000600052601260045260246000fd5b6000604082019050612f3160008301856122ed565b612f3e6020830184612715565b9392505050565b6000604082019050612f5a60008301856122ed565b612f676020830184612439565b939250505056fea2646970667358221220f242e36de1d8bf566d9db9343ead77ce02dd047e5f9703d2fd3933b4a6431e8c64736f6c634300081c0033",
  "linkReferences": {},
  "deployedLinkReferences": {}
}