{
  "_format": "hh-sol-artifact-1",
  "contractName": "SsdlabToken",
  "sourceName": "contracts/SsdlabToken.sol",
  "abi": [
    {
      "inputs": [
        {
          "internalType": "address",
          "name": "teacher",
          "type": "address"
        },
        {
          "internalType": "address",
          "name": "student",
          "type": "address"
        }
      ],
      "stateMutability": "nonpayable",
      "type": "constructor"
    },
    {
      "inputs": [],
      "name": "AccessControlBadConfirmation",
      "type": "error"
    },
    {
      "inputs": [
        {
          "internalType": "address",
          "name": "account",
          "type": "address"
        },
        {
          "internalType": "bytes32",
          "name": "neededRole",
          "type": "bytes32"
        }
      ],
      "name": "AccessControlUnauthorizedAccount",
      "type": "error"
    },
    {
      "inputs": [
        {
          "internalType": "address",
          "name": "sender",
          "type": "address"
        },
        {
          "internalType": "uint256",
          "name": "tokenId",
          "type": "uint256"
        },
        {
          "internalType": "address",
          "name": "owner",
          "type": "address"
        }
      ],
      "name": "ERC721IncorrectOwner",
      "type": "error"
    },
    {
      "inputs": [
        {
          "internalType": "address",
          "name": "operator",
          "type": "address"
        },
        {
          "internalType": "uint256",
          "name": "tokenId",
          "type": "uint256"
        }
      ],
      "name": "ERC721InsufficientApproval",
      "type": "error"
    },
    {
      "inputs": [
        {
          "internalType": "address",
          "name": "approver",
          "type": "address"
        }
      ],
      "name": "ERC721InvalidApprover",
      "type": "error"
    },
    {
      "inputs": [
        {
          "internalType": "address",
          "name": "operator",
          "type": "address"
        }
      ],
      "name": "ERC721InvalidOperator",
      "type": "error"
    },
    {
      "inputs": [
        {
          "internalType": "address",
          "name": "owner",
          "type": "address"
        }
      ],
      "name": "ERC721InvalidOwner",
      "type": "error"
    },
    {
      "inputs": [
        {
          "internalType": "address",
          "name": "receiver",
          "type": "address"
        }
      ],
      "name": "ERC721InvalidReceiver",
      "type": "error"
    },
    {
      "inputs": [
        {
          "internalType": "address",
          "name": "sender",
          "type": "address"
        }
      ],
      "name": "ERC721InvalidSender",
      "type": "error"
    },
    {
      "inputs": [
        {
          "internalType": "uint256",
          "name": "tokenId",
          "type": "uint256"
        }
      ],
      "name": "ERC721NonexistentToken",
      "type": "error"
    },
    {
      "anonymous": false,
      "inputs": [
        {
          "indexed": true,
          "internalType": "address",
          "name": "owner",
          "type": "address"
        },
        {
          "indexed": true,
          "internalType": "address",
          "name": "approved",
          "type": "address"
        },
        {
          "indexed": true,
          "internalType": "uint256",
          "name": "tokenId",
          "type": "uint256"
        }
      ],
      "name": "Approval",
      "type": "event"
    },
    {
      "anonymous": false,
      "inputs": [
        {
          "indexed": true,
          "internalType": "address",
          "name": "owner",
          "type": "address"
        },
        {
          "indexed": true,
          "internalType": "address",
          "name": "operator",
          "type": "address"
        },
        {
          "indexed": false,
          "internalType": "bool",
          "name": "approved",
          "type": "bool"
        }
      ],
      "name": "ApprovalForAll",
      "type": "event"
    },
    {
      "anonymous": false,
      "inputs": [
        {
          "indexed": true,
          "internalType": "bytes32",
          "name": "role",
          "type": "bytes32"
        },
        {
          "indexed": true,
          "internalType": "bytes32",
          "name": "previousAdminRole",
          "type": "bytes32"
        },
        {
          "indexed": true,
          "internalType": "bytes32",
          "name": "newAdminRole",
          "type": "bytes32"
        }
      ],
      "name": "RoleAdminChanged",
      "type": "event"
    },
    {
      "anonymous": false,
      "inputs": [
        {
          "indexed": true,
          "internalType": "bytes32",
          "name": "role",
          "type": "bytes32"
        },
        {
          "indexed": true,
          "internalType": "address",
          "name": "account",
          "type": "address"
        },
        {
          "indexed": true,
          "internalType": "address",
          "name": "sender",
          "type": "address"
        }
      ],
      "name": "RoleGranted",
      "type": "event"
    },
    {
      "anonymous": false,
      "inputs": [
        {
          "indexed": true,
          "internalType": "bytes32",
          "name": "role",
          "type": "bytes32"
        },
        {
          "indexed": true,
          "internalType": "address",
          "name": "account",
          "type": "address"
        },
        {
          "indexed": true,
          "internalType": "address",
          "name": "sender",
          "type": "address"
        }
      ],
      "name": "RoleRevoked",
      "type": "event"
    },
    {
      "anonymous": false,
      "inputs": [
        {
          "indexed": true,
          "internalType": "address",
          "name": "from",
          "type": "address"
        },
        {
          "indexed": true,
          "internalType": "address",
          "name": "to",
          "type": "address"
        },
        {
          "indexed": true,
          "internalType": "uint256",
          "name": "tokenId",
          "type": "uint256"
        }
      ],
      "name": "Transfer",
      "type": "event"
    },
    {
      "inputs": [],
      "name": "DEFAULT_ADMIN_ROLE",
      "outputs": [
        {
          "internalType": "bytes32",
          "name": "",
          "type": "bytes32"
        }
      ],
      "stateMutability": "view",
      "type": "function"
    },
    {
      "inputs": [],
      "name": "STUDENTS_ROLE",
      "outputs": [
        {
          "internalType": "bytes32",
          "name": "",
          "type": "bytes32"
        }
      ],
      "stateMutability": "view",
      "type": "function"
    },
    {
      "inputs": [],
      "name": "TEACHER_ROLE",
      "outputs": [
        {
          "internalType": "bytes32",
          "name": "",
          "type": "bytes32"
        }
      ],
      "stateMutability": "view",
      "type": "function"
    },
    {
      "inputs": [
        {
          "internalType": "address",
          "name": "to",
          "type": "address"
        },
        {
          "internalType": "uint256",
          "name": "tokenId",
          "type": "uint256"
        }
      ],
      "name": "approve",
      "outputs": [],
      "stateMutability": "nonpayable",
      "type": "function"
    },
    {
      "inputs": [
        {
          "internalType": "address",
          "name": "owner",
          "type": "address"
        }
      ],
      "name": "balanceOf",
      "outputs": [
        {
          "internalType": "uint256",
          "name": "",
          "type": "uint256"
        }
      ],
      "stateMutability": "view",
      "type": "function"
    },
    {
      "inputs": [
        {
          "internalType": "uint256",
          "name": "tokenId",
          "type": "uint256"
        }
      ],
      "name": "getApproved",
      "outputs": [
        {
          "internalType": "address",
          "name": "",
          "type": "address"
        }
      ],
      "stateMutability": "view",
      "type": "function"
    },
    {
      "inputs": [
        {
          "internalType": "uint256",
          "name": "tokenId",
          "type": "uint256"
        }
      ],
      "name": "getExchangeTokenId",
      "outputs": [
        {
          "internalType": "uint256",
          "name": "",
          "type": "uint256"
        }
      ],
      "stateMutability": "view",
      "type": "function"
    },
    {
      "inputs": [
        {
          "internalType": "bytes32",
          "name": "role",
          "type": "bytes32"
        }
      ],
      "name": "getRoleAdmin",
      "outputs": [
        {
          "internalType": "bytes32",
          "name": "",
          "type": "bytes32"
        }
      ],
      "stateMutability": "view",
      "type": "function"
    },
    {
      "inputs": [
        {
          "internalType": "uint256",
          "name": "tokenId",
          "type": "uint256"
        }
      ],
      "name": "getTokenName",
      "outputs": [
        {
          "internalType": "string",
          "name": "",
          "type": "string"
        }
      ],
      "stateMutability": "view",
      "type": "function"
    },
    {
      "inputs": [
        {
          "internalType": "uint256",
          "name": "tokenId",
          "type": "uint256"
        }
      ],
      "name": "getTokenURI",
      "outputs": [
        {
          "internalType": "string",
          "name": "",
          "type": "string"
        }
      ],
      "stateMutability": "view",
      "type": "function"
    },
    {
      "inputs": [
        {
          "internalType": "string",
          "name": "userName",
          "type": "string"
        }
      ],
      "name": "getUserAddress",
      "outputs": [
        {
          "internalType": "address",
          "name": "",
          "type": "address"
        }
      ],
      "stateMutability": "view",
      "type": "function"
    },
    {
      "inputs": [
        {
          "internalType": "bytes32",
          "name": "role",
          "type": "bytes32"
        },
        {
          "internalType": "address",
          "name": "account",
          "type": "address"
        }
      ],
      "name": "grantRole",
      "outputs": [],
      "stateMutability": "nonpayable",
      "type": "function"
    },
    {
      "inputs": [
        {
          "internalType": "bytes32",
          "name": "role",
          "type": "bytes32"
        },
        {
          "internalType": "address",
          "name": "account",
          "type": "address"
        }
      ],
      "name": "hasRole",
      "outputs": [
        {
          "internalType": "bool",
          "name": "",
          "type": "bool"
        }
      ],
      "stateMutability": "view",
      "type": "function"
    },
    {
      "inputs": [
        {
          "internalType": "address",
          "name": "owner",
          "type": "address"
        },
        {
          "internalType": "address",
          "name": "operator",
          "type": "address"
        }
      ],
      "name": "isApprovedForAll",
      "outputs": [
        {
          "internalType": "bool",
          "name": "",
          "type": "bool"
        }
      ],
      "stateMutability": "view",
      "type": "function"
    },
    {
      "inputs": [],
      "name": "name",
      "outputs": [
        {
          "internalType": "string",
          "name": "",
          "type": "string"
        }
      ],
      "stateMutability": "view",
      "type": "function"
    },
    {
      "inputs": [
        {
          "internalType": "uint256",
          "name": "tokenId",
          "type": "uint256"
        }
      ],
      "name": "ownerOf",
      "outputs": [
        {
          "internalType": "address",
          "name": "",
          "type": "address"
        }
      ],
      "stateMutability": "view",
      "type": "function"
    },
    {
      "inputs": [
        {
          "internalType": "bytes32",
          "name": "role",
          "type": "bytes32"
        },
        {
          "internalType": "address",
          "name": "callerConfirmation",
          "type": "address"
        }
      ],
      "name": "renounceRole",
      "outputs": [],
      "stateMutability": "nonpayable",
      "type": "function"
    },
    {
      "inputs": [
        {
          "internalType": "bytes32",
          "name": "role",
          "type": "bytes32"
        },
        {
          "internalType": "address",
          "name": "account",
          "type": "address"
        }
      ],
      "name": "revokeRole",
      "outputs": [],
      "stateMutability": "nonpayable",
      "type": "function"
    },
    {
      "inputs": [
        {
          "internalType": "address",
          "name": "to",
          "type": "address"
        },
        {
          "internalType": "string",
          "name": "_tokenName",
          "type": "string"
        }
      ],
      "name": "safeMint",
      "outputs": [
        {
          "internalType": "uint256",
          "name": "",
          "type": "uint256"
        }
      ],
      "stateMutability": "nonpayable",
      "type": "function"
    },
    {
      "inputs": [
        {
          "internalType": "address",
          "name": "to",
          "type": "address"
        },
        {
          "internalType": "string",
          "name": "_tokenName",
          "type": "string"
        },
        {
          "internalType": "string",
          "name": "_tokenURI",
          "type": "string"
        }
      ],
      "name": "safeMintIPFS",
      "outputs": [
        {
          "internalType": "uint256",
          "name": "",
          "type": "uint256"
        }
      ],
      "stateMutability": "nonpayable",
      "type": "function"
    },
    {
      "inputs": [
        {
          "internalType": "address",
          "name": "from",
          "type": "address"
        },
        {
          "internalType": "address",
          "name": "to",
          "type": "address"
        },
        {
          "internalType": "uint256",
          "name": "tokenId",
          "type": "uint256"
        }
      ],
      "name": "safeTransferFrom",
      "outputs": [],
      "stateMutability": "nonpayable",
      "type": "function"
    },
    {
      "inputs": [
        {
          "internalType": "address",
          "name": "from",
          "type": "address"
        },
        {
          "internalType": "address",
          "name": "to",
          "type": "address"
        },
        {
          "internalType": "uint256",
          "name": "tokenId",
          "type": "uint256"
        },
        {
          "internalType": "bytes",
          "name": "data",
          "type": "bytes"
        }
      ],
      "name": "safeTransferFrom",
      "outputs": [],
      "stateMutability": "nonpayable",
      "type": "function"
    },
    {
      "inputs": [
        {
          "internalType": "address payable",
          "name": "_to",
          "type": "address"
        }
      ],
      "name": "sendTransaction",
      "outputs": [],
      "stateMutability": "payable",
      "type": "function"
    },
    {
      "inputs": [
        {
          "internalType": "address",
          "name": "operator",
          "type": "address"
        },
        {
          "internalType": "bool",
          "name": "approved",
          "type": "bool"
        }
      ],
      "name": "setApprovalForAll",
      "outputs": [],
      "stateMutability": "nonpayable",
      "type": "function"
    },
    {
      "inputs": [
        {
          "internalType": "uint256",
          "name": "tokenId",
          "type": "uint256"
        },
        {
          "internalType": "uint256",
          "name": "exchangeTokenId",
          "type": "uint256"
        }
      ],
      "name": "setExchangeTokenId",
      "outputs": [],
      "stateMutability": "nonpayable",
      "type": "function"
    },
    {
      "inputs": [
        {
          "internalType": "uint256",
          "name": "tokenId",
          "type": "uint256"
        },
        {
          "internalType": "string",
          "name": "tokenName",
          "type": "string"
        }
      ],
      "name": "setTokenName",
      "outputs": [],
      "stateMutability": "nonpayable",
      "type": "function"
    },
    {
      "inputs": [
        {
          "internalType": "string",
          "name": "userName",
          "type": "string"
        },
        {
          "internalType": "address",
          "name": "userAddress",
          "type": "address"
        }
      ],
      "name": "setUserAddress",
      "outputs": [],
      "stateMutability": "nonpayable",
      "type": "function"
    },
    {
      "inputs": [
        {
          "internalType": "bytes4",
          "name": "interfaceId",
          "type": "bytes4"
        }
      ],
      "name": "supportsInterface",
      "outputs": [
        {
          "internalType": "bool",
          "name": "",
          "type": "bool"
        }
      ],
      "stateMutability": "view",
      "type": "function"
    },
    {
      "inputs": [],
      "name": "symbol",
      "outputs": [
        {
          "internalType": "string",
          "name": "",
          "type": "string"
        }
      ],
      "stateMutability": "view",
      "type": "function"
    },
    {
      "inputs": [
        {
          "internalType": "uint256",
          "name": "tokenId",
          "type": "uint256"
        }
      ],
      "name": "tokenURI",
      "outputs": [
        {
          "internalType": "string",
          "name": "",
          "type": "string"
        }
      ],
      "stateMutability": "view",
      "type": "function"
    },
    {
      "inputs": [
        {
          "internalType": "address",
          "name": "from",
          "type": "address"
        },
        {
          "internalType": "address",
          "name": "to",
          "type": "address"
        },
        {
          "internalType": "uint256",
          "name": "tokenId",
          "type": "uint256"
        }
      ],
      "name": "transferFrom",
      "outputs": [],
      "stateMutability": "nonpayable",
      "type": "function"
    }
  ],
  "bytecode": "0x6080604052600060075534801561001557600080fd5b5060405161374b38038061374b833981810160405281019061003791906102bf565b6040518060400160405280600781526020017f4d79546f6b656e0000000000000000000000000000000000000000000000000081525060405180602001604052806000815250816000908161008c919061054f565b50806001908161009c919061054f565b5050506100b26000801b836100eb60201b60201c565b506100e37f5eeefbd1446176eeb282e93f50761c372c4e4e43ec23a79407cb9bf29660c4ce826100eb60201b60201c565b505050610621565b60006100fd83836101e960201b60201c565b6101de5760016006600085815260200190815260200160002060000160008473ffffffffffffffffffffffffffffffffffffffff1673ffffffffffffffffffffffffffffffffffffffff16815260200190815260200160002060006101000a81548160ff02191690831515021790555061017b61025460201b60201c565b73ffffffffffffffffffffffffffffffffffffffff168273ffffffffffffffffffffffffffffffffffffffff16847f2f8788117e7eff1d82e926ec794901d17c78024a50270940304540a733656f0d60405160405180910390a4600190506101e3565b600090505b92915050565b60006006600084815260200190815260200160002060000160008373ffffffffffffffffffffffffffffffffffffffff1673ffffffffffffffffffffffffffffffffffffffff16815260200190815260200160002060009054906101000a900460ff16905092915050565b600033905090565b600080fd5b600073ffffffffffffffffffffffffffffffffffffffff82169050919050565b600061028c82610261565b9050919050565b61029c81610281565b81146102a757600080fd5b50565b6000815190506102b981610293565b92915050565b600080604083850312156102d6576102d561025c565b5b60006102e4858286016102aa565b92505060206102f5858286016102aa565b9150509250929050565b600081519050919050565b7f4e487b7100000000000000000000000000000000000000000000000000000000600052604160045260246000fd5b7f4e487b7100000000000000000000000000000000000000000000000000000000600052602260045260246000fd5b6000600282049050600182168061038057607f821691505b60208210810361039357610392610339565b5b50919050565b60008190508160005260206000209050919050565b60006020601f8301049050919050565b600082821b905092915050565b6000600883026103fb7fffffffffffffffffffffffffffffffffffffffffffffffffffffffffffffffff826103be565b61040586836103be565b95508019841693508086168417925050509392505050565b6000819050919050565b6000819050919050565b600061044c6104476104428461041d565b610427565b61041d565b9050919050565b6000819050919050565b61046683610431565b61047a61047282610453565b8484546103cb565b825550505050565b600090565b61048f610482565b61049a81848461045d565b505050565b5b818110156104be576104b3600082610487565b6001810190506104a0565b5050565b601f821115610503576104d481610399565b6104dd846103ae565b810160208510156104ec578190505b6105006104f8856103ae565b83018261049f565b50505b505050565b600082821c905092915050565b600061052660001984600802610508565b1980831691505092915050565b600061053f8383610515565b9150826002028217905092915050565b610558826102ff565b67ffffffffffffffff8111156105715761057061030a565b5b61057b8254610368565b6105868282856104c2565b600060209050601f8311600181146105b957600084156105a7578287015190505b6105b18582610533565b865550610619565b601f1984166105c786610399565b60005b828110156105ef578489015182556001820191506020850194506020810190506105ca565b8683101561060c5784890151610608601f891682610515565b8355505b6001600288020188555050505b505050505050565b61311b806106306000396000f3fe6080604052600436106101d85760003560e01c806385ef3ded11610102578063c87b56dd11610095578063d547741f11610064578063d547741f1461071b578063dbe16c0714610744578063e2133bef14610781578063e985e9c5146107ac576101d8565b8063c87b56dd1461063b578063c9e130ca14610678578063cdb0e89e146106b5578063d204c45e146106de576101d8565b8063a217fddf116100d1578063a217fddf14610595578063a22cb465146105c0578063b88d4fde146105e9578063c422c9bb14610612576101d8565b806385ef3ded146104c557806386e5c15a1461050257806391d148541461052d57806395d89b411461056a576101d8565b80632c5880771161017a57806342842e0e1161014957806342842e0e146103e55780634985e85c1461040e5780636352211e1461044b57806370a0823114610488576101d8565b80632c5880771461032d5780632f2ff15d1461035657806336568abe1461037f5780633bb3a24d146103a8576101d8565b8063095ea7b3116101b6578063095ea7b31461028257806323b872dd146102ab578063248a9ca3146102d45780632bd123fe14610311576101d8565b806301ffc9a7146101dd57806306fdde031461021a578063081812fc14610245575b600080fd5b3480156101e957600080fd5b5061020460048036038101906101ff919061222f565b6107e9565b6040516102119190612277565b60405180910390f35b34801561022657600080fd5b5061022f6107fb565b60405161023c9190612322565b60405180910390f35b34801561025157600080fd5b5061026c6004803603810190610267919061237a565b61088d565b60405161027991906123e8565b60405180910390f35b34801561028e57600080fd5b506102a960048036038101906102a4919061242f565b6108a9565b005b3480156102b757600080fd5b506102d260048036038101906102cd919061246f565b6108bf565b005b3480156102e057600080fd5b506102fb60048036038101906102f691906124f8565b6109c1565b6040516103089190612534565b60405180910390f35b61032b6004803603810190610326919061258d565b6109e1565b005b34801561033957600080fd5b50610354600480360381019061034f91906126ef565b610a2b565b005b34801561036257600080fd5b5061037d6004803603810190610378919061274b565b610a8c565b005b34801561038b57600080fd5b506103a660048036038101906103a1919061274b565b610aae565b005b3480156103b457600080fd5b506103cf60048036038101906103ca919061237a565b610b29565b6040516103dc9190612322565b60405180910390f35b3480156103f157600080fd5b5061040c6004803603810190610407919061246f565b610b3b565b005b34801561041a57600080fd5b506104356004803603810190610430919061278b565b610b5b565b60405161044291906123e8565b60405180910390f35b34801561045757600080fd5b50610472600480360381019061046d919061237a565b610ba3565b60405161047f91906123e8565b60405180910390f35b34801561049457600080fd5b506104af60048036038101906104aa91906127d4565b610bb5565b6040516104bc9190612810565b60405180910390f35b3480156104d157600080fd5b506104ec60048036038101906104e7919061237a565b610c6f565b6040516104f99190612810565b60405180910390f35b34801561050e57600080fd5b50610517610c8c565b6040516105249190612534565b60405180910390f35b34801561053957600080fd5b50610554600480360381019061054f919061274b565b610cb0565b6040516105619190612277565b60405180910390f35b34801561057657600080fd5b5061057f610d1b565b60405161058c9190612322565b60405180910390f35b3480156105a157600080fd5b506105aa610dad565b6040516105b79190612534565b60405180910390f35b3480156105cc57600080fd5b506105e760048036038101906105e29190612857565b610db4565b005b3480156105f557600080fd5b50610610600480360381019061060b9190612938565b610dca565b005b34801561061e57600080fd5b50610639600480360381019061063491906129bb565b610def565b005b34801561064757600080fd5b50610662600480360381019061065d919061237a565b610e0b565b60405161066f9190612322565b60405180910390f35b34801561068457600080fd5b5061069f600480360381019061069a91906129fb565b610e74565b6040516106ac9190612810565b60405180910390f35b3480156106c157600080fd5b506106dc60048036038101906106d79190612a86565b610eba565b005b3480156106ea57600080fd5b5061070560048036038101906107009190612ae2565b610edf565b6040516107129190612810565b60405180910390f35b34801561072757600080fd5b50610742600480360381019061073d919061274b565b610f1d565b005b34801561075057600080fd5b5061076b6004803603810190610766919061237a565b610f3f565b6040516107789190612322565b60405180910390f35b34801561078d57600080fd5b50610796610fe4565b6040516107a39190612534565b60405180910390f35b3480156107b857600080fd5b506107d360048036038101906107ce9190612b3e565b611008565b6040516107e09190612277565b60405180910390f35b60006107f48261109c565b9050919050565b60606000805461080a90612bad565b80601f016020809104026020016040519081016040528092919081815260200182805461083690612bad565b80156108835780601f1061085857610100808354040283529160200191610883565b820191906000526020600020905b81548152906001019060200180831161086657829003601f168201915b5050505050905090565b600061089882611116565b506108a28261119e565b9050919050565b6108bb82826108b66111db565b6111e3565b5050565b600073ffffffffffffffffffffffffffffffffffffffff168273ffffffffffffffffffffffffffffffffffffffff16036109315760006040517f64a0ae9200000000000000000000000000000000000000000000000000000000815260040161092891906123e8565b60405180910390fd5b600061094583836109406111db565b6111f5565b90508373ffffffffffffffffffffffffffffffffffffffff168173ffffffffffffffffffffffffffffffffffffffff16146109bb578382826040517f64283d7b0000000000000000000000000000000000000000000000000000000081526004016109b293929190612bde565b60405180910390fd5b50505050565b600060066000838152602001908152602001600020600101549050919050565b8073ffffffffffffffffffffffffffffffffffffffff166108fc349081150290604051600060405180830381858888f19350505050158015610a27573d6000803e3d6000fd5b5050565b80600a83604051610a3c9190612c51565b908152602001604051809103902060006101000a81548173ffffffffffffffffffffffffffffffffffffffff021916908373ffffffffffffffffffffffffffffffffffffffff1602179055505050565b610a95826109c1565b610a9e8161140f565b610aa88383611423565b50505050565b610ab66111db565b73ffffffffffffffffffffffffffffffffffffffff168173ffffffffffffffffffffffffffffffffffffffff1614610b1a576040517f6697b23200000000000000000000000000000000000000000000000000000000815260040160405180910390fd5b610b248282611515565b505050565b6060610b3482610e0b565b9050919050565b610b5683838360405180602001604052806000815250610dca565b505050565b6000600a82604051610b6d9190612c51565b908152602001604051809103902060009054906101000a900473ffffffffffffffffffffffffffffffffffffffff169050919050565b6000610bae82611116565b9050919050565b60008073ffffffffffffffffffffffffffffffffffffffff168273ffffffffffffffffffffffffffffffffffffffff1603610c285760006040517f89c62b64000000000000000000000000000000000000000000000000000000008152600401610c1f91906123e8565b60405180910390fd5b600360008373ffffffffffffffffffffffffffffffffffffffff1673ffffffffffffffffffffffffffffffffffffffff168152602001908152602001600020549050919050565b600060096000838152602001908152602001600020549050919050565b7fd16e204b8a42a15ab0ea6bb8ec1ecdfbe69f38074fc865323af19efe7d9573d981565b60006006600084815260200190815260200160002060000160008373ffffffffffffffffffffffffffffffffffffffff1673ffffffffffffffffffffffffffffffffffffffff16815260200190815260200160002060009054906101000a900460ff16905092915050565b606060018054610d2a90612bad565b80601f0160208091040260200160405190810160405280929190818152602001828054610d5690612bad565b8015610da35780601f10610d7857610100808354040283529160200191610da3565b820191906000526020600020905b815481529060010190602001808311610d8657829003601f168201915b5050505050905090565b6000801b81565b610dc6610dbf6111db565b8383611608565b5050565b610dd58484846108bf565b610de9610de06111db565b85858585611777565b50505050565b8060096000848152602001908152602001600020819055505050565b6060610e1682611116565b506000610e21611928565b90506000815111610e415760405180602001604052806000815250610e6c565b80610e4b8461193f565b604051602001610e5c929190612c68565b6040516020818303038152906040525b915050919050565b600080610e818585610edf565b9050610e8d8185610eba565b610e978184611a0d565b60076000815480929190610eaa90612cbb565b9190505550809150509392505050565b80600860008481526020019081526020016000209081610eda9190612eaf565b505050565b6000806007549050610ef18482611a11565b610efb8184610eba565b60076000815480929190610f0e90612cbb565b91905055508091505092915050565b610f26826109c1565b610f2f8161140f565b610f398383611515565b50505050565b6060600860008381526020019081526020016000208054610f5f90612bad565b80601f0160208091040260200160405190810160405280929190818152602001828054610f8b90612bad565b8015610fd85780601f10610fad57610100808354040283529160200191610fd8565b820191906000526020600020905b815481529060010190602001808311610fbb57829003601f168201915b50505050509050919050565b7f5eeefbd1446176eeb282e93f50761c372c4e4e43ec23a79407cb9bf29660c4ce81565b6000600560008473ffffffffffffffffffffffffffffffffffffffff1673ffffffffffffffffffffffffffffffffffffffff16815260200190815260200160002060008373ffffffffffffffffffffffffffffffffffffffff1673ffffffffffffffffffffffffffffffffffffffff16815260200190815260200160002060009054906101000a900460ff16905092915050565b60007f7965db0b000000000000000000000000000000000000000000000000000000007bffffffffffffffffffffffffffffffffffffffffffffffffffffffff1916827bffffffffffffffffffffffffffffffffffffffffffffffffffffffff1916148061110f575061110e82611a2f565b5b9050919050565b60008061112283611b11565b9050600073ffffffffffffffffffffffffffffffffffffffff168173ffffffffffffffffffffffffffffffffffffffff160361119557826040517f7e27328900000000000000000000000000000000000000000000000000000000815260040161118c9190612810565b60405180910390fd5b80915050919050565b60006004600083815260200190815260200160002060009054906101000a900473ffffffffffffffffffffffffffffffffffffffff169050919050565b600033905090565b6111f08383836001611b4e565b505050565b60008061120184611b11565b9050600073ffffffffffffffffffffffffffffffffffffffff168373ffffffffffffffffffffffffffffffffffffffff161461124357611242818486611d13565b5b600073ffffffffffffffffffffffffffffffffffffffff168173ffffffffffffffffffffffffffffffffffffffff16146112d457611285600085600080611b4e565b6001600360008373ffffffffffffffffffffffffffffffffffffffff1673ffffffffffffffffffffffffffffffffffffffff168152602001908152602001600020600082825403925050819055505b600073ffffffffffffffffffffffffffffffffffffffff168573ffffffffffffffffffffffffffffffffffffffff1614611357576001600360008773ffffffffffffffffffffffffffffffffffffffff1673ffffffffffffffffffffffffffffffffffffffff168152602001908152602001600020600082825401925050819055505b846002600086815260200190815260200160002060006101000a81548173ffffffffffffffffffffffffffffffffffffffff021916908373ffffffffffffffffffffffffffffffffffffffff160217905550838573ffffffffffffffffffffffffffffffffffffffff168273ffffffffffffffffffffffffffffffffffffffff167fddf252ad1be2c89b69c2b068fc378daa952ba7f163c4a11628f55a4df523b3ef60405160405180910390a4809150509392505050565b6114208161141b6111db565b611dd7565b50565b600061142f8383610cb0565b61150a5760016006600085815260200190815260200160002060000160008473ffffffffffffffffffffffffffffffffffffffff1673ffffffffffffffffffffffffffffffffffffffff16815260200190815260200160002060006101000a81548160ff0219169083151502179055506114a76111db565b73ffffffffffffffffffffffffffffffffffffffff168273ffffffffffffffffffffffffffffffffffffffff16847f2f8788117e7eff1d82e926ec794901d17c78024a50270940304540a733656f0d60405160405180910390a46001905061150f565b600090505b92915050565b60006115218383610cb0565b156115fd5760006006600085815260200190815260200160002060000160008473ffffffffffffffffffffffffffffffffffffffff1673ffffffffffffffffffffffffffffffffffffffff16815260200190815260200160002060006101000a81548160ff02191690831515021790555061159a6111db565b73ffffffffffffffffffffffffffffffffffffffff168273ffffffffffffffffffffffffffffffffffffffff16847ff6391f5c32d9c69d2a47ea670b442974b53935d1edc7fd64eb21e047a839171b60405160405180910390a460019050611602565b600090505b92915050565b600073ffffffffffffffffffffffffffffffffffffffff168273ffffffffffffffffffffffffffffffffffffffff160361167957816040517f5b08ba1800000000000000000000000000000000000000000000000000000000815260040161167091906123e8565b60405180910390fd5b80600560008573ffffffffffffffffffffffffffffffffffffffff1673ffffffffffffffffffffffffffffffffffffffff16815260200190815260200160002060008473ffffffffffffffffffffffffffffffffffffffff1673ffffffffffffffffffffffffffffffffffffffff16815260200190815260200160002060006101000a81548160ff0219169083151502179055508173ffffffffffffffffffffffffffffffffffffffff168373ffffffffffffffffffffffffffffffffffffffff167f17307eab39ab6107e8899845ad3d59bd9653f200f220920489ca2b5937696c318360405161176a9190612277565b60405180910390a3505050565b60008373ffffffffffffffffffffffffffffffffffffffff163b1115611921578273ffffffffffffffffffffffffffffffffffffffff1663150b7a02868685856040518563ffffffff1660e01b81526004016117d69493929190612fd6565b6020604051808303816000875af192505050801561181257506040513d601f19601f8201168201806040525081019061180f9190613037565b60015b611896573d8060008114611842576040519150601f19603f3d011682016040523d82523d6000602084013e611847565b606091505b50600081510361188e57836040517f64a0ae9200000000000000000000000000000000000000000000000000000000815260040161188591906123e8565b60405180910390fd5b805160208201fd5b63150b7a0260e01b7bffffffffffffffffffffffffffffffffffffffffffffffffffffffff1916817bffffffffffffffffffffffffffffffffffffffffffffffffffffffff19161461191f57836040517f64a0ae9200000000000000000000000000000000000000000000000000000000815260040161191691906123e8565b60405180910390fd5b505b5050505050565b606060405180602001604052806000815250905090565b60606000600161194e84611e28565b01905060008167ffffffffffffffff81111561196d5761196c6125c4565b5b6040519080825280601f01601f19166020018201604052801561199f5781602001600182028036833780820191505090505b509050600082602083010190505b600115611a02578080600190039150507f3031323334353637383961626364656600000000000000000000000000000000600a86061a8153600a85816119f6576119f5613064565b5b049450600085036119ad575b819350505050919050565b5050565b611a2b828260405180602001604052806000815250611f7b565b5050565b60007f80ac58cd000000000000000000000000000000000000000000000000000000007bffffffffffffffffffffffffffffffffffffffffffffffffffffffff1916827bffffffffffffffffffffffffffffffffffffffffffffffffffffffff19161480611afa57507f5b5e139f000000000000000000000000000000000000000000000000000000007bffffffffffffffffffffffffffffffffffffffffffffffffffffffff1916827bffffffffffffffffffffffffffffffffffffffffffffffffffffffff1916145b80611b0a5750611b0982611f9f565b5b9050919050565b60006002600083815260200190815260200160002060009054906101000a900473ffffffffffffffffffffffffffffffffffffffff169050919050565b8080611b875750600073ffffffffffffffffffffffffffffffffffffffff168273ffffffffffffffffffffffffffffffffffffffff1614155b15611cbb576000611b9784611116565b9050600073ffffffffffffffffffffffffffffffffffffffff168373ffffffffffffffffffffffffffffffffffffffff1614158015611c0257508273ffffffffffffffffffffffffffffffffffffffff168173ffffffffffffffffffffffffffffffffffffffff1614155b8015611c155750611c138184611008565b155b15611c5757826040517fa9fbf51f000000000000000000000000000000000000000000000000000000008152600401611c4e91906123e8565b60405180910390fd5b8115611cb957838573ffffffffffffffffffffffffffffffffffffffff168273ffffffffffffffffffffffffffffffffffffffff167f8c5be1e5ebec7d5bd14f71427d1e84f3dd0314c0f7b2291e5b200ac8c7c3b92560405160405180910390a45b505b836004600085815260200190815260200160002060006101000a81548173ffffffffffffffffffffffffffffffffffffffff021916908373ffffffffffffffffffffffffffffffffffffffff16021790555050505050565b611d1e838383612009565b611dd257600073ffffffffffffffffffffffffffffffffffffffff168373ffffffffffffffffffffffffffffffffffffffff1603611d9357806040517f7e273289000000000000000000000000000000000000000000000000000000008152600401611d8a9190612810565b60405180910390fd5b81816040517f177e802f000000000000000000000000000000000000000000000000000000008152600401611dc9929190613093565b60405180910390fd5b505050565b611de18282610cb0565b611e245780826040517fe2517d3f000000000000000000000000000000000000000000000000000000008152600401611e1b9291906130bc565b60405180910390fd5b5050565b600080600090507a184f03e93ff9f4daa797ed6e38ed64bf6a1f0100000000000000008310611e86577a184f03e93ff9f4daa797ed6e38ed64bf6a1f0100000000000000008381611e7c57611e7b613064565b5b0492506040810190505b6d04ee2d6d415b85acef81000000008310611ec3576d04ee2d6d415b85acef81000000008381611eb957611eb8613064565b5b0492506020810190505b662386f26fc100008310611ef257662386f26fc100008381611ee857611ee7613064565b5b0492506010810190505b6305f5e1008310611f1b576305f5e1008381611f1157611f10613064565b5b0492506008810190505b6127108310611f40576127108381611f3657611f35613064565b5b0492506004810190505b60648310611f635760648381611f5957611f58613064565b5b0492506002810190505b600a8310611f72576001810190505b80915050919050565b611f8583836120ca565b611f9a611f906111db565b6000858585611777565b505050565b60007f01ffc9a7000000000000000000000000000000000000000000000000000000007bffffffffffffffffffffffffffffffffffffffffffffffffffffffff1916827bffffffffffffffffffffffffffffffffffffffffffffffffffffffff1916149050919050565b60008073ffffffffffffffffffffffffffffffffffffffff168373ffffffffffffffffffffffffffffffffffffffff16141580156120c157508273ffffffffffffffffffffffffffffffffffffffff168473ffffffffffffffffffffffffffffffffffffffff16148061208257506120818484611008565b5b806120c057508273ffffffffffffffffffffffffffffffffffffffff166120a88361119e565b73ffffffffffffffffffffffffffffffffffffffff16145b5b90509392505050565b600073ffffffffffffffffffffffffffffffffffffffff168273ffffffffffffffffffffffffffffffffffffffff160361213c5760006040517f64a0ae9200000000000000000000000000000000000000000000000000000000815260040161213391906123e8565b60405180910390fd5b600061214a838360006111f5565b9050600073ffffffffffffffffffffffffffffffffffffffff168173ffffffffffffffffffffffffffffffffffffffff16146121be5760006040517f73c6ac6e0000000000000000000000000000000000000000000000000000000081526004016121b591906123e8565b60405180910390fd5b505050565b6000604051905090565b600080fd5b600080fd5b60007fffffffff0000000000000000000000000000000000000000000000000000000082169050919050565b61220c816121d7565b811461221757600080fd5b50565b60008135905061222981612203565b92915050565b600060208284031215612245576122446121cd565b5b60006122538482850161221a565b91505092915050565b60008115159050919050565b6122718161225c565b82525050565b600060208201905061228c6000830184612268565b92915050565b600081519050919050565b600082825260208201905092915050565b60005b838110156122cc5780820151818401526020810190506122b1565b60008484015250505050565b6000601f19601f8301169050919050565b60006122f482612292565b6122fe818561229d565b935061230e8185602086016122ae565b612317816122d8565b840191505092915050565b6000602082019050818103600083015261233c81846122e9565b905092915050565b6000819050919050565b61235781612344565b811461236257600080fd5b50565b6000813590506123748161234e565b92915050565b6000602082840312156123905761238f6121cd565b5b600061239e84828501612365565b91505092915050565b600073ffffffffffffffffffffffffffffffffffffffff82169050919050565b60006123d2826123a7565b9050919050565b6123e2816123c7565b82525050565b60006020820190506123fd60008301846123d9565b92915050565b61240c816123c7565b811461241757600080fd5b50565b60008135905061242981612403565b92915050565b60008060408385031215612446576124456121cd565b5b60006124548582860161241a565b925050602061246585828601612365565b9150509250929050565b600080600060608486031215612488576124876121cd565b5b60006124968682870161241a565b93505060206124a78682870161241a565b92505060406124b886828701612365565b9150509250925092565b6000819050919050565b6124d5816124c2565b81146124e057600080fd5b50565b6000813590506124f2816124cc565b92915050565b60006020828403121561250e5761250d6121cd565b5b600061251c848285016124e3565b91505092915050565b61252e816124c2565b82525050565b60006020820190506125496000830184612525565b92915050565b600061255a826123a7565b9050919050565b61256a8161254f565b811461257557600080fd5b50565b60008135905061258781612561565b92915050565b6000602082840312156125a3576125a26121cd565b5b60006125b184828501612578565b91505092915050565b600080fd5b600080fd5b7f4e487b7100000000000000000000000000000000000000000000000000000000600052604160045260246000fd5b6125fc826122d8565b810181811067ffffffffffffffff8211171561261b5761261a6125c4565b5b80604052505050565b600061262e6121c3565b905061263a82826125f3565b919050565b600067ffffffffffffffff82111561265a576126596125c4565b5b612663826122d8565b9050602081019050919050565b82818337600083830152505050565b600061269261268d8461263f565b612624565b9050828152602081018484840111156126ae576126ad6125bf565b5b6126b9848285612670565b509392505050565b600082601f8301126126d6576126d56125ba565b5b81356126e684826020860161267f565b91505092915050565b60008060408385031215612706576127056121cd565b5b600083013567ffffffffffffffff811115612724576127236121d2565b5b612730858286016126c1565b92505060206127418582860161241a565b9150509250929050565b60008060408385031215612762576127616121cd565b5b6000612770858286016124e3565b92505060206127818582860161241a565b9150509250929050565b6000602082840312156127a1576127a06121cd565b5b600082013567ffffffffffffffff8111156127bf576127be6121d2565b5b6127cb848285016126c1565b91505092915050565b6000602082840312156127ea576127e96121cd565b5b60006127f88482850161241a565b91505092915050565b61280a81612344565b82525050565b60006020820190506128256000830184612801565b92915050565b6128348161225c565b811461283f57600080fd5b50565b6000813590506128518161282b565b92915050565b6000806040838503121561286e5761286d6121cd565b5b600061287c8582860161241a565b925050602061288d85828601612842565b9150509250929050565b600067ffffffffffffffff8211156128b2576128b16125c4565b5b6128bb826122d8565b9050602081019050919050565b60006128db6128d684612897565b612624565b9050828152602081018484840111156128f7576128f66125bf565b5b612902848285612670565b509392505050565b600082601f83011261291f5761291e6125ba565b5b813561292f8482602086016128c8565b91505092915050565b60008060008060808587031215612952576129516121cd565b5b60006129608782880161241a565b94505060206129718782880161241a565b935050604061298287828801612365565b925050606085013567ffffffffffffffff8111156129a3576129a26121d2565b5b6129af8782880161290a565b91505092959194509250565b600080604083850312156129d2576129d16121cd565b5b60006129e085828601612365565b92505060206129f185828601612365565b9150509250929050565b600080600060608486031215612a1457612a136121cd565b5b6000612a228682870161241a565b935050602084013567ffffffffffffffff811115612a4357612a426121d2565b5b612a4f868287016126c1565b925050604084013567ffffffffffffffff811115612a7057612a6f6121d2565b5b612a7c868287016126c1565b9150509250925092565b60008060408385031215612a9d57612a9c6121cd565b5b6000612aab85828601612365565b925050602083013567ffffffffffffffff811115612acc57612acb6121d2565b5b612ad8858286016126c1565b9150509250929050565b60008060408385031215612af957612af86121cd565b5b6000612b078582860161241a565b925050602083013567ffffffffffffffff811115612b2857612b276121d2565b5b612b34858286016126c1565b9150509250929050565b60008060408385031215612b5557612b546121cd565b5b6000612b638582860161241a565b9250506020612b748582860161241a565b9150509250929050565b7f4e487b7100000000000000000000000000000000000000000000000000000000600052602260045260246000fd5b60006002820490506001821680612bc557607f821691505b602082108103612bd857612bd7612b7e565b5b50919050565b6000606082019050612bf360008301866123d9565b612c006020830185612801565b612c0d60408301846123d9565b949350505050565b600081905092915050565b6000612c2b82612292565b612c358185612c15565b9350612c458185602086016122ae565b80840191505092915050565b6000612c5d8284612c20565b915081905092915050565b6000612c748285612c20565b9150612c808284612c20565b91508190509392505050565b7f4e487b7100000000000000000000000000000000000000000000000000000000600052601160045260246000fd5b6000612cc682612344565b91507fffffffffffffffffffffffffffffffffffffffffffffffffffffffffffffffff8203612cf857612cf7612c8c565b5b600182019050919050565b60008190508160005260206000209050919050565b60006020601f8301049050919050565b600082821b905092915050565b600060088302612d657fffffffffffffffffffffffffffffffffffffffffffffffffffffffffffffffff82612d28565b612d6f8683612d28565b95508019841693508086168417925050509392505050565b6000819050919050565b6000612dac612da7612da284612344565b612d87565b612344565b9050919050565b6000819050919050565b612dc683612d91565b612dda612dd282612db3565b848454612d35565b825550505050565b600090565b612def612de2565b612dfa818484612dbd565b505050565b5b81811015612e1e57612e13600082612de7565b600181019050612e00565b5050565b601f821115612e6357612e3481612d03565b612e3d84612d18565b81016020851015612e4c578190505b612e60612e5885612d18565b830182612dff565b50505b505050565b600082821c905092915050565b6000612e8660001984600802612e68565b1980831691505092915050565b6000612e9f8383612e75565b9150826002028217905092915050565b612eb882612292565b67ffffffffffffffff811115612ed157612ed06125c4565b5b612edb8254612bad565b612ee6828285612e22565b600060209050601f831160018114612f195760008415612f07578287015190505b612f118582612e93565b865550612f79565b601f198416612f2786612d03565b60005b82811015612f4f57848901518255600182019150602085019450602081019050612f2a565b86831015612f6c5784890151612f68601f891682612e75565b8355505b6001600288020188555050505b505050505050565b600081519050919050565b600082825260208201905092915050565b6000612fa882612f81565b612fb28185612f8c565b9350612fc28185602086016122ae565b612fcb816122d8565b840191505092915050565b6000608082019050612feb60008301876123d9565b612ff860208301866123d9565b6130056040830185612801565b81810360608301526130178184612f9d565b905095945050505050565b60008151905061303181612203565b92915050565b60006020828403121561304d5761304c6121cd565b5b600061305b84828501613022565b91505092915050565b7f4e487b7100000000000000000000000000000000000000000000000000000000600052601260045260246000fd5b60006040820190506130a860008301856123d9565b6130b56020830184612801565b9392505050565b60006040820190506130d160008301856123d9565b6130de6020830184612525565b939250505056fea264697066735822122001ae25b58783f68e8c20dac5ad8ad08d93ebe3ec6b640697f73e3ff5c743014964736f6c634300081c0033",
  "linkReferences": {},
  "deployedLinkReferences": {}
}